:10400000007F00201D210100C51F010019210100B2
:1040100019210100192101001921010019210100B4
:104020000000000000000000000000001921010055
:1040300019210100000000001921010019210100CF
:104040000000000000000000000000000000000070
:104050000000000000000000000000000000000060
:104060000000000000000000000000000000000050
:104070000000000000000000000000000000000040
:104080000000000000000000000000000000000030
:104090000000000000000000000000000000000020
:1040A0000000000000000000000000000000000010
:1040B0000000000000000000000000000000000000
:1040C00010B5054C237833B9044B13B10448AFF352
:1040D00000800123237010BD780200200000000042
:1040E00070EC010008B5034B1BB103490348AFF363
:1040F000008008BD000000007C02002070EC010080
:104100000020704710B500231A4601395C1CDBB251
:104110008B4204DAC35C1A4492B22346F6E7D0B26B
:1041200010BDFFFF10B5074B196800220C4611F9AE
:10413000010B202804D0092802D002B11C6010BD58
:104140000122F3E7C406002010B50446FFF7EAFF9A
:10415000044A136893F90010A14204BF01331360AD
:1041600010BD00BFC406002070B50025ECB2A1420E
:104170000CD90446264614F9010BB8B12C2821D0DD
:104180000A2801D00D28F5D100200FE0013B0138AD
:10419000114642F20146DBB210F9015FECB20D2C80
:1041A00005D92C2D07D100230B70012070BD26FAF4
:1041B00004F4E407F7D48C1AE4B2A342F3D901F86B
:1041C000015BE9E7701C0135D0E7FFFF2DE9F843FB
:1041D000DFF83C900C4F064600254FF0BC0899F8DC
:1041E0000030ECB2A3420CD908FB047431462046DF
:1041F00015F04FFB01350028F1D194ED2D0ABDE8F3
:10420000F8839FED020AFAE7B80F002000000000D3
:10421000760A0020F0B52DED028B87B0FFF782FF04
:104220008A4A106890F900302D2B14460BD10130CA
:104230001060FFF7EFFFB1EE408AB0EE480A07B01A
:10424000BDEC028BF0BD212B0CD101301060FFF7CB
:10425000E1FFB5EE400AF1EE10FA00F0F3809FEDB9
:104260007C8AEAE7282B09D10130106000F070F950
:104270002920B0EE408AFFF767FFDEE75B2B35D1E0
:104280000130002310601F46844610F9015BE9B23B
:1042900021F02006413E192EDAB217D9303909290A
:1042A00014D95F2D12D00FB1C4F800C006AB1A4468
:1042B000002302F8183C2268104612F9011B79B15C
:1042C0005D294FF00103F7D122600BE00DF8035098
:1042D0000133172B4FF00107D6D120601A46E5E7CE
:1042E00003B120606846FFF771FF86E0782B05D1A7
:1042F0000130584B106093ED008A9EE7D9B2A1F1CE
:104300003005092D01D92E2B07D1694616F054F935
:10431000009B2360B0EE408A8FE721F020014139F5
:10432000192904D9002B9AD00130106097E7002397
:104330001F46844610F9011BCAB222F02005413DF8
:10434000192DDEB228D9303A092A25D95F2923D080
:104350000FB1C4F800C006AB3344002503F8185C65
:10436000FFF7E0FE236893F90020282A54D1013397
:1043700039492360684615F08CFA0646B0B12168C9
:104380002B4601220D4611F9010B002838D1002BD4
:104390003FF465AF256062E70DF803100133172B7A
:1043A0004FF00107C5D120601E46D4E700F0D0F8D9
:1043B0002A4C2C20F0EE408AFFF7C6FE25782670A6
:1043C00000F0C6F82C20B0EE408A2778FFF7BCFE3C
:1043D000267000F0BDF829202678FFF7B5FEF5EE2F
:1043E000408AF1EE10FA04D0002D18BF2F46277036
:1043F00023E7002D18BF2E462670B0EE408A1CE73A
:10440000002AC4D0282802D101320123BAE7292882
:1044100008BF02F1FF32F8E7012E7FF463AF9DF988
:104420000030412B01D10E4B65E7422B01D10D4BE2
:1044300061E7432B01D10C4B5DE7442B7FF452AF76
:104440000A4B58E7B7EE008AF7E600BFC406002023
:1044500000000000C8060020E5DD0100CC060020B9
:10446000B4060020B8060020BC060020C0060020CC
:1044700070B52DED028BFFF7CDFE1F4C1F4DB0EE3A
:10448000408A0126FFF74EFE236893F900202A2A6E
:1044900006D101332360FFF7BDFE28EE008AF1E765
:1044A0002F2A0FD101332360FFF7B4FEB5EE400A87
:1044B000F1EE10FA03D12E709FED118AE2E788EE3B
:1044C000008ADFE7252A11D101332360FFF7A2FE1E
:1044D000B5EE400AF1EE10FAF0EE400AEBD0B0EE85
:1044E000480A14F045FAB0EE408ACBE7B0EE480A2D
:1044F000BDEC028B70BD00BFC4060020CC060020BE
:104500000000000010B52DED028BFFF7B1FF0F4C3E
:10451000B0EE408AFFF706FE236893F900202B2AAD
:1045200006D101332360FFF7A3FF38EE008AF1E7DD
:104530002D2A06D101332360FFF79AFF38EE408A17
:10454000E8E7B0EE480ABDEC028B10BDC4060020BF
:1045500010B52DED028BFFF7D5FF334CDFED338A1D
:10456000B0EE408AFFF7DEFD236893F900203E2A73
:104570000FD193F901203D2A3DD102332360FFF78B
:10458000C1FFB4EEC80AF1EE10FA11D9B0EE688A94
:10459000E8E73C2A0FD193F901203D2A35D10233B7
:1045A0002360FFF7AFFFB4EEC80AF1EE10FAEDDBBF
:1045B000B7EE008AD6E73D2A0DD193F901203D2AB6
:1045C0002DD102332360FFF79DFFB4EE480AF1EED0
:1045D00010FAEDD0DAE7212A21D193F901203D2A02
:1045E0001DD102332360FFF78DFFB4EE480AF1EED0
:1045F00010FADDD1CAE701332360FFF783FFB4EE81
:10460000C80AF1EE10FAD3D4C0E701332360FFF7F4
:1046100079FFB4EEC80AF1EE10FAC9DCB6E7B0EEE5
:10462000480ABDEC028B10BDC4060020000000004B
:10463000F8B50F4615461C4615F092F9064608B91E
:104640000020F8BD384615F048F9321830562228B7
:1046500001D02728F4D1013C2B46E4B212F9011F06
:1046600041B1884206D05E1BF6B2B44202D903F8CB
:10467000011BF3E700221A700120E2E708B50246A9
:10468000104612F9013B3BB1303BDBB2092BF7D8A6
:1046900014F06DFA80B200E0184608BD2DE9F04F25
:1046A000F9B081469DF80C62869C879D082E8A464B
:1046B000934609AF14D15A4A0C21384615F07CF8BC
:1046C00000230DF150081BF90320D9B29AB12F2B0A
:1046D00010D02C2A08BF3B2208F803200133F2E750
:1046E000092E01D14F4AE7E74F4A0C21384615F011
:1046F00063F8E5E71946002308F801300CA8EA56EC
:10470000D9B242B11F2B05D02C2A08BF3B22C2547C
:104710000133F4E71946002343549B4694F90010F3
:104720005FFA8BF220AD59B3BBF15F0F27D00422A3
:104730003E49204615F0EDF830B93E2205F80B2031
:1047400004340BF1010BE9E704223949204615F046
:10475000E0F808B93C22F1E705223649204615F079
:10476000D8F820B9262205F80B200534E9E714F91A
:10477000012B2C2A08BF7C2205F80B20E1E75A46C2
:104780000023013EAB54092E06D8DFE806F0472E81
:10479000303234363E383A3C274B9DF81002274AD7
:1047A00027499DF930400393002808BF114625484A
:1047B0009DF80832CDF800800CAA002C08BF0246F4
:1047C0008898CDE90415CDE90620CDE901731E4A8C
:1047D00053464FF4807138A814F0EEFF38A94846CC
:1047E0000FF0F3FB79B0BDE8F08F184BD5E7184B0D
:1047F000D3E7184BD1E7184BCFE7184BCDE7184B51
:10480000CBE7184BC9E7184BC7E79DF81432174A96
:104810001748082114F0D0FF154BBEE7154BBCE735
:10482000AFD20100BAD20100C3D20100CBD2010045
:10483000D0D20100D5D2010070D20100A4D2010073
:10484000A8D2010067EC0100E1D2010077D201009B
:104850007BD201007ED2010082D2010086D201000B
:104860008CD2010097D20100A0D20100DBD201005E
:10487000CD06002073D201002DE9F04FB5B014AE83
:1048800099469DF8043109930D469DF808310A9325
:10489000002182469346304620229DF8FC409DF838
:1048A0000C8114F028FA102200210CA814F023FA2D
:1048B0001CAF1022002110A814F01DFA6022002164
:1048C000384614F018FA2023324669492846FFF783
:1048D000AFFE10230CAA67492846FFF7A9FE102354
:1048E00010AA65492846FFF7A3FE18B9634910A826
:1048F00014F0D9FF60233A4661492846FFF798FE35
:104900003B46194613F9012B202AFAD0092AF8D080
:104910001CADA94208D008460B9114F0DEFF0B999C
:10492000421C284614F0CEF9284614F0D6FF002287
:104930002844B84208D010F9013C202B01D0092BA3
:1049400002D100F8012DF4E74E490CA814F0A1FFA4
:10495000002878D04C490CA814F09BFF002874D094
:104960004A490CA814F095FF002870D048490CA8BB
:1049700014F08FFF00286CD046490CA814F089FF72
:10498000002850D10027B8F1000F66D1099B002BF9
:1049900065D1062F65D09DF97030782B61D19DF9D6
:1049A0007130002B5DD103223B49304614F0B1FF3A
:1049B000002814BF3B460A233849099310A814F075
:1049C00068FFB0FA80F04009099BB8F1000F4AD1A6
:1049D0000A9A52B9012202FA07F717F0120F44D1CE
:1049E00017F0640F14BF04241446449F2C4A99F90D
:1049F00000100495B8F1000F08BF17469DF800217C
:104A00004497CDE90202274ACDE90043002918BFA7
:104A10004A46CDE905673E9B59465046FFF73EFEA4
:104A200035B0BDE8F08F20490CA814F032FF40B13A
:104A30001E490CA814F02DFF68B1012CA2D0022C45
:104A400009D101279FE706279DE703279BE7042756
:104A500099E7052797E7022795E70823ACE707239F
:104A6000AAE73B46A8E70024BFE70224BDE700BF52
:104A7000ABDD0100B2DD0100BFDD0100A4D2010009
:104A8000C7DD010086D20100CEDD0100D4DD0100CA
:104A9000DBDD0100CDDD0100E1DD0100A8D2010078
:104AA00029D00100A3DD0100D3DD0100DADD010022
:104AB00038B500230D460B702B49044614F0E9FE6F
:104AC00050B32A49204614F0E4FE00283BD0284980
:104AD000204614F0DEFE002837D02649204614F088
:104AE000D8FEA0B32449204614F0D3FE88B323494E
:104AF000204614F0CEFE70B32149204614F0C9FEC2
:104B000058B32049204614F0C4FE40B31E49204645
:104B100014F0BFFE08B9092038BD1C49204614F026
:104B2000B8FEF0B103221A49204614F0F2FE002824
:104B3000F1D1E378303B092BEDD8E01C14F017F8E5
:104B400028700720E8E70120E6E70220E4E70320D9
:104B5000E2E70420E0E70520DEE70620DCE70820A6
:104B6000DAE70A20D8E700BF70D2010073D2010053
:104B700077D201007BD201007ED2010082D20100F7
:104B800086D201008CD2010097D20100A0D2010090
:104B9000F1DD010010B50C463E2114F06DFE08B9A0
:104BA000207010BD002310F9012FD9B23AB13C2A70
:104BB00005D00B2B02D0E2540133F4E71946002351
:104BC0006354EEE709490022C0E900210121417246
:104BD0004FF4285102728272C260027442744182A0
:104BE000027542758275C275704700BF00093D00AD
:104BF00000B50A46D0F880148FB051B10023684642
:104C0000ADF800308DF8023005F05FF80FB05DF8B8
:104C100004FBD0F884040028F8D08DF831108DF80A
:104C200032108DF833100B460146684603F022FE21
:104C3000ECE700B50A46D0F880148FB079B10023B4
:104C4000ADF800308DF802306846012305F03DF8DC
:104C500010B1684605F0CCFD0FB05DF804FBD0F84C
:104C600084040028F8D08DF831108DF832108DF8BA
:104C7000331001230146684603F0FCFD08B900200B
:104C8000EAE7684603F08CFE0028F8D0E4E710B4A9
:104C9000846B24B120465DF8044B04F027BEC06B42
:104CA00018B15DF8044B03F027BB4FF0FF305DF8FF
:104CB000044B704710B4034600240C70986B18B175
:104CC0005DF8044B05F099BED86B18B15DF8044B44
:104CD00004F066BA5DF8044B7047FFFF1346074ABD
:104CE00010B40C46116821B122465DF8044B06F061
:104CF00019B808465DF8044B704700BF48290020EA
:104D00002DE9F04FADF53B7D002281460F46564B15
:104D1000564929922AA8CDE938222893FFF7DEFFC9
:104D2000002800F09180052400234FF480723AA9F6
:104D30002AA8013CFFF7ABFF14F0FF04F4D11822BE
:104D4000214608A813F0D7FF00234FF480723AA938
:104D50002AA8FFF79CFF002873DD0EAC182322461B
:104D600000213AA8FFF700FA06460028ECD094F993
:104D70000030002BE8D008A9204614F08AFD002856
:104D8000E2D01722214608A814F0D5FD10230421F3
:104D900000250DEB03023AA88DF83750FFF7E4F930
:104DA000334904A814F075FD0028CDD00DF170082A
:104DB0003023424601213AA80DF1500AFFF7D4F9F9
:104DC0002023524607213AA8FFF7CEF994F900B004
:104DD000284B214653F8250014F05BFD002837D0FE
:104DE00001350C2DF4D1692F1AD00026702F19D15E
:104DF000BBF1530FA8D0204B204A002E14BF1E46F3
:104E00001646CDE901A8009623461D4A4FF480714D
:104E10007AA814F0D1FC7AA948460FF0D6F893E7A7
:104E2000202318E0732F8FD1BBF1530F8CD1134B7C
:104E3000144A002E08BF1A46CDE900282346124A1C
:104E40000CE02AA805F05DFF0DF53B7DBDE8F08F75
:104E5000692FCBD12A23CDE900480C4A4FF4807149
:104E60007AA814F0A9FCD6E794CE010017DD010062
:104E70008CD2010020D20100EDDC010029D001001C
:104E80003FDD010002DD010078DD01002FDD0100C2
:104E90000346806B08B104F07DBED86B08B103F007
:104EA00037BE704708B50830FFF7F2FF08BD03466C
:104EB000806B08B105F0B2B8D86B08B104F028B81F
:104EC000704708B50830FFF7F2FF08BD07B502AB21
:104ED000012203F8011D08301946FFF7E8FF03B06F
:104EE0005DF804FB054B1B78834281BF044B185CC3
:104EF000084100F0010098BF002070470108002021
:104F000002080020094B0A4A18600A4B83ED000A88
:104F100000231360084A1360084A1360084A1360AC
:104F2000084B00221A70FFF713BB00BFC406002015
:104F3000C0060020C8060020BC060020B8060020DD
:104F4000B4060020CC06002038B50B4B0B4A186085
:104F5000002313600A4A0B4C13600B4A13600B4A80
:104F600013600B4A0D46136000232370FFF7F0FA1D
:104F700023782B7038BD00BFC4060020C80600206F
:104F8000C0060020CC060020BC060020B806002089
:104F9000B40600202DE9F041B0B000222A4B2B4985
:104FA0000D920EA8CDE91C220C931F92CDE92E2262
:104FB0001E93FFF793FE0446C8B1254E254FDFF838
:104FC000988000220EA920A805F0E7FE044658B1FB
:104FD0002E9B83B11B7813F0D00F13D0002420A890
:104FE00005F08FFE002CECD00EA805F08AFE2046BE
:104FF00030B0BDE8F0812F9B23B193F8313013F02E
:10500000500FEAE73022694620A8FFF753FE6846B2
:1050100014F063FCC5B20B2DE0D907223146684677
:1050200014F077FC0028D9D1281F3946684414F0C1
:1050300030FC05460028D1D127226946064814F0E5
:105040007AFC88F82750CAE794CE010031D00100DD
:1050500039D00100E3D40100D90700202DE9F04F39
:105060000025E3B0704B119501462A4612A8CDE900
:1050700020551093FFF732FE0746002800F0D0803D
:105080006A4B6B4CDFF8CCB125701D709846DFF889
:10509000C89100234FF4807222A912A8FFF7F7FDF0
:1050A000002840F3B68022AEB24696F90030002BBD
:1050B00000F09C80002D00F083805946304614F0AB
:1050C0004FFC002879D18AF80000494622A814F044
:1050D00047FCA0B1574922A814F042FC78B1102334
:1050E00008AA544922A8FFF7A3FA40B1524908A8D8
:1050F00014F0CFFB00287DD1012388F800304F4900
:1051000022A814F02DFC0028C3D023781F2BBED872
:10511000182302AA4A4922A8FFF78AFA0028B6D023
:10512000DFF838912078BC26172202A900FB0690F0
:1051300014F001FC2378434906FB03934FF0000A67
:1051400083F817A020230DEB030222A8FFF770FAC3
:105150004E4694F800C03C4B002855D01F2203EB6C
:105160004C1008A9019314F0E6FB2278019B03EB95
:10517000421383F81FA02378BC225A4302F148014E
:10518000002006EB010C164449F8010078224FF488
:105190001061CCF8041086F85020FF2286F8B02069
:1051A0000133002286F85100C6F8B42086F8B80012
:1051B00086F8B9003076237069E7C61C002574E7CD
:1051C0002249304614F0CCFB30B9013E16F9013FBC
:1051D00063B10AF8013BF9E7B04204D916F9013B83
:1051E0000AF8013BF8E7061D3D465EE700238AF812
:1051F00000306AE7164908A814F04BFB00287FF43A
:105200007EAF88F800007AE74FEA4C1C03F80C00E8
:10521000B1E712A805F075FD2778003718BF012700
:10522000384663B0BDE8F08F94CE0100780A0020C4
:10523000760A002053D001005DD0010003DD01009B
:1052400065D00100ABDD01009402002045D00100D3
:1052500061D0010041D001004AD00100B80F002008
:1052600030B50025ABB0644B644905952A4606A8C5
:10527000CDE914550493FFF731FD044658B12B4690
:10528000502216A906A8FFF702FDA84205DC06A8D1
:1052900005F037FD00202BB030BD594916A814F099
:1052A0000AFB2AAB1844062200F8505C554916A8A0
:1052B00014F02FFB0028EAD153490DF15E0014F0E1
:1052C000E8FA28B19DF95E00A0F131035C425C412F
:1052D0004E4B50221C7016A9002306A8FFF7D7FCDE
:1052E0000028D4DD464916A814F0E5FA2AAB184484
:1052F000002300F8503C0422454916A814F009FB8D
:1053000004460028C3D10A2217A901A814F013FBF0
:1053100040498DF80E4001A814F0BBFA044620B1B4
:1053200006A805F0EEFC0120B5E70346502216A9B9
:1053300006A8FFF7ACFC0028A9DD314916A814F037
:10534000BAFA2AAB1844052200F8504C324916A884
:1053500014F0DFFA00289AD130490DF15D0014F005
:1053600098FA044620B106A805F0CBFC022092E78B
:105370000346502216A906A8FFF789FC002886DDFF
:105380001F4916A814F097FA2AAB1844092200F80E
:10539000504C234916A814F0BCFA00287FF477AFCC
:1053A0000DF1610013F0E3FB002822DD5428A8BFB3
:1053B00054201C4B5022187016A9002306A8FFF792
:1053C00066FC00287FF763AF0D4916A814F073FA46
:1053D0002AAB1844002300F8503C134916A814F0D7
:1053E00058FA00287FF453AF06A805F08AFC032082
:1053F00051E72020DDE700BF94CE010017DD01005A
:1054000072D1010075D101007CD101003A27002042
:1054100081D10100FC0A002086D10100D9070020BB
:105420008CD101000000002096D1010070B500244D
:105430009CB01B4E1B4B1C49347022460CA80B948D
:10544000CDE91A440A93FFF749FC054628B32346E1
:10545000282269460CA8FFF71AFCA0421ADD13495E
:10546000684614F028FA1CAB1844062200F8704C69
:105470000F49684614F04DFA60B90E490DF1060067
:1054800014F007FA28B19DF90650A5F131035D42E9
:105490005D4135700CA805F034FC1CB070BD00BF38
:1054A0003A27002094CE010017DD010072D10100DF
:1054B00075D101007CD1010030B5144B1B78BDB013
:1054C00005460BB300233CAC0393CDE9123340F205
:1054D00009220F4B0F4944F8E83D04A8FFF7FEFBF3
:1054E00090B10EF0FBFE0C4A00950346A02114A8D3
:1054F00014F062F914A920460EF067FD04A8FFF726
:10550000C7FC04A805F0FDFB3DB030BD3A270020E4
:1055100094CE0100F5D101000CD2010030B5164B3C
:105520001B78C7B005460C4623B300230393CDE98F
:10553000123340F20922114B1149029304A8FFF7DC
:10554000CDFBB8B10EF0CAFE0E4B0F4A002C08BFBF
:105550001C46C8210346CDE9005414A814F02CF9C8
:1055600014A902A80EF031FD04A8FFF791FC04A8CD
:1055700005F0C7FB47B030BD3A27002094CE0100AC
:10558000F5D1010029D0010014D2010010B52F4936
:105590002F48A0B0FFF72CFB002837D000222D4B5E
:1055A0002A490F9210A8CDE91E220E93FFF796FB11
:1055B00060B31E9B63B3DC6910A805F0A2FBB4F5D1
:1055C000006F23D9224C24492046FFF732FBD4F840
:1055D000803413B3002203F24444ADF800208DF868
:1055E000022013462146194A684604F01FFB28B1E1
:1055F000194A2146684604F041FC18B91349144879
:10560000FFF717FB154916480EF0EEFC20B010BD51
:105610001F9C002CD0D02469CEE7D4F88444002C01
:10562000ECD004F58964094A8DF83130214668468A
:105630008DF832308DF8333003F0BEF80028DDD01D
:10564000054A2146684603F0A5FBD6E722D10100B2
:10565000100B002094CE010035D101004AD1010089
:10566000CC41002070B50F4C0F4E451E15F9011F9F
:10567000B1B12288531C9BB2B3F5007F2380B15493
:10568000F4D34FF4007231460848FFF710FCB0F530
:10569000007F1EBF064B01221A7000232380E5E71E
:1056A00070BD00BF3C2900203B270020040A0020D9
:1056B000B40F002010B5084C22885AB10749084899
:1056C000FFF7F5FB238898421EBF064B01221A7094
:1056D0000023238010BD00BF3C2900203B27002071
:1056E000040A0020B40F00201FB50A4B1B780446A3
:1056F0005BB9CDE90133009301231A464FF4FA61F7
:1057000006F058FC204604B010BD034906F0DEFB4D
:10571000F8E700BF0C0B0020080B0020F0B5C5B067
:10572000002305460C460B93CDE91A3340F20922BB
:10573000254B26490A930CA8FFF7D0FA002841D040
:1057400008A8FFF7D1FF224A9DF825C09DF8220046
:105750009DF820309DF823609DF824709DF821105D
:105760000091002C18BF2246CDE9037C03F5FA63B3
:10577000CDE90552CDE90106164AA0211CA814F076
:105780001BF81CA90AA80EF020FC0CA8FFF780FB50
:105790000CA805F0B6FA104910480EF016FC294680
:1057A0000E480EF012FC54B194F900303BB12021A8
:1057B0000A480EF00EFC214608480EF006FC074889
:1057C0000EF00CFC45B0F0BD94CE010022D10100DA
:1057D00029D00100F3D0010018D10100CC410020F4
:1057E0002DE9F04F9A4DADF50F7D4FF0000A994B22
:1057F0001B785FFA8AF6B34240F220810022964B72
:105800009649259226A8CDE934222493FFF766FA1B
:105810008046002800F0178105274EAC00234FF486
:105820008072214626A8FFF732FA002840F308814B
:10583000013F17F0FF07F1D1BC27774307EB0509BC
:10584000484614F04AF8864A7301D118D35602919B
:105850008346019305E0029910A814F01AF8002875
:1058600044D000234FF48072214626A8FFF70FFA98
:10587000002840F3E0805FFA8BF31A464946204641
:10588000039314F046F80028EBD1039BE3562C2B2E
:10589000E7D1302318AA01212046FEF765FC0C232E
:1058A00009AA02212046FEF75FFC042306AA032171
:1058B0002046FEF759FC10230CAA04212046FEF7CF
:1058C00053FC082307AA05212046FEF74DFC602360
:1058D00036AA06212046FEF747FC202310AA0721FE
:1058E0002046FEF741FC019B002BB4D107F11800C4
:1058F0004FF0BC0B0BFB065B2F2218A9284414F0B9
:105900001AF800238BF847300DF117010CA88DF819
:1059100017300193FFF7CCF89DF817208BF84D0056
:105920008BF84F204F4907A813F0B3FF07F150043D
:10593000B0FA80F040092C448BF84E005F222046DC
:1059400036A913F0F8FF019B8BF8AF30013C2C23F4
:1059500014F901BFBBF1000F04D0BBF17C0FF7D1EC
:105960002370F5E7404909A813F093FF00285AD0A7
:105970003E4909A813F08DFF002854D01022594643
:1059800009A814F09DFFBC2404FB0654A06406A8DB
:1059900013F0EDF884F84C00BC2303FB0653FF2200
:1059A00083F8B0200022C3F8B420002283F8B82086
:1059B00083F8B92026A805F0A4F9B8F1000F2FD17B
:1059C000BC235E4306F148035A1943F805802E4470
:1059D0004FF410635360782386F85030FF2386F825
:1059E000B0300023C6F8B43096F9183086F85180EC
:1059F00086F8B88086F8B98043B907F118002F22DD
:105A00001B49284413F097FF86F8478044214B46F2
:105A1000184A36A813F0D0FE36A91348FFF77EFEC9
:105A20000AF1010AE3E6BC2303FB065300229A6451
:105A300083F84C20B0E74FF00008BBE7012003E0FB
:105A400026A805F05EF900200DF50F7DBDE8F08F6A
:105A5000B80F0020760A002094CE010017DD010067
:105A600094020020A8D20100BAD20100AFD20100F6
:105A7000A3DD0100CCD101002DE9F04FA14BADF524
:105A80003B7D1B780793002303939DF80C30079A06
:105A90009A420BD89B4A04921078002332A9DAB2BA
:105AA000904240F285815A540133F8E7039BBC25AC
:105AB0006B43954D5A1992F84D20082A02D0039B4A
:105AC0000133E1E7503500241D44A0464FF018098A
:105AD00095F90070002F4BD0072C48D85B2F04BFDE
:105AE000013501202B78A3F1410318BF0020192BA9
:105AF00039D82A4600237AAE154612F901CB5FFA4F
:105B00008CF121F0200EAEF1410EBEF1190FDFB283
:105B100005D93039092902D9BCF15F0F06D106F841
:105B200003C00133172B1546E6D11F4606F8078040
:105B300038B12B461D4613F9012B12B15D2A1D46C3
:105B4000F8D14FF0000A5FFA8AF39C4240F280825B
:105B50004AAB09FB0A30314613F09BFE0AF1010AF9
:105B60000028F0D1B4E70028B2D10135B0E7002712
:105B7000DFF894A1FBB29C42A1D94FF018084AABC0
:105B800008FB073800255F4B1B78EAB293420AD91D
:105B9000BC20414600FB02A013F07BFE013500282B
:105BA000F1D10137E6E71F2B08D9584958480EF0C4
:105BB0000CFA414656480EF017FAF2E70022554B10
:105BC0005549219222A8CDE930222093FFF786F88B
:105BD00004900028E5D005257AAE00234FF48072AA
:105BE000314622A8FFF753F8002803DC22A805F06D
:105BF00088F8D6E7013D15F0FF05EED100234FF4FC
:105C00008072314622A8FFF742F8002840F3CD8089
:105C1000404613F062FEC5B22A464146304613F0B4
:105C200078FE83460028E9D1735706932C2BE5D1E3
:105C3000344B1D784FF0BC0915FB09F309FB05A98E
:105C4000172241460AEB0300059313F074FE30233C
:105C500014AA0121304689F817B0FEF785FA0C2303
:105C60000DAA02213046FEF77FFA04230AAA032177
:105C70003046FEF779FA102310AA04213046FEF7C9
:105C800073FA08230BAA05213046FEF76DFA60234C
:105C900032AA06213046FEF767FA059B03F1180089
:105CA0002F2214A9504413F046FE0DF1270189F864
:105CB00047B010A88DF827B0FEF7FAFE9DF8273000
:105CC00089F84D0089F84F3014490BA813F0E1FD15
:105CD000059BB0FA80F0400989F84E0003F15000AE
:105CE00000EB0A065F2232A9304613F024FE069B21
:105CF00089F8AFB0701E10F9016F8EB17C2EFAD109
:105D00000370F8E7760A0020B80F00206BD001007E
:105D1000CC41002094CE010017DD0100A8D2010083
:105D2000B7490DA813F0B5FD002836D0B5490DA828
:105D300013F0AFFD88B3314610220DA814F0C0FD5A
:105D4000BC2606FB05A6B0640AA812F010FF86F870
:105D50004C00BC2303FB05A5FF2385F8B0300023CE
:105D6000A94AC5F8B430002385F8B830012385F876
:105D7000B9301378A549A648013313700EF025F900
:105D80004146A3480EF030F922A804F0BAFF049B64
:105D9000002B7FF406AF9F4908E7BC2303FB05A354
:105DA00000229A6483F84C20D3E700230493EBE7A6
:105DB000DFF87092002432AE049A671C1278FBB2AE
:105DC0009A4225D916F803804FF0BC0A08FB0A90C6
:105DD000FEF754FC64B2651C834635445346002CE0
:105DE000A5EB060210DB15F801AD05920AFB039046
:105DF0000393FEF743FC5845059A05D9013C85F805
:105E000001A064B2039BEAE706F802803C46D3E7B0
:105E1000814B06931A78002A37D1804B93F8008083
:105E20007F4B05934AAE00241C70347025460394C2
:105E3000049B1A78E3B29A4274D932AABC2112F8B0
:105E40000390784B01FB093C9CF84D30083B012B3B
:105E50001ED9059B74481B7807910022E3465FFA20
:105E600082FA53451CD950F832100F46DBF848101F
:105E70008F424FEAC20E06D186449EF804109BF86A
:105E80004CE0714509D00132E9E74FF03008C7E72F
:105E9000FF238CF8B0300134CAE78CF8B0A0FAE7E1
:105EA0002F2B0AD8079A11465E4A01FB0922039953
:105EB00092F84CC06144414520DD5A4B4FF0BC0A7A
:105EC0000AFB0933FF2283F8B02093F8B930002B86
:105ED000E1D1304613F001FD524B544A09FB0A331D
:105EE0000093534BC0F14001002808BF1346013511
:105EF000504A3044EDB213F05FFCCCE74A48976C4F
:105F000040F8337082F8B03000EBC300059A80F897
:105F100004C001334FF0000C13708BB280F805C041
:105F20000393B8E75DB16021CDE900564346424A8C
:105F30007AA813F041FC7AA94048FFF7EFFB069BD3
:105F40001B78002B58D1364A3D4910781C460A462A
:105F5000E5B2A84202F1080207D912F8085C02F87B
:105F6000073C2B44DBB20134F2E7364A1370364A61
:105F700003EB4303802402331470D3701024A8234E
:105F800054701371F0240123947053710027062577
:105F90001446FBB2834226D20B782A464FF0000CFF
:105FA0005FFA8CF602F101089E425FFA88F813D27C
:105FB00051F8046C0CEB060E4FEA1E46A654961CD4
:105FC000F6B24FEA1E29033204F80890D2B204F860
:105FD00006E00CF1010CE3E703EB43032B44DDB2D5
:105FE00001370831D5E76E1CF6B231461648FEF788
:105FF00089F8164B60551E700DF53B7DBDE8F08F9E
:10600000BAD20100AFD20100760A00208CD0010084
:10601000CC410020A0D00100780A00200000002020
:10602000750A0020B80F00207408002029D0010054
:1060300069D00100CBD00100D0D00100E7D0010031
:1060400078080020740A0020D5060020D807002018
:10605000012F7FF63DAD04EB44074AAB03EBC707C6
:10606000172231463846013413F065FCE4B287F854
:1060700017802DE508B505460C46FFF74FFB134981
:1060800013480DF0A2FF294611480DF09EFF94F928
:106090000030B3B120210E480DF09BFF21460C4883
:1060A0000DF0A2FF01210D200EF054F8FA200EF0A1
:1060B000D1F800210D200EF04DF8FA200EF0CAF8AC
:1060C000F0E703480DF08AFFECE700BFE8DD0100D0
:1060D000CC41002008B5FFF7EDFA0B4B186C68B106
:1060E00003F067FF0948FEF7D3FE084804F009FEF5
:1060F00007490848BDE80840FFF710BB586C002866
:10610000F0D002F09AFEEDE7FC090020040A00201E
:10611000440A002050D2010037B5054668460C46B7
:10612000FFF7E2FA9DF800009DF801309DF802208B
:1061300014307F281ED80C2B1CD81F2A1AD842EAEC
:10614000431343EA40239BB29DF803002B8017289A
:106150009DF804209DF805100ED83B2A0CD83B2949
:106160000AD8530143EAC02343EA51039BB2238078
:1061700003B030BD0023E7E70023F8E770B5B2B005
:10618000002332AC0993CDE918330E463A4B44F85C
:10619000A83D014640F201620AA8FEF79FFD0546B0
:1061A000002866D006A8FFF79FFA344920460DF074
:1061B0000CFF334920460DF008FF324920460DF010
:1061C00004FF314B31492046002E08BF19460DF01F
:1061D000FCFE2F4920460DF0F8FE2E4B2E4920469E
:1061E000002E08BF19460DF0F0FE9DF81D300593F6
:1061F0009DF81C3004939DF81B3003939DF81A30D2
:1062000002939DF8193001939DF81830234A03F545
:10621000FA6300936021224B1AA813F0CDFA1AA951
:1062200020460DF0D2FE1F4920460DF0CEFE69211A
:106230002046FEF765FD1C4920460DF0C6FE1B49B1
:1062400020460DF0C2FE70212046FEF759FD184988
:1062500020460DF0BAFE73212046FEF751FD154988
:1062600020460DF0B2FE0AA8FEF712FE0AA804F0BE
:1062700048FD284632B070BD94CE0100D2D701004F
:10628000FFD7010028D8010076D6010045D60100CD
:1062900071D8010052D701009FD60100B6D8010085
:1062A000FC0A0020F7D801003CDC010084DC01007E
:1062B000AFDC0100D1DC01007047FFFF38B50846B4
:1062C0001546084908221C4612F0F1FC1022064926
:1062D000284612F0ECFC204604220449BDE8384070
:1062E00012F0E5BCF0E30100F9E301000AE401006B
:1062F000054B187838B1054B186820B1044B186865
:10630000003018BF012070476C0A0020680A002086
:10631000700A0020034B1B680B604FF4007313805E
:10632000704700BF700A0020012070471A460B4BCF
:106330001B7810B5029C13B94FF0FF3010BD084B0D
:1063400018680028F8D0630AF6D005F054F8002841
:10635000F2D024F4FF7020F00100EFE76C0A002077
:10636000680A00201A460B4B1B7810B5029C13B923
:106370004FF0FF3010BD084B18680028F8D0630AB2
:10638000F6D005F07BF80028F2D024F4FF7020F05E
:106390000100EFE76C0A0020680A00204FF0FF3090
:1063A000704770B58CB000248DF80C1004928DF8F5
:1063B0000D40059403AB054693E8070009AB83E85D
:1063C000070006AE86E8070005F28C460ECB304685
:1063D00004F0D6FE95F89F34C5F888648BB9009315
:1063E00001231A463146284604F008FD38B90090CA
:1063F00003460122D5F88814284604F0FFFC0CB0AF
:1064000070BD2046FBE7FFFF0B4810B50024C0F825
:106410008044C0F88444C0F8884400F28C40FEF701
:10642000D1FB064B064A5C60C3E9104405481A607C
:10643000FEF7C8FB10BD00BF100B0020FC090020B8
:1064400094CE01009C06002038B504460DF046FFAE
:10645000054608480CF0B7FF38B90DF03FFF401B68
:10646000A042F6D34FF0FF3038BD0248BDE83840B7
:106470000DF00AB82C34002038B505460024AC4293
:1064800004D03220FFF7E0FF0134F8E738BDFFFF0A
:106490002DE9F04F9A499B48ADF5517DFEF7A8FBD9
:1064A00018B197499748FEF7C4FB0023964F9449CB
:1064B000559340F2016256A8649365935497FEF792
:1064C0000DFC0A9040B991499148FFF727F90A98C5
:1064D0000DF5517DBDE8F08F8E4B1E78002E40F0FB
:1064E000A080DFF86CA2B046B1468B4B18F80300D1
:1064F00090AD4FF4845300EB400B2B805FFA8BFB85
:10650000F023AB700BF10203EB70A823AB800024E7
:106510000622511CA042C9B20BD0931CDBB205F875
:10652000029005F801900332EC540134D2B2E4B287
:10653000EFE70BF1070B5FFA8BFB594628460992F0
:10654000FDF7E0FD099A2946A8545A4650460DF039
:106550000FF850460CF0FBFE5846FFF78DFF4FF446
:106560009670FFF771FF0028C0F24A8304F1060B12
:106570005FFA8BFB8DF8E00100235A1CD1B259451C
:106580000B93099280F03783C820FFF75DFF002846
:10659000C0F236830B9B78AA1344099A58701346AD
:1065A000EBE79DF8E131F02B40F02A839DF8E231D2
:1065B000102B40F02583631C9DF8E321DBB29A4247
:1065C00040F01E839DF8E431E82B40F019835946D2
:1065D00078A8FDF797FD78AB9B441BF8013C8342FC
:1065E00040F00E831E2008F101080DF033FEB8F1D3
:1065F000080F26467FF479AF002C7CD0022C84BF94
:10660000023CE4B2302C28BF3024E3B2434A2821B4
:1066100013702846424A13F0CFF829464148FFF745
:106620007DF8414954A80DF0D0FC404B404A402130
:1066300044A813F0C1F844A954A80DF0C6FC3D4B82
:106640003D4A402144A813F0B7F844A954A80DF0DE
:10665000BCFC324B394A1B78402144A813F0ACF8FB
:1066600044A954A80DF0B1FC354954A80DF0ADFC77
:106670000025304B334A382136A813F09DF82A46BE
:1066800036A968A86795769577956697FEF726FBF5
:106690000990002800F0A8821822294612A812F0BA
:1066A0002AFB302229461EA812F025FB602229462B
:1066B00078A812F020FBAB462E46A9460127AA4631
:1066C0002C4600234FF4807290A968A8FEF7DFFAE9
:1066D000002840F38682002C3CD11B4990A813F07F
:1066E0003FF90028EDD0194990A813F039F9041C9E
:1066F00018BF0124E5E7202388E70924E1E700BF6C
:1067000017DD0100100B002094CE0100AACE01007D
:10671000C7CE0100780A0020F5DD0100000000204E
:10672000D8CE0100E9CE0100F5CE0100FC0A002020
:1067300002CF0100D90700200ACF010013CF0100CA
:1067400020CF010057CF010062CF01006CCF0100C4
:106750002C340020A34990A813F002F980460028A9
:1067600040F03F82012C40F0F0809F4990A813F048
:10677000F7F8002831D19D4990A813F0F1F80028CE
:1067800040F098809A4990A813F0EAF8002898D031
:10679000984990A813F0E4F8002892D018232AAA68
:1067A000944990A8FDF744FF00288AD017222AA90F
:1067B00012A813F0C0F8002530231EAA8E498DF8C8
:1067C0005F5090A88DF878500127FDF731FFAB4658
:1067D0002E46A946AA46072473E7864990A813F0D7
:1067E000BFF80028C7D0182318AA824990A8FDF73F
:1067F0001FFF00283FF465AF302241462AA812F05F
:106800007AFA30232AAA7C49CDF8448090A8CDE9B1
:106810000F88CDE90C88CDF83880FDF709FF0C23EF
:106820000FAA764990A8FDF703FF04230CAA744928
:1068300090A8FDF7FDFE734B1B7823B310220021B7
:106840000FA814F03DF89DF9A8106F4A0B900DF1B8
:10685000A8080CA8002908BF904612F088F96B4AD6
:106860000B9BCDE905226A4A049200210722CDE95B
:106870000121C0B201220390009218A9424654A8F7
:10688000FDF70CFF1DE708230DAA624990A8FDF74C
:10689000CFFE0028D2D00DA812F069F980460CA8CE
:1068A00012F065F9C1B25FFA88F0FEF71BFB002811
:1068B000C4D106E74F4990A813F052F800283FF4DE
:1068C00061AF18232AAA4B4990A8FDF7B1FE002812
:1068D0003FF4F7AE4B4B1B78C3B117222AA912A87D
:1068E00013F029F8002530231EAA43498DF85F5084
:1068F00090A88DF878500127FDF79AFEAB468DF8E9
:10690000E0512E46A946AA460424DAE608230FAA37
:10691000404990A8FDF78CFE0028DED0082318AA75
:106920003D4990A8FDF784FE0028D6D00FA812F0AC
:106930001EF9044618A812F01AF9C1B2E0B2FEF727
:10694000D1FA0028C9D10224BBE6022C07D1334971
:1069500090A813F005F8002818BF0124B1E6032C15
:1069600001D12F49F4E7042C62D12E4990A812F0EE
:10697000F7FF28B18DF8E081DDF824B00624A0E609
:10698000294990A812F0ECFF0028E0D0082318AAAB
:10699000264990A8FDF74CFE0546F8B118A812F05C
:1069A000E6F8C7B2082318AA154990A8FDF740FEDB
:1069B0000646A8B118A812F0DAF85FFA80F92AA9F9
:1069C00090A8FEF7E7F8102200212AA813F078FF1C
:1069D000002E824618BF0127052472E60127E1E751
:1069E0008146ECE775CF010081CF01008ACF01001D
:1069F00096CF010065D00100A1CF0100A7CF010013
:106A0000BECF0100780A0020A3DD010029D00100DB
:106A1000A2D20100ADCF0100BBCF0100C3CF010066
:106A2000D0CF0100DCCF0100E5CF0100EECF0100A7
:106A3000062C2BD1744990A812F092FFF0B11823C4
:106A40002AAA724990A8FDF7F3FD00283FF439AE59
:106A50009DF9E03143B178A812F03FFF6C49C0F1D5
:106A60005F0278A812F041FF78A812F036FF2AA939
:106A7000C0F15F0278A812F038FF22E6654990A8BD
:106A800012F06EFF002818BF05241AE6052C16D157
:106A9000614990A812F064FF00283FF458AF78AB2A
:106AA000CDE905B3CDE90365CDE90179CDF800A0C5
:106AB0001EAB12AA90A954A8FDF7DEFE01E6072C32
:106AC00045D1564990A812F04BFF30B9544990A8CF
:106AD00012F046FF00283FF444AF524990A812F04C
:106AE0003FFF00283FF409AE90F90320222A02D08C
:106AF000272A7FF402AE043040F2214E90F9003094
:106B0000002B3FF4FAAD9A423FF4F7AD0023C45690
:106B100024B1454913F901C0A4450AD003461846DB
:106B200013F9014B002CE9D02C2C6BD0A242F6D1EA
:106B3000E4E701330A2BEAD1837A223BDBB20A2B4A
:106B4000ECD82EFA03F3DB07E8D50824B9E5082CC6
:106B50002ED1364990A812F003FF58B3234618AA45
:106B6000334990A8FDF764FD0546E8B118A811F077
:106B7000FEFFC7B2082318AA2E4990A8FDF758FDBA
:106B8000064698B118A811F0F2FF01275FFA80F9C4
:106B90002AA990A8FDF7FEFF102200212AA813F0D1
:106BA0008FFE0A2482468CE50127E3E78146EFE762
:106BB000092C07D1204990A812F0D2FE002818BF56
:106BC00007247EE50A2C7FF47CAD134990A812F0CF
:106BD000C7FE00283FF4C5AE184B0693002305936B
:106BE00060E768A804F08DF856A8FEF751F956A89A
:106BF00004F087F86BE49DF8E031802B3FF4D1ACD2
:106C00003446F9E4184679E7F6CF0100FCCF0100DD
:106C100082E1010007D0010012D001001ED0010066
:106C200024D0010065D00100FC0A0020E5CF01005E
:106C3000EECF0100BECF01002AD0010029D0010013
:106C40002DE9F04FADF5017D854B864A844E30210C
:106C500012A812F0B1FD12A98348FEF75FFD834927
:106C600083480DF0B2F97E4981480DF0BDF97C49A9
:106C70008048FEF753FCFEF7F3FA032819D0A0B1C1
:106C8000012814D1402133467B4A40A812F094FDDC
:106C900040A97A48FEF742FD794B00221A70FFF7AF
:106CA000F7FB50B977497848D7E07849F1E7784958
:106CB000EFE778497848FEF731FD0022774D7849B3
:106CC0002F9230A8CDE93E222E95FEF707F8044614
:106CD00070B105274FF4807200230DEB020130A83C
:106CE000FDF7D5FF00285BDC30A804F00AF800248B
:106CF000634A84F001031370002C40F09680584BD7
:106D0000684A40211EA812F057FD1EA96648FEF7EA
:106D100005FD664956480DF067F965496548FDF778
:106D200067FF002876D0224661492F9430A8CDE92C
:106D30003E442E95FDF7D2FF00286BD0DFF8B081DE
:106D40002927013F17F0FF074BD04FF48072002333
:106D50000DEB020130A8FDF79AFF002841DD414606
:106D600040A812F0FDFD0028EBD03A2112F084FD7E
:106D7000B8B301300146013091F90030202BF9D031
:106D800000230CA8CA5632F02007DCB221D00D2A0D
:106D90001FD00A2A1DD00F2B1AD0C2540133F1E79D
:106DA000013F17F0FF0795D14FF4807200230DEBE0
:106DB000020130A8FDF76BFF002807DD9DF90031C7
:106DC000452BF1D130A803F09CFF91E70024F9E7AF
:106DD0001C4600232249035512F05BFDB0FA80F4F3
:106DE000640930A803F08DFFA4B133493348FEF79E
:106DF00095FC2F48FEF732F9FEF7F2FC00287BD114
:106E00002F491E48FEF78AFCFFF742FB002871D18C
:106E10002C4948E701212648FFF7B0F92A492B4BB6
:106E2000002818BF19462A48E1E72A4C217871B991
:106E30002948FFF7A3F9294B2949002818BF19460B
:106E40002348FEF76BFC012323702348D2E7254B30
:106E50001B78002BD0D124492448FFF70BF900BF41
:106E6000FC0A00208BD3010095D301009FD30100C1
:106E7000CC410020A6D30100B9D30100D5D3010035
:106E800094060020AACE0100C7CE0100FDD2010069
:106E900011D30100E1D30100F7D3010094CE01002A
:106EA00017DD010001D4010030D4010041D40100FC
:106EB0007AD40100100B002098D40100BCD401004A
:106EC00018D5010029D001003BD3010024D30100D3
:106ED000C9D40100F5090020D5D4010051D3010027
:106EE0006CD30100760A0020E8D401000ED5010021
:106EF00091D40100FEF774FC00242246B4492F947B
:106F000030A8CDE93E442E95FDF7E8FE002800F0BC
:106F10000281214618221EA811F0EDFE05244FF42F
:106F2000807200230DEB020130A8013CFDF7AFFE9B
:106F300014F0FF04F3D1DFF8348327464FF4807256
:106F400000230DEB020130A8FDF7A1FE002827DD8C
:106F500018230CAA002140A8FDF706F90028EDD05F
:106F60009DF93030502BE9D11EA90CA812F091FCEC
:106F70000028E3D017220CA91EA812F0DCFC042183
:106F8000102308AA40A88DF88F70FDF7EDF8414650
:106F900008A812F07EFC0028D0D00134A4B2CDE7BE
:106FA00030A803F0AEFE23468A4A8B4F8B4C182143
:106FB00040A812F001FC40A98948FEF7AFFB40A8A9
:106FC000FEF792FB9DF805213B8805929DF8042170
:106FD00004929DF8032103929DF8022102929DF8EC
:106FE000012101929DF800217E4802F5FA6200928B
:106FF0001C217D4A12F0E0FB7C4A7A4B28212EA806
:1070000012F0DAFB40F201622EA904F10800FDF74C
:1070100065FE002800F0D180206C00287DD04FF064
:10702000487102F00AFF18B971497248FEF776FB01
:10703000714B00241C80714B1C700DF04FF9704B8C
:107040001860704B1EA81C70FEF74EFB96F90010DE
:107050006D486E4A6E4B90F900A09DF87AC09DF87D
:107060007BE09DF87D909DF879609DF87C80A14241
:1070700018BF13469DF87820664902F5FA62A245CA
:1070800018BF0146CDE90691CDE904E8CDE9026CCF
:10709000CDE90032A021604B604ADFF8D4A1DFF8CF
:1070A000D49140A812F088FB40A8FEF7DBFA5C48B8
:1070B000FEF7D8FA9AF80030E6B2B34236D94FF06C
:1070C000BC0808FB06F809EB080393F8B93003BBCA
:1070D0005448FEF7C7FA08F118004844FEF7C2FA10
:1070E0007601514B03EB060B9B5743B14F48FEF71C
:1070F000B9FA5846FEF7B6FA4D48FEF7B3FA4D48CE
:10710000FEF7B0FA09EB0800FEF7ACFA4A48FEF7C2
:10711000A9FA0134CEE7044645E7606C002883D025
:107120004FF04872002301F0F1FD7CE74348FEF781
:1071300099FA3B8801339BB242F20F72934244D8D2
:107140003B8040F2016200233D49419342A85093A5
:1071500051934095FDF7C2FD78B13B88394A08212B
:107160002EA812F029FB2EA940A80CF02EFF42A851
:10717000FDF78EFE42A803F0C4FD334933480CF0FE
:1071800024FF184931480CF02FFFFEF775FC304BF7
:107190001B785BB92F4C3049227830480CF0E8F965
:1071A0002E480CF0D4F82078FFF766F92C4B01221A
:1071B0001A702C4B02221A7003E00A492A48FEF783
:1071C000ADFA0DF5017DBDE8F08F0123B8E700BFF2
:1071D00017DD010030D5010038270020FC09002010
:1071E0003CD50100440A00204AD5010057CF0100D8
:1071F0006DD50100A2D501003C290020B40F00206C
:10720000F8090020640A0020D9070020FC0A0020A9
:107210007ED3010086D30100B0D50100B9D50100AD
:1072200003D6010069D00100940200200FD60100AE
:10723000BAD4010012D6010064EC0100D0D70100DD
:1072400024D6010038D601003ED60100CC410020F2
:10725000780A0020D8070020D50600202C34002012
:10726000F4090020770A002015D601008CD2010015
:10727000760A0020B80F0020F0B5384B1B78012BA0
:10728000A1B017D0364B04AE186804909B883548DF
:10729000B380062231460CF073FE32480CF057F8EA
:1072A0000620FFF7E9F800244FF49670FFF7CCF8BA
:1072B000002801DA00204FE030550134042CF3D1CE
:1072C0009DF81030802BF5D19DF81130F02BF1D1C5
:1072D0009DF81230102BEDD19DF81340082CE9D900
:1072E000671C6C2FE6D800256420FFF7ADF8002856
:1072F000E0DB731901351871ABB29F42F4D8651DFC
:10730000EDB229463046FCF7FDFE20AB1D4415F8D2
:10731000713C8342CED19DF81C2003929DF81B2026
:1073200002929DF81A200192013C9DF819209DF8C7
:1073300018300092E4B20C4A0C480B2112F03CFACF
:10734000702C28BF702422460DF11501084811F059
:10735000AEFC084B01201C7021B0F0BD780A002063
:10736000A4CE01002C3400205BD20100FC0A0020D6
:10737000020800200108002010B5054C04480CF05C
:1073800022F818B120460CF07FF8F7E710BD00BFD7
:107390002C3400202DE9F04FC44B2DED028B1978D1
:1073A000ADF50B7D41B132200CF054FF0DF50B7D96
:1073B000BDEC028BBDE8F08FBD4E3478ECB9BD4C0E
:1073C000236813B90CF08AFF2060FFF755FF0546CC
:1073D00020B100232360FFF733FCE7E70CF07EFFCA
:1073E0002368C01AB44B9842E0D90123B349B4488A
:1073F000256033700CF0F8FDD8E7012C69D1B14A53
:10740000B14D1368B14823F00403136002F5CC2298
:10741000FC32AF4B01704FF4F047117019702970B6
:107420006970A970A97125F8097C4025157007229B
:107430001A70A84A0470D2F8A031A74D43F08073A7
:10744000C2F8A031A54B4AF20352A3F8FE239A8951
:1074500042F400429A812A7B61F300022A7393F876
:10746000402061F3C71283F8402030BF4FF425421B
:10747000A3F8FE231023037040F213424FF49651F9
:1074800097480CF001F9214602200CF04BFE2146F2
:1074900002200CF05FFE05200CF0DCFE914B1B7807
:1074A0000BB9FFF769FF904A138801339BB2138031
:1074B00018218E4A58A812F07FF958A98C48FEF777
:1074C0002DF9FFF7D9FE00283FF470AF0023337089
:1074D00081E7022C7FF46AAF802208A811F00BFC30
:1074E000804B04931A78012A00F04881814D41F2C3
:1074F00088302C78FEF7A8FF0028A846C0F23E810D
:107500008AAF063407F8C80DE4B20125EBB29C42FD
:1075100008D9C820FEF798FF0028C0F22F81E8554F
:107520000135F3E79DF86031802B40F027819DF80D
:107530006131F02B40F022819DF86231102B40F038
:107540001D8198F800509DF863216B1CDBB29A42B4
:1075500040F014819DF86431E82B40F00F81214602
:1075600058A8FCF7CFFD8AAB1C4414F8C93C8342F1
:1075700040F004812A460DF2651128A811F097FB0E
:10758000DFF87481DFF8789100275B4B1B78FDB240
:10759000AB4240F2C580BC246C4309EB040292F874
:1075A0004D30092B08D108AB03EB850500232B6078
:1075B000C2F8B4300137E8E7082B03D092F8B010D6
:1075C000FF2905D108AB03EB850500232B60F1E70C
:1075D000DFF830A192F84EC0CDF814A04FEAC10BED
:1075E0000AEB0B01503491F805E092F84C1002912F
:1075F00092F84F200392029A06A90020042A4C44D4
:10760000086028BF0422BCF1000F0FD10DF1A00AC1
:107610006046D6448C465FFA80FA924580F0FC8141
:107620001EF800A000F80CA00130F4E70DF1A00C4A
:10763000E6445FFA80FC944580F03C82A2EB000CAB
:107640000DF1180AD4441EF800A00CF801AC01306A
:10765000EFE7029810B99FED290AF3E10968C2F13A
:10766000040209BAD200072B21FA02F20AD1039BC5
:107670001F2BF0D8DA4002F0010207EE902AB8EE94
:10768000E70ADFE1042B09D0052BF6D0032B07D145
:1076900053B200EE103AB8EEC00AD3E113B2F8E7E5
:1076A00007EE902AB8EE670ACCE100BF6C0A002012
:1076B000770A002098060020BFD40100FDDD0100FC
:1076C000CC4100201CE0014009410840084108402D
:1076D00019410840006000400054004000E00140B3
:1076E0002C340020780A0020F60900202BDE01004F
:1076F00034DE0100740A0020760A00200000000039
:10770000B80F0020740800200A4628A91C44084429
:10771000815C04F8011D0132D1B28B42F8D8BEE180
:107720009F4B1A78002A69D000240DF1A009182275
:10773000214648461C7011F0DEFADFF880A225468B
:1077400027464FF0BC0B98F80000E1B288422BD9D5
:107750000BFB01A191F8B93073B991F84D300135A7
:10776000092BEDB208D199F900300137FFB21BB9EE
:107770001722484612F0DFF80134E4E789498A48C5
:10778000FDF7CCFF89498A480CF02EFCFDF792FFEB
:10779000FEF7A0FC049B1B780BB9FFF7EDFD854AB3
:1077A00000233370136001E6834B1B78002B64D0F9
:1077B0000023824D1C461946BC27DAB2824211D200
:1077C00007FB03F202EB050C9CF8B9C0BCF1000FFB
:1077D00006D15257502A0BBF0131621CC9B2D4B234
:1077E0000133EAE7CDE90014754B764A482158A8E1
:1077F00011F0E2FF744858A9FDF790FF6F4FDFF8D2
:107800001092002598F80030ECB2A3424BD9BC206E
:10781000604307EB000A9AF84D30082B2BD150300B
:10782000002328A938448DF8A030FDF78DFB8AABE2
:1078300003EB8403A3F5027383ED000A9DF8A030E7
:10784000B0EE408A93B19AF8B8307BB901238AF838
:10785000B8300CF043FD5021009053464A4658A8DA
:1078600011F0AAFF58A95948FDF758FFBC2303FBA4
:10787000047484ED2D8A0135C4E757B14821CDF851
:1078800000904F4B524A58A811F096FF58A9514802
:10789000B2E7482100954A4B4F4A58A811F08CFF97
:1078A00058A94E48A8E70CF019FD4D4A4D4B1178E8
:1078B00011B90121186011701B684B4A3F4D4B4FA5
:1078C000DFF85091C31A142158A811F075FF58A879
:1078D000FDF7C8FE002498F800305FFA84FB5B4592
:1078E0002ED94FF0BC0A0AFB0B5A9AF8B930ABB943
:1078F0003846FDF7B7FE9AF84D300A2B10D13C4AB6
:107900009AF84C3052F82B2000925B00394A14212F
:1079100058A811F051FF58A8FDF7A4FE0134DAE78A
:107920008AAB03EB8B03A3F50273186810F070FAAF
:107930004A46CDE90001142158A811F03DFFEAE7BD
:107940002D482E4CFDF78EFE0CF0C8FC2368C01AA3
:10795000B0F57A7F07D3FDF7ADFE2948FDF798FA19
:107960000CF0BCFC2060274B1A78002A3FF41EADB7
:107970001349254800241C70FDF7D0FE23490C480C
:107980000CF032FBFDF796FEFEF7A4FB049B1B7880
:107990000BB9FFF7F1FC074B34701C6006E500BF24
:1079A000F40900203EDE01005EDE01006EDE010013
:1079B000CC4100209806002094060020B80F00203B
:1079C000440A002095DE0100BDDE010053DF010006
:1079D000D4DE0100E9DE010008DF01001ADF01004A
:1079E000640A0020600A00205CDF010069D0010009
:1079F0007C0A002060DF0100D0D70100F8090020D8
:107A0000040A0020B40F00206DDF01007BDF0100BD
:107A10002ADF010068DF0100062B7FF41AAECB7865
:107A20008DF860318B788DF861314B788DF862314B
:107A30000B788DF86331042258A907A811F037F9A3
:107A40009DED070A2046FDF75DFABC2202FB059278
:107A500008AB03EB850383ED000A92F84D3082ED0D
:107A60002D0A0A2B7FF4A6AD92F84C30F3B105999C
:107A700092F84E2059448AAC4879042B4FF000010B
:107A800028BF042344F8C81D002A7FF43DAE28A96E
:107A90000844815CA1540132D1B29942F9D3589A79
:107AA000C3F1040312BADB0022FA03F3044A42F8DA
:107AB00025307FE5062B7FF4CCAD042206A9BCE778
:107AC0007C0A00202DE9F0410121C8B00D200CF006
:107AD00029FB00210D200CF03DFB4FF4E131B248B1
:107AE0000FF021FC40F213424FF49651AF480BF0D7
:107AF000CBFD012102200CF015FB012102200CF02E
:107B000029FB0CF0EBFB40F2DB5504460DF0C4FF03
:107B100040B90CF0E3FB001BA84203D80A200CF08C
:107B200099FBF3E70DF0B8FF054628B34FF48573D2
:107B30009F4AADF8D8300023CDE937239D4C36ABB2
:107B40000ECB204603F01CFB9B4B20461C6003F031
:107B5000ECFB9A4B186050B9994993480CF044FAE1
:107B600001210D200CF0F6FA48B0BDE8F081954BEC
:107B7000954901221A70F0E7944C8D4A0A2120465B
:107B8000FEF70FFC90B9924987480CF02DFA0121BD
:107B90000D200CF0DFFAC8200CF05CFB00210D205A
:107BA0000CF0D8FAC8200CF055FBF0E7D4F880149C
:107BB000002900F0E6800123864AADF8D85001F292
:107BC000444136A88DF8DA5002F0E5F8824976484B
:107BD000824E0CF009FAFDF729FC8148FDF76CFC98
:107BE000FDF7D4FC002340F209227E49379338A8E0
:107BF000469347933696FDF771F848B17A4936A80F
:107C00000CF0E3F938A8FDF743F938A803F079F848
:107C100000273A467549139714A8CDE922771296A2
:107C2000FDF75CF80446002800F002813B4608227C
:107C300036A914A8CDE93677FDF729F814A803F082
:107C400060F836A810F093FF42F20E72431E934282
:107C500088BF0120664B188066496748674C04F06E
:107C6000CDF8674B674A2070002814BF10461846AD
:107C7000FDF722FC2378002B50D000273A466249BA
:107C8000379738A8469747973696FDF727F88046E6
:107C9000002800F010811822394624A811F02BF892
:107CA0004698002800F0FD80172224A901F060FD0D
:107CB000064638A803F025F8002E24DD0AAB03930E
:107CC00008AE09AB07AF02930196009706AB05AA71
:107CD0004E4924A811F0A4FD062814D19DF82800CF
:107CE0003B7802909DF82400019030789DF8182090
:107CF000BDF81410009012A804F05CF912A93E48D7
:107D000004F09CF8454640493048FCF792FF002DAE
:107D100000F0D1803E493F48FDF700FD24A8FDF763
:107D2000E3FC26782EB1344804F07FF8061C18BF17
:107D300001269DF89030A3F1140085B2142D8CBF5C
:107D40000022012203F5FA6301920093324A33467E
:107D5000302136A811F030FD30481EB1304B142DC3
:107D600098BF184636A9FDF7D9FC2E4803F046FC0B
:107D7000FDF710F9002840F0AF802B492B48FEF7A3
:107D800079F9D4F8841400293FF420AF0123114A73
:107D90008DF8095101F5896136A88DF80A518DF8E1
:107DA0000B5100F052FF11E7CC4100202C34002091
:107DB00040787D019C060020680A0020700A00209F
:107DC000F6DF01006C0A002028E00100100B002003
:107DD00068E0010031D001007DE0010094CE010097
:107DE0008AE0010022D10100D0D7010024D6010091
:107DF00038270020202A0020080B00200C0B002030
:107E0000B6DF0100A8DF0100B3E00100C7E0010018
:107E1000D9E00100EAE0010024E10100D7DF010020
:107E2000D0DF01001961000044E1010065E10100BB
:107E30002590CDE934003790469047900246684936
:107E4000249626A83696FCF749FF30B3002226A9CF
:107E500038A802F0A2FFA0B120220AA938A8FCF796
:107E600029FF38A802F04DFF9DF82830303B092B40
:107E7000ECD80AA810F07BFE80B2844238BF0446DA
:107E8000E4E726A802F03DFF42F20E739C4206D8BA
:107E90000134A4B2534B1C80DEE60446F8E701240B
:107EA000F8E7479820B1172224A900F067F9FFE608
:107EB0004FF0FF36FDE64C4803F0B7FF00287FF493
:107EC0002DAF4A4A4A4924A804F088F824A9464814
:107ED00003F0B4FF47491EE747494848484E494D1B
:107EE000FDF71CFB48494948FCF782FE484B1870D7
:107EF00090B14548FDF7B2F818B946494648FDF734
:107F00000DFC3378012B65D14449454805F010F943
:107F100038B94449444832E73070287043494448EE
:107F2000EDE744494448FDF7F9FB444944480CF067
:107F30005BF82B78434A302124A811F03DFC24A99A
:107F40004148FDF7EBFB2C494048FDF7E7FB237860
:107F50001BB93F493F48FDF7E1FB3F4938480CF06A
:107F600034F80A22297836480CF073F83B49344833
:107F70000CF03AF83A4932480CF027F81E493048DC
:107F80000CF032F83078374B374A2178002818BF88
:107F90001A462B78CDE90023344A354B36A8002900
:107FA00008BF1346334A402111F006FC36A9324877
:107FB000FDF7B4FB314922480CF007F836A92048F8
:107FC0000CF012F801210D200CF0C4F82C4B00220B
:107FD0001A70C9E5002BACD02A492B48CFE600BF68
:107FE00031D0010038270020080B0020F2E001000A
:107FF000FBE0010007E10100D907002072E1010068
:10800000780A0020760A0020D5D40100100B002049
:10801000F509002084E10100AAE1010020A1070088
:108020009C2E0020FEE1010038E20100B8E10100D1
:10803000EEE1010046E2010082E201008BE2010074
:10804000CC410020FFE2010012E301001DE301002A
:1080500025E3010056E301005FE3010073E3010043
:108060007BE30100EDDF0100E3DF01005AE30100E3
:10807000B3DF010089E30100A6E30100B4E30100DE
:10808000770A0020CAE20100EBE20100F0B500F13E
:10809000240305460F46164693E8070085B001AC59
:1080A00084E807007A012146286A01F0C8F901280E
:1080B00006D132462146286A01F072F905B0F0BDBA
:1080C0000020FBE710B5044600F022FD002384F8F1
:1080D000313084F8333010BD38B50D4690F831108A
:1080E000044651B9382210F006FE4023012084F8DE
:1080F0003130256284F8330038BD0020FCE7FFFFF3
:10810000F0B491F90040202C01F1010522D01A4F62
:10811000116091600D460E4615F9014B1CB32F2CD2
:108120001AD01F2C24DDE6B2A6F12201C9B21D2906
:1081300003D827FA01F1C9071AD424F040013C29D9
:1081400016D05C2C14D02E2E02D0202E00D095609C
:108150002946DFE72946D4E70E4611F9014B202CCA
:10816000FAD02F2CF8D01E601146F0BC01F04AB8AE
:108170000020F0BC704700BF010100312DE9F74F2E
:1081800090F83330DF0704460E46154664D558068E
:1081900003D494F8313019070CD5D4E90023D4E97D
:1081A000040112EB050843F10009494508BF4045A9
:1081B00038BF851A04F11803A8460093B8F1000FE0
:1081C00000F09580206AD4E90023D0F83874174075
:1081D000C7F3080B4FB913432BD194F831305A062B
:1081E0004CBFD0F83434E369A361D4F820A0780AF6
:1081F000A7699AF845C4DAF82C14023F07FA0CF77D
:1082000007440F44BBF1000F2FD1B8F5007F2CD3EA
:10821000DAF818128F4228D0B8F5806F45D232466E
:108220003946DAF8140203F010F9A8B14FF40079D6
:108230002FE094F83330A1695B0602D50131A161CA
:10824000D3E7009A01F0C6F8002805DBCDD194F8F9
:10825000313013F0500F4AD194F8323043F002031A
:1082600084F832304FF0FF3043E0CBF50079C14560
:108270004FF0000239460AF5047028BFC14603F0EA
:1082800090F90028E8D000EB0B014A46304610F088
:108290000EFDD4E9002312EB090043F100014E4426
:1082A000C4E90001A8EB090888E7012202FA0CF2F0
:1082B000131A4FEA582E734528BF73468F424FEA70
:1082C000432908D932463946DAF8140203F093F804
:1082D0000028DED1C0E7FA189142F3D20AF5047003
:1082E000019303F039F9019B0028EBD1B4E7A5EB2A
:1082F000080003B0BDE8F08F2DE9F04F1F4685B0B0
:1083000081460E46924601F1FF3801244FF0FF33BB
:1083100004F1FF3B2546544520DA01220DF10F01FF
:108320004846FFF72BFF0128034617D19DF90F1090
:108330000D29F0D008F8011F3FB90A290CD10023FC
:108340007355284605B0BDE8F08F0190384611F00E
:1083500093FA019B0028F2D10134D9E7002B01DB0D
:108360005D46ECE74FF0FF35EBE72DE9F74F90F86E
:1083700031C08569044616461F46BCF1000F69D01E
:10838000D0E90001994208BF904206D056EA07039F
:1083900005D10023A361C4E9006701205CE01CF063
:1083A000080F05D0D4E90423BB4208BFB24251D321
:1083B000D4F8209016F1FF3247F1FF3399F845E4E5
:1083C000CDE90023009B0EF1090E5FFA8EFE23FA21
:1083D0000EF2019BCEF1200AAEF1200803FA0AFA50
:1083E00023FA08F894F8333042EA0A0213F0400FF7
:1083F00042EA0808CEF1200BAEF1200A02D0E36970
:108400004344C7E710F1FF3241F1FF3322FA0EFE79
:1084100003FA0BFB4EEA0B0E23FA0AFA4EEA0A0E97
:10842000F04502D350EA010319D11CF0400F14BFEC
:10843000D9F83434E369A36104F11809B8F1000FE5
:10844000A9D04A46A169206A00F0C4FF002808F1BB
:10845000FF38F3DCA561002003B0BDE8F08FA8EB86
:108460000E08E9E72DE9F04F994690F831308DB0CC
:1084700004460E461546002B45D191F8313013F0D5
:10848000500F40D009F00303012B05D0022B41D03F
:10849000002B38D1012300E0022309F0080A4AEA40
:1084A000030A002D38D0EF680F230E370022B7FBE8
:1084B000F3F7304602370023FFB2FFF756FF4FF0C5
:1084C0000008C346202204A93046FFF757FE0028C3
:1084D00000F0C580202816D19DF81020100620D469
:1084E000BBF1000F05D13168A1F120030193B369FD
:1084F0000093BB453CBF0BF101035FFA83FB6AB9F4
:10850000002D40F0AC804FF0000884F8318084F8F2
:1085100033806EE00323C0E70327D0E700208046C6
:10852000D0E7B8F1000F27D1BB4538BF4FF0000BA3
:10853000852AF3D138224146204610F0DCFB9DF815
:1085400014109DF8112084F8302001F03702C9067C
:1085500058BF42F0080284F83120326A2262B269C0
:1085600062623268203AA26296F83320C2F3801227
:1085700084F82C200120D2E7C02A4FD1DDE9060182
:108580009DF8112084F833A09307C4E90401DDE9C4
:108590000A0144BF4AF0400284F83320099AE2619C
:1085A000C4E902014DBB19F4006FACD119F4884F36
:1085B00003D194F83330990704D594F8313013F08F
:1085C000110FA0D119F4806F39D094F833309A0785
:1085D00099D5002200232046FFF7C7FE002892D03D
:1085E000204600F02AFC00288DD094F833309B07F9
:1085F0002ED440460DB0BDE8F08F2A686A60E96865
:108600009DF81320914289D1288ABDF81420A0EB4F
:10861000020CDCF1000040EB0C0080E7C12A7FF483
:108620007DAF2A4604A9204600F090FD00283FF4C3
:1086300076AFD5E9012191427FF471AFB3E719F428
:10864000804FD2D0D4E904232046FFF78EFECAE73C
:1086500094F8313043F0200384F83130C9E719F43D
:10866000007F3FF450AF1AF0020F3FF44CAF002DE3
:108670003FF449AFBB4521D2202204A93046FFF781
:108680007DFD50B93046D6F8188000F060FA002819
:108690003FF439AFC6F81880ECE720287FF433AFF9
:1086A000BBF1000F05D13268A2F120030193B36939
:1086B00000930BF101035FFA83FBDBE73822002113
:1086C000204696F8338010F016FB336A2362282385
:1086D00084F83130009B6362C8F38018019BA36269
:1086E00084F82C802B686B6007F1FF384FF000098D
:1086F0005FFA88F85FFA89FBBB4556D201225946DA
:108700002046FFF7C3FC064600283FF4FCAE90F974
:108710000020002AFFF6F7AE2022002110F0EBFA2D
:10872000BBF1000F20D185233370224B84F83080B9
:1087300086F801801B688BB10DF10B020DF10E0163
:1087400003A89847BDF80C307381BDF80E30338113
:108750009DF80B30337509F10109CBE745F621434C
:108760007381F3817382F6E7BBF1010F0CD16AF0DC
:108770007F03C022327086F801B084F83330EB6892
:10878000F3702B8AB380E6E7C1233370A86806F143
:108790001E026B688342DED0591C696093F9003079
:1087A00026F8023FB242F4D1D5E7204600F0B0F9F6
:1087B00080461EE74C290020F0B597B01F460023E5
:1087C0008DF851308DF852308DF8533090F83130AB
:1087D000019205460C4613B1002017B0F0BD91F888
:1087E000313013F0500FF7D092F900302F2B13D106
:1087F000019B93F900202F2A02D101330193F7E75F
:10880000216A1AB92846FFF767FCE6E708A8FFF7D0
:1088100063FC0028E0D008AC01AB03AA019928460C
:10882000FFF76EFC0028D7D0019B93F90030D3B13D
:10883000002303AA21462846FFF714FE0028CBD0C8
:1088400008AA2B4605F1300C1446186859681646DC
:1088500003C6083363453246F7D1186830602846AE
:10886000FFF730FCD8E73B4603AA21462846FFF72E
:10887000F9FDB2E719B101F58961FFF79DBF08461F
:1088800070472DE93008134690F831208AB991F8E5
:10889000315015F0500F0CD0D1E900454FF0000CCD
:1088A00004F01F0B5BEA0C0403D1BDE83008FFF7AE
:1088B000D9BD0020BDE83008704710B5047800230A
:1088C000CA0342EA5101C25C012B12FA81F189B25A
:1088D00008D1852C14BF0122032213441F2BEFD98A
:1088E000084610BD0122F8E710B5044602F034FE38
:1088F00050B104F5047002F02FFE28B1D4F8400402
:10890000BDE8104002F0D9BB002010BDF8B5044608
:10891000006AA16901B10131012200F09DFC01282A
:10892000054602D800263046F8BD012301461A4606
:10893000206A00F0E3FC06460028F3D0A26994F810
:1089400033302AB943F0400384F83330A561EAE7B5
:10895000590613D50132AA42F8D023F04003E16949
:1089600084F83330A369206A8B4207D94F1C3A46FA
:1089700000F085FD39460028F4D1D3E74FF0FF32EF
:108980002946206A00F07BFD0028CBD0A169002990
:10899000DCD02A46206A00F072FD0028D6D1C1E75B
:1089A0002DE9F04890F833309A07044602D40020AD
:1089B000BDE8F088C16989B9002594F83030E9B282
:1089C0008B422ED301222046FFF760FB01350028A1
:1089D000EDD0037803F07F030370EEE75B06006AD7
:1089E0001CD5D4E9026790F845240932D2B216F1B9
:1089F000FF3B47F1FF3CC2F12005A2F120030CFA36
:108A000005F52BFA02F22CFA03F32A431A4301323A
:108A1000002300F073FC0028CED1C8E700F04CFD25
:108A2000F9E7002384F8313084F83330206AFFF707
:108A30005BFFBDE72DE9F3410026DFF8D080054656
:108A4000374695F83030F1B28B4249D300222846A0
:108A5000FFF71CFB044600284ED00378C02B2AD019
:108A6000C12B21D0852B47D195F8313003F0370346
:108A70008380D8F8003083B10DF103020DF10601B7
:108A800001A898479DF80330BDF806206375BDF82E
:108A90000430A281E381228263822A6A92F8103232
:108AA00043F0010382F8103239462046FFF705FFF4
:108AB00001360746C5E795F83320437852064CBF88
:108AC00043F0020323F002034370D5E90423C0E915
:108AD0000223EB694361D5E90223C0E90623DCE701
:108AE000012205F12401286A00F05AFC20B14780D8
:108AF000286AFFF7F9FE30B995F8323043F00103E8
:108B000085F83230002002B0BDE8F0814C29002009
:108B100010B590F8313004460BB9012010BD90F823
:108B200033301A0607D503F07F0380F83330BDE8F1
:108B30001040FFF77FBF006AFFF7D6FE0028ECD198
:108B400094F8323043F0010384F83230E6E7F8B5A8
:108B500090F831305A0604462ED5006A00F04AFDDE
:108B6000236AD3F83C341844B0F1806F47D22046D2
:108B7000FFF7CCFE002842D0236AA56993F845246C
:108B8000D3F82C34023D95401D4400260127206A6D
:108B900090F8453407FA03F3B3420FD90522A91917
:108BA00000F5047002F0FDFC48B34FF400720021A0
:108BB00010F0A1F80136EAE78068D1E794F8313087
:108BC0005B0617D494F8333063F07F0384F83330B6
:108BD000D4E90223D0F83C14551843F10006C4E947
:108BE0000256D4E90423D0F83C14551843F100068A
:108BF000C4E904562046BDE8F840FFF789BF0020CD
:108C0000F8BD10B591F8313013F0500F04461AD06A
:108C100040F60223FFF726FCA8B1302384F8313058
:108C20002046FFF794FF70B1A369E361204600235B
:108C30000022FFF79AFBC12384F833302046BDE8B9
:108C40001040FFF765BF002010BDF0B597B01F467C
:108C500000238DF851308DF852308DF8533090F854
:108C60003130019205460C4613B1002017B0F0BD1B
:108C700091F8313013F0500FF7D092F900302F2BCC
:108C80000ED1019B93F900202F2A02D101330193C9
:108C9000F7E7216A08A8FFF71FFA0028E5D008AC1B
:108CA00001AB03AA01992846FFF72AFA0028DCD075
:108CB000019B93F900301BB3002303AA21462846E9
:108CC000FFF7D0FB90B108AA2B4605F1300C1446F3
:108CD00018685968164603C6083363453246F7D10B
:108CE000186830602846FFF7EDF9D9E7002FBCD0AF
:108CF00003AA21462846FFF784FF0028E3D1B4E702
:108D000003AA21462846FFF77CFFAFE72DE9F84389
:108D100016461F4656EA0703054638D090F833300A
:108D20009B0734D5C16991BB006A12F1FF3890F8F6
:108D3000452402F10902D2B247F1FF39C2F1200401
:108D4000A2F1200309FA04F428FA02F2224329FAD4
:108D500003F31A43541C224600F07EFA0128804691
:108D600015D9014601232246286A00F0C7FA70B1DE
:108D700095F83330C5F81C8063F03F03C5E90267FE
:108D800085F833302846BDE8F843FFF7C1BE002020
:108D9000BDE8F883F0B59DB000238DF831308DF833
:108DA00032308DF833308DF869308DF86A308DF8B7
:108DB0006B3090F8313013F0180F044602D10020C8
:108DC0001DB0F0BD006A0B6A9842F8D140F601234D
:108DD0006846FFF7F1FC0028F1D00EAA234604F103
:108DE0003007164618685968154603C50833BB4254
:108DF0002A46F7D11868286009AA07CA04F1240393
:108E000083E807009DF8303084F8303094F8333030
:108E100063F07F0384F833302046FFF779FE0028A3
:108E2000CDD00023159302238DF86B3030460823F4
:108E30008DF86930FFF7B4FDC2E72DE9F34890F8EB
:108E400033209307044603D4002002B0BDE8F08825
:108E5000C369002B5AD012F04001856939D0226ACB
:108E6000D0E9020192F845240932D2B210F1FF3B59
:108E700041F1FF3CC2F12007A2F120060CFA07F7EE
:108E80002BFA02F23A432CFA06F632430132ADB124
:108E9000013B691C5D1B01912A4492B9D4E900236E
:108EA000C4E90223C4E9042394F8333063F07F0358
:108EB00084F833302046FFF72BFEC6E70193E561C7
:108EC000EBE700230199206A00F018FA0028E5D1A9
:108ED000BAE7C5B102AA006A42F8041D294600F0AB
:108EE00079FA0028B0DB07D04FF0FF32A169206A81
:108EF00000F0C5FA0028A7D001990029CED0206A39
:108F000000F0DAFAE2E70193C561F5E701209CE79A
:108F10002DE9F04F90F833308A46990785B0044622
:108F2000934668D51A0760D404F11803D946039311
:108F3000D4E90067B9F1000F00F0DC80206AD0F8B6
:108F400038543540C5F3080845BBA169002965D0F0
:108F500094F833305B065AD5D4E9026716F1FF3234
:108F600047F1FF33CDE9002390F84534009E0933E3
:108F7000DBB2A3F12002C3F1200026FA03F3019E25
:108F800006FA00F003433046D040E269034313443D
:108F90008B4239D82046FFF7B9FC60B3206AA1693B
:108FA00090F84524023991406B0ACD18D0F82C1462
:108FB0002944B8F1000F3DD1B9F5007F3AD3B9F596
:108FC000806FD0F8186279D2B14202BF4FF0FF3300
:108FD00080F81082C0F818325246D0F8140202F01D
:108FE00078FA40B14FF400754CE0D0E90423FFF764
:108FF000BCF9002898D194F8323043F0010384F88A
:1090000032304FF0000B88E00131A161C6E7039ACE
:1090100000F0E0F90028EEDBBCD0BFE7E3693BB924
:109020002046FFF773FC0028E5D0A369E361B5E7AC
:10903000A361B3E7C8F500754D4528BF4D46B8F1AB
:10904000000F39D1D4E90423D4E900679F4208BF57
:10905000964234BF0122052200F5047002F0A1FA05
:109060000028C8D040442A465146A8440FF01FFEAD
:10907000B8F5007F06D1206A00F5047002F06CFAA2
:109080000028B8D0D4E90001D4E90423461941F1FD
:109090000007BB4208BFB242C4E90067AA44A9EB7B
:1090A0000509BFF445AF94F8333063F07F0384F8CB
:1090B0003330C4E904673BE70122CDE7012505FA17
:1090C00002F2D31A4FEA5927BB4228BF3B46B142AE
:1090D0004FEA432508D8CA18B24282BF4FF0FF3288
:1090E00080F81082C0F818225246D0F8140202F01C
:1090F000C5F9C5E7D4E90223BB4208BFB24208D292
:10910000C4E9026794F8333063F07F0384F83330A6
:1091100003E0044B1B68002BF4D1584605B0BDE8B2
:10912000F08F00BF4C29002070B505460C4659B1A0
:10913000036808465E6810F0D0FB214602463346BD
:109140002846BDE870401847084670BDF0B59668DF
:1091500001F11E05536831F8020F9E4203D1B0FAA7
:1091600080F04009F0BD5C1C54607E2893F90040FB
:1091700014D8E3B2A3F16107192F9CBF203B5CB266
:10918000C3B2A3F16107192F98BFA3F1200040B229
:10919000A04203D1A942DDD10120E3E70020E1E7AD
:1091A0002DE9F04190F8313006460F46904633B332
:1091B0000225002496F83030AB421BD3002229460A
:1091C0003046FEF763FFD0B10378C12B17D13A19AF
:1091D00000F11E0130F8023F63B1013444450ED264
:1091E0007F2B28BF3F23884202F8013BF2D1013593
:1091F000EDB2DFE700233B552046BDE8F0810024B7
:109200003C70F9E770B588680D684D6000234A68C6
:10921000824218D0541C4C6092F90020D4B2A4F1C0
:109220006106192E98BFA4F120024FEAC33444EA24
:10923000530398BF52B253FA82F2C2F34E0343EA89
:10924000C2339BB2E3E7401BC8600138FE280B82A3
:109250008CBF0020012070BD2DE9F84F8046934659
:109260008A4659B38D1ED8F83034AB4298BF0025DA
:1092700005F0070301249C40C5F3C809E4B22F465A
:109280002E46D8F82C14002201EB1631404602F08D
:1092900088F988B110F80930234206F1010610D18F
:1092A000F21B5A450ED1BAF1000F04D1BBF1010FE8
:1092B00008BFC8F82074B81CBDE8F88FD0F8205457
:1092C000D1E73746B54217D0D8F83024B2420ED98C
:1092D000640014F0FF04DFD109F10103B3F5007F4E
:1092E0004FF000094FF00104CBD29946D2E7002796
:1092F0004FF400793E46EFE70120DDE72DE9F84322
:1093000006468C1ED0F83004A118814217469846B4
:1093100041D8D6F82034B8F1000F37D0A34206D395
:10932000994204D9814228BF0021C6F8201404F0D4
:1093300007030125D6F82C149D4001EB1431EDB242
:10934000C4F3C8040122304601F1010902F029F9F1
:1093500008B303192A461978114214BF01240024C6
:10936000444518D05140013F197017D0520012F0F7
:10937000FF02F0D10133A3EB000C1446BCF5007FD3
:109380004FF0010249461546E5D1DBE7A34288BF0D
:10939000C6F82044CBE70020BDE8F8830120FBE7B6
:1093A00038B50C46D0F83834496890F8455419401F
:1093B0002368023BAB4003EB5123D0F82C1400F59B
:1093C0000470194402F0EDF818B16368C3F30803A0
:1093D000184438BD38B5D0F8303401338B420C46D0
:1093E000154602D24FF0FF3038BDD0F824140022C9
:1093F00001EBD41100F5047002F0D3F80028F1D08D
:10940000A400C4F3080403595A1C1ABF2B6001209E
:109410000020E9E773B502AD064645F8041D0024B7
:109420002A4601993046FFF7D5FF002805DB04F1F5
:109430000104F5D1204602B070BD0024FAE770B5F2
:109440004B68D0F838441C4013444B6090F84534C6
:1094500009331444DBB206460D46DC406CB12B7A6E
:1094600029681BB101312960013CF7E72A463046E3
:10947000FFF7B0FF0128F7D070BD0120FCE70129FC
:1094800038B50C46154601D8002038BDD0F8303428
:1094900001338B42F8D3D0F82414012201EBD4110C
:1094A00000F5047002F07DF80028EDD0A400C4F3AC
:1094B000080405510120E8E72DE9F34107460C4671
:1094C0000E4601AA21463846FFF784FFB0F1000896
:1094D0001DDB002221463846FFF7D1FF0546B0B11B
:1094E000621CB8F1000F02D0019B934207D0002309
:1094F000921B31463846FFF701FF40B1019E019CA7
:10950000B8F1000FDDD1284602B0BDE8F08100259A
:10951000F9E7FFFF70B504461E46002380F8443487
:10952000C0F84014416003704FF0FF30A060C4F8F1
:10953000141284F81032C4F818021546CAB1042A6D
:1095400001D9002070BD1A46194604F5047002F0D6
:1095500028F80028F5D005F18055013D00F5DF70B1
:109560002D0143191A79002AEBD0425D5206E8D149
:109570009E680022314604F5047002F012F8054698
:109580000028DED01A490522033010F0C2F9014646
:109590000028D6D195F86C30092BD2D12B6D3344ED
:1095A000C4F824346B6DC4F82834AB6D3344C4F86C
:1095B0002C34EB6DC4F830342B6EC4F8343495F889
:1095C0006D3084F845340125093305FA03F3C4F8F6
:1095D0003C34013BC4F83834C4F820042A46204601
:1095E000FFF73AFE402384F844342846AAE700BF38
:1095F0000FE4010010B50446D0F83414FFF70AFF59
:1096000094F845340933DBB2984010BD10B50446D8
:10961000243001F0A1FF48B104F50D7001F09CFF6A
:1096200020B12068BDE8104001F047BD002010BD0A
:10963000814230B507D00D4604460FCD0FC40FCD83
:109640000FC42B68236030BD024638B552F8105F56
:1096500004462946806801F037FA40B1A3783DB945
:1096600043F04003A370A37863F07F03A37038BD79
:1096700022690135AA42F6D023F04003F2E7FFFF4A
:10968000F8B5077817F04007044602D000263046A8
:10969000F8BD4269154B9A42F8D8FFF7D5FF064648
:1096A0000028F3D0A36825699A795B69023D95404B
:1096B0001D44A0680379F9B28B420DD905222944D3
:1096C000243001F06EFF01370028DFD04FF4007224
:1096D00000210FF010FBECE782794FF40073934008
:1096E000626912FA83F36361D1E700BFFFFD1F00D7
:1096F00010B5044680680A462430A16901F051FF84
:1097000020B1A38803F00F0300EB431010BD70B528
:10971000047805460E4694B9242221460FF0EBFA50
:10972000AE60F379102B03D0202B06D0204603E047
:10973000402301202B70A87070BD8023F9E7002022
:10974000FAE738B5CB6804460D4623B98968BDE809
:109750003840FFF7DCBF242200210FF0CCFA1023A1
:1097600001202370A070AB68A360EB68236238BD52
:109770002DE9F04F83780446D80785B08A46154610
:109780006AD52378190732D5E36962699B1A9D422D
:1097900028BF1D4604F110032E464FF00008019328
:1097A000002E00F09F8022786769A0685306C7F3F7
:1097B000080B4FEA572123D5026A1144D4F80890C8
:1097C000BBF1000F4FD1B6F5007F4CD3D9F82C2058
:1097D000914248D0B6F5806F5ED25246D9F8280043
:1097E00001F033FE002837D04FF400774EE05A06E0
:1097F000D0D5A3681A896369C3EB42139BB2C6E74D
:1098000090F8058008EA0108BBF1000F08D1B8F113
:10981000000F05D16FB912064CBF026A226A22619D
:10982000A26821699079526902398140114441440A
:10983000C4E71307216905D5A278570602D501317F
:109840002161EDE7019A01F0DAF8002804DBE7D1A5
:10985000237813F0D00F45D1637843F0020363708F
:109860004FF0FF303FE0CBF50077B7424FF00002FA
:1098700009F1240028BF374601F093FE0028EBD001
:1098800000EB0B013A4650460FF011FA63693B4476
:10989000BA446361F61B83E7207840064FEA5623FB
:1098A00006D499F80400A0EB0800834228BF0346C1
:1098B00091424FEA432707D95246D9F8280001F0D0
:1098C0009AFD0028E2D1C7E7C8188242F4D209F114
:1098D0002400CDE9021301F03FFEDDE90213002868
:1098E000EAD1B9E7A81B05B0BDE8F08F2DE9F04F2C
:1098F0001F4685B081460E46924601F1FF3801248D
:109900004FF0FF3304F1FF3B2546544520DA012296
:109910000DF10F014846FFF72BFF0128034617D131
:109920009DF90F100D29F0D008F8011F3FB90A2941
:109930000CD100237355284605B0BDE8F08F019087
:1099400038460FF099FF019B0028F2D10134D9E786
:10995000002B01DB5D46ECE74FF0FF35EBE7436999
:1099600037B5C3F34315044605B199B901220DF18A
:1099700007012046FFF7FCFE40B2012802D000207C
:1099800003B030BD63691F33A0686361343000EBFE
:109990004510F5E72033F7E72DE9F0410E46017851
:1099A0000769044639B34069B04206D03EB9266122
:1099B000A378666123F02003A37001201DE00B074C
:1099C00012D5E369B34216D3D4F808C0A2789CF844
:1099D00006300933DBB2751E520625FA03F50ED5A3
:1099E000236A1D442561E3E74D06EDD5A3681B8975
:1099F000B6EB431FDCD927610020BDE8F081421E91
:109A000022FA03F39D4200D398B90B064CBFDCF851
:109A10002030236A236104F11008002DC8D042468B
:109A20002169A06800F0EBFF002805F1FF35F4DCA8
:109A3000E1E7ED1AEFE7F8B50F46164600212422BC
:109A400004461D460FF057F9B868A68000F13402AD
:109A500006F00F0602EB46123B6AA060E360D17A83
:109A60000E073FD401F037012170D37A13F0180F9D
:109A70009DF81830E37008BF41F0080105F00303BA
:109A800008BF2170012B27D0022B23D053BB6B05BD
:109A900028D40123A370A1788F0706D5237813F06B
:109AA000110F1FD143F02003237005F008030B436F
:109AB000A370C36AA361518B938A6E0541EA034187
:109AC00014D559B9A37863F07F03A3706B0411D444
:109AD0000120F8BD0323DDE70223DBE701F06EF888
