:10400000007F00208D150100351401008915010085
:104010008915010089150100891501008915010024
:1040200000000000000000000000000089150100F1
:1040300089150100000000008915010089150100A3
:104040000000000000000000000000000000000070
:104050000000000000000000000000000000000060
:104060000000000000000000000000000000000050
:104070000000000000000000000000000000000040
:104080000000000000000000000000000000000030
:104090000000000000000000000000000000000020
:1040A0000000000000000000000000000000000010
:1040B0000000000000000000000000000000000000
:1040C00010B5054C237833B9044B13B10448AFF352
:1040D00000800123237010BD780200200000000042
:1040E00020CD010008B5034B1BB103490348AFF3D2
:1040F000008008BD000000007C02002020CD0100EF
:10410000002070477047FFFF10B5074B1968002269
:104110000C4611F9010B202804D0092802D002B165
:104120001C6010BD0122F3E7AC06002010B5044668
:10413000FFF7EAFF044A136893F90010A14204BF95
:104140000133136010BD00BFAC06002070B5002520
:10415000ECB2A1420CD90446264614F9010BB8B1C1
:104160002C2821D00A2801D00D28F5D100200FE0FD
:10417000013B0138114642F20146DBB210F9015F02
:10418000ECB20D2C05D92C2D07D100230B7001208A
:1041900070BD26FA04F4E407F7D48C1AE4B2A34203
:1041A000F3D901F8015BE9E7701C0135D0E7FFFFA7
:1041B0002DE9F843DFF83C900C4F064600254FF000
:1041C000BC0899F80030ECB2A3420CD908FB047487
:1041D0003146204614F0E9F801350028F1D194ED7C
:1041E0002D0ABDE8F8839FED020AFAE77C0F002054
:1041F000000000003A0A0020F0B52DED028B87B0D8
:10420000FFF782FF8A4A106890F900302D2B144680
:104210000BD101301060FFF7EFFFB1EE408AB0EE36
:10422000480A07B0BDEC028BF0BD212B0CD1013048
:104230001060FFF7E1FFB5EE400AF1EE10FA00F072
:10424000F3809FED7C8AEAE7282B09D101301060CA
:1042500000F070F92920B0EE408AFFF767FFDEE733
:104260005B2B35D10130002310601F46844610F9C6
:10427000015BE9B221F02006413E192EDAB217D9CE
:104280003039092914D95F2D12D00FB1C4F800C0FC
:1042900006AB1A44002302F8183C2268104612F9B3
:1042A000011B79B15D294FF00103F7D122600BE0CA
:1042B0000DF803500133172B4FF00107D6D12060C2
:1042C0001A46E5E703B120606846FFF771FF86E014
:1042D000782B05D10130584B106093ED008A9EE792
:1042E000D9B2A1F13005092D01D92E2B07D169468C
:1042F00014F0EEFE009B2360B0EE408A8FE721F0C1
:1043000020014139192904D9002B9AD001301060BD
:1043100097E700231F46844610F9011BCAB222F01A
:104320002005413D192DDEB228D9303A092A25D978
:104330005F2923D00FB1C4F800C006AB3344002579
:1043400003F8185CFFF7E0FE236893F90020282AA1
:1043500054D1013339492360684614F026F80646E3
:10436000B0B121682B4601220D4611F9010B00283E
:1043700038D1002B3FF465AF256062E70DF80310DC
:104380000133172B4FF00107C5D120601E46D4E73B
:1043900000F0D0F82A4C2C20F0EE408AFFF7C6FE41
:1043A0002578267000F0C6F82C20B0EE408A2778D9
:1043B000FFF7BCFE267000F0BDF829202678FFF735
:1043C000B5FEF5EE408AF1EE10FA04D0002D18BFCC
:1043D0002F46277023E7002D18BF2E462670B0EE1B
:1043E000408A1CE7002AC4D0282802D101320123C8
:1043F000BAE7292808BF02F1FF32F8E7012E7FF45F
:1044000063AF9DF90030412B01D10E4B65E7422B84
:1044100001D10D4B61E7432B01D10C4B5DE7442BE0
:104420007FF452AF0A4B58E7B7EE008AF7E600BFB9
:10443000AC06002000000000B0060020CFC0010044
:10444000B40600209C060020A0060020A406002040
:10445000A806002070B52DED028BFFF7CDFE1F4C96
:104460001F4DB0EE408A0126FFF74EFE236893F9F8
:1044700000202A2A06D101332360FFF7BDFE28EE73
:10448000008AF1E72F2A0FD101332360FFF7B4FE32
:10449000B5EE400AF1EE10FA03D12E709FED118AAD
:1044A000E2E788EE008ADFE7252A11D10133236095
:1044B000FFF7A2FEB5EE400AF1EE10FAF0EE400A68
:1044C000EBD0B0EE480A13F019F8B0EE408ACBE713
:1044D000B0EE480ABDEC028B70BD00BFAC060020F8
:1044E000B40600200000000010B52DED028BFFF790
:1044F000B1FF0F4CB0EE408AFFF706FE236893F938
:1045000000202B2A06D101332360FFF7A3FF38EEEA
:10451000008AF1E72D2A06D101332360FFF79AFFC5
:1045200038EE408AE8E7B0EE480ABDEC028B10BDD9
:10453000AC06002010B52DED028BFFF7D5FF334CF4
:10454000DFED338AB0EE408AFFF7DEFD236893F992
:1045500000203E2A0FD193F901203D2A3DD102339C
:104560002360FFF7C1FFB4EEC80AF1EE10FA11D9CB
:10457000B0EE688AE8E73C2A0FD193F901203D2A82
:1045800035D102332360FFF7AFFFB4EEC80AF1EE76
:1045900010FAEDDBB7EE008AD6E73D2A0DD193F98C
:1045A00001203D2A2DD102332360FFF79DFFB4EE99
:1045B000480AF1EE10FAEDD0DAE7212A21D193F979
:1045C00001203D2A1DD102332360FFF78DFFB4EE99
:1045D000480AF1EE10FADDD1CAE701332360FFF794
:1045E00083FFB4EEC80AF1EE10FAD3D4C0E701336A
:1045F0002360FFF779FFB4EEC80AF1EE10FAC9DCC8
:10460000B6E7B0EE480ABDEC028B10BDAC06002048
:1046100000000000F8B50F4615461C4613F02CFFAD
:10462000064608B90020F8BD384613F0E2FE3218FD
:104630003056222801D02728F4D1013C2B46E4B281
:1046400012F9011F41B1884206D05E1BF6B2B44296
:1046500002D903F8011BF3E700221A700120E2E7F8
:104660002DE9F04FF9B081469DF80C62869C879D3C
:10467000082E8A46934609AF14D15A4A0C2138466F
:1046800013F052FE00230DF150081BF90320D9B29C
:104690009AB12F2B10D02C2A08BF3B2208F80320F8
:1046A0000133F2E7092E01D14F4AE7E74F4A0C21C7
:1046B000384613F039FEE5E71946002308F80130C3
:1046C0000CA8EA56D9B242B11F2B05D02C2A08BF3C
:1046D0003B22C2540133F4E71946002343549B465E
:1046E00094F900105FFA8BF220AD59B3BBF15F0F64
:1046F00027D004223E49204613F097FE30B93E22CF
:1047000005F80B2004340BF1010BE9E704223949C9
:10471000204613F08AFE08B93C22F1E7052236490B
:10472000204613F082FE20B9262205F80B2005341E
:10473000E9E714F9012B2C2A08BF7C2205F80B208D
:10474000E1E75A460023013EAB54092E06D8DFE8C4
:1047500006F0472E303234363E383A3C274B9DF82F
:104760001002274A27499DF930400393002808BFCB
:10477000114625489DF80832CDF800800CAA002C7F
:1047800008BF02468898CDE90415CDE90620CDE999
:1047900001731E4A53464FF4807138A813F0C4FDCC
:1047A00038A948460EF049FE79B0BDE8F08F184BA5
:1047B000D5E7184BD3E7184BD1E7184BCFE7184B89
:1047C000CDE7184BCBE7184BC9E7184BC7E79DF867
:1047D0001432174A1748082113F0A6FD154BBEE7FF
:1047E000154BBCE740B601004BB6010054B60100C2
:1047F0005CB6010061B6010066B6010001B60100B9
:1048000035B6010039B601002FB4010072B60100BF
:1048100008B601000CB601000FB6010013B6010086
:1048200017B601001DB6010028B6010031B601001F
:104830006CB60100B506002004B601002DE9F04F6A
:10484000B5B014AE99469DF8043109930D469DF814
:1048500008310A93002182469346304620229DF873
:10486000FC409DF80C8112F0FEFF102200210CA8E4
:1048700012F0F9FF1CAF1022002110A812F0F3FF74
:1048800060220021384612F0EEFF202332466949AB
:104890002846FFF7BFFE10230CAA67492846FFF7FA
:1048A000B9FE102310AA65492846FFF7B3FE18B9D0
:1048B000634910A813F083FD60233A4661492846F6
:1048C000FFF7A8FE3B46194613F9012B202AFAD020
:1048D000092AF8D01CADA94208D008460B9113F064
:1048E00088FD0B99421C284612F0A4FF284613F0BD
:1048F00080FD00222844B84208D010F9013C202B4A
:1049000001D0092B02D100F8012DF4E74E490CA883
:1049100013F04BFD002878D04C490CA813F045FD4E
:10492000002874D04A490CA813F03FFD002870D02D
:1049300048490CA813F039FD00286CD046490CA852
:1049400013F033FD002850D10027B8F1000F66D1D5
:10495000099B002B65D1062F65D09DF97030782B0F
:1049600061D19DF97130002B5DD103223B49304666
:1049700013F05BFD002814BF3B460A233849099316
:1049800010A813F012FDB0FA80F04009099BB8F1AD
:10499000000F4AD10A9A52B9012202FA07F717F01A
:1049A000120F44D117F0640F14BF04241446449F1F
:1049B0002C4A99F900100495B8F1000F08BF17466A
:1049C0009DF800214497CDE90202274ACDE9004332
:1049D000002918BF4A46CDE905673E9B5946504617
:1049E000FFF73EFE35B0BDE8F08F20490CA813F06C
:1049F000DCFC40B11E490CA813F0D7FC68B1012CB7
:104A0000A2D0022C09D101279FE706279DE70327A3
:104A10009BE7042799E7052797E7022795E70823EF
:104A2000ACE70723AAE73B46A8E70024BFE7022438
:104A3000BDE700BF95C001009CC00100A9C00100F6
:104A400035B60100B1C0010017B60100B8C00100C1
:104A5000BEC00100C5C00100B7C00100CBC001004D
:104A600039B6010010B401008DC00100BDC00100C5
:104A7000C4C0010010B51421044611F027FE2046E1
:104A800010BD37B50024FAB102AD042A28BF0422B4
:104A900045F8044D01446BB9C85CE8540133D8B201
:104AA0009042F9D30198C2F1040200BAD200D0407A
:104AB00003B030BD15442346C85C05F8010D013331
:104AC000D8B28242F8D8EDE71046F1E738B50023B6
:104AD0000D460B702B49044613F067FC50B32A496E
:104AE000204613F062FC00283BD02849204613F0F2
:104AF0005CFC002837D02649204613F056FCA0B3B2
:104B00002449204613F051FC88B32349204613F072
:104B10004CFC70B32149204613F047FC58B32049A0
:104B2000204613F042FC40B31E49204613F03DFCE2
:104B300008B9092038BD1C49204613F036FCF0B1F5
:104B400003221A49204613F070FC0028F1D1E378C3
:104B5000303B092BEDD8E01C12F0CFFD2870072068
:104B6000E8E70120E6E70220E4E70320E2E704208B
:104B7000E0E70520DEE70620DCE70820DAE70A2088
:104B8000D8E700BF01B6010004B6010008B6010075
:104B90000CB601000FB6010013B6010017B60100F4
:104BA0001DB6010028B6010031B60100DBC00100CE
:104BB00010B50C463E2113F0EBFB08B9207010BD78
:104BC000002310F9012FD9B23AB13C2A05D00B2BA2
:104BD00002D0E2540133F4E7194600236354EEE7B0
:104BE0002DE9F043044689B00D461422002103A8A4
:104BF00012F039FE6368227A0092002BA6BFC3F33D
:104C00000A03184A184ADFF86480B8BF23F06043EB
:104C1000142103A813F088FB2B6802465B6803A9E4
:104C2000284698476FF00809064604F10907A9EBE2
:104C30000409227A09EB070393420ED217F8013BCD
:104C40004246142103A813F06FFB2B6802465B68F1
:104C500003A9284698470644EBE7304609B0BDE86B
:104C6000F08300BFDFC00100EFC00100FCB5010010
:104C700000B50A46D0F880148FB051B100236846C1
:104C8000ADF800308DF8023004F075FC0FB05DF81F
:104C900004FBD0F884040028F8D08DF831108DF88A
:104CA00032108DF833100B460146684603F08AFA3D
:104CB000ECE700B50A46D0F880148FB079B1002334
:104CC000ADF800308DF802306846012304F053FC43
:104CD00010B1684605F048F90FB05DF804FBD0F854
:104CE00084040028F8D08DF831108DF832108DF83A
:104CF000331001230146684603F064FA08B9002026
:104D0000EAE7684603F0F4FA0028F8D0E4E710B4C4
:104D1000846B24B120465DF8044B04F03DBAC06BAF
:104D200018B15DF8044B02F08FBF4FF0FF305DF813
:104D3000044B704710B4034600240C70986B18B1F4
:104D40005DF8044B05F015BAD86B18B15DF8044B4B
:104D500003F07CBE5DF8044B7047FFFF1346074A23
:104D600010B40C46116821B122465DF8044B05F0E1
:104D700095BB08465DF8044B704700BF0C29002026
:104D80002DE9F04FADF53B7D002281460F46564B95
:104D9000564929922AA8CDE938222893FFF7DEFF49
:104DA000002800F09180042400234FF480723AA977
:104DB0002AA8013CFFF7ABFF14F0FF04F4D118223E
:104DC000214608A812F04FFD00234FF480723AA943
:104DD0002AA8FFF79CFF002873DD0EAC182322469B
:104DE00000213AA8FFF7B2F906460028ECD094F962
:104DF0000030002BE8D008A9204613F0D6FA00288E
:104E0000E2D01722214608A813F021FB1023042129
:104E100000250DEB03023AA88DF83750FFF796F9FD
:104E2000334904A813F0C1FA0028CDD00DF1700861
:104E30003023424601213AA80DF1500AFFF786F9C6
:104E40002023524607213AA8FFF780F994F900B0D1
:104E5000284B214653F8250013F0A7FA002837D035
:104E600001350C2DF4D1692F1AD00026702F19D1DD
:104E7000BBF1530FA8D0204B204A002E14BF1E4672
:104E80001646CDE901A8009623461D4A4FF48071CD
:104E90007AA813F049FA7AA948460EF0CEFA93E7B9
:104EA000202318E0732F8FD1BBF1530F8CD1134BFC
:104EB000144A002E08BF1A46CDE900282346124A9C
:104EC0000CE02AA805F0D9FA0DF53B7DBDE8F08F7E
:104ED000692FCBD12A23CDE900480C4A4FF48071C9
:104EE0007AA813F021FAD6E788B2010001C00100C8
:104EF0001DB60100B0B50100D7BF010010B401001C
:104F000029C00100ECBF010062C0010019C001000E
:104F10000346806B08B104F093BAD86B08B103F074
:104F20009FBA704708B50830FFF7F2FF08BD034687
:104F3000806B08B104F02EBCD86B08B103F03EBC06
:104F4000704708B50830FFF7F2FF08BD07B502ABA0
:104F5000012203F8011D08301946FFF7E8FF03B0EE
:104F60005DF804FB054B1B78834281BF044B185C42
:104F7000084100F0010098BF00207047E9070020B9
:104F8000EA070020094B0A4A18600A4B83ED000A21
:104F900000231360084A1360084A1360084A13602C
:104FA000084B00221A70FFF7C5BA00BFAC060020FC
:104FB000A8060020B0060020A4060020A0060020BD
:104FC0009C060020B4060020F0B585B000259DF8B1
:104FD00028609DF82C700195042A144628BF0424EB
:104FE0004EB93546084401AEE9B2A14239D2415D1D
:104FF000A9550135F8E70844E9B2A1424FD2611B37
:1050000001AE3144465D01F8016C0135F4E712B997
:105010009FED260A3EE0019AC4F1040412BAE400AE
:10502000072B22FA04F209D11F2FF1D8FA4002F01F
:10503000010207EE902AB8EEE70A2BE0042B09D014
:10504000052BF6D0032B07D153B200EE103AB8EE81
:10505000C00A1FE013B2F8E707EE902AB8EE670A1D
:1050600018E0062BD3D19DF807308DF80C309DF851
:1050700006308DF80D309DF805308DF80E309DF816
:1050800004308DF80F30042203A902A812F0C7FBE8
:105090009DED020A0C98FFF775FF05B0F0BD062BD9
:1050A000B5D104220DEB0201EFE700BF00000000C4
:1050B00038B50B4B0B4A1860002313600A4A0B4C9F
:1050C00013600B4A13600B4A13600B4A0D461360C2
:1050D00000232370FFF72EFA23782B7038BD00BF12
:1050E000AC060020B0060020A8060020B406002070
:1050F000A4060020A00600209C0600202DE9F04117
:10510000B0B000222A4B2B490D920EA8CDE91C22EB
:105110000C931F92CDE92E221E93FFF71FFE04462B
:10512000C8B1254E254FDFF8988000220EA920A88F
:1051300005F0EFF9044658B12E9B83B11B7813F0AC
:10514000D00F13D0002420A805F097F9002CECD044
:105150000EA805F092F9204630B0BDE8F0812F9BF3
:1051600023B193F8313013F0500FEAE7302269464B
:1051700020A8FFF7DFFD684613F03BF9C5B20B2D01
:10518000E0D907223146684613F04FF90028D9D1FB
:10519000281F3946684413F008F905460028D1D184
:1051A00027226946064813F052F988F82750CAE7C3
:1051B00088B2010018B4010020B401006CC30100E2
:1051C000C10700202DE9F04F0025E3B0704B119589
:1051D00001462A4612A8CDE920551093FFF7BEFDDF
:1051E0000746002800F0D0806A4B6B4CDFF8CCB14A
:1051F00025701D709846DFF8C89100234FF4807227
:1052000022A912A8FFF783FD002840F3B68022AE42
:10521000B24696F90030002B00F09C80002D00F083
:1052200083805946304613F027F9002879D18AF84F
:105230000000494622A813F01FF9A0B1574922A83F
:1052400013F01AF978B1102308AA544922A8FFF7DD
:10525000E1F940B1524908A813F0A7F800287DD120
:10526000012388F800304F4922A813F005F90028DF
:10527000C3D023781F2BBED8182302AA4A4922A8DC
:10528000FFF7C8F90028B6D0DFF838912078BC269F
:10529000172202A900FB069013F0D9F8237843499E
:1052A00006FB03934FF0000A83F817A020230DEBB1
:1052B000030222A8FFF7AEF94E4694F800C03C4B1B
:1052C000002855D01F2203EB4C1008A9019313F0BE
:1052D000BEF82278019B03EB421383F81FA02378CA
:1052E000BC225A4302F14801002006EB010C16448F
:1052F00049F8010078224FF41061CCF8041086F8C8
:105300005020FF2286F8B0200133002286F8510099
:10531000C6F8B42086F8B80086F8B9003076237055
:1053200069E7C61C002574E72249304613F0A4F84B
:1053300030B9013E16F9013F63B10AF8013BF9E7C4
:10534000B04204D916F9013B0AF8013BF8E7061D03
:105350003D465EE700238AF800306AE7164908A850
:1053600013F023F800287FF47EAF88F800007AE776
:105370004FEA4C1C03F80C00B1E712A805F07DF8C9
:105380002778003718BF0127384663B0BDE8F08F93
:1053900088B201003C0A00203A0A00203AB4010019
:1053A00044B40100EDBF01004CB4010095C0010000
:1053B000940200202CB4010048B4010028B401007C
:1053C00031B401007C0F002030B50025ABB0504B4C
:1053D000504905952A4606A8CDE914550493FFF7D0
:1053E000BDFC044658B12B46502216A906A8FFF76B
:1053F0008EFCA84205DC06A805F03FF800202BB083
:1054000030BD454916A812F0E2FF2AAB1844062227
:1054100000F8505C414916A813F007F80028EAD1BB
:105420003F490DF15E0012F0C0FF28B19DF95E000A
:10543000A0F131035C425C413A4B50221C7016A92A
:10544000002306A8FFF763FC0028D4DD324916A824
:1054500012F0BDFF2AAB1844002300F8503C042290
:10546000314916A812F0E1FF04460028C3D10A22F0
:1054700017A901A812F0EBFF2C498DF80E4001A8E6
:1054800012F093FF044620B106A804F0F6FF0120B5
:10549000B5E70346502216A906A8FFF738FC0028F6
:1054A000A9DD1D4916A812F092FF2AAB1844052267
:1054B00000F8504C1E4916A812F0B7FF00289AD1E8
:1054C0001C490DF15D0012F070FF044620B106A8E2
:1054D00004F0D3FF022092E70346502216A906A843
:1054E000FFF715FC002886DD0B4916A812F06FFFA8
:1054F0002AAB1844104900F8504C16A812F055FF7A
:1055000000287FF478AF06A804F0B7FF032076E701
:1055100088B2010001C001000AB501000DB501000B
:1055200014B50100FE26002019B50100C00A0020B4
:105530001EB50100C107002024B501002DE9F04F80
:10554000C04BADF5397D1B780593002301939DF881
:105550000430059A9A42BC4B40F28A81019ABC25DC
:105560005543EA1892F84D20082A02D0019B0133D6
:10557000ECE7503300241D44A0464FF0180995F97C
:105580000070002F4BD0072C48D85B2F04BF01358B
:1055900001202B78A3F1410318BF0020192B39D823
:1055A0002A46002378AE154612F901CB5FFA8CF13A
:1055B00021F0200EAEF1410EBEF1190FDFB205D978
:1055C0003039092902D9BCF15F0F06D106F803C0B2
:1055D0000133172B1546E6D11F4606F8078038B170
:1055E0002B461D4613F9012B12B15D2A1D46F8D139
:1055F0004FF0000A5FFA8AF39C4240F2F08148AB18
:1056000009FB0A30314612F0D0FE0AF1010A0028E7
:10561000F0D1B4E70028B2D10135B0E70027DFF8B8
:1056200028A2FBB29C42A1D94FF0180848AB08FB56
:1056300007380025834B1B78EAB293420AD9BC2075
:10564000414600FB02A012F0B0FE01350028F1D166
:105650000137E6E71F2B08D97C497D480DF0EDFEA8
:1056600041467B480DF0F8FEF2E70022794B7A497B
:105670001F9220A8CDE92E221E93FFF76FFB029008
:105680000028E5D0042578AE00234FF4807231461F
:1056900020A8FFF73CFB002803DC20A804F0EDFE67
:1056A000D6E7013D15F0FF05EED100234FF48072DF
:1056B000314620A8FFF72BFB002840F3BF8040466F
:1056C00012F097FEC5B22A464146304612F0ADFEB2
:1056D00083460028E9D1735704932C2BE5D1594B0D
:1056E0001D784FF0BC0915FB09F309FB05A917222A
:1056F00041460AEB0300039312F0A9FE302312AADD
:105700000121304689F817B0FEF720FD0C230BAAC3
:1057100002213046FEF71AFD042308AA0321304671
:10572000FEF714FD10230EAA04213046FEF70EFDED
:10573000082309AA05213046FEF708FD602330AA98
:1057400006213046FEF702FD039B03F118002F22CD
:1057500012A9504412F07BFE0DF11F0189F847B0E9
:105760000EA88DF81FB0FFF7B1F99DF81F3089F82A
:105770004D0089F84F30394909A812F016FE039BF5
:10578000B0FA80F0400989F84E0003F1500000EBB8
:105790000A065F2230A9304612F059FE049B89F8B0
:1057A000AFB0701E10F9016F1EB17C2EFAD10370DC
:1057B000F8E72B490BA812F0F8FD002836D029494C
:1057C0000BA812F0F2FD88B3314610220BA813F09B
:1057D000DFFDBC2606FB05A6B06408A811F08DFF0E
:1057E00086F84C00BC2303FB05A5FF2385F8B030E9
:1057F0000023144AC5F8B430002385F8B8300123DB
:1058000085F8B930137818491148013313700DF039
:1058100014FE41460E480DF01FFE20A804F02DFE98
:10582000029B002B7FF414AF104916E7BC2303FB47
:1058300005A300229A6483F84C20D3E70023029347
:10584000EBE700BF3A0A00207C0F002050B40100B3
:105850004C3F002088B2010001C0010039B60100B0
:105860004BB6010040B6010071B4010085B40100DF
:105870006449654A0D78654C1278DFF8A4C1BC21F3
:10588000002005FB013101912070014686464FF052
:10589000FF098346019D9D423AD093F84D50083D43
:1058A000012D02D883F8B09016E000255FFA85FA42
:1058B0008A4513D25CF835709E6CB7424FEAC50832
:1058C00006D1E04493F84C6098F80470B74201D0D8
:1058D0000135EBE783F8B0A0BC33DBE72F29E1D833
:1058E00093F84C501AB905EB0E06542EDADC986C7E
:1058F0004CF831000CEBC10083F8B010AE4401311C
:10590000057180F805B0C9B21FFA8EFE0120E3E7E9
:1059100000B12170002A5ED126783D4C1146234605
:10592000C8B2B04203F1080307D213F8080C03F819
:10593000072C0244D2B20131F2E7364B36491A70D5
:1059400080230B7010234B70F0238B7002EB42020C
:10595000A82302320B710123CA704B710027062065
:10596000FBB2B34226D2237802464FF0000C5FFA16
:105970008CF502F10108AB425FFA88F813D954F8AC
:10598000045C0CEB050E4FEA1E458D54951CEDB2E0
:105990004FEA1E29033201F80890D2B201F805E05F
:1059A0000CF1010CE3E703EB43030344D8B20137E6
:1059B0000834D5E7441CE4B200231A46661E5D1C79
:1059C000DBB2B34204DACB5C1A4492B22B46F6E760
:1059D000124B0A541C700DF5397DBDE8F08F012F74
:1059E0007FF6CDAD04EB440748AB03EBC7071722A6
:1059F00031463846013412F02AFDE4B287F81780A8
:105A0000BDE500BF3A0A00203C0A0020390A002008
:105A100050080020380A0020BD060020C0070020E2
:105A20004C08002070B500249CB01B4E1B4B1C4939
:105A3000347022460CA80B94CDE91A440A93FFF760
:105A40008DF9054628B32346282269460CA8FFF79E
:105A50005EF9A0421ADD1349684612F0B8FC1CAB8F
:105A60001844062200F8704C0F49684612F0DDFC1D
:105A700060B90E490DF1060012F097FC28B19DF9AE
:105A80000650A5F131035D425D4135700CA804F06C
:105A9000F4FC1CB070BD00BFFE26002088B20100DF
:105AA00001C001000AB501000DB5010014B50100E7
:105AB00030B5144B1B78BDB005460BB300233CAC8E
:105AC0000393CDE9123340F209220F4B0F4944F8FA
:105AD000E83D04A8FFF742F990B10DF037FE0C4AFB
:105AE00000950346A02114A812F01EFC14A920461C
:105AF0000DF0A3FC04A8FFF70BFA04A804F0BDFC0A
:105B00003DB030BDFE26002088B2010083B5010003
:105B10009AB5010030B5164B1B78C7B005460C4648
:105B200023B300230393CDE9123340F20922114B32
:105B30001149029304A8FFF711F9B8B10DF006FE60
:105B40000E4B0F4A002C08BF1C46C8210346CDE966
:105B5000005414A812F0E8FB14A902A80DF06DFC83
:105B600004A8FFF7D5F904A804F087FC47B030BDBE
:105B7000FE26002088B2010083B5010010B40100A8
:105B8000A2B5010010B51449144892B0FFF770F89F
:105B9000D8B10022124B1049019202A8CDE910227F
:105BA0000093FFF7DBF880B1109B83B1DC6902A89A
:105BB00004F063FCB4F5006F07D907490748FFF705
:105BC00078F8084908480DF047FC12B010BD119C48
:105BD000002CECD02469EAE7DFB40100D40A0020ED
:105BE00088B20100F2B401004C3F002070B50F4CA8
:105BF0000F4E451E15F9011FB1B12288531C9BB2EF
:105C0000B3F5007F2380B154F4D34FF400723146D2
:105C10000848FFF78CF9B0F5007F1EBF064B012244
:105C20001A7000232380E5E770BD00BF0029002023
:105C3000FF260020DC090020780F002010B5084C5A
:105C400022885AB107490848FFF771F9238898421A
:105C50001EBF064B01221A700023238010BD00BF17
:105C600000290020FF260020DC090020780F0020FA
:105C700008B5FFF7E3FF094B186C48B103F054FD7A
:105C80000748FFF745F90648BDE8084004F0F5BBB2
:105C9000586C0028F4D002F025FDF1E7D40900206B
:105CA000DC0900201FB50A4B1B7804465BB9CDE91F
:105CB0000133009301231A464FF4FA6105F052FCB8
:105CC000204604B010BD034905F0FFFBF8E700BF14
:105CD000D00A0020CC0A0020F0B5C5B0002305464C
:105CE0000C460B93CDE91A3340F20922254B264985
:105CF0000A930CA8FFF732F8002841D008A8FFF754
:105D0000D1FF224A9DF825C09DF822009DF8203041
:105D10009DF823609DF824709DF821100091002CBF
:105D200018BF2246CDE9037C03F5FA63CDE905529D
:105D3000CDE90106164AA0211CA812F0F5FA1CA90B
:105D40000AA80DF07AFB0CA8FFF7E2F80CA804F003
:105D500094FB104910480DF070FB29460E480DF0D9
:105D60006CFB54B194F900303BB120210A480DF08E
:105D700068FB214608480DF060FB07480DF066FB04
:105D800045B0F0BD88B20100DFB4010010B40100DD
:105D9000B0B40100D5B401004C3F00202DE9F04F14
:105DA0009A4DADF50F7D4FF0000A994B1B785FFAC5
:105DB0008AF6B34240F220810022964B9649259202
:105DC00026A8CDE934222493FEF7C8FF8046002898
:105DD00000F0178104274EAC00234FF48072214657
:105DE00026A8FEF794FF002840F30881013F17F032
:105DF000FF07F1D1BC27774307EB0509484612F0AE
:105E0000F8FA864A7301D118D3560291834601935A
:105E100005E0029910A812F0C8FA002844D0002327
:105E20004FF48072214626A8FEF771FF002840F348
:105E3000E0805FFA8BF31A4649462046039312F03E
:105E4000F4FA0028EBD1039BE3562C2BE7D1302347
:105E500018AA01212046FEF779F90C2309AA02218C
:105E60002046FEF773F9042306AA03212046FEF715
:105E70006DF910230CAA04212046FEF767F90823C8
:105E800007AA05212046FEF761F9602336AA0621FC
:105E90002046FEF75BF9202310AA07212046FEF7D3
:105EA00055F9019B002BB4D107F118004FF0BC0B42
:105EB0000BFB065B2F2218A9284412F0C8FA002316
:105EC0008BF847300DF117010CA88DF817300193AE
:105ED000FEF7FCFD9DF817208BF84D008BF84F2046
:105EE0004F4907A812F061FA07F15004B0FA80F0A8
:105EF00040092C448BF84E005F22204636A912F050
:105F0000A6FA019B8BF8AF30013C2C2314F901BF9A
:105F1000BBF1000F04D0BBF17C0FF7D12370F5E784
:105F2000404909A812F041FA00285AD03E4909A870
:105F300012F03BFA002854D01022594609A813F059
:105F400027FABC2404FB0654A06406A811F0D5FB74
:105F500084F84C00BC2303FB0653FF2283F8B020D7
:105F60000022C3F8B420002283F8B82083F8B920B7
:105F700026A804F082FAB8F1000F2FD1BC235E43AB
:105F800006F148035A1943F805802E444FF4106374
:105F90005360782386F85030FF2386F8B030002312
:105FA000C6F8B43096F9183086F8518086F8B88073
:105FB00086F8B98043B907F118002F221B492844FD
:105FC00012F045FA86F8478044214B46184A36A815
:105FD00012F0AAF936A91348FFF77EFE0AF1010A6A
:105FE000E3E6BC2303FB065300229A6483F84C20AB
:105FF000B0E74FF00008BBE7012003E026A804F05B
:106000003CFA00200DF50F7DBDE8F08F7C0F0020DD
:106010003A0A002088B2010001C001009402002069
:1060200039B601004BB6010040B601008DC0010039
:106030005AB501002DE9F04F9C499D48ADF5537DBF
:10604000FEF716FE18B199499948FEF732FE002472
:10605000984D9649579440F2016258A86694679407
:106060005695FEF77BFE0C9040B993499348FFF795
:1060700033FE0C980DF5537DBDE8F08F904956A87E
:106080000DF0DBF98F4B904A402146A812F04CF9F5
:1060900046A956A80DF0D1F98C4B8D4A402146A84F
:1060A00012F042F946A956A80DF0C7F9894956A839
:1060B0000DF0C3F9854B884A382138A812F034F91D
:1060C000224638A96AA86994789479946895FEF76D
:1060D00045FE0B90002800F0CF821822214614A81C
:1060E00011F0C1FB3022214620A811F0BCFB602238
:1060F00021467AA811F0B7FB784B794A1978794B89
:106100000A94012908BF1A460D922746A3464FF06C
:1061100001080994254692AE00234FF4807231465F
:106120006AA8FEF7F4FD002840F3A3827DB96E490A
:10613000304612F0A1F90028EDD00D99304612F04A
:106140009BF9051C18BF0125E5E70925E3E7674929
:10615000304612F091F98246002840F08A82012DE3
:10616000B14640F027816249304612F085F9002897
:1061700032D16049484612F07FF9002840F0CE80C5
:106180005D49484612F078F90028C4D05B4948467A
:1061900012F072F90028BED018232CAA574948469D
:1061A000FEF738FA0028B6D017222CA914A812F04E
:1061B0004EF90024302320AA51498DF86740484603
:1061C0008DF880404FF00108FEF724FA27460A9424
:1061D000A346099407259EE74849304612F04CF93A
:1061E0000028C6D018231AAA44493046FEF712FAEE
:1061F000002890D0302251462CA811F034FB3023D7
:106200002CAA3F49CDF84CA03046CDE911AACDE9E2
:106210000EAACDF840A0FEF7FDF90C2311AA3949CA
:106220003046FEF7F7F904230EAA37493046FEF749
:10623000F1F92A4B1B781BB30021102211A813F08F
:10624000A7F89DF9B030314A81462CAE0EA8002B3C
:1062500008BF164611F051FA2D4A2E4B0493CDE992
:10626000052207230022CDE90132C0B201230390A9
:10627000009332464B461AA956A8FEF7F1F94AE7B1
:1062800008230FAA24493046FEF7C4F90028D3D0CA
:106290000FA811F032FA06460EA811F02EFAC1B27C
:1062A000F0B2FEF75FFE0028C6D134E701C001005E
:1062B000D40A002088B20100C4B20100E1B201009A
:1062C000F2B20100C00A0020FFB20100C1070020A5
:1062D00007B3010010B3010047B301003C0A0020DE
:1062E000BBB20100B2B2010052B301005CB30100C5
:1062F00068B3010071B301007DB301004CB401002B
:1063000088B301008EB30100A5B301008DC0010068
:1063100010B4010033B6010094B30100B0494846FF
:1063200012F0AAF800283FF42BAF18232CAAAC498E
:106330004846FEF76FF900283FF4EDAEA94B1B78F5
:10634000CBB117222CA914A812F081F80024302315
:1063500020AAA5498DF8674048468DF880404FF047
:106360000108FEF757F927468DF8E8410A94A3463D
:1063700009940425CFE6082311AA9C494846FEF754
:1063800049F90028DDD008231AAA99494846FEF7A2
:1063900041F90028D5D011A811F0AFF905461AA887
:1063A00011F0ABF9C1B2E8B2FEF7DCFD0028C8D1AC
:1063B0000225B0E6022D07D18E49304612F05CF876
:1063C000002818BF0125A6E6032D01D18A49F4E76C
:1063D000042D3FD18949304612F04EF828B10B9B6D
:1063E0008DF8E8A10A93062595E68549304612F016
:1063F00043F80028E0D008231AAA82493046FEF765
:1064000009F9044608B31AA811F077F95FFA80F881
:1064100008231AAA7C493046FEF7FCF80746B8B1B3
:106420001AA811F06AF95FFA80FB2CA93046FEF732
:10643000BFFB102200212CA812F0AAFF002F099008
:1064400018BF4FF00108052565E64FF00108DFE7AA
:106450008346EAE7062D2BD16C49304612F00CF842
:10646000F0B118232CAA6A493046FEF7D3F8002869
:106470003FF451AE9DF9E83143B17AA811F0B9FF6C
:106480006449C0F15F027AA811F0BBFF7AA811F04D
:10649000B0FF2CA9C0F15F027AA811F0B2FF3AE672
:1064A0005D49304611F0E8FF002818BF052532E6A7
:1064B000052D18D15949304611F0DEFF00283FF470
:1064C0007BAF7AAB06930A9BCDF80480CDE902B787
:1064D000CDE90443099B009314AA20AB314656A88A
:1064E000FEF7ACF917E6072D45D14D49304611F0BE
:1064F000C3FF30B94B49304611F0BEFF00283FF4CE
:1065000065AF3749304611F0B7FF00283FF41DAEA4
:1065100090F90320222A02D0272A7FF416AE0430F5
:1065200040F2214190F90030002B3FF40EAE9A4228
:106530003FF40BAE0023C5561DB13B4E9E57AE42F5
:106540000BD00346184613F9015B002DEAD02C2D21
:1065500000F09980AA42F5D1E4E701330A2BEAD191
:10656000837A223BDBB20A2BEBD821FA03F3DB0759
:10657000E7D50825CFE5082D58D12149304611F03F
:106580007BFF002854D02B461AAA1E493046FEF73E
:1065900041F80446F8B11AA811F0AFF85FFA80F894
:1065A00008231AAA18493046FEF734F80746A8B15E
:1065B0001AA811F0A2F84FF001085FFA80FB2CA98D
:1065C0003046FEF7F5FA102200212CA812F0E0FE6A
:1065D0000A2509909FE54FF00108E1E78346EEE7C1
:1065E0004CB401003C0A002088B3010094B30100C0
:1065F000A2B30100AAB30100B7B30100C3B3010005
:10660000CCB30100D5B30100A5B30100DDB3010097
:10661000E3B301005CC30100EEB30100F9B3010074
:1066200005B401000BB40100C00A0020092D07D1F8
:106630001649304611F020FF002818BF07256AE5EB
:106640000A2D7FF468AD1249304611F015FF00287D
:106650003FF4BCAE0F4B06930023CDE90443099BE6
:106660000093CDE902B7CDF8048020AB14AA3146DF
:1066700035E76AA803F001FF58A8FEF749FC58A8BF
:1066800003F0FBFEF5E418464CE700BF11B401002F
:10669000F9B3010010B4010008B505460C46FFF738
:1066A0001BFB134913480CF0C8FE294611480CF097
:1066B000C4FE94F90030B3B120210E480CF0C1FEA5
:1066C00021460C480CF0C8FE01210D200CF07AFF89
:1066D000FA200CF0F7FF00210D200CF073FFFA20D8
:1066E0000CF0F0FFF0E703480CF0B0FEECE700BF61
:1066F000D2C001004C3F002070B5B2B0002332ACD4
:106700000993CDE918330E463A4B44F8A83D0146AB
:1067100040F201620AA8FEF721FB0546002866D078
:1067200006A8FFF7BFFA344920460CF086FE33492D
:1067300020460CF082FE324920460CF07EFE314BA2
:1067400031492046002E08BF19460CF076FE2F492D
:1067500020460CF072FE2E4B2E492046002E08BF1C
:1067600019460CF06AFE9DF81D3005939DF81C300B
:1067700004939DF81B3003939DF81A3002939DF803
:10678000193001939DF81830234A03F5FA630093FA
:106790006021224B1AA811F0C7FD1AA920460CF05F
:1067A0004CFE1F4920460CF048FE69212046FEF7AA
:1067B000E7FA1C4920460CF040FE1B4920460CF02D
:1067C0003CFE70212046FEF7DBFA184920460CF00B
:1067D00034FE73212046FEF7D3FA154920460CF00B
:1067E0002CFE0AA8FEF794FB0AA803F046FE2846F2
:1067F00032B070BD88B20100BCBA0100E9BA010034
:1068000012BB010060B901002FB901005BBB0100A0
:106810003CBA010089B90100A0BB0100C00A0020F8
:10682000E1BB010026BF01006EBF010099BF01005E
:10683000BBBF010070B58CB000248DF80C10049221
:106840008DF80D40059403AB054693E8070009ABAE
:1068500083E8070006AE86E8070005F28C460ECBFB
:10686000304604F049F895F89F34C5F888648BB930
:10687000009301231A463146284603F07BFE38B9BF
:10688000009003460122D5F88814284603F072FED2
:106890000CB070BD2046FBE7164A1749C2F89014A9
:1068A0000121002382F895144FF42851C2F8803456
:1068B000C2F88434C2F88834C2F88C3482F8943434
:1068C00082F89634C2F8983482F89C3482F89D3469
:1068D00082F8A03482F8A13482F8A23482F8A3347A
:1068E000A2F89E14054A5360C2E91033044B1360AA
:1068F000704700BFD40A002000093D00D4090020E1
:1069000088B2010070B50121BEB00D200CF042FE2E
:1069100000210D200CF056FE9D4C9E484FF4E131B5
:106920000FF007FB40F213424FF496519A480CF0D7
:10693000E3F89A4A0A212046FFF77CFF90B998496C
:1069400094480CF089FD01210D200CF03BFEC8207D
:106950000CF0B8FE00210D200CF034FEC8200CF025
:10696000B1FEF0E7D4F88014002966D00023ADF81A
:10697000B0308DF8B2308B4A012301F244412CA88B
:1069800002F05FFE88498348884E0CF065FDFFF7F2
:1069900049F88748FFF78CF8FFF7F4F8002340F236
:1069A000092284492D932EA8CDE93C332C96FEF77D
:1069B000D5F948B180492CA80CF03FFD2EA8FEF770
:1069C000A7FA2EA803F059FD00252A467B49099510
:1069D0000AA8CDE918550896FEF7C0F90446002824
:1069E0003DD02B4608222CA90AA8CDE92C55FEF74C
:1069F0008EF90AA803F041FD2CA810F07EFE42F2A9
:106A00000E72431E934288BF01206D4B18806D4962
:106A10006D486E4E04F042FD6D4A6E4B307000289A
:106A200014BF10461846FFF743F8FEF767FB00282F
:106A30004ED169496948FFF72FFED4F88404002835
:106A4000A0D08DF8E1108DF8E2108DF8E31001234D
:106A500000F58961534A2CA801F09FFD92E71B9035
:106A6000CDE92A002D90CDE93C0002464D491A9609
:106A70001CA82C96FEF772F930B300221CA92EA890
:106A800003F047FDA0B1202269462EA8FEF752F977
:106A90002EA803F0F2FC9DF80030303B092BECD817
:106AA000684610F02AFE80B2844238BF0446E4E70C
:106AB0001CA803F0E2FC42F20E739C4206D801349B
:106AC000A4B23F4B1C80A2E70446F8E70124F8E794
:106AD00043494448444D454CFFF71CF844492C4871
:106AE000FEF7C6F8434B187090B14148FEF76AFBB9
:106AF00018B941494148FFF7EFF82B78012B42D1F3
:106B00003F49404805F04CFD38B93F493F4892E7BE
:106B1000287020703E493F48EDE73F491D480CF082
:106B20009BFC23783D4A30212CA811F0FDFB2CA9B9
:106B30003B48FFF7D1F82A493A48FFF7CDF83378B8
:106B40001BB939493948FFF7C7F8394911480CF0E2
:106B500074FC0A2221780F480CF0B3FC35490D482B
:106B60000CF07AFC34490B480CF067FC1C490948CE
:106B70000CF072FC01210D200CF024FD2F4B0022A3
:106B80001A703EB070BD002BCBD02D492D4852E776
:106B9000D40A00204C3F0020EC33002040787D01D7
:106BA000BFC2010018B40100D4C2010088B20100C4
:106BB000E1C20100DFB40100BABA01000AC301005A
:106BC000FC260020E0290020CC0A0020D00A00206A
:106BD00097C20100A5C201001EC301003FC301000E
:106BE000C10700204CC301003C0A00203A0A0020E3
:106BF0005EC30100CD09002071C3010097C30100ED
:106C000020A107005C2E0020EBC301001AC4010084
:106C1000A5C30100DBC3010028C4010080C401003A
:106C200093C401009EC40100A6C40100D7C40100A2
:106C3000E0C40100F4C40100FCC401003B0A0020D0
:106C400041C401006CC4010038B504460CF07EFD5F
:106C5000054608480BF0EFFD38B90CF077FD401BF6
:106C6000A042F6D34FF0FF3038BD0248BDE83840AF
:106C70000BF042BEEC3300202DE9F04FF9B0834B0E
:106C8000834A30210AA811F04FFB0AA98148FFF777
:106C900023F8814981480CF0D0FB7C497F480CF0F7
:106CA000DBFB7A497E48FEF735FFFEF78DFB0328B4
:106CB00019D0A0B1012814D14021744B794A38A8C9
:106CC00011F032FB38A97848FFF706F8774B00221D
:106CD0001A70FFF7AFF950B975497648D3E0764995
:106CE000F1E77649EFE776497648FEF7F5FF0022AF
:106CF000754E7649279228A8CDE936222696FEF7CA
:106D00002DF8044668B1042500234FF4807238A999
:106D100028A8FDF7FCFF002859DC28A803F0ADFBEC
:106D20000024624A84F001031370002C40F0938029
:106D3000564B674A402116A811F0F6FA16A9654885
:106D4000FEF7CAFF644955480CF086FB6349644866
:106D5000FDF78EFF002873D022466049279428A8AB
:106D6000CDE936442696FDF7F9FF002868D05D4F3F
:106D70002925013D15F0FF0549D000234FF480720D
:106D800038A928A8FDF7C3FF002840DD394638A8F8
:106D900011F072FB0028ECD03A2111F0F9FAB0B3EF
:106DA00001300146013091F90030202BF9D0002349
:106DB00006A8CA5632F02005DCB220D00D2A1ED01B
:106DC0000A2A1CD00F2B19D0C2540133F1E7013D20
:106DD00015F0FF0598D100234FF4807238A928A838
:106DE000FDF795FF002807DD9DF9E030452BF2D136
:106DF00028A803F042FB94E70024F9E71C4600238F
:106E00002249035511F0D1FAB0FA80F4640928A898
:106E100003F033FBA4B134493448FEF75DFF2F483B
:106E2000FEF7D0F9FEF7BAFF00287BD130491E48A3
:106E3000FEF752FFFFF7FEF8002871D12D494CE70D
:106E400001212648FFF758FC2B492C4B002818BF7E
:106E500019462B48E1E72B4C217871B92A48FFF7F6
:106E60004BFC2A4B2A49002818BF19462448FEF734
:106E700033FF012323702448D2E7264B1B78002BD5
:106E8000D0D125492548FFF707FC00BFC00A0020E4
:106E90000FB7010019B7010023B701004C3F0020D4
:106EA0002AB701003DB7010059B701009406002040
:106EB000C4B20100E1B201008EB60100A2B6010029
:106EC00065B701007BB7010088B2010001C0010075
:106ED00085B70100B4B70100C5B70100FEB70100D6
:106EE000D40A002015B801001CB8010040B8010008
:106EF00089B8010010B40100CCB60100B5B601009C
:106F00004DB80100CD0900205EC30100E2B60100CA
:106F1000FDB601003A0A002059B801007FB801000F
:106F2000FEF73CFF38A8654C654DFEF7BBFE9DF8AB
:106F3000E520238805929DF8E42004929DF8E32043
:106F400003929DF8E22002929DF8E12001929DF8C3
:106F5000E0205C4802F5FA6200921C215A4A11F0C6
:106F6000E3F95A4A574B282138A811F0DDF940F2CD
:106F7000016238A905F10800FDF7F0FE002800F0D5
:106F80008C80286C002839D04FF0487102F0ABFBA0
:106F900018B94F494F48FEF79FFE4F4BDFF880A1CD
:106FA000DFF88081DFF880B100251D804B4B1D701C
:106FB0000CF0CCFB4A4B18604A48FEF717FE9AF8D3
:106FC0000030E8B2834222D9BC27474308EB0709C7
:106FD00099F8B93083B95846FEF708FE07F1180052
:106FE0004044FEF703FE4048FEF700FE4846FEF729
:106FF000FDFD3E48FEF7FAFD0135E0E7686C00282C
:10700000C7D04FF04872002301F028FBC0E7384892
:10701000FEF7ECFD238801339BB242F20F729342DC
:1070200042D8238040F201620023324939933AA8C2
:10703000489349933896FDF791FE78B123882E4AFC
:10704000082126A811F070F926A938A80CF0F5F946
:107050003AA8FDF75DFF3AA803F00FFA2749284840
:107060000CF0EBF9174926480CF0F6F9FEF766FA32
:10707000244B1C78D4B9244D24492A7824480BF099
:10708000AFFC23480BF09BFB2D78E3B29D420DD95A
:107090003220FFF7D9FD0134F7E70A491D48FEF712
:1070A0001BFE79B0BDE8F08F0123BAE71A4B01222D
:1070B0001A701A4B02221A70F3E700BFFC26002058
:1070C000D40900201C0A0020A1B8010047B3010028
:1070D000C4B80100F9B8010000290020780F002091
:1070E000D009002007B9010010B901003EB8010025
:1070F000BABA01000AC3010022B9010028B901008F
:107100004C3F00203C0A0020C0070020BD060020A4
:10711000EC33002013B90100CC0900203B0A002009
:107120003A0A00207C0F00200EB9010010B5054C72
:1071300004480BF080FB18B120460BF0DDFBF7E7AD
:1071400010BD00BFEC33002000B589B04FF481734F
:10715000ADF8043055238DF807308DF808308DF8E0
:1071600009308DF80A308DF80B300D4B03934FF436
:10717000FC6308228DF80600049301A900230DF199
:1071800015008DF81420CDF81530CDF8193010F019
:1071900046FB03A9034805F05BF809B05DF804FB62
:1071A000A0B201005C2E00202DE9F0410C4686B013
:1071B0000021064690462046042210F054FB0CF0B5
:1071C000C5FA194D07460CF0C1FAC01B404528D23C
:1071D000284605F091F80028F5D0294601A805F0C9
:1071E00076F8029BB3F5FD6FEDD19DF80C20022AD5
:1071F000E9D99DF80E30412BE5D19DF80F30B3420F
:10720000E1D1013C03239A4207DD01A9194401336E
:10721000497A04F8011F072BF5D1012006B0BDE81B
:10722000F0810020FAE700BF5C2E0020F0B54C4B47
:107230001B789DB0012B04AD17D10020FFF784FF10
:107240004FF4967229460020FFF7AEFF044648B17E
:10725000444D45490A22284611F0F9F8434A0023D3
:10726000AB72137020461DB0F0BD414B18680490FE
:107270009B884048AB80062229460CF0B9F83D486F
:107280000BF09DFA06243220013CFFF7DDFC14F0E0
:10729000FF04F8D14FF49670FFF7D6FC002801DA0E
:1072A0000024DFE728550134042CF3D19DF8103079
:1072B000802BF5D19DF81130F02BF1D19DF81230D3
:1072C000102BEDD19DF81340082CE9D9671C5C2FD9
:1072D000E6D800266420FFF7B7FC0028E0DBAB19F6
:1072E00001361871B3B29F42F4D8611DC9B21CAB0C
:1072F0000B44013913F8610C00231A465D1CDBB204
:107300008B4207DA1CAE334413F8603C1A4492B245
:107310002B46F3E7D2B29042C2D19DF81C200392D3
:107320009DF81B2002929DF81A200192013C9DF8C5
:1073300019209DF818300092E4B20F4A09480B2139
:1073400010F0F2FF602C28BF602422460DF11501D9
:107350000A4810F064FA054B1C70012482E700BF54
:107360003C0A0020C00A0020E0B50100E907002027
:10737000ACB20100EC330020ECB50100EA070020BC
:107380002DE9F04F2DED028BC74D2B78ADF5097D22
:10739000A9461BBBC54C236813B90CF0D7F9206074
:1073A000FFF744FF054620B100232360FFF764FC8C
:1073B0000EE00CF0CBF92368C01ABD4B984207D9F8
:1073C0000123BC49BC48256089F800300CF044F822
:1073D0000DF5097DBDEC028BBDE8F08F012B43D18B
:1073E000B649B74E0A68B74822F004020A6001F5B0
:1073F000CC21EC31B44A00244FF4F0470C700470F7
:10740000147034707470B470B47126F8097C40261E
:10741000067007201070AD4A0B70D2F8A031AC484E
:1074200043F08073C2F8A031AA4B4AF20352A3F88A
:10743000FE239A8942F400429A81027B64F300029F
:10744000027393F8402064F3C71283F8402030BFE2
:107450004FF42542A3F8FE2310230B70FFF7E6FE3E
:107460000028B5D02C70A1E7022BB1D180220021D9
:1074700006A810F0F8F9984B04931A78012A6CD1F9
:10748000DFF86C824FF0000A944B1B785FFA8AF5A4
:10749000AB4240F22F81BC246C4308EB040696F803
:1074A0004D30083B012B03D996F8B030FF2B0CD19F
:1074B00006AB03EB850300221A60BC2303FB0585A2
:1074C000C5F8B4200AF1010ADEE7854A12F8333024
:1074D000059388AF18464FF0000BFFF735FE47F8CD
:1074E000C8BD059B4FF4FA6239461846FFF75CFEAB
:1074F000002800F02D8196F84D30A3F10802012AF2
:1075000028D95034444496F84C20029496F84F10F1
:10751000019196F84E10009138465946FDF754FDFA
:10752000BC2202FB058206AB03EB850383ED000A58
:1075300092F84D3082ED2D0A0A2BC3D192F84E30CD
:1075400092F84C2000213846FDF79BFA654B43F832
:107550002500B7E79FED640AE2E7644F41F2883007
:107560003C78FFF771FB0028C0F2F28088AE063449
:1075700006F8C80DE4B20125EBB29C4208D9C82038
:10758000FFF762FB0028C0F2E380A8550135F3E75E
:107590009DF85831802B40F0DB809DF85931F02B5D
:1075A00040F0D6809DF85A31102B40F0D1803A78C7
:1075B0009DF85B11531CDBB2994240F0C9809DF8E5
:1075C0005C31E82B40F0C480013C88AB234413F8C5
:1075D000C80C002319465D1CDBB29C4207DD88AE57
:1075E000334413F8C83C194489B22B46F3E7C9B2B7
:1075F000884240F0AD800DF25D1126A810F00FF921
:10760000DFF8D8B0DFF8E8A09FED378A4FF0000828
:107610009BF800305FFA88F6B3426BD9BC20704308
:107620000AEB0004B50094F84D30092B08D106ABE5
:107630001D4485ED008A84ED2D8A08F10108E7E7F5
:10764000082B03D094F8B010FF2904D106AB1D44D9
:1076500085ED008AF1E7224F94F84C2007EBC10733
:10766000503050447979029094F84F00019094F88A
:107670004E00009026A8FDF7A7FC06AB1D4494F829
:107680004D3085ED000A0A2B84ED2D0AD5D194F8F2
:107690004E3094F84C20797926A8FDF7F2F9114B79
:1076A00043F82600C9E700BF3B0A002098060020E7
:1076B000BFD40100FFC001004C3F00201CE001408E
:1076C0000941084018410840194108400060004045
:1076D0000054004000E001403C0A00203A0A00202B
:1076E0004C080020400A002000000000380A00205A
:1076F0007C0F00209B4B9C4D1A78002A69D00024F7
:107700000DF198081822214640461C7010F0ABF885
:10771000DFF870A2264627464FF0BC0B2878E1B26E
:1077200088422CD90BFB01A191F8B93073B991F8BB
:107730004D300136092BF6B208D198F900300137E7
:10774000FFB21BB91722404610F081FE0134E5E775
:1077500086498748FEF7C0FA864987480BF07CFEC9
:10776000FEF76CFAFEF784FA049B1B780BB9FFF75F
:10777000DDFC824A002389F80030136028E6804B44
:107780001B78002B63D000217E4E0A460B46BC2797
:10779000CCB2A04211D907FB01F404EB060C9CF813
:1077A000B9C0BCF1000F06D1A457502C0BBF013358
:1077B0000132DBB2D2B20131EAE7CDE90032482131
:1077C000714B724A56A810F0AFFD714856A9FEF7EA
:1077D00083FA6C4FDFF8FC8100262B78F4B2A342C9
:1077E0004BD9BC20604307EB000A9AF84D30082BB8
:1077F0002BD15030002326A938448DF89830FDF75E
:1078000057FC88AB03EB8403A3F5027383ED000AF6
:107810009DF89830B0EE408A93B19AF8B8307BB9B1
:1078200001238AF8B8300BF091FF502100905346A5
:10783000424656A810F078FD56A95648FEF74CFA75
:10784000BC2303FB047484ED2D8A0136C5E757B1D0
:107850004821CDF800804C4B4F4A56A810F064FDEB
:1078600056A94E48B3E748210096474B4C4A56A8C4
:1078700010F05AFD56A94B48A9E70BF067FF4A4A9A
:10788000404E4A4FDFF850810346142156A810F0AD
:107890004BFD56A8FEF7AAF900242B785FFA84FB6B
:1078A0005B452ED94FF0BC0A0AFB0B6A9AF8B93037
:1078B000ABB93846FEF79AF99AF84D300A2B10D139
:1078C0003B4A9AF84C3052F82B2000925B00394A20
:1078D000142156A810F028FD56A8FEF787F90134A8
:1078E000DBE788AB03EB8B03A3F5027318680FF09B
:1078F00055F84246CDE90001142156A810F014FDB8
:10790000EAE72D482D4CFEF771F90BF01FFF2368B5
:10791000C01AB0F57A7F07D3FEF790F92848FDF733
:10792000F7FA0BF013FF2060264B1A78002A3FF479
:107930004FAD1549244800241C70FEF7CDF92349AA
:107940000D480BF089FDFEF779F9FEF791F9204B10
:107950001B780BB9FFF7EAFB084B89F800401C6065
:1079600036E500BFCC0900203A0A00202DC10100F5
:107970004DC101005DC101004C3F00209806002070
:10798000940600207C0F00201C0A002084C1010006
:10799000ACC1010042C20100C3C10100D8C1010055
:1079A000F7C1010009C201004BC201000EB901007C
:1079B000400A00204FC20100BABA0100D0090020DD
:1079C000DC090020780F00205CC201006AC20100BF
:1079D0003C0A002019C2010057C20100F0B500F1B5
:1079E000240305460F46164693E8070085B001AC10
:1079F00084E807007A012146286A01F076F9012817
:107A000006D132462146286A01F020F905B0F0BDC2
:107A10000020FBE710B5044600F022FD002384F8A7
:107A2000313084F8333010BD38B50D4690F8311040
:107A3000044651B938220FF016FF4023012084F884
:107A40003130256284F8330038BD0020FCE7FFFFA9
:107A5000F0B491F90040202C01F1010522D01A4F19
:107A6000116091600D460E4615F9014B1CB32F2C89
:107A70001AD01F2C24DDE6B2A6F12201C9B21D29BD
:107A800003D827FA01F1C9071AD424F040013C2990
:107A900016D05C2C14D02E2E02D0202E00D0956053
:107AA0002946DFE72946D4E70E4611F9014B202C81
:107AB000FAD02F2CF8D01E601146F0BC00F0F8BFB1
:107AC0000020F0BC704700BF010100312DE9F74FE5
:107AD00090F83330DF0704460E46154664D5580645
:107AE00003D494F8313019070CD5D4E90023D4E934
:107AF000040112EB050843F10009494508BF404560
:107B000038BF851A04F11803A8460093B8F1000F96
:107B100000F09580206AD4E90023D0F8387417402B
:107B2000C7F3080B4FB913432BD194F831305A06E1
:107B30004CBFD0F83434E369A361D4F820A0780AAC
:107B4000A7699AF845C4DAF82C14023F07FA0CF733
:107B500007440F44BBF1000F2FD1B8F5007F2CD3A1
:107B6000DAF818128F4228D0B8F5806F45D2324625
:107B70003946DAF8140202F0CDFFA8B14FF40079CB
:107B80002FE094F83330A1695B0602D50131A16181
:107B9000D3E7009A01F074F8002805DBCDD194F802
:107BA000313013F0500F4AD194F8323043F00203D1
:107BB00084F832304FF0FF3043E0CBF50079C14517
:107BC0004FF0000239460AF5047028BFC14603F0A1
:107BD0004DF80028E8D000EB0B014A4630460FF084
:107BE0001EFED4E9002312EB090043F100014E44CC
:107BF000C4E90001A8EB090888E7012202FA0CF2A7
:107C0000131A4FEA582E734528BF73468F424FEA26
:107C1000432908D932463946DAF8140202F050FFF7
:107C20000028DED1C0E7FA189142F3D20AF50470B9
:107C3000019302F0F6FF019B0028EBD1B4E7A5EB1E
:107C4000080003B0BDE8F08F2DE9F04F1F4685B066
:107C500081460E46924601F1FF3801244FF0FF3372
:107C600004F1FF3B2546544520DA01220DF10F01B6
:107C70004846FFF72BFF0128034617D19DF90F1047
:107C80000D29F0D008F8011F3FB90A290CD10023B3
:107C90007355284605B0BDE8F08F0190384610F0C6
:107CA00077FB019B0028F2D10134D9E7002B01DBDF
:107CB0005D46ECE74FF0FF35EBE72DE9F74F90F825
:107CC00031C08569044616461F46BCF1000F69D0D5
:107CD000D0E90001994208BF904206D056EA070356
:107CE00005D10023A361C4E9006701205CE01CF01A
:107CF000080F05D0D4E90423BB4208BFB24251D3D8
:107D0000D4F8209016F1FF3247F1FF3399F845E49B
:107D1000CDE90023009B0EF1090E5FFA8EFE23FAD7
:107D20000EF2019BCEF1200AAEF1200803FA0AFA06
:107D300023FA08F894F8333042EA0A0213F0400FAD
:107D400042EA0808CEF1200BAEF1200A02D0E36926
:107D50004344C7E710F1FF3241F1FF3322FA0EFE30
:107D600003FA0BFB4EEA0B0E23FA0AFA4EEA0A0E4E
:107D7000F04502D350EA010319D11CF0400F14BFA3
:107D8000D9F83434E369A36104F11809B8F1000F9C
:107D9000A9D04A46A169206A00F072FF002808F1C4
:107DA000FF38F3DCA561002003B0BDE8F08FA8EB3D
:107DB0000E08E9E72DE9F04F994690F831308DB083
:107DC00004460E461546002B45D191F8313013F08C
:107DD000500F40D009F00303012B05D0022B41D0F6
:107DE000002B38D1012300E0022309F0080A4AEAF7
:107DF000030A002D38D0EF680F230E370022B7FB9F
:107E0000F3F7304602370023FFB2FFF756FF4FF07B
:107E10000008C346202204A93046FFF757FE002879
:107E200000F0C580202816D19DF81020100620D41F
:107E3000BBF1000F05D13168A1F120030193B369B3
:107E40000093BB453CBF0BF101035FFA83FB6AB9AA
:107E5000002D40F0AC804FF0000884F8318084F8A9
:107E600033806EE00323C0E70327D0E7002080467D
:107E7000D0E7B8F1000F27D1BB4538BF4FF0000B5A
:107E8000852AF3D13822414620460FF0ECFC9DF8BC
:107E900014109DF8112084F8302001F03702C90633
:107EA00058BF42F0080284F83120326A2262B26977
:107EB00062623268203AA26296F83320C2F38012DE
:107EC00084F82C200120D2E7C02A4FD1DDE9060139
:107ED0009DF8112084F833A09307C4E90401DDE97B
:107EE0000A0144BF4AF0400284F83320099AE26153
:107EF000C4E902014DBB19F4006FACD119F4884FED
:107F000003D194F83330990704D594F8313013F045
:107F1000110FA0D119F4806F39D094F833309A073B
:107F200099D5002200232046FFF7C7FE002892D0F3
:107F3000204600F0D7FB00288DD094F833309B0703
:107F40002ED440460DB0BDE8F08F2A686A60E9681B
:107F50009DF81320914289D1288ABDF81420A0EB06
:107F6000020CDCF1000040EB0C0080E7C12A7FF43A
:107F70007DAF2A4604A9204600F03EFD00283FF4CC
:107F800076AFD5E9012191427FF471AFB3E719F4DF
:107F9000804FD2D0D4E904232046FFF78EFECAE7F3
:107FA00094F8313043F0200384F83130C9E719F4F4
:107FB000007F3FF450AF1AF0020F3FF44CAF002D9A
:107FC0003FF449AFBB4521D2202204A93046FFF738
:107FD0007DFD50B93046D6F8188000F060FA0028D0
:107FE0003FF439AFC6F81880ECE720287FF433AFB0
:107FF000BBF1000F05D13268A2F120030193B369F0
:1080000000930BF101035FFA83FBDBE738220021C9
:10801000204696F833800FF026FC336A236228232B
:1080200084F83130009B6362C8F38018019BA3621F
:1080300084F82C802B686B6007F1FF384FF0000943
:108040005FFA88F85FFA89FBBB4556D20122594690
:108050002046FFF7C3FC064600283FF4FCAE90F92B
:108060000020002AFFF6F7AE202200210FF0FBFBD4
:10807000BBF1000F20D185233370224B84F8308070
:1080800086F801801B688BB10DF10B020DF10E011A
:1080900003A89847BDF80C307381BDF80E303381CA
:1080A0009DF80B30337509F10109CBE745F6214303
:1080B0007381F3817382F6E7BBF1010F0CD16AF093
:1080C0007F03C022327086F801B084F83330EB6849
:1080D000F3702B8AB380E6E7C1233370A86806F1FA
:1080E0001E026B688342DED0591C696093F9003030
:1080F00026F8023FB242F4D1D5E7204600F0B0F9AD
:1081000080461EE710290020F0B597B01F460023D7
:108110008DF851308DF852308DF8533090F8313061
:10812000019205460C4613B1002017B0F0BD91F83E
:10813000313013F0500FF7D092F900302F2B13D1BC
:10814000019B93F900202F2A02D101330193F7E715
:10815000216A1AB92846FFF767FCE6E708A8FFF787
:1081600063FC0028E0D008AC01AB03AA01992846C3
:10817000FFF76EFC0028D7D0019B93F90030D3B1F4
:10818000002303AA21462846FFF714FE0028CBD07F
:1081900008AA2B4605F1300C144618685968164693
:1081A00003C6083363453246F7D118683060284665
:1081B000FFF730FCD8E73B4603AA21462846FFF7E5
:1081C000F9FDB2E719B101F58961FFF79DBF0846D6
:1081D00070472DE93008134690F831208AB991F89C
:1081E000315015F0500F0CD0D1E900454FF0000C84
:1081F00004F01F0B5BEA0C0403D1BDE83008FFF765
:10820000D9BD0020BDE83008704710B504780023C0
:10821000CA0342EA5101C25C012B12FA81F189B210
:1082200008D1852C14BF0122032213441F2BEFD940
:10823000084610BD0122F8E710B5044602F0F1FC33
:1082400050B104F5047002F0ECFC28B1D4F84004FD
:10825000BDE8104002F0EDBA002010BDF8B50446AC
:10826000006AA16901B10131012200F04BFC012833
:10827000054602D800263046F8BD012301461A46BD
:10828000206A00F091FC06460028F3D0A26994F819
:1082900033302AB943F0400384F83330A561EAE76C
:1082A000590613D50132AA42F8D023F04003E16900
:1082B00084F83330A369206A8B4207D94F1C3A46B1
:1082C00000F033FD39460028F4D1D3E74FF0FF32F8
:1082D0002946206A00F029FD0028CBD0A169002999
:1082E000DCD02A46206A00F020FD0028D6D1C1E764
:1082F0002DE9F04890F833309A07044602D4002064
:10830000BDE8F088C16989B9002594F83030E9B238
:108310008B422ED301222046FFF760FB0135002857
:10832000EDD0037803F07F030370EEE75B06006A8D
:108330001CD5D4E9026790F845240932D2B216F16F
:10834000FF3B47F1FF3CC2F12005A2F120030CFAEC
:1083500005F52BFA02F22CFA03F32A431A430132F1
:10836000002300F021FC0028CED1C8E700F0FAFC81
:10837000F9E7002384F8313084F83330206AFFF7BE
:108380005BFFBDE72DE9F3410026DFF8D08005460D
:10839000374695F83030F1B28B4249D30022284657
:1083A000FFF71CFB044600284ED00378C02B2AD0D0
:1083B000C12B21D0852B47D195F8313003F03703FD
:1083C0008380D8F8003083B10DF103020DF106016E
:1083D00001A898479DF80330BDF806206375BDF8E5
:1083E0000430A281E381228263822A6A92F81032E9
:1083F00043F0010382F8103239462046FFF705FFAB
:1084000001360746C5E795F83320437852064CBF3E
:1084100043F0020323F002034370D5E90423C0E9CB
:108420000223EB694361D5E90223C0E90623DCE7B7
:10843000012205F12401286A00F008FC20B14780E0
:10844000286AFFF7F9FE30B995F8323043F001039E
:1084500085F83230002002B0BDE8F08110290020FC
:1084600010B590F8313004460BB9012010BD90F8DA
:1084700033301A0607D503F07F0380F83330BDE8A8
:108480001040FFF77FBF006AFFF7D6FE0028ECD14F
:1084900094F8323043F0010384F83230E6E7F8B55F
:1084A00090F831305A0604462ED5006A00F0F8FCE8
:1084B000236AD3F83C341844B0F1806F47D2204689
:1084C000FFF7CCFE002842D0236AA56993F8452423
:1084D000D3F82C34023D95401D4400260127206A24
:1084E00090F8453407FA03F3B3420FD90522A919CE
:1084F00000F5047002F0BAFB48B34FF4007200219B
:108500000FF0B1F90136EAE78068D1E794F831302D
:108510005B0617D494F8333063F07F0384F833306C
:10852000D4E90223D0F83C14551843F10006C4E9FD
:108530000256D4E90423D0F83C14551843F1000640
:10854000C4E904562046BDE8F840FFF789BF002083
:10855000F8BD10B591F8313013F0500F04461AD021
:1085600040F60223FFF726FCA8B1302384F831300F
:108570002046FFF794FF70B1A369E3612046002312
:108580000022FFF79AFBC12384F833302046BDE870
:108590001040FFF765BF002010BDF0B597B01F4633
:1085A00000238DF851308DF852308DF8533090F80B
:1085B0003130019205460C4613B1002017B0F0BDD2
:1085C00091F8313013F0500FF7D092F900302F2B83
:1085D0000ED1019B93F900202F2A02D10133019380
:1085E000F7E7216A08A8FFF71FFA0028E5D008ACD2
:1085F00001AB03AA01992846FFF72AFA0028DCD02C
:10860000019B93F900301BB3002303AA214628469F
:10861000FFF7D0FB90B108AA2B4605F1300C1446A9
:1086200018685968164603C6083363453246F7D1C1
:10863000186830602846FFF7EDF9D9E7002FBCD065
:1086400003AA21462846FFF784FF0028E3D1B4E7B8
:1086500003AA21462846FFF77CFFAFE72DE9F84340
:1086600016461F4656EA0703054638D090F83330C1
:108670009B0734D5C16991BB006A12F1FF3890F8AD
:10868000452402F10902D2B247F1FF39C2F12004B8
:10869000A2F1200309FA04F428FA02F2224329FA8B
:1086A00003F31A43541C224600F02CFA012880469A
:1086B00015D9014601232246286A00F075FA70B1E7
:1086C00095F83330C5F81C8063F03F03C5E90267B5
:1086D00085F833302846BDE8F843FFF7C1BE0020D7
:1086E000BDE8F8832DE9F34890F83320930704465A
:1086F00003D4002002B0BDE8F088C369002B5AD033
:1087000012F04001856939D0226AD0E9020192F85D
:1087100045240932D2B210F1FF3B41F1FF3CC2F1D6
:108720002007A2F120060CFA07F72BFA02F23A43CF
:108730002CFA06F632430132ADB1013B691C5D1BD8
:1087400001912A4492B9D4E90023C4E90223C4E97F
:10875000042394F8333063F07F0384F833302046E9
:10876000FFF77EFEC6E70193E561EBE70023019981
:10877000206A00F019FA0028E5D1BAE7C5B102AACB
:10878000006A42F8041D294600F07AFA0028B0DB9E
:1087900007D04FF0FF32A169206A00F0C6FA002826
:1087A000A7D001990029CED0206A00F0DBFAE2E7D9
:1087B0000193C561F5E701209CE7FFFF2DE9F04F2C
:1087C00090F833308A46990785B00446934668D5B9
:1087D0001A0760D404F11803D9460393D4E900675B
:1087E000B9F1000F00F0DC80206AD0F83854354031
:1087F000C5F3080845BBA169002965D094F833305A
:108800005B065AD5D4E9026716F1FF3247F1FF3310
:10881000CDE9002390F84534009E0933DBB2A3F183
:108820002002C3F1200026FA03F3019E06FA00F0AD
:1088300003433046D040E269034313448B4239D8A6
:108840002046FFF70BFD60B3206AA16990F845242C
:10885000023991406B0ACD18D0F82C142944B8F194
:10886000000F3DD1B9F5007F3AD3B9F5806FD0F84C
:10887000186279D2B14202BF4FF0FF3380F8108204
:10888000C0F818325246D0F8140202F087F940B10D
:108890004FF400754CE0D0E90423FFF70EFA0028EE
:1088A00098D194F8323043F0010384F832304FF01D
:1088B000000B88E00131A161C6E7039A00F0E0F9FE
:1088C0000028EEDBBCD0BFE7E3693BB92046FFF7E9
:1088D000C5FC0028E5D0A369E361B5E7A361B3E770
:1088E000C8F500754D4528BF4D46B8F1000F39D188
:1088F000D4E90423D4E900679F4208BF964234BFFD
:108900000122052200F5047002F0B0F90028C8D059
:1089100040442A465146A8440EF081FFB8F5007F36
:1089200006D1206A00F5047002F07BF90028B8D067
:10893000D4E90001D4E90423461941F10007BB4200
:1089400008BFB242C4E90067AA44A9EB0509BFF415
:1089500045AF94F8333063F07F0384F83330C4E9D3
:1089600004673BE70122CDE7012505FA02F2D31A9D
:108970004FEA5927BB4228BF3B46B1424FEA432545
:1089800008D8CA18B24282BF4FF0FF3280F8108276
:10899000C0F818225246D0F8140202F0D4F8C5E705
:1089A000D4E90223BB4208BFB24208D2C4E902673D
:1089B00094F8333063F07F0384F8333003E0044BE2
:1089C0001B68002BF4D1584605B0BDE8F08F00BFFE
:1089D0001029002070B505460C4659B103680846B9
:1089E0005E680FF006FD2146024633462846BDE884
:1089F00070401847084670BDF0B5966801F11E0535
:108A0000536831F8020F9E4203D1B0FA80F040095A
:108A1000F0BD5C1C54607E2893F9004014D8E3B28A
:108A2000A3F16107192F9CBF203B5CB2C3B2A3F135
:108A30006107192F98BFA3F1200040B2A04203D1D3
:108A4000A942DDD10120E3E70020E1E72DE9F04173
:108A500090F8313006460F46904633B30225002485
:108A600096F83030AB421BD3002229463046FEF741
:108A7000B5FFD0B10378C12B17D13A1900F11E010F
:108A800030F8023F63B1013444450ED27F2B28BF3A
:108A90003F23884202F8013BF2D10135EDB2DFE716
:108AA00000233B552046BDE8F08100243C70F9E7E7
:108AB00070B588680D684D6000234A68824218D0FE
:108AC000541C4C6092F90020D4B2A4F16106192E16
:108AD00098BFA4F120024FEAC33444EA530398BF7D
:108AE00052B253FA82F2C2F34E0343EAC2339BB24C
:108AF000E3E7401BC8600138FE280B828CBF0020D2
:108B0000012070BD2DE9F84F804693468A4659B33F
:108B10008D1ED8F83034AB4298BF002505F007030E
:108B200001249C40C5F3C809E4B22F462E46D8F86C
:108B30002C14002201EB1631404602F097F888B160
:108B400010F80930234206F1010610D1F21B5A45F4
:108B50000ED1BAF1000F04D1BBF1010F08BFC8F864
:108B60002074B81CBDE8F88FD0F82054D1E7374600
:108B7000B54217D0D8F83024B2420ED9640014F0B0
:108B8000FF04DFD109F10103B3F5007F4FF00009C5
:108B90004FF00104CBD29946D2E700274FF4007979
:108BA0003E46EFE70120DDE72DE9F84306468C1E3F
:108BB000D0F83004A11881421746984641D8D6F81B
:108BC0002034B8F1000F37D0A34206D3994204D91C
:108BD000814228BF0021C6F8201404F007030125B4
:108BE000D6F82C149D4001EB1431EDB2C4F3C80447
:108BF0000122304601F1010902F038F808B30319E7
:108C00002A461978114214BF01240024444518D083
:108C10005140013F197017D0520012F0FF02F0D1FD
:108C20000133A3EB000C1446BCF5007F4FF00102AA
:108C300049461546E5D1DBE7A34288BFC6F8204484
:108C4000CBE70020BDE8F8830120FBE738B50C46F0
:108C5000D0F83834496890F8455419402368023BED
:108C6000AB4003EB5123D0F82C1400F504701944E9
:108C700001F0FCFF18B16368C3F30803184438BD62
:108C800038B5D0F8303401338B420C46154602D249
:108C90004FF0FF3038BDD0F82414002201EBD4117E
:108CA00000F5047001F0E2FF0028F1D0A400C4F345
:108CB000080403595A1C1ABF2B6001200020E9E761
:108CC00073B502AD064645F8041D00242A460199F5
:108CD0003046FFF7D5FF002805DB04F10104F5D18C
:108CE000204602B070BD0024FAE770B54B68D0F89A
:108CF00038441C4013444B6090F845340933144405
:108D0000DBB206460D46DC406CB12B7A29681BB1FC
:108D100001312960013CF7E72A463046FFF7B0FFF2
:108D20000128F7D070BD0120FCE7012938B50C46B9
:108D3000154601D8002038BDD0F8303401338B42BD
:108D4000F8D3D0F82414012201EBD41100F50470FB
:108D500001F08CFF0028EDD0A400C4F308040551F5
:108D60000120E8E72DE9F34107460C460E4601AA2B
:108D700021463846FFF784FFB0F100081DDB0022D2
:108D800021463846FFF7D1FF0546B0B1621CB8F165
:108D9000000F02D0019B934207D00023921B314663
:108DA0003846FFF701FF40B1019E019CB8F1000F6A
:108DB000DDD1284602B0BDE8F0810025F9E7FFFFCC
:108DC00070B504461E46002380F84434C0F84014B1
:108DD000416003704FF0FF30A060C4F8141284F8B3
:108DE0001032C4F818021546CAB1042A01D900206D
:108DF00070BD1A46194604F5047001F037FF0028CB
:108E0000F5D005F18055013D00F5DF702D014319C6
:108E10001A79002AEBD0425D5206E8D19E68002202
:108E2000314604F5047001F021FF05460028DED02C
:108E30001A49052203300FF0F8FA01460028D6D16E
:108E400095F86C30092BD2D12B6D3344C4F82434FF
:108E50006B6DC4F82834AB6D3344C4F82C34EB6D1F
:108E6000C4F830342B6EC4F8343495F86D3084F87F
:108E700045340125093305FA03F3C4F83C34013BBA
:108E8000C4F83834C4F820042A462046FFF73AFED6
:108E9000402384F844342846AAE700BF34C50100C3
:108EA00010B50446D0F83414FFF70AFF94F845349F
:108EB0000933DBB2984010BD10B50446243001F0F0
:108EC000B0FE48B104F50D7001F0ABFE20B1206892
:108ED000BDE8104001F0ADBC002010BD814230B5AE
:108EE00007D00D4604460FCD0FC40FCD0FC42B681D
:108EF000236030BD024638B552F8105F044629465B
:108F0000806801F09DF940B1A3783DB943F040037A
:108F1000A370A37863F07F03A37038BD2269013585
:108F2000AA42F6D023F04003F2E7FFFFF8B5077836
:108F300017F04007044602D000263046F8BD4269CB
:108F4000154B9A42F8D8FFF7D5FF06460028F3D014
:108F5000A36825699A795B69023D95401D44A06824
:108F60000379F9B28B420DD905222944243001F04E
:108F70007DFE01370028DFD04FF4007200210EF093
:108F800072FCECE782794FF400739340626912FA45
:108F900083F36361D1E700BFFFFD1F0010B50446F6
:108FA00080680A462430A16901F060FE20B1A388E0
:108FB00003F00F0300EB431010BD70B504780546B5
:108FC0000E4694B9242221460EF04DFCAE60F37992
:108FD000102B03D0202B06D0204603E04023012095
:108FE0002B70A87070BD8023F9E70020FAE738B530
:108FF000CB6804460D4623B98968BDE83840FFF7C1
:10900000DCBF242200210EF02EFC1023012023704F
:10901000A070AB68A360EB68236238BD2DE9F04F08
:1090200083780446D80785B08A4615466AD52378E2
:10903000190732D5E36962699B1A9D4228BF1D4614
:1090400004F110032E464FF000080193002E00F0AB
:109050009F8022786769A0685306C7F3080B4FEA20
:10906000572123D5026A1144D4F80890BBF1000FB0
:109070004FD1B6F5007F4CD3D9F82C20914248D07F
:10908000B6F5806F5ED25246D9F8280001F042FD55
:10909000002837D04FF400774EE05A06D0D5A368A9
:1090A0001A896369C3EB42139BB2C6E790F8058047
:1090B00008EA0108BBF1000F08D1B8F1000F05D193
:1090C0006FB912064CBF026A226A2261A268216946
:1090D000907952690239814011444144C4E7130731
:1090E000216905D5A278570602D501312161EDE746
:1090F000019A01F040F8002804DBE7D1237813F04F
:10910000D00F45D1637843F0020363704FF0FF3016
:109110003FE0CBF50077B7424FF0000209F12400A1
:1091200028BF374601F0A2FD0028EBD000EB0B0171
:109130003A4650460EF073FB63693B44BA446361A0
:10914000F61B83E7207840064FEA562306D499F8A9
:109150000400A0EB0800834228BF034691424FEA77
:10916000432707D95246D9F8280001F0A9FC002866
:10917000E2D1C7E7C8188242F4D209F12400CDE950
:10918000021301F04EFDDDE902130028EAD1B9E730
:10919000A81B05B0BDE8F08F2DE9F04F1F4685B044
:1091A00081460E46924601F1FF3801244FF0FF330D
:1091B00004F1FF3B2546544520DA01220DF10F0151
:1091C0004846FFF72BFF0128034617D19DF90F10E2
:1091D0000D29F0D008F8011F3FB90A290CD100234E
:1091E0007355284605B0BDE8F08F019038460FF062
:1091F000CFF8019B0028F2D10134D9E7002B01DB25
:109200005D46ECE74FF0FF35EBE7436937B5C3F355
:109210004315044605B199B901220DF10701204615
:10922000FFF7FCFE40B2012802D0002003B030BDA1
:1092300063691F33A0686361343000EB4510F5E7C4
:109240002033F7E72DE9F0410E460178076904461F
:1092500039B34069B04206D03EB92661A378666151
:1092600023F02003A37001201DE00B0712D5E36952
:10927000B34216D3D4F808C0A2789CF8063009335C
:10928000DBB2751E520625FA03F50ED5236A1D447E
:109290002561E3E74D06EDD5A3681B89B6EB431FB7
:1092A000DCD927610020BDE8F081421E22FA03F3D9
:1092B0009D4200D398B90B064CBFDCF82030236ADE
:1092C000236104F11008002DC8D042462169A0682E
:1092D00000F051FF002805F1FF35F4DCE1E7ED1A5D
:1092E000EFE7F8B50F4616460021242204461D4636
:1092F0000EF0B9FAB868A68000F1340206F00F0645
:1093000002EB46123B6AA060E360D17A0E073FD4BD
:1093100001F037012170D37A13F0180F9DF818303F
:10932000E37008BF41F0080105F0030308BF217096
:10933000012B27D0022B23D053BB6B0528D401234C
:10934000A370A1788F0706D5237813F0110F1FD1D2
:1093500043F02003237005F008030B43A370C36A96
:10936000A361518B938A6E0541EA034114D559B923
:10937000A37863F07F03A3706B0411D40120F8BDC0
:109380000323DDE70223DBE700F0D4FF0028EFD161
:1093900000202070A070F2E72162D369E361EBE75F
:1093A000E1692046FFF74EFF0028F1D0E6E72DE9FE
:1093B000F743037807460D469146002B3DD10B78C5
:1093C00013F0D00F39D04C6914F01F0435D1264664
:1093D00000212846D5F81480FFF717FF68B30378FB
:1093E0005BB32E2B1FD0E52B1DD0C27A12F00801E3
:1093F0001BD16CB1421E0A30CB0143EA510112F875
:10940000013F53FA81F18242C9B2F5D18E4214D1A3
:1094100000944B46C8F34F1229463846FFF761FFC8
:1094200003B0BDE8F0830024D2E70F2AFBD15A062F
:10943000CED503F01F04467BCAE70020F0E7FFFF0C
:1094400037B503780446002B39D090F90230002B51
:109450002FDA0121FFF7A2FD054630B9637843F00A
:1094600001036370002003B030BD0378E52BF5D015
:10947000237803F03703C37223781B0744BFE369E3
:10948000C361236A43831B0C83820E4B1B6863B149
:109490000DF103020DF1060101A89847BDF8043053
:1094A0002B836B82BDF80630EB82A37803F07F0339
:1094B000A370A068FFF700FD0028CFD0D3E70120FC
:1094C000D1E700BF1029002010B50446FFF7B8FF10
:1094D00000232370A37010BD70B594B01E46002306
:1094E000ADF82C308DF82E300378019205460C46ED
:1094F00013B1002014B070BD0B7813F0D00FF8D06A
:1095000092F900302F2B13D1019B93F900202F2AC1
:1095100002D101330193F7E7A1681AB92846FFF792
:109520004CFDE7E70BA8FFF748FD0028E1D00BACA6
:1095300001AB03AA0199284600F0D0FC0028D8D03E
:10954000019B93F900307BB1002303AA21462846F2
:1095500000F09EFB0028CCD00BA82946FFF7BEFCEC
:109560002846FFF7B1FFE2E7334603AA2146284623
:1095700000F08EFBBEE719B101F24441FFF7ACBF2A
:1095800008467047F0B50B7813F0D00F89B0044649
:109590000E4602D1002009B0F0BD40F6022300F0D3
:1095A00077FB0028F6D001251027A57027702046EC
:1095B000FFF7BCFC0028EDD0236923620021204680
:1095C000FFF740FE2046FFF73BFF0028E2D0294688
:1095D0002046FFF7E3FC01460028DBD0C7722022BB
:1095E00068460EF01CF92E238DF800302946202302
:1095F0000DF8013001310B29FAD1A068216A837975
:1096000002399940436901221944243001F02EFBAC
:1096100005460028BED0694620220EF000F92E2310
:109620008DF80130336AADF81A3020221B0C6946E0
:10963000A818ADF814300EF0F2F8A068FFF73CFC63
:10964000A9E770B594B01E460023ADF82C308DF814
:109650002E300378019205460C4613B1002014B059
:1096600070BD0B7813F0D00FF8D092F900302F2B8B
:109670000ED1019B93F900202F2A02D101330193CF
:10968000F7E7A1680BA8FFF798FC0028E6D00BAC21
:1096900001AB03AA0199284600F020FC0028DDD088
:1096A000019B93F90030C3B1002303AA2146284649
:1096B00000F0EEFA38B10BA82946FFF70FFC284658
:1096C000FFF702FFE3E7002EC8D003AA2146284691
:1096D000FFF758FF0028EED1C0E703AA214628462D
:1096E000FFF750FFBBE738B504460D46D1B183788C
:1096F0009B0717D5036AABB98068837909330139B1
:10970000DBB2D94004F12002013100F0D4FD48B1B0
:10971000A378E56163F01F03A3702046BDE83840DD
:10972000FFF78EBE002038BD13B583789B07044633
:1097300002D4002002B010BD036A43B30169E9B14D
:1097400002AA002342F8043D806800F014FD0028BE
:10975000EFDB07D06FF070422169A06800F041FD97
:109760000028E6D0019961B96369E361A37863F0E9
:109770007F03A3702046FFF763FEDBE701930162DE
:10978000F0E7A06800F0D6FD0028EDD1D1E7012078
:10979000D0E7FFFF2DE9F04783780F46990704468D
:1097A000904645D51A073ED46369DB4343453FD312
:1097B00046466269002E7FD0A06890F8059019EAAD
:1097C0005229C2F308050DD12169002D40F0848093
:1097D000002948D0A3785B0631D5E36993422ED99E
:1097E00001312161A0682169837902399940436977
:1097F00019444944002D74D1B6F5007F71D3B6F5F4
:10980000806FC26A3FD2914201BF002380F82430AA
:109810004FF0FF33C3623A46806A01F0BFF938B1B6
:109820004FF4007A82E0C169FFF70CFD0028BBD13C
:10983000637843F0010363704FF0000849E004F1DE
:10984000100200F098FC0028F2DB04D12046FFF75C
:1098500051FB0028ECD0A068216983790239994036
:1098600043691944C8E7236A3BB92046FFF742FB26
:109870000028DDD023692362B4E72361B2E7012227
:1098800040E005223EE00379750AA3EB0903AB42F1
:1098900028BF2B4691424FEA432A08D85D189542CB
:1098A00081BF002280F824204FF0FF32C2623A4686
:1098B000806A01F048F937E0E369934205D2E2613A
:1098C000A37863F07F03A37003E01C4B1B68002B9D
:1098D000F6D14046BDE8F087837902399940436963
:1098E0001944C5F5007AB24528BFB246002DC6D14D
:1098F0006269E3699A42C4D2A37813F0200F0CBFC7
:1099000001220522243001F0B1F9002890D028442A
:109910005246394655440DF082FFB5F5007F05D11A
:10992000A068243001F07DF9002881D06369534498
:1099300063615744A6EB0A063BE700BF10290020ED
:10994000411E00F10A020020C30143EA500011F851
:10995000013F53FA80F09142C0B2F5D1704710B583
:1099600049010446FFF76EFC28B120460021BDE8FE
:109970001040FFF74ABC10BD2DE9F04705461646DA
:109980000746884699460FCD8AB001AC0FC40FCD6B
:109990000FC42B6823603368736001244C4537D8AB
:1099A000A8EB040189B201A8FFF7D9FF824618B9D4
:1099B00000200AB0BDE8F0870025EAB251463846DB
:1099C00000F02EFBD6E90123934203D1B0FA80F0D8
:1099D0004009EEE77F28EBD8C3B2A3F16101192952
:1099E00098BFA3F12000531C736092F90020D3B2FA
:1099F000A3F16101192998BF203B40B298BF5AB228
:109A00008242D5D101350D2DD7D10134E4B2C5E75D
:109A10000120CEE72DE9F0470546164688461F4649
:109A20000FCD8AB001AC0FC40FCD0FC42B682360DB
:109A300006F11200FFF784FF33687360814601244A
:109A400000254FF00F0ABC4242D8A8EB040189B2AE
:109A500001A8FFF784FF00283BD0039A92F8243036
:109A6000BC4243F0010382F824300CBF44F04003B1
:109A700023460370002380F80BA0037380F80D9039
:109A8000D6F808C043837268624512D1BDB1013572
:109A9000EDB24FF6FF715A00042B5FFA83FE0244C9
:109AA00010D8A2F8011001330D2BECD10134E4B22F
:109AB000C9E7511C716092F9001089B2EBE72946A1
:109AC0000125E8E7BEF10A0F94BF9180D180EAE753
:109AD00001200AB0BDE8F0872DE9F04302460546B3
