:10400000007F0020651801000D17010061180100F4
:1040100061180100611801006118010061180100B8
:104020000000000000000000000000006118010016
:104030006118010000000000611801006118010012
:104040000000000000000000000000000000000070
:104050000000000000000000000000000000000060
:104060000000000000000000000000000000000050
:104070000000000000000000000000000000000040
:104080000000000000000000000000000000000030
:104090000000000000000000000000000000000020
:1040A0000000000000000000000000000000000010
:1040B0000000000000000000000000000000000000
:1040C00010B5054C237833B9044B13B10448AFF352
:1040D00000800123237010BD780200200000000042
:1040E00068D0010008B5034B1BB103490348AFF387
:1040F000008008BD000000007C02002068D00100A4
:1041000000207047704710B500231A4601395C1C27
:10411000DBB28B4204DAC35C1A4492B22346F6E760
:10412000D0B210BD10B5074B196800220C4611F92A
:10413000010B202804D0092802D002B11C6010BD58
:104140000122F3E7AC06002010B50446FFF7EAFFB2
:10415000044A136893F90010A14204BF01331360AD
:1041600010BD00BFAC06002070B50025ECB2A14226
:104170000CD90446264614F9010BB8B12C2821D0DD
:104180000A2801D00D28F5D100200FE0013B0138AD
:10419000114642F20146DBB210F9015FECB20D2C80
:1041A00005D92C2D07D100230B70012070BD26FAF4
:1041B00004F4E407F7D48C1AE4B2A342F3D901F86B
:1041C000015BE9E7701C0135D0E7FFFF2DE9F843FB
:1041D000DFF83C900C4F064600254FF0BC0899F8DC
:1041E0000030ECB2A3420CD908FB047431462046DF
:1041F00014F04BFA01350028F1D194ED2D0ABDE8F9
:10420000F8839FED020AFAE77C0F0020000000000F
:104210003A0A0020F0B52DED028B87B0FFF782FF40
:104220008A4A106890F900302D2B14460BD10130CA
:104230001060FFF7EFFFB1EE408AB0EE480A07B01A
:10424000BDEC028BF0BD212B0CD101301060FFF7CB
:10425000E1FFB5EE400AF1EE10FA00F0F3809FEDB9
:104260007C8AEAE7282B09D10130106000F070F950
:104270002920B0EE408AFFF767FFDEE75B2B35D1E0
:104280000130002310601F46844610F9015BE9B23B
:1042900021F02006413E192EDAB217D9303909290A
:1042A00014D95F2D12D00FB1C4F800C006AB1A4468
:1042B000002302F8183C2268104612F9011B79B15C
:1042C0005D294FF00103F7D122600BE00DF8035098
:1042D0000133172B4FF00107D6D120601A46E5E7CE
:1042E00003B120606846FFF771FF86E0782B05D1A7
:1042F0000130584B106093ED008A9EE7D9B2A1F1CE
:104300003005092D01D92E2B07D1694615F050F83B
:10431000009B2360B0EE408A8FE721F020014139F5
:10432000192904D9002B9AD00130106097E7002397
:104330001F46844610F9011BCAB222F02005413DF8
:10434000192DDEB228D9303A092A25D95F2923D080
:104350000FB1C4F800C006AB3344002503F8185C65
:10436000FFF7E0FE236893F90020282A54D1013397
:1043700039492360684614F088F90646B0B12168CF
:104380002B4601220D4611F9010B002838D1002BD4
:104390003FF465AF256062E70DF803100133172B7A
:1043A0004FF00107C5D120601E46D4E700F0D0F8D9
:1043B0002A4C2C20F0EE408AFFF7C6FE25782670A6
:1043C00000F0C6F82C20B0EE408A2778FFF7BCFE3C
:1043D000267000F0BDF829202678FFF7B5FEF5EE2F
:1043E000408AF1EE10FA04D0002D18BF2F46277036
:1043F00023E7002D18BF2E462670B0EE408A1CE73A
:10440000002AC4D0282802D101320123BAE7292882
:1044100008BF02F1FF32F8E7012E7FF463AF9DF988
:104420000030412B01D10E4B65E7422B01D10D4BE2
:1044300061E7432B01D10C4B5DE7442B7FF452AF76
:104440000A4B58E7B7EE008AF7E600BFAC0600203B
:1044500000000000B006002030C40100B4060020B7
:104460009C060020A0060020A4060020A80600202C
:1044700070B52DED028BFFF7CDFE1F4C1F4DB0EE3A
:10448000408A0126FFF74EFE236893F900202A2A6E
:1044900006D101332360FFF7BDFE28EE008AF1E765
:1044A0002F2A0FD101332360FFF7B4FEB5EE400A87
:1044B000F1EE10FA03D12E709FED118AE2E788EE3B
:1044C000008ADFE7252A11D101332360FFF7A2FE1E
:1044D000B5EE400AF1EE10FAF0EE400AEBD0B0EE85
:1044E000480A13F077F9B0EE408ACBE7B0EE480AFD
:1044F000BDEC028B70BD00BFAC060020B4060020EE
:104500000000000010B52DED028BFFF7B1FF0F4C3E
:10451000B0EE408AFFF706FE236893F900202B2AAD
:1045200006D101332360FFF7A3FF38EE008AF1E7DD
:104530002D2A06D101332360FFF79AFF38EE408A17
:10454000E8E7B0EE480ABDEC028B10BDAC060020D7
:1045500010B52DED028BFFF7D5FF334CDFED338A1D
:10456000B0EE408AFFF7DEFD236893F900203E2A73
:104570000FD193F901203D2A3DD102332360FFF78B
:10458000C1FFB4EEC80AF1EE10FA11D9B0EE688A94
:10459000E8E73C2A0FD193F901203D2A35D10233B7
:1045A0002360FFF7AFFFB4EEC80AF1EE10FAEDDBBF
:1045B000B7EE008AD6E73D2A0DD193F901203D2AB6
:1045C0002DD102332360FFF79DFFB4EE480AF1EED0
:1045D00010FAEDD0DAE7212A21D193F901203D2A02
:1045E0001DD102332360FFF78DFFB4EE480AF1EED0
:1045F00010FADDD1CAE701332360FFF783FFB4EE81
:10460000C80AF1EE10FAD3D4C0E701332360FFF7F4
:1046100079FFB4EEC80AF1EE10FAC9DCB6E7B0EEE5
:10462000480ABDEC028B10BDAC0600200000000063
:10463000F8B50F4615461C4614F08EF8064608B924
:104640000020F8BD384614F044F8321830562228BD
:1046500001D02728F4D1013C2B46E4B212F9011F06
:1046600041B1884206D05E1BF6B2B44202D903F8CB
:10467000011BF3E700221A700120E2E708B50246A9
:10468000104612F9013B3BB1303BDBB2092BF7D8A6
:1046900013F09FF980B200E0184608BD2DE9F04FF5
:1046A000F9B081469DF80C62869C879D082E8A464B
:1046B000934609AF14D15A4A0C21384613F0A4FF8F
:1046C00000230DF150081BF90320D9B29AB12F2B0A
:1046D00010D02C2A08BF3B2208F803200133F2E750
:1046E000092E01D14F4AE7E74F4A0C21384613F013
:1046F0008BFFE5E71946002308F801300CA8EA56BD
:10470000D9B242B11F2B05D02C2A08BF3B22C2547C
:104710000133F4E71946002343549B4694F90010F3
:104720005FFA8BF220AD59B3BBF15F0F27D00422A3
:104730003E49204613F0E9FF30B93E2205F80B2030
:1047400004340BF1010BE9E704223949204613F048
:10475000DCFF08B93C22F1E705223649204613F078
:10476000D4FF20B9262205F80B200534E9E714F917
:10477000012B2C2A08BF7C2205F80B20E1E75A46C2
:104780000023013EAB54092E06D8DFE806F0472E81
:10479000303234363E383A3C274B9DF81002274AD7
:1047A00027499DF930400393002808BF114625484A
:1047B0009DF80832CDF800800CAA002C08BF0246F4
:1047C0008898CDE90415CDE90620CDE901731E4A8C
:1047D00053464FF4807138A813F016FF38A94846A5
:1047E0000EF097FF79B0BDE8F08F184BD5E7184B66
:1047F000D3E7184BD1E7184BCFE7184BCDE7184B51
:10480000CBE7184BC9E7184BC7E79DF81432174A96
:104810001748082113F0F8FE154BBEE7154BBCE70F
:104820007CB9010087B9010090B9010098B9010075
:104830009DB90100A2B901003DB9010071B90100A3
:1048400075B9010039B70100AEB9010044B90100E2
:1048500048B901004BB901004FB9010053B901003B
:1048600059B9010064B901006DB90100A8B901008E
:10487000B506002040B901002DE9F04FB5B014AEE7
:1048800099469DF8043109930D469DF808310A9325
:10489000002182469346304620229DF8FC409DF838
:1048A0000C8113F050F9102200210CA813F04BF9E1
:1048B0001CAF1022002110A813F045F9602200213E
:1048C000384613F040F92023324669492846FFF75D
:1048D000AFFE10230CAA67492846FFF7A9FE102354
:1048E00010AA65492846FFF7A3FE18B9634910A826
:1048F00013F0D5FE60233A4661492846FFF798FE3B
:104900003B46194613F9012B202AFAD0092AF8D080
:104910001CADA94208D008460B9113F0DAFE0B99A2
:10492000421C284613F0F6F8284613F0D2FE002267
:104930002844B84208D010F9013C202B01D0092BA3
:1049400002D100F8012DF4E74E490CA813F09DFEAA
:10495000002878D04C490CA813F097FE002874D09A
:104960004A490CA813F091FE002870D048490CA8C1
:1049700013F08BFE00286CD046490CA813F085FE7E
:10498000002850D10027B8F1000F66D1099B002BF9
:1049900065D1062F65D09DF97030782B61D19DF9D6
:1049A0007130002B5DD103223B49304613F0ADFE40
:1049B000002814BF3B460A233849099310A813F076
:1049C00064FEB0FA80F04009099BB8F1000F4AD1AB
:1049D0000A9A52B9012202FA07F717F0120F44D1CE
:1049E00017F0640F14BF04241446449F2C4A99F90D
:1049F00000100495B8F1000F08BF17469DF800217C
:104A00004497CDE90202274ACDE90043002918BFA7
:104A10004A46CDE905673E9B59465046FFF73EFEA4
:104A200035B0BDE8F08F20490CA813F02EFE40B140
:104A30001E490CA813F029FE68B1012CA2D0022C4B
:104A400009D101279FE706279DE703279BE7042756
:104A500099E7052797E7022795E70823ACE707239F
:104A6000AAE73B46A8E70024BFE70224BDE700BF52
:104A7000F6C30100FDC301000AC4010071B90100C1
:104A800012C4010053B9010019C401001FC4010080
:104A900026C4010018C401002CC4010075B901002E
:104AA0001AB70100EEC301001EC4010025C40100B5
:104AB00010B51421044611F075FF204610BD37B51E
:104AC0000024FAB102AD042A28BF042245F8044D9F
:104AD00001446BB9C85CE8540133D8B29042F9D3B1
:104AE0000198C2F1040200BAD200D04003B030BD38
:104AF00015442346C85C05F8010D0133D8B2824243
:104B0000F8D8EDE71046F1E738B500230D460B70F5
:104B10002B49044613F0B9FD50B32A49204613F03F
:104B2000B4FD00283BD02849204613F0AEFD0028F4
:104B300037D02649204613F0A8FDA0B324492046CB
:104B400013F0A3FD88B32349204613F09EFD70B3F4
:104B50002149204613F099FD58B32049204613F00F
:104B600094FD40B31E49204613F08FFD08B909207B
:104B700038BD1C49204613F088FDF0B103221A49C4
:104B8000204613F0C2FD0028F1D1E378303B092B19
:104B9000EDD8E01C12F01DFF28700720E8E7012087
:104BA000E6E70220E4E70320E2E70420E0E705204F
:104BB000DEE70620DCE70820DAE70A20D8E700BFB6
:104BC0003DB9010040B9010044B9010048B90100F4
:104BD0004BB901004FB9010053B9010059B90100A7
:104BE00064B901006DB901003CC4010010B50C4668
:104BF0003E2113F03DFD08B9207010BD002310F9CF
:104C0000012FD9B23AB13C2A05D00B2B02D0E25485
:104C10000133F4E7194600236354EEE72DE9F0432E
:104C2000044689B00D461422002103A812F08BFF20
:104C30006368227A0092002BA6BFC3F30A03184AC6
:104C4000184ADFF86480B8BF23F06043142103A83A
:104C500013F0DAFC2B6802465B6803A928469847E4
:104C60006FF00809064604F10907A9EB0409227A46
:104C700009EB070393420ED217F8013B4246142179
:104C800003A813F0C1FC2B6802465B6803A9284601
:104C900098470644EBE7304609B0BDE8F08300BF13
:104CA00040C4010050C4010038B9010000B50A46F3
:104CB000D0F880148FB051B100236846ADF80030B1
:104CC0008DF8023004F0C3FD0FB05DF804FBD0F89E
:104CD00084040028F8D08DF831108DF832108DF84A
:104CE00033100B460146684603F0D8FBECE700B5ED
:104CF0000A46D0F880148FB079B10023ADF80030A7
:104D00008DF802306846012304F0A1FD10B1684619
:104D100005F096FA0FB05DF804FBD0F88404002883
:104D2000F8D08DF831108DF832108DF83310012342
:104D30000146684603F0B2FB08B90020EAE768467E
:104D400003F042FC0028F8D0E4E710B4846B24B1EF
:104D500020465DF8044B04F08BBBC06B18B15DF8C6
:104D6000044B03F0DDB84FF0FF305DF8044B7047A3
:104D700010B4034600240C70986B18B15DF8044B16
:104D800005F063BBD86B18B15DF8044B03F0CABFE4
:104D90005DF8044B7047FFFF1346074A10B40C46FA
:104DA000116821B122465DF8044B05F0E3BC0846CA
:104DB0005DF8044B704700BF0C2900202DE9F04F2F
:104DC000ADF53B7D002281460F46564B5649299250
:104DD0002AA8CDE938222893FFF7DEFF002800F04B
:104DE0009180052400234FF480723AA92AA8013C3F
:104DF000FFF7ABFF14F0FF04F4D11822214608A8F6
:104E000012F0A1FE00234FF480723AA92AA8FFF7FE
:104E10009CFF002873DD0EAC1823224600213AA81F
:104E2000FFF7A2F906460028ECD094F90030002BD9
:104E3000E8D008A9204613F028FC0028E2D0172269
:104E4000214608A813F073FC1023042100250DEB64
:104E500003023AA88DF83750FFF786F9334904A8C2
:104E600013F013FC0028CDD00DF17008302342461A
:104E700001213AA80DF1500AFFF776F92023524696
:104E800007213AA8FFF770F994F900B0284B2146A2
:104E900053F8250013F0F9FB002837D001350C2D0D
:104EA000F4D1692F1AD00026702F19D1BBF1530FFE
:104EB000A8D0204B204A002E14BF1E461646CDE92E
:104EC00001A8009623461D4A4FF480717AA813F07A
:104ED0009BFB7AA948460EF01CFC93E7202318E0C0
:104EE000732F8FD1BBF1530F8CD1134B144A002E6B
:104EF00008BF1A46CDE900282346124A0CE02AA82A
:104F000005F027FC0DF53B7DBDE8F08F692FCBD177
:104F10002A23CDE900480C4A4FF480717AA813F097
:104F200073FBD6E768B5010062C3010059B90100FF
:104F3000ECB8010038C301001AB701008AC30100B0
:104F40004DC30100C3C301007AC301000346806B57
:104F500008B104F0E1BBD86B08B103F0EDBB7047BA
:104F600008B50830FFF7F2FF08BD0346806B08B1B3
:104F700004F07CBDD86B08B103F08CBD704708B558
:104F80000830FFF7F2FF08BD07B502AB012203F8B6
:104F9000011D08301946FFF7E8FF03B05DF804FB78
:104FA000054B1B78834281BF044B185C084100F01D
:104FB000010098BF00207047E9070020EA070020A1
:104FC000094B0A4A18600A4B83ED000A002313605C
:104FD000084A1360084A1360084A1360084B00220D
:104FE0001A70FFF7B5BA00BFAC060020A806002073
:104FF000B0060020A4060020A00600209C06002089
:10500000B4060020F0B585B000259DF828609DF815
:105010002C700195042A144628BF04244EB9354645
:10502000084401AEE9B2A14239D2415DA95501352A
:10503000F8E70844E9B2A1424FD2611B01AE314406
:10504000465D01F8016C0135F4E712B99FED260ABF
:105050003EE0019AC4F1040412BAE400072B22FADC
:1050600004F209D11F2FF1D8FA4002F0010207EE35
:10507000902AB8EEE70A2BE0042B09D0052BF6D0D6
:10508000032B07D153B200EE103AB8EEC00A1FE06E
:1050900013B2F8E707EE902AB8EE670A18E0062B7D
:1050A000D3D19DF807308DF80C309DF806308DF87F
:1050B0000D309DF805308DF80E309DF804308DF8D8
:1050C0000F30042203A902A812F019FD9DED020A77
:1050D0000C98FFF775FF05B0F0BD062BB5D1042283
:1050E0000DEB0201EFE700BF0000000038B50B4BED
:1050F0000B4A1860002313600A4A0B4C13600B4ADA
:1051000013600B4A13600B4A0D4613600023237093
:10511000FFF71EFA23782B7038BD00BFAC060020C5
:10512000B0060020A8060020B4060020A406002037
:10513000A00600209C0600202DE9F041B0B000221E
:105140002A4B2B490D920EA8CDE91C220C931F92DD
:10515000CDE92E221E93FFF71FFE0446C8B1254E4F
:10516000254FDFF8988000220EA920A805F03DFB0E
:10517000044658B12E9B83B11B7813F0D00F13D087
:10518000002420A805F0E5FA002CECD00EA805F0CC
:10519000E0FA204630B0BDE8F0812F9B23B193F8B0
:1051A000313013F0500FEAE73022694620A8FFF7AC
:1051B000DFFD684613F08DFAC5B20B2DE0D907224A
:1051C0003146684613F0A1FA0028D9D1281F394684
:1051D000684413F05AFA05460028D1D127226946BF
:1051E000064813F0A4FA88F82750CAE768B501000A
:1051F00022B701002AB70100A3BB0100C1070020AC
:105200002DE9F04F0025E3B0704B119501462A4679
:1052100012A8CDE920551093FFF7BEFD07460028E0
:1052200000F0D0806A4B6B4CDFF8CCB125701D705C
:105230009846DFF8C89100234FF4807222A912A883
:10524000FFF783FD002840F3B68022AEB24696F900
:105250000030002B00F09C80002D00F08380594628
:10526000304613F079FA002879D18AF800004946CF
:1052700022A813F071FAA0B1574922A813F06CFAD2
:1052800078B1102308AA544922A8FFF7D1F940B1F8
:10529000524908A813F0F9F900287DD1012388F8B4
:1052A00000304F4922A813F057FA0028C3D02378C2
:1052B0001F2BBED8182302AA4A4922A8FFF7B8F923
:1052C0000028B6D0DFF838912078BC26172202A932
:1052D00000FB069013F02BFA2378434906FB039357
:1052E0004FF0000A83F817A020230DEB030222A839
:1052F000FFF79EF94E4694F800C03C4B002855D06D
:105300001F2203EB4C1008A9019313F010FA227826
:10531000019B03EB421383F81FA02378BC225A435E
:1053200002F14801002006EB010C164449F8010087
:1053300078224FF41061CCF8041086F85020FF2238
:1053400086F8B0200133002286F85100C6F8B42058
:1053500086F8B80086F8B9003076237069E7C61C75
:10536000002574E72249304613F0F6F930B9013EC2
:1053700016F9013F63B10AF8013BF9E7B04204D9DD
:1053800016F9013B0AF8013BF8E7061D3D465EE7CA
:1053900000238AF800306AE7164908A813F075F967
:1053A00000287FF47EAF88F800007AE74FEA4C1CB3
:1053B00003F80C00B1E712A805F0CBF92778003705
:1053C00018BF0127384663B0BDE8F08F68B501000B
:1053D0003C0A00203A0A002044B701004EB7010001
:1053E0004EC3010056B70100F6C30100940200202D
:1053F00036B7010052B7010032B701003BB70100D8
:105400007C0F002030B50025ABB0644B6449059596
:105410002A4606A8CDE914550493FFF7BDFC0446BF
:1054200058B12B46502216A906A8FFF78EFCA842B9
:1054300005DC06A805F08DF900202BB030BD5949D8
:1054400016A813F034F92AAB1844062200F8505C71
:10545000554916A813F059F90028EAD153490DF11E
:105460005E0013F012F928B19DF95E00A0F131033E
:105470005C425C414E4B50221C7016A9002306A8CA
:10548000FFF763FC0028D4DD464916A813F00FF996
:105490002AAB1844002300F8503C0422454916A8C2
:1054A00013F033F904460028C3D10A2217A901A832
:1054B00013F03DF940498DF80E4001A813F0E5F8CE
:1054C000044620B106A805F044F90120B5E70346DB
:1054D000502216A906A8FFF738FC0028A9DD31499B
:1054E00016A813F0E4F82AAB1844052200F8504C33
:1054F000324916A813F009F900289AD130490DF164
:105500005D0013F0C2F8044620B106A805F021F9A9
:10551000022092E70346502216A906A8FFF715FCC1
:10552000002886DD1F4916A813F0C1F82AAB1844DD
:10553000092200F8504C234916A813F0E6F8002879
:105540007FF477AF0DF1610012F043FA002822DDFD
:105550005428A8BF54201C4B5022187016A90023B1
:1055600006A8FFF7F2FB00287FF763AF0D4916A8E6
:1055700013F09DF82AAB1844002300F8503C13495F
:1055800016A813F082F800287FF453AF06A805F0A0
:10559000E0F8032051E72020DDE700BF68B50100F7
:1055A00062C301003EB8010041B8010048B80100E3
:1055B000FE2600204DB80100C00A002052B80100AC
:1055C000C107002058B801000000002062B80100A7
:1055D00070B500249CB01B4E1B4B1C4934702246F6
:1055E0000CA80B94CDE91A440A93FFF7D5FB0546A6
:1055F00028B32346282269460CA8FFF7A6FBA04241
:105600001ADD1349684613F052F81CAB1844062201
:1056100000F8704C0F49684613F077F860B90E49EE
:105620000DF1060013F031F828B19DF90650A5F1EF
:1056300031035D425D4135700CA805F08AF81CB05D
:1056400070BD00BFFE26002068B5010062C30100E6
:105650003EB8010041B8010048B8010030B5144B14
:105660001B78BDB005460BB300233CAC0393CDE9DA
:10567000123340F209220F4B0F4944F8E83D04A8C9
:10568000FFF78AFB90B10EF0CDF90C4A0095034666
:10569000A02114A812F0B8FF14A920460EF039F882
:1056A00004A8FFF753FC04A805F053F83DB030BD43
:1056B000FE26002068B50100C1B80100D8B801007D
:1056C00030B5164B1B78C7B005460C4623B30023F4
:1056D0000393CDE9123340F20922114B1149029391
:1056E00004A8FFF759FBB8B10EF09CF90E4B0F4A16
:1056F000002C08BF1C46C8210346CDE9005414A85D
:1057000012F082FF14A902A80EF003F804A8FFF714
:105710001DFC04A805F01DF847B030BDFE26002092
:1057200068B50100C1B801001AB70100E0B8010076
:1057300010B51449144892B0FFF7B8FAD8B1002256
:10574000124B1049019202A8CDE910220093FFF7F5
:1057500023FB80B1109B83B1DC6902A804F0F9FF40
:10576000B4F5006F07D907490748FFF7C0FA0849A1
:1057700008480DF0DDFF12B010BD119C002CECD0DC
:105780002469EAE713B80100D40A002068B50100D3
:1057900026B801004C3F002070B50F4C0F4E451E3F
:1057A00015F9011FB1B12288531C9BB2B3F5007FDC
:1057B0002380B154F4D34FF4007231460848FFF708
:1057C000D4FBB0F5007F1EBF064B01221A700023E8
:1057D0002380E5E770BD00BF00290020FF260020E0
:1057E000DC090020780F002010B5084C22885AB13F
:1057F00007490848FFF7B9FB238898421EBF064BAC
:1058000001221A700023238010BD00BF0029002050
:10581000FF260020DC090020780F002008B5FFF7E4
:10582000E3FF094B186C48B104F0EAF80748FFF7AA
:105830008DFB0648BDE8084004F08BBF586C00287B
:10584000F4D003F0BBF8F1E7D4090020DC09002014
:105850001FB50A4B1B7804465BB9CDE901330093B1
:1058600001231A464FF4FA6105F0E8FF204604B020
:1058700010BD034905F095FFF8E700BFD00A0020EE
:10588000CC0A0020F0B5C5B0002305460C460B93AA
:10589000CDE91A3340F20922254B26490A930CA878
:1058A000FFF77AFA002841D008A8FFF7D1FF224A73
:1058B0009DF825C09DF822009DF820309DF82360BA
:1058C0009DF824709DF821100091002C18BF2246ED
:1058D000CDE9037C03F5FA63CDE90552CDE9010674
:1058E000164AA0211CA812F08FFE1CA90AA80DF0D0
:1058F00010FF0CA8FFF72AFB0CA804F02AFF1049A0
:1059000010480DF006FF29460E480DF002FF54B175
:1059100094F900303BB120210A480DF0FEFE2146EB
:1059200008480DF0F6FE07480DF0FCFE45B0F0BD4E
:1059300068B5010013B801001AB70100E4B701000F
:1059400009B801004C3F00202DE9F04F9A4DADF50C
:105950000F7D4FF0000A994B1B785FFA8AF6B3422D
:1059600040F220810022964B9649259226A8CDE947
:1059700034222493FFF710FA8046002800F01781A4
:1059800005274EAC00234FF48072214626A8FFF76E
:10599000DCF9002840F30881013F17F0FF07F1D13F
:1059A000BC27774307EB0509484612F092FE864A6A
:1059B0007301D118D35602918346019305E00299F1
:1059C00010A812F062FE002844D000234FF4807229
:1059D000214626A8FFF7B9F9002840F3E0805FFAD6
:1059E0008BF31A4649462046039312F08EFE002898
:1059F000EBD1039BE3562C2BE7D1302318AA0121CE
:105A00002046FEF7B1FB0C2309AA02212046FEF72F
:105A1000ABFB042306AA03212046FEF7A5FB1023B7
:105A20000CAA04212046FEF79FFB082307AA0521A4
:105A30002046FEF799FB602336AA06212046FEF792
:105A400093FB202310AA07212046FEF78DFB019B24
:105A5000002BB4D107F118004FF0BC0B0BFB065B19
:105A60002F2218A9284412F062FE00238BF8473039
:105A70000DF117010CA88DF817300193FFF744F8CA
:105A80009DF817208BF84D008BF84F204F4907A841
:105A900012F0FBFD07F15004B0FA80F040092C44ED
:105AA0008BF84E005F22204636A912F040FE019B83
:105AB0008BF8AF30013C2C2314F901BFBBF1000F70
:105AC00004D0BBF17C0FF7D12370F5E7404909A85A
:105AD00012F0DBFD00285AD03E4909A812F0D5FD8E
:105AE000002854D01022594609A813F0C1FDBC2447
:105AF00004FB0654A06406A811F06BFF84F84C0068
:105B0000BC2303FB0653FF2283F8B0200022C3F816
:105B1000B420002283F8B82083F8B92026A804F026
:105B200018FEB8F1000F2FD1BC235E4306F14803E5
:105B30005A1943F805802E444FF4106353607823BC
:105B400086F85030FF2386F8B0300023C6F8B43012
:105B500096F9183086F8518086F8B88086F8B980B2
:105B600043B907F118002F221B49284412F0DFFD2A
:105B700086F8478044214B46184A36A812F044FD67
:105B800036A91348FFF77EFE0AF1010AE3E6BC23BB
:105B900003FB065300229A6483F84C20B0E74FF0D1
:105BA0000008BBE7012003E026A804F0D2FD002096
:105BB0000DF50F7DBDE8F08F7C0F00203A0A002024
:105BC00068B5010062C301009402002075B90100AC
:105BD00087B901007CB90100EEC3010098B801004B
:105BE0002DE9F04FA14BADF53B7D1B7807930023CA
:105BF00003939DF80C30079A9A420BD89B4A049263
:105C00001078002332A9DAB2904240F285815A54CA
:105C10000133F8E7039BBC256B43954D5A1992F865
:105C20004D20082A02D0039B0133E1E750350024C0
:105C30001D44A0464FF0180995F90070002F4BD075
:105C4000072C48D85B2F04BF013501202B78A3F126
:105C5000410318BF0020192B39D82A4600237AAEF9
:105C6000154612F901CB5FFA8CF121F0200EAEF14E
:105C7000410EBEF1190FDFB205D93039092902D919
:105C8000BCF15F0F06D106F803C00133172B154690
:105C9000E6D11F4606F8078038B12B461D4613F99A
:105CA000012B12B15D2A1D46F8D14FF0000A5FFAB0
:105CB0008AF39C4240F280824AAB09FB0A303146AB
:105CC00012F0E3FC0AF1010A0028F0D1B4E7002841
:105CD000B2D10135B0E70027DFF894A1FBB29C42B6
:105CE000A1D94FF018084AAB08FB073800255F4BD5
:105CF0001B78EAB293420AD9BC20414600FB02A0BD
:105D000012F0C3FC01350028F1D10137E6E71F2B63
:105D100008D9584958480DF0FCFC414656480DF04A
:105D200007FDF2E70022554B5549219222A8CDE903
:105D300030222093FFF730F804900028E5D00525A5
:105D40007AAE00234FF48072314622A8FEF7FDFFA1
:105D5000002803DC22A804F0FCFCD6E7013D15F086
:105D6000FF05EED100234FF48072314622A8FEF7E2
:105D7000ECFF002840F3CD80404612F0AAFCC5B2EB
:105D80002A464146304612F0C0FC83460028E9D13D
:105D9000735706932C2BE5D1344B1D784FF0BC097B
:105DA00015FB09F309FB05A9172241460AEB03007D
:105DB000059312F0BCFC302314AA0121304689F867
:105DC00017B0FEF7D1F90C230DAA02213046FEF7D9
:105DD000CBF904230AAA03213046FEF7C5F91023A4
:105DE00010AA04213046FEF7BFF908230BAA0521AB
:105DF0003046FEF7B9F9602332AA06213046FEF795
:105E0000B3F9059B03F118002F2214A9504412F096
:105E10008EFC0DF1270189F847B010A88DF827B046
:105E2000FEF772FE9DF8273089F84D0089F84F3053
:105E300014490BA812F029FC059BB0FA80F0400928
:105E400089F84E0003F1500000EB0A065F2232A9E8
:105E5000304612F06CFC069B89F8AFB0701E10F94A
:105E6000016F8EB17C2EFAD10370F8E73A0A002058
:105E70007C0F00205CB701004C3F002068B501009A
:105E800062C3010075B90100B7490DA812F0FDFB0E
:105E9000002836D0B5490DA812F0F7FB88B331467B
:105EA00010220DA813F0E4FBBC2606FB05A6B06487
:105EB0000AA811F08EFD86F84C00BC2303FB05A553
:105EC000FF2385F8B0300023A94AC5F8B430002379
:105ED00085F8B830012385F8B9301378A549A6486C
:105EE000013313700DF015FC4146A3480DF020FC62
:105EF00022A804F02EFC049B002B7FF406AF9F49E0
:105F000008E7BC2303FB05A300229A6483F84C2016
:105F1000D3E700230493EBE7DFF87092002432AE5E
:105F2000049A671C1278FBB29A4225D916F80380AE
:105F30004FF0BC0A08FB0A90FEF7A0FB64B2651C98
:105F4000834635445346002CA5EB060210DB15F8BA
:105F500001AD05920AFB03900393FEF78FFB5845B2
:105F6000059A05D9013C85F801A064B2039BEAE7D4
:105F700006F802803C46D3E7814B06931A78002A44
:105F800037D1804B93F800807F4B05934AAE0024B5
:105F90001C70347025460394049B1A78E3B29A422D
:105FA00074D932AABC2112F80390784B01FB093C4A
:105FB0009CF84D30083B012B1ED9059B74481B787B
:105FC00007910022E3465FFA82FA53451CD950F844
:105FD00032100F46DBF848108F424FEAC20E06D14E
:105FE00086449EF804109BF84CE0714509D00132BC
:105FF000E9E74FF03008C7E7FF238CF8B0300134F1
:10600000CAE78CF8B0A0FAE72F2B0AD8079A1146F6
:106010005E4A01FB0922039992F84CC06144414554
:1060200020DD5A4B4FF0BC0A0AFB0933FF2283F8EC
:10603000B02093F8B930002BE1D1304612F049FB83
:10604000524B544A09FB0A330093534BC0F14001B1
:10605000002808BF13460135504A3044EDB212F013
:10606000D3FACCE74A48976C40F8337082F8B030E6
:1060700000EBC300059A80F804C001334FF0000C18
:1060800013708BB280F805C00393B8E75DB160214F
:10609000CDE900564346424A7AA812F0B5FA7AA9E9
:1060A0004048FFF7EFFB069B1B78002B58D1364A80
:1060B0003D4910781C460A46E5B2A84202F10802A2
:1060C00007D912F8085C02F8073C2B44DBB2013414
:1060D000F2E7364A1370364A03EB43038024023357
:1060E0001470D3701024A82354701371F02401236A
:1060F00094705371002706251446FBB2834226D2C2
:106100000B782A464FF0000C5FFA8CF602F101087A
:106110009E425FFA88F813D251F8046C0CEB060E1D
:106120004FEA1E46A654961CF6B24FEA1E290332C9
:1061300004F80890D2B204F806E00CF1010CE3E791
:1061400003EB43032B44DDB201370831D5E76E1C66
:10615000F6B231461648FDF7D6FF164B60551E7055
:106160000DF53B7DBDE8F08F87B901007CB90100DA
:106170003A0A00207DB701004C3F002091B7010092
:106180003C0A002000000020390A00207C0F00207B
:106190004C0800201AB701005AB70100BCB7010033
:1061A000C1B70100D8B7010050080020380A00200C
:1061B000BD060020C0070020012F7FF63DAD04EB97
:1061C00044074AAB03EBC707172231463846013470
:1061D00012F0ADFAE4B287F817802DE508B5054650
:1061E0000C46FFF74FFB134913480DF092FA29466E
:1061F00011480DF08EFA94F90030B3B120210E4809
:106200000DF08BFA21460C480DF092FA01210D2079
:106210000DF044FBFA200DF0C1FB00210D200DF024
:106220003DFBFA200DF0BAFBF0E703480DF07AFAD7
:10623000ECE700BF33C401004C3F002070B5B2B0A2
:10624000002332AC0993CDE918330E463A4B44F89B
:10625000A83D014640F201620AA8FEF79DFD0546F1
:10626000002866D006A8FFF7F3FA344920460DF05F
:1062700050FA334920460DF04CFA324920460DF0D1
:1062800048FA314B31492046002E08BF19460DF01F
:1062900040FA2F4920460DF03CFA2E4B2E4920465D
:1062A000002E08BF19460DF034FA9DF81D300593F5
:1062B0009DF81C3004939DF81B3003939DF81A3011
:1062C00002939DF8193001939DF81830234A03F585
:1062D000FA6300936021224B1AA812F095F91AA9CB
:1062E00020460DF016FA1F4920460DF012FA6921DA
:1062F0002046FEF763FD1C4920460DF00AFA1B49B3
:1063000020460DF006FA70212046FEF757FD184989
:1063100020460DF0FEF973212046FEF74FFD15498A
:1063200020460DF0F6F90AA8FEF710FE0AA804F0C0
:1063300010FA284632B070BD68B501001DBE0100DC
:106340004ABE010073BE0100C1BC010090BC010047
:10635000BCBE01009DBD0100EABC010001BF0100FF
:10636000C00A002042BF010087C20100CFC2010065
:10637000FAC201001CC3010070B58CB000248DF876
:106380000C1004928DF80D40059403AB054693E87C
:10639000070009AB83E8070006AE86E8070005F2B0
:1063A0008C460ECB304604F013FC95F89F34C5F8AC
:1063B00088648BB9009301231A463146284604F0BD
:1063C00045FA38B9009003460122D5F888142846CA
:1063D00004F03CFA0CB070BD2046FBE7164A1749A2
:1063E000C2F890140121002382F895144FF428512B
:1063F000C2F88034C2F88434C2F88834C2F88C34CD
:1064000082F8943482F89634C2F8983482F89C3436
:1064100082F89D3482F8A03482F8A13482F8A23444
:1064200082F8A334A2F89E14054A5360C2E91033DF
:10643000044B1360704700BFD40A002000093D00E0
:10644000D409002068B5010038B504460DF0EAFA19
:10645000054608480CF05BFB38B90DF0E3FA401B29
:10646000A042F6D34FF0FF3038BD0248BDE83840B7
:106470000CF0AEBBEC33002038B505460024AC422E
:1064800004D03220FFF7E0FF0134F8E738BDFFFF0A
:106490002DE9F04F9D499E48ADF5517DFEF706FC74
:1064A00018B19A499A48FEF722FC0023994F974960
:1064B000559340F2016256A8649365935497FEF792
:1064C0006BFC099040B994499448FFF7DBF90998AF
:1064D0000DF5517DBDE8F08F914B0A931E78002E8B
:1064E00040F09E80DFF878A2B14690AD4FF4845B17
:1064F0008C4BA5F800B019F803C0F023AB700CEB7F
:106500004C03DBB29A1CEA700024A822AA80A6469B
:106510000622501CA445C0B20BD0911CC9B205F88C
:1065200002E005F800E003326C540134D2B2E4B268
:10653000EFE707335FFA83F8414628460892FDF7F4
:10654000E2FD089A2946A854424650460CF0B4FB96
:1065500050460CF0A0FA4046FFF78EFF4FF49670BD
:10656000FFF772FF0028C0F25383A31D5FFA83F880
:106570008DF8E0010022511CC8B240450B920891F1
:1065800080F04183C820FFF75FFF0028C0F24083FE
:106590000B9A089978AB1A4450700A46EBE79DF8BD
:1065A000E121F02A40F034839DF8E221102A40F0E6
:1065B0002F83621C9DF8E311D2B2914240F02883F0
:1065C0009DF8E421E82A40F02383414678A8FDF7AE
:1065D0009AFD78AB434413F8013C834240F01883A2
:1065E0001E2009F101090DF0D9F9B9F1080F26466D
:1065F0007FF47EAF002C00F08580022C84BF023C2B
:10660000E4B2302C28BF3024E3B2474A282113706B
:106610002846464A11F0F8FF29464548FFF732F967
:10662000444954A80DF075F8434B444A402144A80E
:1066300011F0EAFF44A954A80DF06BF8404B414A11
:10664000402144A811F0E0FF44A954A80DF061F8DE
:10665000354B3D4A1B78402144A811F0D5FF44A991
:1066600054A80DF056F8394954A80DF052F80025F9
:10667000334B374A382136A811F0C6FF2A4636A9CF
:1066800068A86795769577956697FEF785FB0890DD
:10669000002800F0B1821822294612A811F053FAFE
:1066A000302229461EA811F04EFA6022294678A809
:1066B00011F049FA0A9B274A1978274B012908BF8C
:1066C0001A460A92AB462E46A9460127AA462C46F0
:1066D00000234FF4807290A968A8FEF736FB0028CB
:1066E00040F38782002C3DD11C4990A812F034F869
:1066F0000028EDD00A9990A812F02EF8041C18BFBB
:106700000124E5E7202380E70924E1E762C30100D3
:10671000D40A002068B50100A4B50100C1B501008C
:106720003C0A002060C4010000000020D2B5010036
:10673000E3B50100EFB50100C00A0020FCB501007F
:10674000C107002004B601000DB601001AB6010011
:1067500051B601009BB5010092B501005CB6010085
:10676000EC330020A34990A811F0F6FF80460028E2
:1067700040F03F82012C40F0F0809F4990A811F03A
:10678000EBFF002831D19D4990A811F0E5FF0028CA
:1067900040F098809A4990A811F0DEFF002897D029
:1067A000984990A811F0D8FF002891D018232AAA60
:1067B000944990A8FDF73CFF002889D017222AA908
:1067C00012A811F0B4FF002530231EAA8E498DF8BF
:1067D0005F5090A88DF878500127FDF729FFAB4650
:1067E0002E46A946AA46072472E7864990A811F0CA
:1067F000B3FF0028C7D0182318AA824990A8FDF734
:1068000017FF00283FF464AF302241462AA811F058
:106810009AF930232AAA7C49CDF8448090A8CDE982
:106820000F88CDE90C88CDF83880FDF701FF0C23E7
:106830000FAA764990A8FDF7FBFE04230CAA744921
:1068400090A8FDF7F5FE734B1B7823B310220021AF
:106850000FA812F00DFF9DF9A8106F4A0B900DF1D3
:10686000A8080CA8002908BF904611F0B2F86B4A9E
:106870000B9BCDE905226A4A049200210722CDE94B
:106880000121C0B201220390009218A9424654A8E7
:10689000FDF704FF1CE708230DAA624990A8FDF745
:1068A000C7FE0028D2D00DA811F093F880460CA89E
:1068B00011F08FF8C1B25FFA88F0FEF771FB002883
:1068C000C4D105E74F4990A811F046FF00283FF4D6
:1068D00061AF18232AAA4B4990A8FDF7A9FE00280A
:1068E0003FF4F6AE4B4B1B78C3B117222AA912A86E
:1068F00011F01DFF002530231EAA43498DF85F507B
:1069000090A88DF878500127FDF792FEAB468DF8E0
:10691000E0512E46A946AA460424D9E608230FAA28
:10692000404990A8FDF784FE0028DED0082318AA6D
:106930003D4990A8FDF77CFE0028D6D00FA811F0A5
:1069400048F8044618A811F044F8C1B2E0B2FEF7C6
:1069500027FB0028C9D10224BAE6022C07D133490B
:1069600090A811F0F9FE002818BF0124B0E6032C0E
:1069700001D12F49F4E7042C62D12E4990A811F0DF
:10698000EBFE28B18DF8E081DDF820B006249FE60B
:10699000294990A811F0E0FE0028E0D0082318AAA9
:1069A000264990A8FDF744FE0546F8B118A811F055
:1069B00010F8C7B2082318AA154990A8FDF738FEA9
:1069C0000646A8B118A811F004F85FFA80F92AA9C0
:1069D00090A8FEF70BF9102200212AA812F048FE19
:1069E000002E824618BF0127052471E60127E1E742
:1069F0008146ECE766B6010072B601007BB6010085
:106A000087B6010056B7010092B6010098B60100A2
:106A1000AFB601003C0A0020EEC301001AB7010026
:106A20006FB901009EB60100ACB60100B4B601001A
:106A3000C1B60100CDB60100D6B60100DFB6010037
:106A4000062C2BD1744990A811F086FEF0B11823C2
:106A50002AAA724990A8FDF7EBFD00283FF438AE52
:106A60009DF9E03143B178A811F033FE6C49C0F1D3
:106A70005F0278A811F035FE78A811F02AFE2AA945
:106A8000C0F15F0278A811F02CFE21E6654990A8BC
:106A900011F062FE002818BF052419E6052C16D156
:106AA000614990A811F058FE00283FF458AF78AB28
:106AB000CDE905B3CDE90365CDE90179CDF800A0B5
:106AC0001EAB12AA90A954A8FDF7D6FE00E6072C2B
:106AD00045D1564990A811F03FFE30B9544990A8CD
:106AE00011F03AFE00283FF444AF524990A811F04B
:106AF00033FE00283FF408AE90F90320222A02D08A
:106B0000272A7FF401AE043040F2214E90F9003084
:106B1000002B3FF4F9AD9A423FF4F6AD0023C45682
:106B200024B1454913F901C0A4450AD003461846CB
:106B300013F9014B002CE9D02C2C6BD0A242F6D1DA
:106B4000E4E701330A2BEAD1837A223BDBB20A2B3A
:106B5000ECD82EFA03F3DB07E8D50824B8E5082CB7
:106B60002ED1364990A811F0F7FD58B3234618AA44
:106B7000334990A8FDF75CFD0546E8B118A810F070
:106B800028FFC7B2082318AA2E4990A8FDF750FD88
:106B9000064698B118A810F01CFF01275FFA80F98B
:106BA0002AA990A8FEF722F8102200212AA812F0A4
:106BB0005FFD0A2482468BE50127E3E78146EFE784
:106BC000092C07D1204990A811F0C6FD002818BF54
:106BD00007247DE50A2C7FF47BAD134990A811F0C2
:106BE000BBFD00283FF4C5AE184B06930023059368
:106BF00060E768A803F0ADFD56A8FEF7A7F956A810
:106C000003F0A7FD63E49DF8E021802A3FF4C7ACC0
:106C10003446EFE4184679E7E7B60100EDB6010027
:106C2000B1C60100F8B6010003B701000FB70100BB
:106C300015B7010056B70100C00A0020D6B6010002
:106C4000DFB60100AFB601001BB701001AB70100A3
:106C50002DE9F04FF9B0834B834A30210AA811F097
:106C6000D3FC0AA98148FEF70DFE814981480CF04A
:106C700050FD7C497F480CF05BFD7A497E48FEF769
:106C80001FFDFEF7BFFB032819D0A0B1012814D1C6
:106C90004021744B794A38A811F0B6FC38A97848DD
:106CA000FEF7F0FD774B00221A70FFF7F1FB50B9A9
:106CB00075497648D3E07649F1E77649EFE77649BA
:106CC0007648FEF7DFFD0022754E7649279228A808
:106CD000CDE936222696FEF75FF8044668B1052511
:106CE00000234FF4807238A928A8FEF72EF8002858
:106CF00059DC28A803F02DFD0024624A84F001032A
:106D00001370002C40F09380564B674A402116A820
:106D100011F07AFC16A96548FEF7B4FD64495548A0
:106D20000CF006FD63496448FDF7C0FF002873D0EE
:106D300022466049279428A8CDE936442696FEF7D6
:106D40002BF8002868D05D4F2925013D15F0FF057F
:106D500049D000234FF4807238A928A8FDF7F5FF29
:106D6000002840DD394638A811F0F6FC0028ECD0A8
:106D70003A2111F07DFCB0B301300146013091F9A8
:106D80000030202BF9D0002306A8CA5632F0200587
:106D9000DCB220D00D2A1ED00A2A1CD00F2B19D00D
:106DA000C2540133F1E7013D15F0FF0598D10023EE
:106DB0004FF4807238A928A8FDF7C7FF002807DD27
:106DC0009DF9E030452BF2D128A803F0C2FC94E7EE
:106DD0000024F9E71C4600232249035511F055FC15
:106DE000B0FA80F4640928A803F0B3FCA4B13449D4
:106DF0003448FEF747FD2F48FEF702FAFEF7A4FDE0
:106E000000287BD130491E48FEF73CFDFFF740FBD0
:106E1000002871D12D494CE701212648FFF70EFAD1
:106E20002B492C4B002818BF19462B48E1E72B4C67
:106E3000217871B92A48FFF701FA2A4B2A4900281C
:106E400018BF19462448FEF71DFD0123237024486E
:106E5000D2E7264B1B78002BD0D125492548FFF7D8
:106E6000BDF900BFC00A00204BBA010055BA0100AD
:106E70005FBA01004C3F002066BA010079BA0100F8
:106E800095BA010094060020A4B50100C1B5010027
:106E9000CAB90100DEB90100A1BA0100B7BA010008
:106EA00068B5010062C30100C1BA0100F0BA010077
:106EB00001BB01003ABB0100D40A002051BB010014
:106EC00058BB01007CBB0100D8BB01001AB7010010
:106ED00008BA0100F1B9010089BB0100CD09002009
:106EE00095BB01001EBA010039BA01003A0A002020
:106EF000A8BB0100CEBB0100FEF726FD38A8624CFE
:106F0000624DFEF7A5FC9DF8E520238805929DF8CB
:106F1000E42004929DF8E32003929DF8E22002927F
:106F20009DF8E12001929DF8E020594802F5FA62AF
:106F300000921C21574A11F067FB574A544B2821F5
:106F400038A811F061FB40F2016238A905F1080090
:106F5000FDF722FF002800F08D80286C002839D032
:106F60004FF0487102F02BFD18B94C494C48FEF720
:106F700089FC4C4BDFF874A1DFF87481DFF874B141
:106F800000251D80484B1D700CF04CFD474B1860D0
:106F90004748FEF701FC9AF80030E8B2834222D954
:106FA000BC27474308EB070999F8B93083B958461D
:106FB000FEF7F2FB07F118004044FEF7EDFB3D48F9
:106FC000FEF7EAFB4846FEF7E7FB3B48FEF7E4FB2B
:106FD0000135E0E7686C0028C7D04FF04872002305
:106FE00001F0A8FCC0E73548FEF7D6FB2388013343
:106FF0009BB242F20F72934243D8238040F2016267
:1070000000232F4939933AA8489349933896FDF7BE
:10701000C3FE78B123882B4A082126A811F0F4FA80
:1070200026A938A80CF075FB3AA8FDF78FFF3AA8FF
:1070300003F08FFB244925480CF06BFB14492348CF
:107040000CF076FBFEF7CCFD214B1B785BB9214C95
:107050002149227821480BF02FFE20480BF01BFD20
:107060002078FFF709FA1E4B01221A701D4B0222ED
:107070001A7003E006491C48FEF704FC79B0BDE82D
:10708000F08F0123B9E700BFFC260020D4090020BF
:107090001C0A0020F0BB010051B6010013BC010026
:1070A00048BC010000290020780F0020D0090020F2
:1070B00056BC01005DBC01007ABB01001BBE010093
:1070C0006FBC010083BC010089BC01004C3F002063
:1070D0003C0A0020C0070020BD060020EC33002041
:1070E000CC0900203B0A002060BC01003A0A0020C5
:1070F0007C0F00205AB7010010B5054C04480BF076
:1071000006FD18B120460BF063FDF7E710BD00BF88
:10711000EC33002070B50121BEB00D200CF0A6FBB1
:1071200000210D200CF0BAFB9D4C9E484FF4E1313C
:107130000FF06BF840F213424FF496519A480BF05F
:1071400047FE9A4A0A212046FFF716F990B9984956
:1071500094480CF0EDFA01210D200CF09FFBC820A3
:107160000CF01CFC00210D200CF098FBC8200CF04A
:1071700015FCF0E7D4F88014002966D00023ADF8A0
:10718000B0308DF8B2308B4A012301F244412CA873
:1071900002F0C3FB88498348884E0CF0C9FAFEF719
:1071A00017FA8748FEF75AFAFEF7C2FA002340F2B0
:1071B000092284492D932EA8CDE93C332C96FDF766
:1071C000EBFD48B180492CA80CF0A3FA2EA8FDF7DE
:1071D000BDFE2EA803F0BDFA00252A467B4909957D
:1071E0000AA8CDE918550896FDF7D6FD04460028F3
:1071F0003DD02B4608222CA90AA8CDE92C55FDF735
:10720000A4FD0AA803F0A5FA2CA810F0E2FB42F2B4
:107210000E72431E934288BF01206D4B18806D494A
:107220006D486E4E04F0A6FA6D4A6E4B3070002821
:1072300014BF10461846FEF711FAFDF77DFF00282F
:107240004ED169496948FEF7C9FFD4F88404002883
:10725000A0D08DF8E1108DF8E2108DF8E310012335
:1072600000F58961534A2CA801F003FB92E71B90BB
:10727000CDE92A002D90CDE93C0002464D491A96F1
:107280001CA82C96FDF788FD30B300221CA92EA85F
:1072900003F0ABFAA0B1202269462EA8FDF768FDE5
:1072A0002EA803F056FA9DF80030303B092BECD89D
:1072B000684610F08EFB80B2844238BF0446E4E793
:1072C0001CA803F046FA42F20E739C4206D8013421
:1072D000A4B23F4B1C80A2E70446F8E70124F8E77C
:1072E00043494448444D454CFEF7EAF944492C488B
:1072F000FDF7DCFC434B187090B14148FDF780FF6F
:1073000018B941494148FEF7BDFA2B78012B42D10B
:107310003F49404805F0B0FA38B93F493F4892E745
:10732000287020703E493F48EDE73F491D480CF06A
:10733000FFF923783D4A30212CA811F065F92CA9DA
:107340003B48FEF79FFA2A493A48FEF79BFA337802
:107350001BB939493948FEF795FA394911480CF0FB
:10736000D8F90A2221780F480CF017FA35490D4850
:107370000CF0DEF934490B480CF0CBF91C490948F4
:107380000CF0D6F901210D200CF088FA2F4B0022C9
:107390001A703EB070BD002BCBD02D492D4852E75E
:1073A000D40A00204C3F0020EC33002040787D01BF
:1073B00028C6010022B701003DC6010068B50100E2
:1073C0004AC6010013B801001BBE01006FBC0100DA
:1073D000FC260020E0290020CC0A0020D00A002052
:1073E00000C601000EC6010073C6010094C601006C
:1073F000C1070020A1C601003C0A00203A0A002073
:1074000095BB0100CD090020B3C60100D9C601001B
:1074100020A107005C2E00202DC701005CC70100E1
:10742000E7C601001DC701006AC70100C2C701000D
:10743000D5C70100E0C70100E8C7010019C8010075
:1074400022C8010036C801003EC801003B0A0020E6
:1074500083C70100AEC7010000B589B04FF4817346
:10746000ADF8043055238DF807308DF808308DF8CD
:1074700009308DF80A308DF80B300D4B03934FF423
:10748000FC6308228DF80600049301A900230DF186
:1074900015008DF81420CDF81530CDF8193010F006
:1074A0002EFB03A9034805F03FF809B05DF804FB83
:1074B00080B501005C2E00202DE9F0410C4686B01D
:1074C0000021064690462046042210F03CFB0CF0BA
:1074D000A9FA194D07460CF0A5FAC01B404528D261
:1074E000284605F075F80028F5D0294601A805F0D2
:1074F0005AF8029BB3F5FD6FEDD19DF80C20022ADE
:10750000E9D99DF80E30412BE5D19DF80F30B342FB
:10751000E1D1013C03239A4207DD01A9194401335B
:10752000497A04F8011F072BF5D1012006B0BDE808
:10753000F0810020FAE700BF5C2E0020F0B5444B3C
:107540001B789DB0012B04AE17D10020FFF784FFFC
:107550004FF4967231460020FFF7AEFF044648B163
:107560003C4D3D490A22284611F0E1F83B4A0023F0
:10757000AB72137020461DB0F0BD394B18680490F3
:107580009B883848B380062231460CF09DF8354878
:107590000BF081FA0620FEF76FFF00244FF496707F
:1075A000FEF752FF002801DA0024E3E730550134EA
:1075B000042CF3D19DF81030802BF5D19DF81130BB
:1075C000F02BF1D19DF81230102BEDD19DF8134026
:1075D000082CE9D9671C5C2FE6D800256420FEF74B
:1075E00033FF0028E0DB731901351871ABB29F42FD
:1075F000F4D8651DEDB229463046FCF784FD1CAB7E
:107600001D4415F8613C8342CED19DF81C200392A5
:107610009DF81B2002929DF81A200192013C9DF8D2
:1076200019209DF818300092E4B20F4A09480B2146
:1076300010F0EAFF602C28BF602422460DF11501EE
:107640000A4810F05CFA054B1C70012492E700BF59
:107650003C0A0020C00A00201CB90100E9070020F4
:107660008CB50100EC33002028B90100EA070020A6
:107670002DE9F04F2DED028BC14D2B78ADF5097D35
:10768000A9461BBBBF4C236813B90CF0CBF9206093
:10769000FFF754FF054620B100232360FFF7D8FA17
:1076A0000EE00CF0BFF92368C01AB74B984207D917
:1076B0000123B649B648256089F800300CF038F847
:1076C0000DF5097DBDEC028BBDE8F08F012B43D198
:1076D000B049B14E0A68B14822F004020A6001F5CF
:1076E000CC21EC31AE4A00244FF4F0470C7004700A
:1076F000147034707470B470B47126F8097C40262C
:10770000067007201070A74A0B70D2F8A031A64867
:1077100043F08073C2F8A031A44B4AF20352A3F89D
:10772000FE239A8942F400429A81027B64F30002AC
:10773000027393F8402064F3C71283F8402030BFEF
:107740004FF42542A3F8FE2310230B70FFF7F6FE3B
:107750000028B5D02C70A1E7022BB1D180220021E6
:1077600006A810F0F0F9924B04931A78012A6CD114
:10777000DFF854824FF0000A8E4B1B785FFA8AF5CF
:10778000AB4240F22381BC246C4308EB040696F81C
:107790004D30083B012B03D996F8B030FF2B0CD1AC
:1077A00006AB03EB850300221A60BC2303FB0585AF
:1077B000C5F8B4200AF1010ADEE77F4A12F8333037
:1077C000059388AF18464FF0000BFFF745FE47F8CA
:1077D000C8BD059B4FF4FA6239461846FFF76CFEA8
:1077E000002800F0218196F84D30A3F10802012A0B
:1077F00028D95034444496F84C20029496F84F10FF
:10780000019196F84E10009138465946FDF7FAFB63
:10781000BC2202FB058206AB03EB850383ED000A65
:1078200092F84D3082ED2D0A0A2BC3D192F84E30DA
:1078300092F84C2000213846FDF741F95F4B43F8A0
:107840002500B7E79FED5E0AE2E75E4F41F2883020
:107850003C78FEF7F9FD0028C0F2E68088AE0634D9
:1078600006F8C80DE4B20125EBB29C4208D9C82045
:10787000FEF7EAFD0028C0F2D780A8550135F3E7EE
:107880009DF85831802B40F0CF809DF85931F02B76
:1078900040F0CA809DF85A31102B40F0C5803D78E9
:1078A0009DF85B216B1CDBB29A4240F0BD809DF8D5
:1078B0005C31E82B40F0B880214656A8FCF723FC49
:1078C00088AB1C4414F8C93C834240F0AD802A4682
:1078D0000DF25D1126A810F012F9DFF8D8B0DFF82C
:1078E000E8A09FED378A4FF000089BF800305FFA60
:1078F00088F6B3426AD9BC2070430AEB0004B50095
:1079000094F84D30092B08D106AB1D4485ED008A53
:1079100084ED2D8A08F10108E7E7082B03D094F8DD
:10792000B010FF2904D106AB1D4485ED008AF1E7B4
:10793000214F94F84C2007EBC1075030504479791F
:10794000029094F84F00019094F84E00009026A801
:10795000FDF758FB06AB1D4494F84D3085ED000A49
:107960000A2B84ED2D0AD5D194F84E3094F84C2092
:10797000797926A8FDF7A3F8104B43F82600C9E74C
:107980003B0A002098060020BFD4010068C4010013
:107990004C3F00201CE001400941084018410840CC
:1079A00019410840006000400054004000E00140E0
:1079B0003C0A00203A0A00204C080020400A00201F
:1079C00000000000380A00207C0F00209B4B9C4DDB
:1079D0001A78002A69D000240DF19808182221464F
:1079E00040461C7010F0AFF8DFF870A2264627461C
:1079F0004FF0BC0B2878E1B288422CD90BFB01A1D7
:107A000091F8B93073B991F84D300136092BF6B2BF
:107A100008D198F900300137FFB21BB91722404650
:107A200010F085FE0134E5E786498748FDF72AFF17
:107A3000864987480BF07CFEFDF7D6FEFDF7EEFE8B
:107A4000049B1B780BB9FFF757FB824A002389F888
:107A50000030136034E6804B1B78002B63D000218C
:107A60007E4E0A460B46BC27CCB2A04211D907FB7A
:107A700001F404EB060C9CF8B9C0BCF1000F06D170
:107A8000A457502C0BBF01330132DBB2D2B201310B
:107A9000EAE7CDE900324821714B724A56A810F04E
:107AA000B3FD714856A9FDF7EDFE6C4FDFF8FC8180
:107AB00000262B78F4B2A3424BD9BC20604307EBDD
:107AC000000A9AF84D30082B2BD15030002326A9FC
:107AD00038448DF89830FDF709FB88AB03EB84033D
:107AE000A3F5027383ED000A9DF89830B0EE408A4A
:107AF00093B19AF8B8307BB901238AF8B8300BF00B
:107B000091FF502100905346424656A810F07CFD4C
:107B100056A95648FDF7B6FEBC2303FB047484ED5A
:107B20002D8A0136C5E757B14821CDF800804C4B6E
:107B30004F4A56A810F068FD56A94E48B3E74821B1
:107B40000096474B4C4A56A810F05EFD56A94B488C
:107B5000A9E70BF067FF4A4A404E4A4FDFF85081D1
:107B60000346142156A810F04FFD56A8FDF714FE49
:107B700000242B785FFA84FB5B452ED94FF0BC0ABA
:107B80000AFB0B6A9AF8B930ABB93846FDF704FE28
:107B90009AF84D300A2B10D13B4A9AF84C3052F8E3
:107BA0002B2000925B00394A142156A810F02CFDBE
:107BB00056A8FDF7F1FD0134DBE788AB03EB8B033F
:107BC000A3F5027318680FF055F84246CDE900019D
:107BD000142156A810F018FDEAE72D482D4CFDF7AA
:107BE000DBFD0BF01FFF2368C01AB0F57A7F07D3C7
:107BF000FDF7FAFD2848FDF7A9F90BF013FF206007
:107C0000264B1A78002A3FF45BAD1549244800241E
:107C10001C70FDF737FE23490D480BF089FDFDF779
:107C2000E3FDFDF7FBFD204B1B780BB9FFF764FA72
:107C3000084B89F800401C6042E500BFCC090020D9
:107C40003A0A002096C40100B6C40100C6C401006F
:107C50004C3F002098060020940600207C0F002056
:107C60001C0A0020EDC4010015C50100ABC50100D0
:107C70002CC5010041C5010060C5010072C50100AD
:107C8000B4C501005AB70100400A0020B8C5010080
:107C90001BBE0100D0090020DC090020780F002065
:107CA000C5C50100D3C501003C0A002082C5010002
:107CB000C0C50100F0B500F1240305460F46164685
:107CC00093E8070085B001AC84E807007A012146FB
:107CD000286A01F076F9012806D132462146286A41
:107CE00001F020F905B0F0BD0020FBE710B5044617
:107CF00000F022FD002384F8313084F8333010BDC9
:107D000038B50D4690F83110044651B938220FF0BD
:107D10001AFF4023012084F83130256284F83300B3
:107D200038BD0020FCE7FFFFF0B491F90040202CA3
:107D300001F1010522D01A4F116091600D460E46E7
:107D400015F9014B1CB32F2C1AD01F2C24DDE6B2E1
:107D5000A6F12201C9B21D2903D827FA01F1C907EA
:107D60001AD424F040013C2916D05C2C14D02E2EBD
:107D700002D0202E00D095602946DFE72946D4E7BF
:107D80000E4611F9014B202CFAD02F2CF8D01E6092
:107D90001146F0BC00F0F8BF0020F0BC704700BFF7
:107DA000010100312DE9F74F90F83330DF07044629
:107DB0000E46154664D5580603D494F83130190799
:107DC0000CD5D4E90023D4E9040112EB050843F1F2
:107DD0000009494508BF404538BF851A04F118031A
:107DE000A8460093B8F1000F00F09580206AD4E90E
:107DF0000023D0F838741740C7F3080B4FB913436A
:107E00002BD194F831305A064CBFD0F83434E369A2
:107E1000A361D4F820A0780AA7699AF845C4DAF8D3
:107E20002C14023F07FA0CF707440F44BBF1000F74
:107E30002FD1B8F5007F2CD3DAF818128F4228D052
:107E4000B8F5806F45D232463946DAF8140202F0AE
:107E5000CDFFA8B14FF400792FE094F83330A16939
:107E60005B0602D50131A161D3E7009A01F074F8F5
:107E7000002805DBCDD194F8313013F0500F4AD1F2
:107E800094F8323043F0020384F832304FF0FF3080
:107E900043E0CBF50079C1454FF0000239460AF5C1
:107EA000047028BFC14603F04DF80028E8D000EB6D
:107EB0000B014A4630460FF022FED4E9002312EBB4
:107EC000090043F100014E44C4E90001A8EB090890
:107ED00088E7012202FA0CF2131A4FEA582E734572
:107EE00028BF73468F424FEA432908D932463946A4
:107EF000DAF8140202F050FF0028DED1C0E7FA18C9
:107F00009142F3D20AF50470019302F0F6FF019B4F
:107F10000028EBD1B4E7A5EB080003B0BDE8F08F73
:107F20002DE9F04F1F4685B081460E46924601F17D
:107F3000FF3801244FF0FF3304F1FF3B2546544541
:107F400020DA01220DF10F014846FFF72BFF01282F
:107F5000034617D19DF90F100D29F0D008F8011F25
:107F60003FB90A290CD100237355284605B0BDE856
:107F7000F08F0190384610F07BFB019B0028F2D176
:107F80000134D9E7002B01DB5D46ECE74FF0FF350C
:107F9000EBE72DE9F74F90F831C0856904461646A6
:107FA0001F46BCF1000F69D0D0E90001994208BF1B
:107FB000904206D056EA070305D10023A361C4E925
:107FC000006701205CE01CF0080F05D0D4E9042311
:107FD000BB4208BFB24251D3D4F8209016F1FF3211
:107FE00047F1FF3399F845E4CDE90023009B0EF1FA
:107FF000090E5FFA8EFE23FA0EF2019BCEF1200AE3
:10800000AEF1200803FA0AFA23FA08F894F833309C
:1080100042EA0A0213F0400F42EA0808CEF1200BB0
:10802000AEF1200A02D0E3694344C7E710F1FF3202
:1080300041F1FF3322FA0EFE03FA0BFB4EEA0B0E60
:1080400023FA0AFA4EEA0A0EF04502D350EA010377
:1080500019D11CF0400F14BFD9F83434E369A3617F
:1080600004F11809B8F1000FA9D04A46A169206AA5
:1080700000F072FF002808F1FF38F3DCA561002052
:1080800003B0BDE8F08FA8EB0E08E9E72DE9F04F4B
:10809000994690F831308DB004460E461546002BB7
:1080A00045D191F8313013F0500F40D009F003035F
:1080B000012B05D0022B41D0002B38D1012300E049
:1080C000022309F0080A4AEA030A002D38D0EF68B3
:1080D0000F230E370022B7FBF3F730460237002399
:1080E000FFB2FFF756FF4FF00008C346202204A955
:1080F0003046FFF757FE002800F0C580202816D133
:108100009DF81020100620D4BBF1000F05D1316876
:10811000A1F120030193B3690093BB453CBF0BF170
:1081200001035FFA83FB6AB9002D40F0AC804FF089
:10813000000884F8318084F833806EE00323C0E7C0
:108140000327D0E700208046D0E7B8F1000F27D101
:10815000BB4538BF4FF0000B852AF3D1382241468A
:1081600020460FF0F0FC9DF814109DF8112084F8C3
:10817000302001F03702C90658BF42F0080284F8E7
:108180003120326A2262B26962623268203AA262A7
:1081900096F83320C2F3801284F82C200120D2E715
:1081A000C02A4FD1DDE906019DF8112084F833A0E3
:1081B0009307C4E90401DDE90A0144BF4AF0400223
:1081C00084F83320099AE261C4E902014DBB19F435
:1081D000006FACD119F4884F03D194F8333099076C
:1081E00004D594F8313013F0110FA0D119F4806F39
:1081F00039D094F833309A0799D5002200232046CD
:10820000FFF7C7FE002892D0204600F0D7FB0028D9
:108210008DD094F833309B072ED440460DB0BDE886
:10822000F08F2A686A60E9689DF81320914289D12D
:10823000288ABDF81420A0EB020CDCF1000040EB12
:108240000C0080E7C12A7FF47DAF2A4604A92046AE
:1082500000F03EFD00283FF476AFD5E901219142C0
:108260007FF471AFB3E719F4804FD2D0D4E904237F
:108270002046FFF78EFECAE794F8313043F0200322
:1082800084F83130C9E719F4007F3FF450AF1AF099
:10829000020F3FF44CAF002D3FF449AFBB4521D254
:1082A000202204A93046FFF77DFD50B93046D6F8AC
:1082B000188000F060FA00283FF439AFC6F8188043
:1082C000ECE720287FF433AFBBF1000F05D1326813
:1082D000A2F120030193B36900930BF101035FFA4C
:1082E00083FBDBE738220021204696F833800FF02D
:1082F0002AFC336A2362282384F83130009B6362AE
:10830000C8F38018019BA36284F82C802B686B60F3
:1083100007F1FF384FF000095FFA88F85FFA89FB30
:10832000BB4556D2012259462046FFF7C3FC0646FC
:1083300000283FF4FCAE90F90020002AFFF6F7AECB
:10834000202200210FF0FFFBBBF1000F20D185237D
:108350003370224B84F8308086F801801B688BB123
:108360000DF10B020DF10E0103A89847BDF80C307A
:108370007381BDF80E3033819DF80B30337509F1F0
:108380000109CBE745F621437381F3817382F6E758
:10839000BBF1010F0CD16AF07F03C022327086F866
:1083A00001B084F83330EB68F3702B8AB380E6E7D2
:1083B000C1233370A86806F11E026B688342DED0C9
:1083C000591C696093F9003026F8023FB242F4D19B
:1083D000D5E7204600F0B0F980461EE710290020BE
:1083E000F0B597B01F4600238DF851308DF852300C
:1083F0008DF8533090F83130019205460C4613B198
:10840000002017B0F0BD91F8313013F0500FF7D0C5
:1084100092F900302F2B13D1019B93F900202F2AC2
:1084200002D101330193F7E7216A1AB92846FFF711
:1084300067FCE6E708A8FFF763FC0028E0D008AC7B
:1084400001AB03AA01992846FFF76EFC0028D7D09C
:10845000019B93F90030D3B1002303AA214628469B
:10846000FFF714FE0028CBD008AA2B4605F1300CEC
:10847000144618685968164603C6083363453246E1
:10848000F7D1186830602846FFF730FCD8E73B4644
:1084900003AA21462846FFF7F9FDB2E719B101F515
:1084A0008961FFF79DBF084670472DE930081346E4
:1084B00090F831208AB991F8315015F0500F0CD056
:1084C000D1E900454FF0000C04F01F0B5BEA0C04EF
:1084D00003D1BDE83008FFF7D9BD0020BDE8300862
:1084E000704710B504780023CA0342EA5101C25C08
:1084F000012B12FA81F189B208D1852C14BF012217
:10850000032213441F2BEFD9084610BD0122F8E7C0
:1085100010B5044602F0F1FC50B104F5047002F00D
:10852000ECFC28B1D4F84004BDE8104002F0EDBAEC
:10853000002010BDF8B50446006AA16901B10131FF
:10854000012200F04BFC0128054602D800263046E7
:10855000F8BD012301461A46206A00F091FC064648
:108560000028F3D0A26994F833302AB943F04003CD
:1085700084F83330A561EAE7590613D50132AA42DF
:10858000F8D023F04003E16984F83330A369206A0E
:108590008B4207D94F1C3A4600F033FD394600287C
:1085A000F4D1D3E74FF0FF322946206A00F029FDCD
:1085B0000028CBD0A1690029DCD02A46206A00F02F
:1085C00020FD0028D6D1C1E72DE9F04890F83330DE
:1085D0009A07044602D40020BDE8F088C16989B931
:1085E000002594F83030E9B28B422ED30122204688
:1085F000FFF760FB01350028EDD0037803F07F031F
:108600000370EEE75B06006A1CD5D4E9026790F8B8
:1086100045240932D2B216F1FF3B47F1FF3CC2F1CB
:108620002005A2F120030CFA05F52BFA02F22CFA30
:1086300003F32A431A430132002300F021FC0028EF
:10864000CED1C8E700F0FAFCF9E7002384F8313016
:1086500084F83330206AFFF75BFFBDE72DE9F34173
:108660000026DFF8D0800546374695F83030F1B265
:108670008B4249D300222846FFF71CFB0446002802
:108680004ED00378C02B2AD0C12B21D0852B47D1C7
:1086900095F8313003F037038380D8F8003083B188
:1086A0000DF103020DF1060101A898479DF8033072
:1086B000BDF806206375BDF80430A281E3812282F3
:1086C00063822A6A92F8103243F0010382F8103272
:1086D00039462046FFF705FF01360746C5E795F8FE
:1086E0003320437852064CBF43F0020323F00203C9
:1086F0004370D5E90423C0E90223EB694361D5E95E
:108700000223C0E90623DCE7012205F12401286ADF
:1087100000F008FC20B14780286AFFF7F9FE30B965
:1087200095F8323043F0010385F83230002002B072
:10873000BDE8F0811029002010B590F831300446D2
:108740000BB9012010BD90F833301A0607D503F09D
:108750007F0380F83330BDE81040FFF77FBF006A29
:10876000FFF7D6FE0028ECD194F8323043F0010335
:1087700084F83230E6E7F8B590F831305A0604460E
:108780002ED5006A00F0F8FC236AD3F83C34184474
:10879000B0F1806F47D22046FFF7CCFE002842D0D0
:1087A000236AA56993F84524D3F82C34023D9540FB
:1087B0001D4400260127206A90F8453407FA03F388
:1087C000B3420FD90522A91900F5047002F0BAFBD3
:1087D00048B34FF4007200210FF0B5F90136EAE713
:1087E0008068D1E794F831305B0617D494F83330C1
:1087F00063F07F0384F83330D4E90223D0F83C14CB
:10880000551843F10006C4E90256D4E90423D0F810
:108810003C14551843F10006C4E904562046BDE84F
:10882000F840FFF789BF0020F8BD10B591F831304E
:1088300013F0500F04461AD040F60223FFF726FC2F
:10884000A8B1302384F831302046FFF794FF70B18F
:10885000A369E361204600230022FFF79AFBC123AE
:1088600084F833302046BDE81040FFF765BF002094
:1088700010BDF0B597B01F4600238DF851308DF82C
:1088800052308DF8533090F83130019205460C4645
:1088900013B1002017B0F0BD91F8313013F0500F34
:1088A000F7D092F900302F2B0ED1019B93F90020C5
:1088B0002F2A02D101330193F7E7216A08A8FFF7B5
:1088C0001FFA0028E5D008AC01AB03AA019928469D
:1088D000FFF72AFA0028DCD0019B93F900301BB384
:1088E000002303AA21462846FFF7D0FB90B108AA2F
:1088F0002B4605F1300C144618685968164603C615
:10890000083363453246F7D1186830602846FFF7D0
:10891000EDF9D9E7002FBCD003AA21462846FFF77E
:1089200084FF0028E3D1B4E703AA21462846FFF7D5
:108930007CFFAFE72DE9F84316461F4656EA0703CA
:10894000054638D090F833309B0734D5C16991BBC8
:10895000006A12F1FF3890F8452402F10902D2B200
:1089600047F1FF39C2F12004A2F1200309FA04F40F
:1089700028FA02F2224329FA03F31A43541C22462E
:1089800000F02CFA0128804615D901460123224621
:10899000286A00F075FA70B195F83330C5F81C807C
:1089A00063F03F03C5E9026785F833302846BDE828
:1089B000F843FFF7C1BE0020BDE8F8832DE9F34876
:1089C00090F833209307044603D4002002B0BDE89A
:1089D000F088C369002B5AD012F04001856939D064
:1089E000226AD0E9020192F845240932D2B210F18C
:1089F000FF3B41F1FF3CC2F12007A2F120060CFA37
:108A000007F72BFA02F23A432CFA06F63243013208
:108A1000ADB1013B691C5D1B01912A4492B9D4E9B7
:108A20000023C4E90223C4E9042394F8333063F03B
:108A30007F0384F833302046FFF77EFEC6E70193BC
:108A4000E561EBE700230199206A00F019FA00289C
:108A5000E5D1BAE7C5B102AA006A42F8041D294669
:108A600000F07AFA0028B0DB07D04FF0FF32A1699E
:108A7000206A00F0C6FA0028A7D001990029CED0BC
:108A8000206A00F0DBFAE2E70193C561F5E7012017
:108A90009CE7FFFF2DE9F04F90F833308A469907A5
:108AA00085B00446934668D51A0760D404F11803CC
:108AB000D9460393D4E90067B9F1000F00F0DC80D8
:108AC000206AD0F838543540C5F3080845BBA16981
:108AD000002965D094F833305B065AD5D4E9026793
:108AE00016F1FF3247F1FF33CDE9002390F845340A
:108AF000009E0933DBB2A3F12002C3F1200026FA65
:108B000003F3019E06FA00F003433046D040E269C9
:108B1000034313448B4239D82046FFF70BFD60B363
:108B2000206AA16990F84524023991406B0ACD185A
:108B3000D0F82C142944B8F1000F3DD1B9F5007FCD
:108B40003AD3B9F5806FD0F8186279D2B14202BF3A
:108B50004FF0FF3380F81082C0F818325246D0F838
:108B6000140202F087F940B14FF400754CE0D0E9EF
:108B70000423FFF70EFA002898D194F8323043F01E
:108B8000010384F832304FF0000B88E00131A1611D
:108B9000C6E7039A00F0E0F90028EEDBBCD0BFE79F
:108BA000E3693BB92046FFF7C5FC0028E5D0A3697F
:108BB000E361B5E7A361B3E7C8F500754D4528BF8C
:108BC0004D46B8F1000F39D1D4E90423D4E9006748
:108BD0009F4208BF964234BF0122052200F504706F
:108BE00002F0B0F90028C8D040442A465146A844B3
:108BF0000EF085FFB8F5007F06D1206A00F50470FD
:108C000002F07BF90028B8D0D4E90001D4E90423AC
:108C1000461941F10007BB4208BFB242C4E90067F0
:108C2000AA44A9EB0509BFF445AF94F8333063F0CB
:108C30007F0384F83330C4E904673BE70122CDE7C2
:108C4000012505FA02F2D31A4FEA5927BB4228BF81
:108C50003B46B1424FEA432508D8CA18B24282BF08
:108C60004FF0FF3280F81082C0F818225246D0F838
:108C7000140202F0D4F8C5E7D4E90223BB4208BFCE
:108C8000B24208D2C4E9026794F8333063F07F033C
:108C900084F8333003E0044B1B68002BF4D15846B2
:108CA00005B0BDE8F08F00BF1029002070B5054663
:108CB0000C4659B1036808465E680FF00AFD21466C
:108CC000024633462846BDE870401847084670BD46
:108CD000F0B5966801F11E05536831F8020F9E4207
:108CE00003D1B0FA80F04009F0BD5C1C54607E28CE
:108CF00093F9004014D8E3B2A3F16107192F9CBF88
:108D0000203B5CB2C3B2A3F16107192F98BFA3F156
:108D1000200040B2A04203D1A942DDD10120E3E707
:108D20000020E1E72DE9F04190F8313006460F468A
:108D3000904633B30225002496F83030AB421BD363
:108D4000002229463046FEF7B5FFD0B10378C12B8B
:108D500017D13A1900F11E0130F8023F63B1013416
:108D600044450ED27F2B28BF3F23884202F8013BA7
:108D7000F2D10135EDB2DFE700233B552046BDE8D7
:108D8000F08100243C70F9E770B588680D684D608B
:108D900000234A68824218D0541C4C6092F900208B
:108DA000D4B2A4F16106192E98BFA4F120024FEAB3
:108DB000C33444EA530398BF52B253FA82F2C2F367
:108DC0004E0343EAC2339BB2E3E7401BC86001385D
:108DD000FE280B828CBF0020012070BD2DE9F84FCA
:108DE000804693468A4659B38D1ED8F83034AB423C
:108DF00098BF002505F0070301249C40C5F3C8096E
:108E0000E4B22F462E46D8F82C14002201EB16317E
:108E1000404602F097F888B110F80930234206F175
:108E2000010610D1F21B5A450ED1BAF1000F04D140
:108E3000BBF1010F08BFC8F82074B81CBDE8F88F5B
:108E4000D0F82054D1E73746B54217D0D8F83024AF
:108E5000B2420ED9640014F0FF04DFD109F101031E
:108E6000B3F5007F4FF000094FF00104CBD29946D3
:108E7000D2E700274FF400793E46EFE70120DDE717
:108E80002DE9F84306468C1ED0F83004A118814223
:108E90001746984641D8D6F82034B8F1000F37D09D
:108EA000A34206D3994204D9814228BF0021C6F8C3
:108EB000201404F007030125D6F82C149D4001EB83
:108EC0001431EDB2C4F3C8040122304601F10109A6
:108ED00002F038F808B303192A461978114214BF72
:108EE00001240024444518D05140013F197017D087
:108EF000520012F0FF02F0D10133A3EB000C144634
:108F0000BCF5007F4FF0010249461546E5D1DBE78D
:108F1000A34288BFC6F82044CBE70020BDE8F88311
:108F20000120FBE738B50C46D0F83834496890F892
:108F3000455419402368023BAB4003EB5123D0F862
:108F40002C1400F50470194401F0FCFF18B163689B
:108F5000C3F30803184438BD38B5D0F830340133B2
:108F60008B420C46154602D24FF0FF3038BDD0F888
:108F70002414002201EBD41100F5047001F0E2FF8B
:108F80000028F1D0A400C4F3080403595A1C1ABFE6
:108F90002B6001200020E9E773B502AD064645F8D5
:108FA000041D00242A4601993046FFF7D5FF00280A
:108FB00005DB04F10104F5D1204602B070BD0024A8
:108FC000FAE770B54B68D0F838441C4013444B6046
:108FD00090F8453409331444DBB206460D46DC40B4
:108FE0006CB12B7A29681BB101312960013CF7E78C
:108FF0002A463046FFF7B0FF0128F7D070BD0120A8
:10900000FCE7012938B50C46154601D8002038BDCB
:10901000D0F8303401338B42F8D3D0F82414012235
:1090200001EBD41100F5047001F08CFF0028EDD0A5
:10903000A400C4F3080405510120E8E72DE9F34139
:1090400007460C460E4601AA21463846FFF784FF24
:10905000B0F100081DDB002221463846FFF7D1FFA2
:109060000546B0B1621CB8F1000F02D0019B9342DB
:1090700007D00023921B31463846FFF701FF40B16D
:10908000019E019CB8F1000FDDD1284602B0BDE879
:10909000F0810025F9E7FFFF70B504461E46002366
:1090A00080F84434C0F84014416003704FF0FF3042
:1090B000A060C4F8141284F81032C4F818021546DF
:1090C000CAB1042A01D9002070BD1A46194604F518
:1090D000047001F037FF0028F5D005F18055013DFF
:1090E00000F5DF702D0143191A79002AEBD0425D9B
:1090F0005206E8D19E680022314604F5047001F062
:1091000021FF05460028DED01A49052203300FF062
:10911000FCFA01460028D6D195F86C30092BD2D143
:109120002B6D3344C4F824346B6DC4F82834AB6D14
:109130003344C4F82C34EB6DC4F830342B6EC4F8CF
:10914000343495F86D3084F845340125093305FA37
:1091500003F3C4F83C34013BC4F83834C4F82004A9
:109160002A462046FFF73AFE402384F84434284636
:10917000AAE700BF76C8010010B50446D0F8341441
:10918000FFF70AFF94F845340933DBB2984010BD6D
:1091900010B50446243001F0B0FE48B104F50D705E
:1091A00001F0ABFE20B12068BDE8104001F0ADBC7D
:1091B000002010BD814230B507D00D4604460FCDCA
:1091C0000FC40FCD0FC42B68236030BD024638B5E5
:1091D00052F8105F04462946806801F09DF940B1BD
:1091E000A3783DB943F04003A370A37863F07F03F5
:1091F000A37038BD22690135AA42F6D023F040039E
:10920000F2E7FFFFF8B5077817F04007044602D0F1
:1092100000263046F8BD4269154B9A42F8D8FFF750
:10922000D5FF06460028F3D0A36825699A795B69C3
:10923000023D95401D44A0680379F9B28B420DD9D7
:1092400005222944243001F07DFE01370028DFD0BB
:109250004FF4007200210EF076FCECE782794FF4B7
:1092600000739340626912FA83F36361D1E700BF30
:10927000FFFD1F0010B5044680680A462430A1692E
:1092800001F060FE20B1A38803F00F0300EB431050
:1092900010BD70B5047805460E4694B924222146C7
:1092A0000EF051FCAE60F379102B03D0202B06D0CA
:1092B000204603E0402301202B70A87070BD80235E
:1092C000F9E70020FAE738B5CB6804460D4623B924
:1092D0008968BDE83840FFF7DCBF242200210EF08A
:1092E00032FC102301202370A070AB68A360EB68F0
:1092F000236238BD2DE9F04F83780446D80785B046
:109300008A4615466AD52378190732D5E36962691A
:109310009B1A9D4228BF1D4604F110032E464FF0B4
:1093200000080193002E00F09F8022786769A068F2
:109330005306C7F3080B4FEA572123D5026A11449D
:10934000D4F80890BBF1000F4FD1B6F5007F4CD395
:10935000D9F82C20914248D0B6F5806F5ED25246A3
:10936000D9F8280001F042FD002837D04FF40077EB
:109370004EE05A06D0D5A3681A896369C3EB42133D
:109380009BB2C6E790F8058008EA0108BBF1000F20
:1093900008D1B8F1000F05D16FB912064CBF026AAF
:1093A000226A2261A268216990795269023981405A
:1093B00011444144C4E71307216905D5A278570633
:1093C00002D501312161EDE7019A01F040F8002852
:1093D00004DBE7D1237813F0D00F45D1637843F055
:1093E000020363704FF0FF303FE0CBF50077B742E8
:1093F0004FF0000209F1240028BF374601F0A2FD1A
:109400000028EBD000EB0B013A4650460EF077FBFC
:1094100063693B44BA446361F61B83E720784006E6
:109420004FEA562306D499F80400A0EB08008342C3
:1094300028BF034691424FEA432707D95246D9F83D
:10944000280001F0A9FC0028E2D1C7E7C818824231
:10945000F4D209F12400CDE9021301F04EFDDDE95B
:1094600002130028EAD1B9E7A81B05B0BDE8F08FC8
:109470002DE9F04F1F4685B081460E46924601F118
:10948000FF3801244FF0FF3304F1FF3B25465445DC
:1094900020DA01220DF10F014846FFF72BFF0128CA
:1094A000034617D19DF90F100D29F0D008F8011FC0
:1094B0003FB90A290CD100237355284605B0BDE8F1
:1094C000F08F019038460FF0D3F8019B0028F2D1BD
:1094D0000134D9E7002B01DB5D46ECE74FF0FF35A7
:1094E000EBE7436937B5C3F34315044605B199B9B2
:1094F00001220DF107012046FFF7FCFE40B20128D2
:1095000002D0002003B030BD63691F33A0686361DF
:10951000343000EB4510F5E72033F7E72DE9F04153
:109520000E4601780769044639B34069B04206D057
:109530003EB92661A378666123F02003A370012061
:109540001DE00B0712D5E369B34216D3D4F808C067
:10955000A2789CF806300933DBB2751E520625FA54
:1095600003F50ED5236A1D442561E3E74D06EDD5CD
:10957000A3681B89B6EB431FDCD927610020BDE837
:10958000F081421E22FA03F39D4200D398B90B06E4
:109590004CBFDCF82030236A236104F11008002D51
:1095A000C8D042462169A06800F051FF002805F1AB
:1095B000FF35F4DCE1E7ED1AEFE7F8B50F461646A4
:1095C0000021242204461D460EF0BDFAB868A6808C
:1095D00000F1340206F00F0602EB46123B6AA0606F
:1095E000E360D17A0E073FD401F037012170D37ABE
:1095F00013F0180F9DF81830E37008BF41F0080110
:1096000005F0030308BF2170012B27D0022B23D0C4
:1096100053BB6B0528D40123A370A1788F0706D50F
:10962000237813F0110F1FD143F02003237005F0AE
:1096300008030B43A370C36AA361518B938A6E0521
:1096400041EA034114D559B9A37863F07F03A370AD
:109650006B0411D40120F8BD0323DDE70223DBE70F
:1096600000F0D4FF0028EFD100202070A070F2E7B6
:109670002162D369E361EBE7E1692046FFF74EFF22
:109680000028F1D0E6E72DE9F743037807460D46B9
:109690009146002B3DD10B7813F0D00F39D04C6997
:1096A00014F01F0435D1264600212846D5F8148031
:1096B000FFF717FF68B303785BB32E2B1FD0E52BA2
:1096C0001DD0C27A12F008011BD16CB1421E0A30C3
:1096D000CB0143EA510112F8013F53FA81F1824272
:1096E000C9B2F5D18E4214D100944B46C8F34F1243
:1096F00029463846FFF761FF03B0BDE8F083002438
:10970000D2E70F2AFBD15A06CED503F01F04467BC1
:10971000CAE70020F0E7FFFF37B503780446002BC7
:1097200039D090F90230002B2FDA0121FFF7A2FD8A
:10973000054630B9637843F001036370002003B03D
:1097400030BD0378E52BF5D0237803F03703C372DF
:1097500023781B0744BFE369C361236A43831B0C5F
:1097600083820E4B1B6863B10DF103020DF10601FC
:1097700001A89847BDF804302B836B82BDF80630F2
:10978000EB82A37803F07F03A370A068FFF700FDCE
:109790000028CFD0D3E70120D1E700BF1029002057
:1097A00010B50446FFF7B8FF00232370A37010BD67
:1097B00070B594B01E460023ADF82C308DF82E30D5
:1097C0000378019205460C4613B1002014B070BD19
:1097D0000B7813F0D00FF8D092F900302F2B13D163
:1097E000019B93F900202F2A02D101330193F7E75F
:1097F000A1681AB92846FFF74CFDE7E70BA8FFF769
:1098000048FD0028E1D00BAC01AB03AA0199284622
:1098100000F0D0FC0028D8D0019B93F900307BB138
:10982000002303AA2146284600F09EFB0028CCD046
:109830000BA82946FFF7BEFC2846FFF7B1FFE2E779
:10984000334603AA2146284600F08EFBBEE719B135
:1098500001F24441FFF7ACBF08467047F0B50B7802
:1098600013F0D00F89B004460E4602D1002009B093
:10987000F0BD40F6022300F077FB0028F6D001256A
:109880001027A57027702046FFF7BCFC0028EDD0FC
:109890002369236200212046FFF740FE2046FFF7A0
:1098A0003BFF0028E2D029462046FFF7E3FC0146B3
:1098B0000028DBD0C772202268460EF020F92E2344
:1098C0008DF80030294620230DF8013001310B2995
:1098D000FAD1A068216A837902399940436901224B
:1098E0001944243001F02EFB05460028BED06946FD
:1098F00020220EF004F92E238DF80130336AADF8E2
:109900001A3020221B0C6946A818ADF814300EF04E
:10991000F6F8A068FFF73CFCA9E770B594B01E46C6
:109920000023ADF82C308DF82E30037801920546D7
:109930000C4613B1002014B070BD0B7813F0D00F9B
:10994000F8D092F900302F2B0ED1019B93F9002013
:109950002F2A02D101330193F7E7A1680BA8FFF783
:1099600098FC0028E6D00BAC01AB03AA019928466D
:1099700000F020FC0028DDD0019B93F90030C3B13A
:10998000002303AA2146284600F0EEFA38B10BA8BE
:109990002946FFF70FFC2846FFF702FFE3E7002EFA
:1099A000C8D003AA21462846FFF758FF0028EED169
:1099B000C0E703AA21462846FFF750FFBBE738B5AA
:1099C00004460D46D1B183789B0717D5036AABB91E
:1099D0008068837909330139DBB2D94004F1200270
:1099E000013100F0D4FD48B1A378E56163F01F03B5
:1099F000A3702046BDE83840FFF78EBE002038BD7A
:109A000013B583789B07044602D4002002B010BD32
:109A1000036A43B30169E9B102AA002342F8043D95
:109A2000806800F014FD0028EFDB07D06FF0704273
:109A30002169A06800F041FD0028E6D0019961B9D4
:109A40006369E361A37863F07F03A3702046FFF7A7
:109A500063FEDBE701930162F0E7A06800F0D6FD4A
:109A60000028EDD1D1E70120D0E7FFFF2DE9F04735
:109A700083780F4699070446904645D51A073ED489
:109A80006369DB4343453FD346466269002E7FD07E
:109A9000A06890F8059019EA5229C2F308050DD183
:109AA0002169002D40F08480002948D0A3785B060E
:109AB00031D5E36993422ED901312161A068216932
:109AC000837902399940436919444944002D74D17E
:109AD000B6F5007F71D3B6F5806FC26A3FD291426E
