:10400000007F0020A51D01004D1C0100A11D010025
:10401000A11D0100A11D0100A11D0100A11D0100A4
:10402000000000000000000000000000A11D0100D1
:10403000A11D010000000000A11D0100A11D010043
:104040000000000000000000000000000000000070
:104050000000000000000000000000000000000060
:104060000000000000000000000000000000000050
:104070000000000000000000000000000000000040
:104080000000000000000000000000000000000030
:104090000000000000000000000000000000000020
:1040A0000000000000000000000000000000000010
:1040B0000000000000000000000000000000000000
:1040C00010B5054C237833B9044B13B10448AFF352
:1040D00000800123237010BD780200200000000042
:1040E00060E8010008B5034B1BB103490348AFF377
:1040F000008008BD000000007C02002060E8010094
:104100000020704710B500231A4601395C1CDBB251
:104110008B4204DAC35C1A4492B22346F6E7D0B26B
:1041200010BDFFFF10B5074B196800220C4611F9AE
:10413000010B202804D0092802D002B11C6010BD58
:104140000122F3E7C406002010B50446FFF7EAFF9A
:10415000044A136893F90010A14204BF01331360AD
:1041600010BD00BFC406002070B50025ECB2A1420E
:104170000CD90446264614F9010BB8B12C2821D0DD
:104180000A2801D00D28F5D100200FE0013B0138AD
:10419000114642F20146DBB210F9015FECB20D2C80
:1041A00005D92C2D07D100230B70012070BD26FAF4
:1041B00004F4E407F7D48C1AE4B2A342F3D901F86B
:1041C000015BE9E7701C0135D0E7FFFF2DE9F843FB
:1041D000DFF83C900C4F064600254FF0BC0899F8DC
:1041E0000030ECB2A3420CD908FB047431462046DF
:1041F00015F097F901350028F1D194ED2D0ABDE8AD
:10420000F8839FED020AFAE7B00F002000000000DB
:104210006E0A0020F0B52DED028B87B0FFF782FF0C
:104220008A4A106890F900302D2B14460BD10130CA
:104230001060FFF7EFFFB1EE408AB0EE480A07B01A
:10424000BDEC028BF0BD212B0CD101301060FFF7CB
:10425000E1FFB5EE400AF1EE10FA00F0F3809FEDB9
:104260007C8AEAE7282B09D10130106000F070F950
:104270002920B0EE408AFFF767FFDEE75B2B35D1E0
:104280000130002310601F46844610F9015BE9B23B
:1042900021F02006413E192EDAB217D9303909290A
:1042A00014D95F2D12D00FB1C4F800C006AB1A4468
:1042B000002302F8183C2268104612F9011B79B15C
:1042C0005D294FF00103F7D122600BE00DF8035098
:1042D0000133172B4FF00107D6D120601A46E5E7CE
:1042E00003B120606846FFF771FF86E0782B05D1A7
:1042F0000130584B106093ED008A9EE7D9B2A1F1CE
:104300003005092D01D92E2B07D1694615F09CFFE8
:10431000009B2360B0EE408A8FE721F020014139F5
:10432000192904D9002B9AD00130106097E7002397
:104330001F46844610F9011BCAB222F02005413DF8
:10434000192DDEB228D9303A092A25D95F2923D080
:104350000FB1C4F800C006AB3344002503F8185C65
:10436000FFF7E0FE236893F90020282A54D1013397
:1043700039492360684615F0D4F80646B0B1216883
:104380002B4601220D4611F9010B002838D1002BD4
:104390003FF465AF256062E70DF803100133172B7A
:1043A0004FF00107C5D120601E46D4E700F0D0F8D9
:1043B0002A4C2C20F0EE408AFFF7C6FE25782670A6
:1043C00000F0C6F82C20B0EE408A2778FFF7BCFE3C
:1043D000267000F0BDF829202678FFF7B5FEF5EE2F
:1043E000408AF1EE10FA04D0002D18BF2F46277036
:1043F00023E7002D18BF2E462670B0EE408A1CE73A
:10440000002AC4D0282802D101320123BAE7292882
:1044100008BF02F1FF32F8E7012E7FF463AF9DF988
:104420000030412B01D10E4B65E7422B01D10D4BE2
:1044300061E7432B01D10C4B5DE7442B7FF452AF76
:104440000A4B58E7B7EE008AF7E600BFC406002023
:1044500000000000C8060020E9D90100CC060020B9
:10446000B4060020B8060020BC060020C0060020CC
:1044700070B52DED028BFFF7CDFE1F4C1F4DB0EE3A
:10448000408A0126FFF74EFE236893F900202A2A6E
:1044900006D101332360FFF7BDFE28EE008AF1E765
:1044A0002F2A0FD101332360FFF7B4FEB5EE400A87
:1044B000F1EE10FA03D12E709FED118AE2E788EE3B
:1044C000008ADFE7252A11D101332360FFF7A2FE1E
:1044D000B5EE400AF1EE10FAF0EE400AEBD0B0EE85
:1044E000480A14F089F8B0EE408ACBE7B0EE480AEB
:1044F000BDEC028B70BD00BFC4060020CC060020BE
:104500000000000010B52DED028BFFF7B1FF0F4C3E
:10451000B0EE408AFFF706FE236893F900202B2AAD
:1045200006D101332360FFF7A3FF38EE008AF1E7DD
:104530002D2A06D101332360FFF79AFF38EE408A17
:10454000E8E7B0EE480ABDEC028B10BDC4060020BF
:1045500010B52DED028BFFF7D5FF334CDFED338A1D
:10456000B0EE408AFFF7DEFD236893F900203E2A73
:104570000FD193F901203D2A3DD102332360FFF78B
:10458000C1FFB4EEC80AF1EE10FA11D9B0EE688A94
:10459000E8E73C2A0FD193F901203D2A35D10233B7
:1045A0002360FFF7AFFFB4EEC80AF1EE10FAEDDBBF
:1045B000B7EE008AD6E73D2A0DD193F901203D2AB6
:1045C0002DD102332360FFF79DFFB4EE480AF1EED0
:1045D00010FAEDD0DAE7212A21D193F901203D2A02
:1045E0001DD102332360FFF78DFFB4EE480AF1EED0
:1045F00010FADDD1CAE701332360FFF783FFB4EE81
:10460000C80AF1EE10FAD3D4C0E701332360FFF7F4
:1046100079FFB4EEC80AF1EE10FAC9DCB6E7B0EEE5
:10462000480ABDEC028B10BDC4060020000000004B
:10463000F8B50F4615461C4614F0DAFF064608B9D1
:104640000020F8BD384614F090FF3218305622286A
:1046500001D02728F4D1013C2B46E4B212F9011F06
:1046600041B1884206D05E1BF6B2B44202D903F8CB
:10467000011BF3E700221A700120E2E708B50246A9
:10468000104612F9013B3BB1303BDBB2092BF7D8A6
:1046900014F0B1F880B200E0184608BD2DE9F04FE3
:1046A000F9B081469DF80C62869C879D082E8A464B
:1046B000934609AF14D15A4A0C21384614F0C4FE6F
:1046C00000230DF150081BF90320D9B29AB12F2B0A
:1046D00010D02C2A08BF3B2208F803200133F2E750
:1046E000092E01D14F4AE7E74F4A0C21384614F012
:1046F000ABFEE5E71946002308F801300CA8EA569E
:10470000D9B242B11F2B05D02C2A08BF3B22C2547C
:104710000133F4E71946002343549B4694F90010F3
:104720005FFA8BF220AD59B3BBF15F0F27D00422A3
:104730003E49204614F035FF30B93E2205F80B20E3
:1047400004340BF1010BE9E704223949204614F047
:1047500028FF08B93C22F1E705223649204614F02B
:1047600020FF20B9262205F80B200534E9E714F9CB
:10477000012B2C2A08BF7C2205F80B20E1E75A46C2
:104780000023013EAB54092E06D8DFE806F0472E81
:10479000303234363E383A3C274B9DF81002274AD7
:1047A00027499DF930400393002808BF114625484A
:1047B0009DF80832CDF800800CAA002C08BF0246F4
:1047C0008898CDE90415CDE90620CDE901731E4A8C
:1047D00053464FF4807138A814F036FE38A9484685
:1047E0000FF037FA79B0BDE8F08F184BD5E7184BCA
:1047F000D3E7184BD1E7184BCFE7184BCDE7184B51
:10480000CBE7184BC9E7184BC7E79DF81432174A96
:104810001748082114F018FE154BBEE7154BBCE7EE
:104820001BCF010026CF01002FCF010037CF0100A1
:104830003CCF010041CF0100DCCE010010CF0100D0
:1048400014CF010057E801004DCF0100E3CE010075
:10485000E7CE0100EACE0100EECE0100F2CE01006B
:10486000F8CE010003CF01000CCF010047CF0100BB
:10487000CD060020DFCE01002DE9F04FB5B014AE1B
:1048800099469DF8043109930D469DF808310A9325
:10489000002182469346304620229DF8FC409DF838
:1048A0000C8114F070F8102200210CA814F06BF8A1
:1048B0001CAF1022002110A814F065F8602200211E
:1048C000384614F060F82023324669492846FFF73D
:1048D000AFFE10230CAA67492846FFF7A9FE102354
:1048E00010AA65492846FFF7A3FE18B9634910A826
:1048F00014F021FE60233A4661492846FFF798FEEE
:104900003B46194613F9012B202AFAD0092AF8D080
:104910001CADA94208D008460B9114F026FE0B9955
:10492000421C284614F016F8284614F01EFE0022F9
:104930002844B84208D010F9013C202B01D0092BA3
:1049400002D100F8012DF4E74E490CA814F0E9FD5E
:10495000002878D04C490CA814F0E3FD002874D04E
:104960004A490CA814F0DDFD002870D048490CA875
:1049700014F0D7FD00286CD046490CA814F0D1FDE6
:10498000002850D10027B8F1000F66D1099B002BF9
:1049900065D1062F65D09DF97030782B61D19DF9D6
:1049A0007130002B5DD103223B49304614F0F9FDF4
:1049B000002814BF3B460A233849099310A814F075
:1049C000B0FDB0FA80F04009099BB8F1000F4AD160
:1049D0000A9A52B9012202FA07F717F0120F44D1CE
:1049E00017F0640F14BF04241446449F2C4A99F90D
:1049F00000100495B8F1000F08BF17469DF800217C
:104A00004497CDE90202274ACDE90043002918BFA7
:104A10004A46CDE905673E9B59465046FFF73EFEA4
:104A200035B0BDE8F08F20490CA814F07AFD40B1F4
:104A30001E490CA814F075FD68B1012CA2D0022CFF
:104A400009D101279FE706279DE703279BE7042756
:104A500099E7052797E7022795E70823ACE707239F
:104A6000AAE73B46A8E70024BFE70224BDE700BF52
:104A7000AFD90100B6D90100C3D9010010CF0100A0
:104A8000CBD90100F2CE0100D2D90100D8D9010062
:104A9000DFD90100D1D90100E5D9010014CF01000F
:104AA000B9CC0100A7D90100D7D90100DED9010096
:104AB00038B500230D460B702B49044614F031FD28
:104AC00050B32A49204614F02CFD00283BD0284939
:104AD000204614F026FD002837D02649204614F041
:104AE00020FDA0B32449204614F01BFD88B32349C0
:104AF000204614F016FD70B32149204614F011FD34
:104B000058B32049204614F00CFD40B31E492046FE
:104B100014F007FD08B9092038BD1C49204614F0DF
:104B200000FDF0B103221A49204614F03AFD002896
:104B3000F1D1E378303B092BEDD8E01C13F05BFE9C
:104B400028700720E8E70120E6E70220E4E70320D9
:104B5000E2E70420E0E70520DEE70620DCE70820A6
:104B6000DAE70A20D8E700BFDCCE0100DFCE010083
:104B7000E3CE0100E7CE0100EACE0100EECE010057
:104B8000F2CE0100F8CE010003CF01000CCF0100EE
:104B9000F5D9010010B50C463E2114F0B5FC08B95A
:104BA000207010BD002310F9012FD9B23AB13C2A70
:104BB00005D00B2B02D0E2540133F4E71946002351
:104BC0006354EEE709490022C0E900210121417246
:104BD0004FF4285102728272C260027442744182A0
:104BE000027542758275C275704700BF00093D00AD
:104BF00000B50A46D0F880148FB051B10023684642
:104C0000ADF800308DF8023004F03BFF0FB05DF8D6
:104C100004FBD0F884040028F8D08DF831108DF80A
:104C200032108DF833100B460146684603F050FDF4
:104C3000ECE700B50A46D0F880148FB079B10023B4
:104C4000ADF800308DF802306846012304F019FFFA
:104C500010B1684605F00EFC0FB05DF804FBD0F80B
:104C600084040028F8D08DF831108DF832108DF8BA
:104C7000331001230146684603F02AFD08B90020DD
:104C8000EAE7684603F0BAFD0028F8D0E4E710B47C
:104C9000846B24B120465DF8044B04F003BDC06B67
:104CA00018B15DF8044B03F055BA4FF0FF305DF8D2
:104CB000044B704710B4034600240C70986B18B175
:104CC0005DF8044B05F0DBBCD86B18B15DF8044B04
:104CD00004F042B95DF8044B7047FFFF1346074AE2
:104CE00010B40C46116821B122465DF8044B05F062
:104CF0005BBE08465DF8044B704700BF40290020AA
:104D00002DE9F04FADF53B7D002281460F46564B15
:104D1000564929922AA8CDE938222893FFF7DEFFC9
:104D2000002800F09180052400234FF480723AA9F6
:104D30002AA8013CFFF7ABFF14F0FF04F4D11822BE
:104D4000214608A813F01FFE00234FF480723AA9F1
:104D50002AA8FFF79CFF002873DD0EAC182322461B
:104D600000213AA8FFF700FA06460028ECD094F993
:104D70000030002BE8D008A9204614F0D2FB002810
:104D8000E2D01722214608A814F01DFC10230421AC
:104D900000250DEB03023AA88DF83750FFF7E4F930
:104DA000334904A814F0BDFB0028CDD00DF17008E4
:104DB0003023424601213AA80DF1500AFFF7D4F9F9
:104DC0002023524607213AA8FFF7CEF994F900B004
:104DD000284B214653F8250014F0A3FB002837D0B8
:104DE00001350C2DF4D1692F1AD00026702F19D15E
:104DF000BBF1530FA8D0204B204A002E14BF1E46F3
:104E00001646CDE901A8009623461D4A4FF480714D
:104E10007AA814F019FB7AA948460EF01AFF93E716
:104E2000202318E0732F8FD1BBF1530F8CD1134B7C
:104E3000144A002E08BF1A46CDE900282346124A1C
:104E40000CE02AA805F09FFD0DF53B7DBDE8F08F35
:104E5000692FCBD12A23CDE900480C4A4FF4807149
:104E60007AA814F0F1FAD6E724CB01001BD901008F
:104E7000F8CE01008CCE0100F1D80100B9CC0100C0
:104E800043D9010006D901007CD9010033D90100C2
:104E90000346806B08B104F059BDD86B08B103F02C
:104EA00065BD704708B50830FFF7F2FF08BD03463F
:104EB000806B08B104F0F4BED86B08B103F004BFF6
:104EC000704708B50830FFF7F2FF08BD07B502AB21
:104ED000012203F8011D08301946FFF7E8FF03B06F
:104EE0005DF804FB054B1B78834281BF044B185CC3
:104EF000084100F0010098BF002070470108002021
:104F000002080020094B0A4A18600A4B83ED000A88
:104F100000231360084A1360084A1360084A1360AC
:104F2000084B00221A70FFF713BB00BFC406002015
:104F3000C0060020C8060020BC060020B8060020DD
:104F4000B4060020CC06002038B50B4B0B4A186085
:104F5000002313600A4A0B4C13600B4A13600B4A80
:104F600013600B4A0D46136000232370FFF7F0FA1D
:104F700023782B7038BD00BFC4060020C80600206F
:104F8000C0060020CC060020BC060020B806002089
:104F9000B40600202DE9F041B0B000222A4B2B4985
:104FA0000D920EA8CDE91C220C931F92CDE92E2262
:104FB0001E93FFF793FE0446C8B1254E254FDFF838
:104FC000988000220EA920A805F029FD044658B1BA
:104FD0002E9B83B11B7813F0D00F13D0002420A890
:104FE00005F0D1FC002CECD00EA805F0CCFC20463E
:104FF00030B0BDE8F0812F9B23B193F8313013F02E
:10500000500FEAE73022694620A8FFF753FE6846B2
:1050100014F0ABFAC5B20B2DE0D907223146684631
:1050200014F0BFFA0028D9D1281F3946684414F07B
:1050300078FA05460028D1D127226946064814F09F
:10504000C2FA88F82750CAE724CB0100C1CC01007E
:10505000C9CC010042D10100D90700202DE9F04F51
:105060000025E3B0704B119501462A4612A8CDE900
:1050700020551093FFF732FE0746002800F0D0803D
:105080006A4B6B4CDFF8CCB125701D709846DFF889
:10509000C89100234FF4807222A912A8FFF7F7FDF0
:1050A000002840F3B68022AEB24696F90030002BBD
:1050B00000F09C80002D00F083805946304614F0AB
:1050C00097FA002879D18AF80000494622A814F0FE
:1050D0008FFAA0B1574922A814F08AFA78B11023A8
:1050E00008AA544922A8FFF7A3FA40B1524908A8D8
:1050F00014F017FA00287DD1012388F800304F49B9
:1051000022A814F075FA0028C3D023781F2BBED82C
:10511000182302AA4A4922A8FFF78AFA0028B6D023
:10512000DFF838912078BC26172202A900FB0690F0
:1051300014F049FA2378434906FB03934FF0000A21
:1051400083F817A020230DEB030222A8FFF770FAC3
:105150004E4694F800C03C4B002855D01F2203EB6C
:105160004C1008A9019314F02EFA2278019B03EB4E
:10517000421383F81FA02378BC225A4302F148014E
:10518000002006EB010C164449F8010078224FF488
:105190001061CCF8041086F85020FF2286F8B02069
:1051A0000133002286F85100C6F8B42086F8B80012
:1051B00086F8B9003076237069E7C61C002574E7CD
:1051C0002249304614F014FA30B9013E16F9013F75
:1051D00063B10AF8013BF9E7B04204D916F9013B83
:1051E0000AF8013BF8E7061D3D465EE700238AF812
:1051F00000306AE7164908A814F093F900287FF4F4
:105200007EAF88F800007AE74FEA4C1C03F80C00E8
:10521000B1E712A805F0B7FB2778003718BF0127C0
:10522000384663B0BDE8F08F24CB0100700A00203F
:105230006E0A0020E3CC0100EDCC010007D901008B
:10524000F5CC0100AFD9010094020020D5CC0100BB
:10525000F1CC0100D1CC0100DACC0100B00F00206C
:1052600030B50025ABB0644B644905952A4606A8C5
:10527000CDE914550493FFF731FD044658B12B4690
:10528000502216A906A8FFF702FDA84205DC06A8D1
:1052900005F079FB00202BB030BD594916A814F059
:1052A00052F92AAB1844062200F8505C554916A85A
:1052B00014F077F90028EAD153490DF15E0014F09B
:1052C00030F928B19DF95E00A0F131035C425C41E8
:1052D0004E4B50221C7016A9002306A8FFF7D7FCDE
:1052E0000028D4DD464916A814F02DF92AAB18443D
:1052F000002300F8503C0422454916A814F051F947
:1053000004460028C3D10A2217A901A814F05BF9AA
:1053100040498DF80E4001A814F003F9044620B16D
:1053200006A805F030FB0120B5E70346502216A978
:1053300006A8FFF7ACFC0028A9DD314916A814F037
:1053400002F92AAB1844052200F8504C324916A83D
:1053500014F027F900289AD130490DF15D0014F0BE
:10536000E0F8044620B106A805F00DFB022092E704
:105370000346502216A906A8FFF789FC002886DDFF
:105380001F4916A814F0DFF82AAB1844092200F8C8
:10539000504C234916A814F004F900287FF477AF85
:1053A0000DF1610013F027FA002822DD5428A8BF70
:1053B00054201C4B5022187016A9002306A8FFF792
:1053C00066FC00287FF763AF0D4916A814F0BBF800
:1053D0002AAB1844002300F8503C134916A814F0D7
:1053E000A0F800287FF453AF06A805F0CCFA0320FC
:1053F00051E72020DDE700BF24CB01001BD90100CD
:10540000DDCD0100E0CD0100E7CD01003227002015
:10541000ECCD0100F40A0020F1CD0100D9070020F5
:10542000F7CD01000000002001CE010070B500247E
:105430009CB01B4E1B4B1C49347022460CA80B948D
:10544000CDE91A440A93FFF749FC054628B32346E1
:10545000282269460CA8FFF71AFCA0421ADD13495E
:10546000684614F070F81CAB1844062200F8704C23
:105470000F49684614F095F860B90E490DF1060021
:1054800014F04FF828B19DF90650A5F131035D42A3
:105490005D4135700CA805F076FA1CB070BD00BFF8
:1054A0003227002024CB01001BD90100DDCD0100F3
:1054B000E0CD0100E7CD010030B5144B1B78BDB045
:1054C00005460BB300233CAC0393CDE9123340F205
:1054D00009220F4B0F4944F8E83D04A8FFF7FEFBF3
:1054E00090B10EF03FFD0C4A00950346A02114A890
:1054F00013F0AAFF14A920460EF0ABFB04A8FFF797
:10550000C7FC04A805F03FFA3DB030BD32270020AB
:1055100024CB010060CE010077CE010030B5164BE0
:105520001B78C7B005460C4623B300230393CDE98F
:10553000123340F20922114B1149029304A8FFF7DC
:10554000CDFBB8B10EF00EFD0E4B0F4A002C08BF7C
:105550001C46C8210346CDE9005414A813F074FF7B
:1055600014A902A80EF075FB04A8FFF791FC04A88B
:1055700005F009FA47B030BD3227002024CB0100E6
:1055800060CE0100B9CC01007FCE010010B51449F6
:10559000144892B0FFF72CFBD8B10022124B1049EF
:1055A000019202A8CDE910220093FFF797FB80B18A
:1055B000109B83B1DC6902A805F0E5F9B4F5006F32
:1055C00007D907490748FFF734FB084908480EF098
:1055D0004FFB12B010BD119C002CECD02469EAE7FF
:1055E000B2CD0100080B002024CB0100C5CD010085
:1055F000C441002070B50F4C0F4E451E15F9011F18
:10560000B1B12288531C9BB2B3F5007F2380B15403
:10561000F4D34FF4007231460848FFF748FCB0F568
:10562000007F1EBF064B01221A7000232380E5E78E
:1056300070BD00BF3429002033270020040A002059
:10564000AC0F002010B5084C22885AB10749084811
:10565000FFF72DFC238898421EBF064B01221A70CB
:105660000023238010BD00BF3429002033270020F1
:10567000040A0020AC0F00201FB50A4B1B7804461B
:105680005BB9CDE90133009301231A464FF4FA6167
:1056900006F0D2FA204604B010BD034906F058FACD
:1056A000F8E700BF040B0020000B0020F0B5C5B0E8
:1056B000002305460C460B93CDE91A3340F209222C
:1056C000254B26490A930CA8FFF708FB002841D078
:1056D00008A8FFF7D1FF224A9DF825C09DF82200B7
:1056E0009DF820309DF823609DF824709DF82110CE
:1056F0000091002C18BF2246CDE9037C03F5FA6324
:10570000CDE90552CDE90106164AA0211CA813F0E7
:105710009BFE1CA90AA80EF09CFA0CA8FFF7B8FB88
:105720000CA805F030F9104910480EF092FA2946FD
:105730000E480EF08EFA54B194F900303BB120219E
:105740000A480EF08AFA214608480EF082FA074805
:105750000EF088FA45B0F0BD24CB0100B2CD0100B7
:10576000B9CC010083CD0100A8CD0100C4410020C7
:105770002DE9F04F9A4DADF50F7D4FF0000A994B92
:105780001B785FFA8AF6B34240F220810022964BE2
:105790009649259226A8CDE934222493FFF79EFA54
:1057A0008046002800F0178105274EAC00234FF4F7
:1057B0008072214626A8FFF76AFA002840F3088184
:1057C000013F17F0FF07F1D1BC27774307EB05092D
:1057D000484613F0CAFE864A7301D118D356029187
:1057E0008346019305E0029910A813F09AFE002861
:1057F00044D000234FF48072214626A8FFF747FAD1
:10580000002840F3E0805FFA8BF31A4649462046B1
:10581000039313F0C6FE0028EBD1039BE3562C2B19
:10582000E7D1302318AA01212046FEF79DFC0C2366
:1058300009AA02212046FEF797FC042306AA0321A9
:105840002046FEF791FC10230CAA04212046FEF707
:105850008BFC082307AA05212046FEF785FC602360
:1058600036AA06212046FEF77FFC202310AA072136
:105870002046FEF779FC019B002BB4D107F11800FC
:105880004FF0BC0B0BFB065B2F2218A9284413F02A
:105890009AFE00238BF847300DF117010CA88DF804
:1058A00017300193FFF704F99DF817208BF84D008E
:1058B0008BF84F204F4907A813F033FE07F150042F
:1058C000B0FA80F040092C448BF84E005F2220464D
:1058D00036A913F078FE019B8BF8AF30013C2C23E6
:1058E00014F901BFBBF1000F04D0BBF17C0FF7D15D
:1058F0002370F5E7404909A813F013FE00285AD099
:105900003E4909A813F00DFE002854D01022594634
:1059100009A814F01DFEBC2404FB0654A06406A8CC
:1059200012F069FF84F84C00BC2303FB0653FF22EE
:1059300083F8B0200022C3F8B420002283F8B820F6
:1059400083F8B92026A805F01EF8B8F1000F2FD172
:10595000BC235E4306F148035A1943F805802E44E0
:105960004FF410635360782386F85030FF2386F895
:10597000B0300023C6F8B43096F9183086F851805C
:1059800086F8B88086F8B98043B907F118002F224D
:105990001B49284413F017FE86F8478044214B46E4
:1059A000184A36A813F050FD36A91348FFF77EFEBB
:1059B0000AF1010AE3E6BC2303FB065300229A64C2
:1059C00083F84C20B0E74FF00008BBE7012003E06C
:1059D00026A804F0D8FF00200DF50F7DBDE8F08F5C
:1059E000B00F00206E0A002024CB01001BD901005B
:1059F0009402002014CF010026CF01001BCF01002C
:105A0000A7D9010037CE01002DE9F04FA14BADF52C
:105A10003B7D1B780793002303939DF80C30079A76
:105A20009A420BD89B4A04921078002332A9DAB22A
:105A3000904240F285815A540133F8E7039BBC251C
:105A40006B43954D5A1992F84D20082A02D0039BBA
:105A50000133E1E7503500241D44A0464FF01809FA
:105A600095F90070002F4BD0072C48D85B2F04BF4E
:105A7000013501202B78A3F1410318BF0020192B19
:105A800039D82A4600237AAE154612F901CB5FFABF
:105A90008CF121F0200EAEF1410EBEF1190FDFB2F4
:105AA00005D93039092902D9BCF15F0F06D106F8B2
:105AB00003C00133172B1546E6D11F4606F80780B1
:105AC00038B12B461D4613F9012B12B15D2A1D4634
:105AD000F8D14FF0000A5FFA8AF39C4240F28082CC
:105AE0004AAB09FB0A30314613F01BFD0AF1010AEB
:105AF0000028F0D1B4E70028B2D10135B0E7002783
:105B0000DFF894A1FBB29C42A1D94FF018084AAB30
:105B100008FB073800255F4B1B78EAB293420AD98D
:105B2000BC20414600FB02A013F0FBFC013500281D
:105B3000F1D10137E6E71F2B08D9584958480EF034
:105B400088F8414656480EF093F8F2E70022554B8C
:105B50005549219222A8CDE930222093FFF7BEF8C3
:105B600004900028E5D005257AAE00234FF480721A
:105B7000314622A8FFF78BF8002803DC22A804F0A6
:105B800002FFD6E7013D15F0FF05EED100234FF4EB
:105B90008072314622A8FFF77AF8002840F3CD80C2
:105BA000404613F0E2FCC5B22A464146304613F0A7
:105BB000F8FC83460028E9D1735706932C2BE5D1D6
:105BC000344B1D784FF0BC0915FB09F309FB05A9FF
:105BD000172241460AEB0300059313F0F4FC30232F
:105BE00014AA0121304689F817B0FEF7BDFA0C233C
:105BF0000DAA02213046FEF7B7FA04230AAA0321B0
:105C00003046FEF7B1FA102310AA04213046FEF701
:105C1000ABFA08230BAA05213046FEF7A5FA60234C
:105C200032AA06213046FEF79FFA059B03F11800C1
:105C30002F2214A9504413F0C6FC0DF1270189F856
:105C400047B010A88DF827B0FEF732FF9DF8273037
:105C500089F84D0089F84F3014490BA813F061FC06
:105C6000059BB0FA80F0400989F84E0003F150001E
:105C700000EB0A065F2232A9304613F0A4FC069B13
:105C800089F8AFB0701E10F9016F8EB17C2EFAD179
:105C90000370F8E76E0A0020B00F0020FBCC010073
:105CA000C441002024CB01001BD9010014CF010006
:105CB000B7490DA813F035FC002836D0B5490DA81A
:105CC00013F02FFC88B3314610220DA814F040FCCD
:105CD000BC2606FB05A6B0640AA812F08CFD86F867
:105CE0004C00BC2303FB05A5FF2385F8B03000233F
:105CF000A94AC5F8B430002385F8B830012385F8E7
:105D0000B9301378A549A648013313700DF0A1FFEF
:105D10004146A3480DF0ACFF22A804F034FE049BDA
:105D2000002B7FF406AF9F4908E7BC2303FB05A3C4
:105D300000229A6483F84C20D3E700230493EBE716
:105D4000DFF87092002432AE049A671C1278FBB21E
:105D50009A4225D916F803804FF0BC0A08FB0A9036
:105D6000FEF78CFC64B2651C834635445346002C18
:105D7000A5EB060210DB15F801AD05920AFB0390B6
:105D80000393FEF77BFC5845059A05D9013C85F83D
:105D900001A064B2039BEAE706F802803C46D3E721
:105DA000814B06931A78002A37D1804B93F80080F4
:105DB0007F4B05934AAE00241C7034702546039433
:105DC000049B1A78E3B29A4274D932AABC2112F821
:105DD0000390784B01FB093C9CF84D30083B012BAC
:105DE0001ED9059B74481B7807910022E3465FFA91
:105DF00082FA53451CD950F832100F46DBF8481090
:105E00008F424FEAC20E06D186449EF804109BF8DA
:105E10004CE0714509D00132E9E74FF03008C7E79F
:105E2000FF238CF8B0300134CAE78CF8B0A0FAE751
:105E30002F2B0AD8079A11465E4A01FB09220399C3
:105E400092F84CC06144414520DD5A4B4FF0BC0AEA
:105E50000AFB0933FF2283F8B02093F8B930002BF6
:105E6000E1D1304613F081FB524B544A09FB0A330F
:105E70000093534BC0F14001002808BF1346013581
:105E8000504A3044EDB213F0DFFACCE74A48976C41
:105E900040F8337082F8B03000EBC300059A80F808
:105EA00004C001334FF0000C13708BB280F805C0B2
:105EB0000393B8E75DB16021CDE900564346424AFD
:105EC0007AA813F0C1FA7AA94048FFF7EFFB069BC6
:105ED0001B78002B58D1364A3D4910781C460A469B
:105EE000E5B2A84202F1080207D912F8085C02F8EC
:105EF000073C2B44DBB20134F2E7364A1370364AD2
:105F000003EB4303802402331470D3701024A823BE
:105F100054701371F02401239470537100270625E7
:105F20001446FBB2834226D20B782A464FF0000C6F
:105F30005FFA8CF602F101089E425FFA88F813D2EC
:105F400051F8046C0CEB060E4FEA1E46A654961C44
:105F5000F6B24FEA1E29033204F80890D2B204F8D0
:105F600006E00CF1010CE3E703EB43032B44DDB245
:105F700001370831D5E76E1CF6B231461648FEF7F8
:105F8000C1F8164B60551E700DF53B7DBDE8F08FD6
:105F900026CF01001BCF01006E0A00201CCD01009E
:105FA000C441002030CD0100700A00200000002014
:105FB0006D0A0020B00F002074080020B9CC010049
:105FC000F9CC01005BCD010060CD010077CD01006F
:105FD000780800206C0A0020D5060020D807002091
:105FE000012F7FF63DAD04EB44074AAB03EBC70737
:105FF000172231463846013413F0E5FAE4B287F847
:1060000017802DE508B505460C46FFF74FFB1349F1
:1060100013480DF01EFE294611480DF01AFE94F9A2
:106020000030B3B120210E480DF017FE21460C4878
:106030000DF01EFE01210D200DF0D0FEFA200DF016
:106040004DFF00210D200DF0C9FEFA200DF046FF96
:10605000F0E703480DF006FEECE700BFECD90100C5
:10606000C441002008B5FFF7EDFA0B4B186C68B17E
:1060700003F0E0FD0948FEF70BFF084804F083FC3D
:1060800007490848BDE80840FFF710BB586C0028D6
:10609000F0D002F0ADFDEDE7FC090020040A00207D
:1060A000440A0020BCCE010037B5054668460C46C0
:1060B000FFF7E2FA9DF800009DF801309DF80220FC
:1060C00014307F281ED80C2B1CD81F2A1AD842EA5D
:1060D000431343EA40239BB29DF803002B8017280B
:1060E0009DF804209DF805100ED83B2A0CD83B29BA
:1060F0000AD8530143EAC02343EA51039BB22380E9
:1061000003B030BD0023E7E70023F8E770B5B2B075
:10611000002332AC0993CDE918330E463A4B44F8CC
:10612000A83D014640F201620AA8FEF7D7FD0546E8
:10613000002866D006A8FFF79FFA344920460DF0E4
:1061400088FD334920460DF084FD324920460DF08C
:1061500080FD314B31492046002E08BF19460DF015
:1061600078FD2F4920460DF074FD2E4B2E49204618
:10617000002E08BF19460DF06CFD9DF81D300593EB
:106180009DF81C3004939DF81B3003939DF81A3042
:1061900002939DF8193001939DF81830234A03F5B6
:1061A000FA6300936021224B1AA813F04DF91AA943
:1061B00020460DF04EFD1F4920460DF04AFD692195
:1061C0002046FEF79DFD1C4920460DF042FD1B496F
:1061D00020460DF03EFD70212046FEF791FD184946
:1061E00020460DF036FD73212046FEF789FD154946
:1061F00020460DF02EFD0AA8FEF74AFE0AA804F07C
:10620000C2FB284632B070BD24CB0100D6D30100BA
:1062100003D401002CD401007AD2010049D201003C
:1062200075D4010056D30100A3D20100BAD40100F5
:10623000F40A0020FBD4010040D8010088D80100F6
:10624000B3D80100D5D801007047FFFF38B5084624
:106250001546084908221C4612F071FB1022064917
:10626000284612F06CFB204604220449BDE8384061
:1062700012F065BBE1DF0100EADF0100FBDF010096
:10628000054B187838B1054B186820B1044B1868D5
:10629000003018BF01207047640A0020600A002007
:1062A000680A0020034B1B680B604FF400731380D7
:1062B000704700BF680A0020012070471A460B4B48
:1062C0001B7810B5029C13B94FF0FF3010BD084B7E
:1062D00018680028F8D0630AF6D004F0CEFE002833
:1062E000F2D024F4FF7020F00100EFE7640A0020F0
:1062F000600A00201A460B4B1B7810B5029C13B99C
:106300004FF0FF3010BD084B18680028F8D0630A22
:10631000F6D004F0F5FE0028F2D024F4FF7020F04F
:106320000100EFE7640A0020600A00204FF0FF3010
:10633000704770B58CB000248DF80C1004928DF865
:106340000D40059403AB054693E8070009AB83E8CD
:10635000070006AE86E8070005F28C460ECB3046F5
:1063600004F050FD95F89F34C5F888648BB900930C
:1063700001231A463146284604F082FB38B90090C2
:1063800003460122D5F88814284604F079FB0CB0A6
:1063900070BD2046FBE7FFFF0B4810B50024C0F896
:1063A0008044C0F88444C0F8884400F28C40FEF772
:1063B00009FC064B064A5C60C3E9104405481A60B4
:1063C000FEF700FC10BD00BF080B0020FC090020F8
:1063D00024CB01009C06002038B504460DF0C2FD18
:1063E000054608480CF033FE38B90DF0BBFD401BE4
:1063F000A042F6D34FF0FF3038BD0248BDE8384028
:106400000CF086BE2434002038B505460024AC428A
:1064100004D03220FFF7E0FF0134F8E738BDFFFF7A
:106420002DE9F04F9A499B48ADF5517DFEF7E0FB11
:1064300018B197499748FEF7FCFB0023964F944903
:10644000559340F2016256A8649365935497FEF702
:1064500045FC0A9040B991499148FFF727F90A98FD
:106460000DF5517DBDE8F08F8E4B1E78002E40F06B
:10647000A080DFF86CA2B046B1468B4B18F8030041
:1064800090AD4FF4845300EB400B2B805FFA8BFBF5
:10649000F023AB700BF10203EB70A823AB80002458
:1064A0000622511CA042C9B20BD0931CDBB205F8E6
:1064B000029005F801900332EC540134D2B2E4B2F8
:1064C000EFE70BF1070B5FFA8BFB59462846099261
:1064D000FDF718FE099A2946A8545A4650460CF072
:1064E0008BFE50460CF077FD5846FFF78DFF4FF4BA
:1064F0009670FFF771FF0028C0F24A8304F1060B83
:106500005FFA8BFB8DF8E00100235A1CD1B259458C
:106510000B93099280F03783C820FFF75DFF0028B6
:10652000C0F236830B9B78AA1344099A587013461D
:10653000EBE79DF8E131F02B40F02A839DF8E23142
:10654000102B40F02583631C9DF8E321DBB29A42B7
:1065500040F01E839DF8E431E82B40F01983594642
:1065600078A8FDF7CFFD78AB9B441BF8013C834234
:1065700040F00E831E2008F101080DF0AFFCB8F1C9
:10658000080F26467FF479AF002C7CD0022C84BF04
:10659000023CE4B2302C28BF3024E3B2434A282125
:1065A00013702846424A12F04FFF29464148FFF730
:1065B0007DF8414954A80DF04CFB404B404A402126
:1065C00044A812F041FF44A954A80DF042FB3D4BF2
:1065D0003D4A402144A812F037FF44A954A80DF0C9
:1065E00038FB324B394A1B78402144A812F02CFF6B
:1065F00044A954A80DF02DFB354954A80DF029FBF2
:106600000025304B334A382136A812F01DFF2A46A8
:1066100036A968A86795769577956697FEF75EFB2D
:106620000990002800F0A8821822294612A812F02A
:10663000AAF9302229461EA812F0A5F9602229469F
:1066400078A812F0A0F9AB462E46A9460127AA4623
:106650002C4600234FF4807290A968A8FEF717FB20
:10666000002840F38682002C3CD11B4990A812F0F0
:10667000BFFF0028EDD0194990A812F0B9FF041C03
:1066800018BF0124E5E7202388E70924E1E700BFDC
:106690001BD90100080B002024CB01003ACB0100DC
:1066A00057CB0100700A0020F9D90100000000203A
:1066B00068CB010079CB010085CB0100F40A0020F2
:1066C00092CB0100D90700209ACB0100A3CB010097
:1066D000B0CB0100E7CB0100F2CB0100FCCB010005
:1066E00024340020A34990A812F082FF804600289D
:1066F00040F03F82012C40F0F0809F4990A812F0BA
:1067000077FF002831D19D4990A812F071FF002831
:1067100040F098809A4990A812F06AFF002898D01B
:10672000984990A812F064FF002892D018232AAA52
:10673000944990A8FDF77CFF00288AD017222AA947
:1067400012A812F040FF002530231EAA8E498DF8B2
:106750005F5090A88DF878500127FDF769FFAB4690
:106760002E46A946AA46072473E7864990A812F048
:106770003FFF0028C7D0182318AA824990A8FDF728
:1067800057FF00283FF465AF302241462AA812F097
:10679000FAF830232AAA7C49CDF8448090A8CDE9A4
:1067A0000F88CDE90C88CDF83880FDF741FF0C2328
:1067B0000FAA764990A8FDF73BFF04230CAA744961
:1067C00090A8FDF735FF734B1B7823B310220021EF
:1067D0000FA813F0BDFE9DF9A8106F4A0B900DF1A4
:1067E000A8080CA8002908BF904612F004F86B4ACC
:1067F0000B9BCDE905226A4A049200210722CDE9CC
:106800000121C0B201220390009218A9424654A867
:10681000FDF744FF1DE708230DAA624990A8FDF784
:1068200007FF0028D2D00DA811F0E5FF80460CA884
:1068300011F0E1FFC1B25FFA88F0FEF753FB0028C8
:10684000C4D106E74F4990A812F0D2FE00283FF4C9
:1068500061AF18232AAA4B4990A8FDF7E9FE00284A
:106860003FF4F7AE4B4B1B78C3B117222AA912A8ED
:1068700012F0A9FE002530231EAA43498DF85F506F
:1068800090A88DF878500127FDF7D2FEAB468DF821
:10689000E0512E46A946AA460424DAE608230FAAA8
:1068A000404990A8FDF7C4FE0028DED0082318AAAE
:1068B0003D4990A8FDF7BCFE0028D6D00FA811F0E6
:1068C0009AFF044618A811F096FFC1B2E0B2FEF795
:1068D00009FB0028C9D10224BBE6022C07D13349A9
:1068E00090A812F085FE002818BF0124B1E6032C01
:1068F00001D12F49F4E7042C62D12E4990A812F05F
:1069000077FE28B18DF8E081DDF824B00624A0E6FA
:10691000294990A812F06CFE0028E0D0082318AA9C
:10692000264990A8FDF784FE0546F8B118A811F095
:1069300062FFC7B2082318AA154990A8FDF778FE90
:106940000646A8B118A811F056FF5FFA80F92AA9E7
:1069500090A8FEF71FF9102200212AA813F0F8FDD5
:10696000002E824618BF0127052472E60127E1E7C1
:106970008146ECE705CC010011CC01001ACC0100E6
:1069800026CC0100F5CC010031CC010037CC010050
:106990004ECC0100700A0020A7D90100B9CC01003B
:1069A0000ECF01003DCC01004BCC010053CC0100C7
:1069B00060CC01006CCC010075CC01007ECC0100E4
:1069C000062C2BD1744990A812F012FEF0B11823B6
:1069D0002AAA724990A8FDF72BFE00283FF439AE91
:1069E0009DF9E03143B178A812F0BFFD6C49C0F1C8
:1069F0005F0278A812F0C1FD78A812F0B6FD2AA9AE
:106A0000C0F15F0278A812F0B8FD22E6654990A8AF
:106A100012F0EEFD002818BF05241AE6052C16D149
:106A2000614990A812F0E4FD00283FF458AF78AB1C
:106A3000CDE905B3CDE90365CDE90179CDF800A035
:106A40001EAB12AA90A954A8FDF716FF01E6072C69
:106A500045D1564990A812F0CBFD30B9544990A8C1
:106A600012F0C6FD00283FF444AF524990A812F03E
:106A7000BFFD00283FF409AE90F90320222A02D07E
:106A8000272A7FF402AE043040F2214E90F9003004
:106A9000002B3FF4FAAD9A423FF4F7AD0023C45601
:106AA00024B1454913F901C0A4450AD0034618464C
:106AB00013F9014B002CE9D02C2C6BD0A242F6D15B
:106AC000E4E701330A2BEAD1837A223BDBB20A2BBB
:106AD000ECD82EFA03F3DB07E8D50824B9E5082C37
:106AE0002ED1364990A812F083FD58B3234618AA38
:106AF000334990A8FDF79CFD0546E8B118A811F0B0
:106B00007AFEC7B2082318AA2E4990A8FDF790FD77
:106B1000064698B118A811F06EFE01275FFA80F9B9
:106B20002AA990A8FEF736F8102200212AA813F00F
:106B30000FFD0A2482468CE50127E3E78146EFE753
:106B4000092C07D1204990A812F052FD002818BF47
:106B500007247EE50A2C7FF47CAD134990A812F03F
:106B600047FD00283FF4C5AE184B0693002305935C
:106B700060E768A803F007FF56A8FEF789F956A852
:106B800003F001FF6BE49DF8E031802B3FF4D1ACC2
:106B90003446F9E4184679E786CC01008CCC010034
:106BA00073DD010097CC0100A2CC0100AECC010046
:106BB000B4CC0100F5CC0100F40A002075CC010032
:106BC0007ECC01004ECC0100BACC0100B9CC010052
:106BD0002DE9F04FFFB0834B834A302110A812F00B
:106BE00033FC10A98148FEF761FD814981480DF011
:106BF00030F87C497F480DF03BF87A497E48FEF733
:106C00008DFCFEF72DFB032819D0A0B1012814D16B
:106C10004021744B794A3EA812F016FC3EA97848F0
:106C2000FEF744FD774B00221A70FFF7F9FB50B9CD
:106C300075497648D3E07649F1E77649EFE776493A
:106C40007648FEF733FD0022754D76492D922EA829
:106C5000CDE93C222C95FEF741F8044668B10526A3
:106C600000234FF480723EA92EA8FEF710F80028EA
:106C700059DC2EA803F087FE0024624A84F0010349
:106C80001370002C40F09380564B674A40211CA89B
:106C900012F0DAFB1CA96548FEF708FD6449554867
:106CA0000CF0E6FF63496448FDF7A2FF002873D0AB
:106CB000224660492D942EA8CDE93C442C95FEF740
:106CC0000DF8002868D05D4F2926013E16F0FF061A
:106CD00049D000234FF480723EA92EA8FDF7D7FFBC
:106CE000002840DD39463EA812F082FC0028ECD096
:106CF0003A2112F009FCB0B301300146013091F99C
:106D00000030202BF9D000230AA8CA5632F0200602
:106D1000DCB220D00D2A1ED00A2A1CD00F2B19D08D
:106D2000C2540133F1E7013E16F0FF0698D100236B
:106D30004FF480723EA92EA8FDF7A9FF002807DDB9
:106D40009DF9F830452BF2D12EA803F01CFE94E7F4
:106D50000024F9E71C4600232249035512F0E1FB09
:106D6000B0FA80F464092EA803F00DFEA4B13449F2
:106D70003448FEF79BFC2F48FEF770F9FEF7F8FC4D
:106D800000287BD130491E48FEF790FCFFF748FBF6
:106D9000002871D12D494CE701212648FFF7B6F9AB
:106DA0002B492C4B002818BF19462B48E1E72B4CE8
:106DB000217871B92A48FFF7A9F92A4B2A490028F6
:106DC00018BF19462448FEF771FC0123237024489C
:106DD000D2E7264B1B78002BD0D125492548FFF759
:106DE00011F900BFF40A0020EACF0100F4CF01003E
:106DF000FECF0100C441002005D0010018D00100E1
:106E000034D00100940600203ACB010057CB01009A
:106E100069CF01007DCF010040D0010056D00100B4
:106E200024CB01001BD9010060D001008FD00100EC
:106E3000A0D00100D9D00100080B0020F0D0010043
:106E4000F7D001001BD1010077D10100B9CC0100BE
:106E5000A7CF010090CF010028D10100F509002043
:106E600034D10100BDCF0100D8CF01006E0A00204F
:106E700047D101006DD10100FEF77AFC00242246C3
:106E800091492D942EA8CDE93C442C95FDF726FF81
:106E9000002800F0BD80214618221CA811F073FDC7
:106EA000052400234FF480723EA92EA8013CFDF773
:106EB000EEFE14F0FF04F4D1844F264600234FF475
:106EC00080723EA92EA8FDF7E2FE002827DD1823D8
:106ED0000AAA00213EA8FDF747F90028EED09DF947
:106EE0002830502BEAD11CA90AA812F01AFB00285E
:106EF000E4D017220AA91CA812F065FB0421102374
:106F000006AA3EA88DF88760FDF72EF9394606A837
:106F100012F007FB0028D1D00134A4B2CEE72EA88E
:106F200003F031FD23466A4A6A4C6B4E18213EA895
:106F300012F08AFA3EA96948FEF7B8FB3EA8FEF7B0
:106F40009BFB9DF8FD20238805929DF8FC20049270
:106F50009DF8FB2003929DF8FA2002929DF8F920FB
:106F600001929DF8F8205E4802F5FA6200921C2119
:106F70005C4A12F069FA5C4A594B28213EA812F08B
:106F800063FA40F201623EA906F10800FDF7A6FE91
:106F9000002800F08F80306C00283BD04FF0487103
:106FA00002F027FE18B951495148FEF77FFB514BBB
:106FB000DFF888A1DFF88881DFF888B100261E801D
:106FC0004D4B1E700CF0CEFF4C4B18604C48FEF73A
:106FD00011FB9AF80030F0B2834224D9BC27474312
:106FE00008EB070999F8B93083B95846FEF702FB58
:106FF00007F118004044FEF7FDFA4248FEF7FAFA9E
:107000004846FEF7F7FA4048FEF7F4FA0136E0E7A3
:10701000044687E7706C0028C5D04FF04872002303
:1070200001F0A2FDBEE73948FEF7E4FA23880133F8
:107030009BB242F20F72934243D8238040F2016226
:10704000002333493F9340A84E934F933E95FDF75D
:1070500045FE78B123882F4A08212CA812F0F4F9B4
:107060002CA93EA80CF0F5FD40A8FDF711FF40A8A3
:1070700003F089FC284929480CF0EBFD1849274802
:107080000CF0F6FDFEF7C0FC254B1B785BB9254CD8
:107090002549227825480CF0AFF824480BF09BFFD7
:1070A0002078FFF7B1F9224B01221A70214B0222FE
:1070B0001A7003E00A492048FEF7F8FA7FB0BDE8ED
:1070C000F08F0123B9E700BF1BD90100F8CE010002
:1070D0008FD1010030270020FC0900209BD1010046
:1070E000440A0020A9D10100E7CB0100CCD1010066
:1070F00001D2010034290020AC0F0020F809002043
:107100000FD2010016D2010019D10100D4D3010021
:1071100028D201003CD2010042D20100C44100202B
:10712000700A0020D8070020D50600202434002053
:10713000F40900206F0A002019D201006E0A002015
:10714000B00F0020F9CC0100F0B5384B1B78012BB3
:10715000A1B017D0364B04AE186804909B88354810
:10716000B380062231460CF04FFD32480BF033FF5E
:107170000620FFF749F900244FF49670FFF72CF929
:10718000002801DA00204FE030550134042CF3D1FF
:107190009DF81030802BF5D19DF81130F02BF1D1F6
:1071A0009DF81230102BEDD19DF81340082CE9D931
:1071B000671C6C2FE6D800256420FFF70DF9002826
:1071C000E0DB731901351871ABB29F42F4D8651D2D
:1071D000EDB229463046FCF795FF20AB1D4415F86B
:1071E000713C8342CED19DF81C2003929DF81B2058
:1071F00002929DF81A200192013C9DF819209DF8F9
:1072000018300092E4B20C4A0C480B2112F01CF921
:10721000702C28BF702422460DF11501084811F08A
:107220008EFB084B01201C7021B0F0BD700A0020BD
:1072300034CB010024340020C7CE0100F40A002022
:10724000020800200108002010B5054C04480BF08E
:10725000FEFE18B120460BF05BFFF7E710BD00BF44
:10726000243400202DE9F04FB74B2DED028B1C7814
:10727000ADF50B7D44B132200CF030FE0DF50B7DE9
:10728000BDEC028BBDE8F08FB04D2B782F46EBB9EB
:10729000AF4C236813B90CF065FE2060FFF754FF74
:1072A000054620B100232360FFF792FCE6E70CF0CF
:1072B00059FE2368C01AA74B9842DFD90123A6497B
:1072C000A64825603B700CF0D3FCD7E7012B42D1D8
:1072D000A349A44E0A68A44822F004020A6001F5FA
:1072E000CC21EC31A14A0C704FF4F04704701470BB
:1072F00034707470B470B47126F8097C402606703E
:10730000072010709A4A0B70D2F8A031994843F0C8
:107310008073C2F8A031984B4AF20352A3F8FE23BF
:107320009A8942F400429A81027B64F3000202735C
:1073300093F8402064F3C71283F8402030BF4FF425
:107340002542A3F8FE2310230B70FFF7FDFE002853
:1073500094D02C70A8E7022B90D18022214608A857
:1073600011F011FB854B04931A78012A00F040813B
:10737000834D41F288302C78FFF72EF80028A8467C
:10738000C0F236818AAE063406F8C80DE4B2012593
:10739000EBB29C4208D9C820FFF71EF80028C0F2C3
:1073A0002781A8550135F3E79DF86031802B40F027
:1073B0001F819DF86131F02B40F01A819DF86231F8
:1073C000102B40F0158198F800509DF863216B1C3C
:1073D000DBB29A4240F00C819DF86431E82B40F01A
:1073E0000781214658A8FCF78DFE8AAB1C4414F88F
:1073F000C93C834240F0FC802A460DF2651128A862
:1074000011F09DFADFF87C81DFF8809100265D4B5A
:107410001B78F5B2AB4240F2BD80BC246C4309EB53
:10742000040292F84D30092B08D108AB03EB850517
:1074300000232B60C2F8B4300136E8E7082B03D0F4
:1074400092F8B010FF2905D108AB03EB85050023A6
:107450002B60F1E7DFF838A192F84EC0CDF814A008
:107460004FEAC10B0AEB0B01503491F805E092F89A
:107470004C10029192F84F200392029A06A9002024
:10748000042A4C44086028BF0422BCF1000F0FD12D
:107490000DF1A00A6046D6448C465FFA80FA924508
:1074A00080F0E8811EF800A000F80CA00130F4E79D
:1074B0000DF1A00CE6445FFA80FC944580F0288230
:1074C000A2EB000C0DF1180AD4441EF800A00CF831
:1074D00001AC0130EFE7029810B99FED2B0ADFE114
:1074E0000968C2F1040209BAD200072B21FA02F29C
:1074F0000AD1039B1F2BF0D8DA4002F0010207EEFD
:10750000902AB8EEE70ACBE1042B09D0052BF6D080
:10751000032B07D153B200EE103AB8EEC00ABFE118
:1075200013B2F8E707EE902AB8EE670AB8E10A4608
:1075300028A91C440844815C04F8011D0132D1B221
:107540008B42F8D8D9E100BF640A00206F0A0020FE
:1075500098060020BFD4010001DA0100C4410020D8
:107560001CE0014009410840184108401941084009
:10757000006000400054004000E00140700A00201C
:107580006C0A00206E0A002000000000B00F0020EE
:10759000740800209B4B1A78002A69D000240DF152
:1075A000A0091822214648461C7011F0ECF9DFF8BA
:1075B00070A2254626464FF0BC0B98F80000E1B2B9
:1075C00088422BD90BFB01A191F8B93073B991F81E
:1075D0004D300135092BEDB208D199F90030013653
:1075E000F6B21BB91722484611F0EDFF0134E4E76B
:1075F00085498648FEF75AF8854986480CF038FBDD
:10760000FEF720F8FEF72EFD049B1B780BB9FFF761
:107610001BFE814A00233B7013602FE67F4B1B78D3
:10762000002B64D000237E4D1C461946BC26DAB2DE
:10763000824211D206FB03F202EB050C9CF8B9C0A2
:10764000BCF1000F06D15257502A0BBF0131621C0A
:10765000C9B2D4B20133EAE7CDE90014714B724AE2
:10766000482158A811F0F0FE704858A9FEF71EF8FE
:107670006B4EDFF8F891002598F80030ECB2A34289
:107680004BD9BC20604306EB000A9AF84D30082B1A
:107690002BD15030002328A930448DF8A030FDF7BD
:1076A00053FC8AAB03EB8403A3F5027383ED000A5A
:1076B0009DF8A030B0EE408A93B19AF8B8307BB90B
:1076C00001238AF8B8300CF04DFC5021009053464D
:1076D0004A4658A811F0B8FE58A95548FDF7E6FFEC
:1076E000BC2303FB046484ED2D8A0135C4E756B145
:1076F0004821CDF800904B4B4E4A58A811F0A4FEFB
:1077000058A94D48B2E748210095464B4B4A58A826
:1077100011F09AFE58A94A48A8E70CF023FC494A00
:107720003F4D494EDFF848910346142158A811F007
:107730008BFE58A8FDF75EFF002498F800305FFA32
:1077400084FB5B452ED94FF0BC0A0AFB0B5A9AF812
:10775000B930ABB93046FDF74DFF9AF84D300A2BE2
:1077600010D13A4A9AF84C3052F82B2000925B0024
:10777000374A142158A811F067FE58A8FDF73AFFC0
:107780000134DAE78AAB03EB8B03A3F502731868C5
:1077900010F082F94A46CDE90001142158A811F0F1
:1077A00053FEEAE72B482C4CFDF724FF0CF0DAFBE4
:1077B0002368C01AB0F57A7F07D3FDF743FF274847
:1077C000FDF766FB0CF0CEFB2060254B1A78002AF3
:1077D0003FF454AD1349234800241C70FDF766FFA5
:1077E00021490C480CF044FAFDF72CFFFEF73AFC57
:1077F000049B1B780BB9FFF727FD074B3C701C60FF
:107800003CE500BFF40900202FDA01004FDA010047
:107810005FDA0100C4410020980600209406002091
:10782000B00F0020440A002086DA0100AEDA010021
:1078300044DB0100C5DA0100DADA0100F9DA0100FF
:107840000BDB01004DDB0100F9CC0100740A0020C4
:1078500051DB0100D4D30100F8090020040A002004
:10786000AC0F00205EDB01006CDB01001BDB0100C4
:1078700059DB0100062B7FF42EAECB788DF86031FA
:107880008B788DF861314B788DF862310B788DF8FB
:107890006331042258A907A811F051F89DED070A99
:1078A0002046FDF72FFBBC2202FB059208AB03EB41
:1078B000850383ED000A92F84D3082ED2D0A0A2BE4
:1078C0007FF4BAAD92F84C30F3B1059992F84E209E
:1078D00059448AAC4879042B4FF0000128BF042397
:1078E00044F8C81D002A7FF422AE28A90844815C10
:1078F000A1540132D1B29942F9D3589AC3F1040389
:1079000012BADB0022FA03F3044A42F8253093E569
:10791000062B7FF4E0AD042206A9BCE7740A002020
:107920002DE9F0410121C8B00D200CF03FFA0021F3
:107930000D200CF053FA4FF4E131B2480FF037FB51
:1079400040F213424FF49651AF480BF0E1FC012195
:1079500002200CF02BFA012102200CF03FFA0CF06F
:1079600001FB40F2DB5504460DF0DAFE40B90CF0A5
:10797000F9FA001BA84203D80A200CF0AFFAF3E78B
:107980000DF0CEFE054628B34FF485739F4AADF83F
:10799000D8300023CDE937239D4C36AB0ECB2046A3
:1079A00003F030FA9B4B20461C6003F000FB9A4B1F
:1079B000186050B9994993480CF05AF901210D20EB
:1079C0000CF00CFA48B0BDE8F081954B95490122C6
:1079D0001A70F0E7944C8D4A0A212046FEF7A9FC64
:1079E00090B9924987480CF043F901210D200CF021
:1079F000F5F9C8200CF072FA00210D200CF0EEF918
:107A0000C8200CF06BFAF0E7D4F88014002900F0DD
:107A1000E6800123864AADF8D85001F2444136A8E9
:107A20008DF8DA5002F093F882497648824E0CF0D5
:107A30001FF9FDF7FBFC8148FDF73EFDFDF7A6FDB4
:107A4000002340F209227E49379338A84693479392
:107A50003696FDF743F948B17A4936A80CF0F9F8A3
:107A600038A8FDF715FA38A802F08DFF00273A462E
:107A70007549139714A8CDE922771296FDF72EF9D0
:107A80000446002800F002813B46082236A914A8CB
:107A9000CDE93677FDF7FBF814A802F074FF36A89D
:107AA00010F0A9FE42F20E72431E934288BF0120DD
:107AB000664B188066496748674C03F0E1FF674BE7
:107AC000674A2070002814BF10461846FDF7F4FCE2
:107AD0002378002B50D000273A466249379738A8C0
:107AE000469747973696FDF7F9F88046002800F04C
:107AF00010811822394624A810F045FF4698002826
:107B000000F0FD80172224A901F00EFD064638A8DA
:107B100002F039FF002E24DD0AAB039308AE09AB57
:107B200007AF02930196009706AB05AA4E4924A819
:107B300011F0BEFC062814D19DF828003B78029075
:107B40009DF82400019030789DF81820BDF814109D
:107B5000009012A804F070F812A93E4803F0B0FF9C
:107B6000454640493048FDF764F8002D00F0D180CB
:107B70003E493F48FDF79AFD24A8FDF77DFD267894
:107B80002EB1344803F093FF061C18BF01269DF860
:107B90009030A3F1140085B2142D8CBF0022012275
:107BA00003F5FA6301920093324A3346302136A836
:107BB00011F04AFC30481EB1304B142D98BF1846C6
:107BC00036A9FDF773FD2E4803F05AFBFDF7E2F9E5
:107BD000002840F0AF802B492B48FEF713FAD4F869
:107BE000841400293FF420AF0123114A8DF8095174
:107BF00001F5896136A88DF80A518DF80B5100F016
:107C000052FF11E7C44100202434002040787D0158
:107C10009C060020600A0020680A0020E7DB0100C3
:107C2000640A002019DC0100080B002059DC010067
:107C3000C1CC01006EDC010024CB01007BDC010023
:107C4000B2CD0100D4D3010028D20100302700209A
:107C5000182A0020000B0020040B0020A7DB0100E5
:107C600099DB0100A4DC0100B8DC0100CADC0100E2
:107C7000DBDC010015DD0100C8DB0100C1DB010018
:107C8000A960000035DD010056DD01002590CDE939
:107C9000340037904690479002466849249626A8BB
:107CA0003696FDF71BF830B3002226A938A802F05B
:107CB000B6FEA0B120220AA938A8FCF7FBFF38A81D
:107CC00002F061FE9DF82830303B092BECD80AA861
:107CD00010F091FD80B2844238BF0446E4E726A844
:107CE00002F051FE42F20E739C4206D80134A4B257
:107CF000534B1C80DEE60446F8E70124F8E747987A
:107D000020B1172224A900F067F9FFE64FF0FF36F3
:107D1000FDE64C4803F0CBFE00287FF42DAF4A4A25
:107D20004A4924A803F09CFF24A9464803F0C8FE52
:107D300047491EE747494848484E494DFDF7EEFB85
:107D400048494948FCF754FF484B187090B14548E2
:107D5000FDF784F918B946494648FDF7A7FC337882
:107D6000012B65D14449454805F026F838B9444906
:107D7000444832E73070287043494448EDE74449AD
:107D80004448FDF793FC444944480BF071FF2B78BD
:107D9000434A302124A811F057FB24A94148FDF79C
:107DA00085FC2C494048FDF781FC23781BB93F49ED
:107DB0003F48FDF77BFC3F4938480BF04AFF0A2259
:107DC000297836480BF089FF3B4934480BF050FFC7
:107DD0003A4932480BF03DFF1E4930480BF048FF4E
:107DE0003078374B374A2178002818BF1A462B784D
:107DF000CDE90023344A354B36A8002908BF134685
:107E0000334A402111F020FB36A93248FDF74EFCE1
:107E1000314922480BF01DFF36A920480BF028FFFE
:107E200001210D200BF0DAFF2C4B00221A70C9E55E
:107E3000002BACD02A492B48CFE600BFC1CC0100B3
:107E400030270020000B0020E3DC0100ECDC010007
:107E5000F8DC0100D907002063DD0100700A002072
:107E60006E0A002034D10100080B0020F509002023
:107E700075DD01009BDD010020A10700942E00208C
:107E8000EFDD010029DE0100A9DD0100DFDD0100D9
:107E900037DE010073DE01007CDE0100C4410020FA
:107EA000F0DE010003DF01000EDF010016DF01003C
:107EB00047DF010050DF010064DF01006CDF0100DB
:107EC000DEDB0100D4DB01004BDF0100A4DB01009D
:107ED0007ADF010097DF0100A5DF01006F0A0020B3
:107EE000BBDE0100DCDE0100F0B500F12403054635
:107EF0000F46164693E8070085B001AC84E80700FA
:107F00007A012146286A01F076F9012806D1324625
:107F10002146286A01F020F905B0F0BD0020FBE7FA
:107F200010B5044600F022FD002384F8313084F8B7
:107F3000333010BD38B50D4690F83110044651B9B4
:107F4000382210F020FD4023012084F831302562D2
:107F500084F8330038BD0020FCE7FFFFF0B491F94E
:107F60000040202C01F1010522D01A4F11609160D0
:107F70000D460E4615F9014B1CB32F2C1AD01F2CA1
:107F800024DDE6B2A6F12201C9B21D2903D827FAE1
:107F900001F1C9071AD424F040013C2916D05C2C09
:107FA00014D02E2E02D0202E00D095602946DFE777
:107FB0002946D4E70E4611F9014B202CFAD02F2C7C
:107FC000F8D01E601146F0BC00F0F8BF0020F0BCF5
:107FD000704700BF010100312DE9F74F90F83330B1
:107FE000DF0704460E46154664D5580603D494F8B8
:107FF000313019070CD5D4E90023D4E9040112EB80
:10800000050843F10009494508BF404538BF851AB6
:1080100004F11803A8460093B8F1000F00F0958012
:10802000206AD4E90023D0F838741740C7F3080B4E
:108030004FB913432BD194F831305A064CBFD0F8C6
:108040003434E369A361D4F820A0780AA7699AF8C8
:1080500045C4DAF82C14023F07FA0CF707440F4422
:10806000BBF1000F2FD1B8F5007F2CD3DAF818122E
:108070008F4228D0B8F5806F45D232463946DAF8BB
:10808000140203F024F8A8B14FF400792FE094F81B
:108090003330A1695B0602D50131A161D3E7009AB3
:1080A00001F074F8002805DBCDD194F8313013F0DD
:1080B000500F4AD194F8323043F0020384F8323042
:1080C0004FF0FF3043E0CBF50079C1454FF000029F
:1080D00039460AF5047028BFC14603F0A4F8002809
:1080E000E8D000EB0B014A46304610F028FCD4E9FA
:1080F000002312EB090043F100014E44C4E90001E2
:10810000A8EB090888E7012202FA0CF2131A4FEAD9
:10811000582E734528BF73468F424FEA432908D92A
:1081200032463946DAF8140202F0A7FF0028DED101
:10813000C0E7FA189142F3D20AF50470019303F0F4
:108140004DF8019B0028EBD1B4E7A5EB080003B084
:10815000BDE8F08F2DE9F04F1F4685B081460E46F1
:10816000924601F1FF3801244FF0FF3304F1FF3B49
:108170002546544520DA01220DF10F014846FFF74C
:108180002BFF0128034617D19DF90F100D29F0D0C0
:1081900008F8011F3FB90A290CD10023735528465E
:1081A00005B0BDE8F08F0190384611F0ADF9019BA4
:1081B0000028F2D10134D9E7002B01DB5D46ECE762
:1081C0004FF0FF35EBE72DE9F74F90F831C08569A7
:1081D000044616461F46BCF1000F69D0D0E90001E5
:1081E000994208BF904206D056EA070305D1002302
:1081F000A361C4E9006701205CE01CF0080F05D012
:10820000D4E90423BB4208BFB24251D3D4F8209032
:1082100016F1FF3247F1FF3399F845E4CDE9002329
:10822000009B0EF1090E5FFA8EFE23FA0EF2019BFF
:10823000CEF1200AAEF1200803FA0AFA23FA08F870
:1082400094F8333042EA0A0213F0400F42EA080879
:10825000CEF1200BAEF1200A02D0E3694344C7E718
:1082600010F1FF3241F1FF3322FA0EFE03FA0BFB4D
:108270004EEA0B0E23FA0AFA4EEA0A0EF04502D332
:1082800050EA010319D11CF0400F14BFD9F834345F
:10829000E369A36104F11809B8F1000FA9D04A46B7
:1082A000A169206A00F072FF002808F1FF38F3DCB2
:1082B000A561002003B0BDE8F08FA8EB0E08E9E748
:1082C0002DE9F04F994690F831308DB004460E46B6
:1082D0001546002B45D191F8313013F0500F40D0A6
:1082E00009F00303012B05D0022B41D0002B38D11C
:1082F000012300E0022309F0080A4AEA030A002DDC
:1083000038D0EF680F230E370022B7FBF3F7304663
:1083100002370023FFB2FFF756FF4FF00008C346B5
:10832000202204A93046FFF757FE002800F0C58040
:10833000202816D19DF81020100620D4BBF1000F84
:1083400005D13168A1F120030193B3690093BB45C6
:108350003CBF0BF101035FFA83FB6AB9002D40F0CB
:10836000AC804FF0000884F8318084F833806EE0F0
:108370000323C0E70327D0E700208046D0E7B8F109
:10838000000F27D1BB4538BF4FF0000B852AF3D132
:1083900038224146204610F0F6FA9DF814109DF858
:1083A000112084F8302001F03702C90658BF42F08E
:1083B000080284F83120326A2262B269626232684D
:1083C000203AA26296F83320C2F3801284F82C205F
:1083D0000120D2E7C02A4FD1DDE906019DF8112026
:1083E00084F833A09307C4E90401DDE90A0144BF1E
:1083F0004AF0400284F83320099AE261C4E902019C
:108400004DBB19F4006FACD119F4884F03D194F827
:108410003330990704D594F8313013F0110FA0D1FF
:1084200019F4806F39D094F833309A0799D5002227
:1084300000232046FFF7C7FE002892D0204600F018
:10844000D7FB00288DD094F833309B072ED44046BC
:108450000DB0BDE8F08F2A686A60E9689DF81320C6
:10846000914289D1288ABDF81420A0EB020CDCF1DE
:10847000000040EB0C0080E7C12A7FF47DAF2A4664
:1084800004A9204600F03EFD00283FF476AFD5E970
:10849000012191427FF471AFB3E719F4804FD2D03C
:1084A000D4E904232046FFF78EFECAE794F8313062
:1084B00043F0200384F83130C9E719F4007F3FF41A
:1084C00050AF1AF0020F3FF44CAF002D3FF449AF0C
:1084D000BB4521D2202204A93046FFF77DFD50B9CB
:1084E0003046D6F8188000F060FA00283FF439AF23
:1084F000C6F81880ECE720287FF433AFBBF1000FFB
:1085000005D13268A2F120030193B36900930BF106
:1085100001035FFA83FBDBE738220021204696F84F
:10852000338010F030FA336A2362282384F8313024
:10853000009B6362C8F38018019BA36284F82C80BF
:108540002B686B6007F1FF384FF000095FFA88F87D
:108550005FFA89FBBB4556D2012259462046FFF7F8
:10856000C3FC064600283FF4FCAE90F90020002A28
:10857000FFF6F7AE2022002110F005FABBF1000F44
:1085800020D185233370224B84F8308086F8018017
:108590001B688BB10DF10B020DF10E0103A898477A
:1085A000BDF80C307381BDF80E3033819DF80B306F
:1085B000337509F10109CBE745F621437381F38156
:1085C0007382F6E7BBF1010F0CD16AF07F03C02282
:1085D000327086F801B084F83330EB68F3702B8A80
:1085E000B380E6E7C1233370A86806F11E026B680A
:1085F0008342DED0591C696093F9003026F8023FAF
:10860000B242F4D1D5E7204600F0B0F980461EE72B
:1086100044290020F0B597B01F4600238DF8513053
:108620008DF852308DF8533090F831300192054674
:108630000C4613B1002017B0F0BD91F8313013F0A3
:10864000500FF7D092F900302F2B13D1019B93F9E3
:1086500000202F2A02D101330193F7E7216A1AB9CA
:108660002846FFF767FCE6E708A8FFF763FC002849
:10867000E0D008AC01AB03AA01992846FFF76EFCD5
:108680000028D7D0019B93F90030D3B1002303AA6F
:1086900021462846FFF714FE0028CBD008AA2B4617
:1086A00005F1300C144618685968164603C608339D
:1086B00063453246F7D1186830602846FFF730FC32
:1086C000D8E73B4603AA21462846FFF7F9FDB2E763
:1086D00019B101F58961FFF79DBF084670472DE983
:1086E0003008134690F831208AB991F8315015F0CE
:1086F000500F0CD0D1E900454FF0000C04F01F0BD7
:108700005BEA0C0403D1BDE83008FFF7D9BD0020B7
:10871000BDE83008704710B504780023CA0342EA68
:108720005101C25C012B12FA81F189B208D1852C6A
:1087300014BF0122032213441F2BEFD9084610BD9A
:108740000122F8E710B5044602F048FD50B104F5E7
:10875000047002F043FD28B1D4F84004BDE8104095
:1087600002F0EDBA002010BDF8B50446006AA16918
:1087700001B10131012200F04BFC0128054602D86D
:1087800000263046F8BD012301461A46206A00F053
:1087900091FC06460028F3D0A26994F833302AB938
:1087A00043F0400384F83330A561EAE7590613D556
:1087B0000132AA42F8D023F04003E16984F8333053
:1087C000A369206A8B4207D94F1C3A4600F033FD5B
:1087D00039460028F4D1D3E74FF0FF322946206A0A
:1087E00000F029FD0028CBD0A1690029DCD02A4661
:1087F000206A00F020FD0028D6D1C1E72DE9F0481D
:1088000090F833309A07044602D40020BDE8F0887F
:10881000C16989B9002594F83030E9B28B422ED372
:1088200001222046FFF760FB01350028EDD00378D8
:1088300003F07F030370EEE75B06006A1CD5D4E902
:10884000026790F845240932D2B216F1FF3B47F196
:10885000FF3CC2F12005A2F120030CFA05F52BFA2A
:1088600002F22CFA03F32A431A430132002300F0E8
:1088700021FC0028CED1C8E700F0FAFCF9E700237C
:1088800084F8313084F83330206AFFF75BFFBDE7AE
:108890002DE9F3410026DFF8D0800546374695F8EC
:1088A0003030F1B28B4249D300222846FFF71CFB3F
:1088B000044600284ED00378C02B2AD0C12B21D0EB
:1088C000852B47D195F8313003F037038380D8F8F2
:1088D000003083B10DF103020DF1060101A89847A4
:1088E0009DF80330BDF806206375BDF80430A28101
:1088F000E381228263822A6A92F8103243F00103F4
:1089000082F8103239462046FFF705FF0136074648
:10891000C5E795F83320437852064CBF43F0020375
:1089200023F002034370D5E90423C0E90223EB6975
:108930004361D5E90223C0E90623DCE7012205F102
:108940002401286A00F008FC20B14780286AFFF75C
:10895000F9FE30B995F8323043F0010385F8323032
:10896000002002B0BDE8F0814429002010B590F845
:10897000313004460BB9012010BD90F833301A068F
:1089800007D503F07F0380F83330BDE81040FFF7D0
:108990007FBF006AFFF7D6FE0028ECD194F8323092
:1089A00043F0010384F83230E6E7F8B590F831304F
:1089B0005A0604462ED5006A00F0F8FC236AD3F864
:1089C0003C341844B0F1806F47D22046FFF7CCFE0C
:1089D000002842D0236AA56993F84524D3F82C34A3
:1089E000023D95401D4400260127206A90F8453439
:1089F00007FA03F3B3420FD90522A91900F5047051
:108A000002F011FC48B34FF4007200210FF0BBFFDD
:108A10000136EAE78068D1E794F831305B0617D475
:108A200094F8333063F07F0384F83330D4E90223C1
:108A3000D0F83C14551843F10006C4E90256D4E9B5
:108A40000423D0F83C14551843F10006C4E9045639
:108A50002046BDE8F840FFF789BF0020F8BD10B5FB
:108A600091F8313013F0500F04461AD040F602232B
:108A7000FFF726FCA8B1302384F831302046FFF7F9
:108A800094FF70B1A369E361204600230022FFF741
:108A90009AFBC12384F833302046BDE81040FFF72D
:108AA00065BF002010BDF0B597B01F4600238DF8BC
:108AB00051308DF852308DF8533090F831300192AA
:108AC00005460C4613B1002017B0F0BD91F83130C7
:108AD00013F0500FF7D092F900302F2B0ED1019BDD
:108AE00093F900202F2A02D101330193F7E7216A7D
:108AF00008A8FFF71FFA0028E5D008AC01AB03AACD
:108B000001992846FFF72AFA0028DCD0019B93F947
:108B100000301BB3002303AA21462846FFF7D0FBF1
:108B200090B108AA2B4605F1300C14461868596814
:108B3000164603C6083363453246F7D118683060DD
:108B40002846FFF7EDF9D9E7002FBCD003AA21464C
:108B50002846FFF784FF0028E3D1B4E703AA2146A3
:108B60002846FFF77CFFAFE72DE9F84316461F467E
:108B700056EA0703054638D090F833309B0734D5C2
:108B8000C16991BB006A12F1FF3890F8452402F1E7
:108B90000902D2B247F1FF39C2F12004A2F1200349
:108BA00009FA04F428FA02F2224329FA03F31A43D9
:108BB000541C224600F02CFA0128804615D90146A3
:108BC00001232246286A00F075FA70B195F8333017
:108BD000C5F81C8063F03F03C5E9026785F83330B0
:108BE0002846BDE8F843FFF7C1BE0020BDE8F88382
:108BF0002DE9F34890F833209307044603D400206E
:108C000002B0BDE8F088C369002B5AD012F04001D1
:108C1000856939D0226AD0E9020192F845240932E7
:108C2000D2B210F1FF3B41F1FF3CC2F12007A2F1AB
:108C300020060CFA07F72BFA02F23A432CFA06F652
:108C400032430132ADB1013B691C5D1B01912A44E5
:108C500092B9D4E90023C4E90223C4E9042394F8B7
:108C6000333063F07F0384F833302046FFF77EFE15
:108C7000C6E70193E561EBE700230199206A00F064
:108C800019FA0028E5D1BAE7C5B102AA006A42F88C
:108C9000041D294600F07AFA0028B0DB07D04FF017
:108CA000FF32A169206A00F0C6FA0028A7D0019916
:108CB0000029CED0206A00F0DBFAE2E70193C5611B
:108CC000F5E701209CE7FFFF2DE9F04F90F83330E6
:108CD0008A46990785B00446934668D51A0760D43A
:108CE00004F11803D9460393D4E90067B9F1000FE2
:108CF00000F0DC80206AD0F838543540C5F308080D
:108D000045BBA169002965D094F833305B065AD57C
:108D1000D4E9026716F1FF3247F1FF33CDE90023B2
:108D200090F84534009E0933DBB2A3F12002C3F171
:108D3000200026FA03F3019E06FA00F003433046B2
:108D4000D040E269034313448B4239D82046FFF7F1
:108D50000BFD60B3206AA16990F845240239914067
:108D60006B0ACD18D0F82C142944B8F1000F3DD16E
:108D7000B9F5007F3AD3B9F5806FD0F8186279D28F
:108D8000B14202BF4FF0FF3380F81082C0F81832B2
:108D90005246D0F8140202F0DEF940B14FF40075EB
:108DA0004CE0D0E90423FFF70EFA002898D194F89C
:108DB000323043F0010384F832304FF0000B88E08A
:108DC0000131A161C6E7039A00F0E0F90028EEDB6B
:108DD000BCD0BFE7E3693BB92046FFF7C5FC0028DC
:108DE000E5D0A369E361B5E7A361B3E7C8F5007512
:108DF0004D4528BF4D46B8F1000F39D1D4E90423C1
:108E0000D4E900679F4208BF964234BF0122052281
:108E100000F5047002F007FA0028C8D040442A4642
:108E20005146A8440FF08BFDB8F5007F06D1206AAB
:108E300000F5047002F0D2F90028B8D0D4E900019E
:108E4000D4E90423461941F10007BB4208BFB242EE
:108E5000C4E90067AA44A9EB0509BFF445AF94F83B
:108E6000333063F07F0384F83330C4E904673BE7B1
:108E70000122CDE7012505FA02F2D31A4FEA59275C
:108E8000BB4228BF3B46B1424FEA432508D8CA1827
:108E9000B24282BF4FF0FF3280F81082C0F8182231
:108EA0005246D0F8140202F02BF9C5E7D4E90223A8
:108EB000BB4208BFB24208D2C4E9026794F833301B
:108EC00063F07F0384F8333003E0044B1B68002B0E
:108ED000F4D1584605B0BDE8F08F00BF442900200A
:108EE00070B505460C4659B1036808465E6810F037
:108EF0003CFB2146024633462846BDE870401847F1
:108F0000084670BDF0B5966801F11E05536831F84A
:108F1000020F9E4203D1B0FA80F04009F0BD5C1C04
:108F200054607E2893F9004014D8E3B2A3F161079E
:108F3000192F9CBF203B5CB2C3B2A3F16107192F6C
:108F400098BFA3F1200040B2A04203D1A942DDD1D5
:108F50000120E3E70020E1E72DE9F04190F831300E
:108F600006460F46904633B30225002496F830306B
:108F7000AB421BD3002229463046FEF7B5FFD0B1E5
:108F80000378C12B17D13A1900F11E0130F8023FC6
:108F900063B1013444450ED27F2B28BF3F23884262
:108FA00002F8013BF2D10135EDB2DFE700233B557A
:108FB0002046BDE8F08100243C70F9E770B5886870
:108FC0000D684D6000234A68824218D0541C4C60E2
:108FD00092F90020D4B2A4F16106192E98BFA4F131
:108FE00020024FEAC33444EA530398BF52B253FA03
:108FF00082F2C2F34E0343EAC2339BB2E3E7401B63
:10900000C8600138FE280B828CBF0020012070BD93
:109010002DE9F84F804693468A4659B38D1ED8F8FD
:109020003034AB4298BF002505F0070301249C4073
:10903000C5F3C809E4B22F462E46D8F82C140022F6
:1090400001EB1631404602F0EEF888B110F8093015
:10905000234206F1010610D1F21B5A450ED1BAF196
:10906000000F04D1BBF1010F08BFC8F82074B81C71
:10907000BDE8F88FD0F82054D1E73746B54217D075
:10908000D8F83024B2420ED9640014F0FF04DFD1C6
:1090900009F10103B3F5007F4FF000094FF001041F
:1090A000CBD29946D2E700274FF400793E46EFE74E
:1090B0000120DDE72DE9F84306468C1ED0F8300488
:1090C000A11881421746984641D8D6F82034B8F105
:1090D000000F37D0A34206D3994204D9814228BF5A
:1090E0000021C6F8201404F007030125D6F82C143B
:1090F0009D4001EB1431EDB2C4F3C80401223046A7
:1091000001F1010902F08FF808B303192A46197812
:10911000114214BF01240024444518D05140013F9E
:10912000197017D0520012F0FF02F0D10133A3EBF7
:10913000000C1446BCF5007F4FF00102494615466D
:10914000E5D1DBE7A34288BFC6F82044CBE7002087
:10915000BDE8F8830120FBE738B50C46D0F8383479
:10916000496890F8455419402368023BAB4003EB33
:109170005123D0F82C1400F50470194402F053F870
:1091800018B16368C3F30803184438BD38B5D0F884
:10919000303401338B420C46154602D24FF0FF307B
:1091A00038BDD0F82414002201EBD41100F504706E
:1091B00002F039F80028F1D0A400C4F308040359E0
:1091C0005A1C1ABF2B6001200020E9E773B502ADDD
:1091D000064645F8041D00242A4601993046FFF74B
:1091E000D5FF002805DB04F10104F5D1204602B0CB
:1091F00070BD0024FAE770B54B68D0F838441C40C5
:1092000013444B6090F8453409331444DBB20646EE
:109210000D46DC406CB12B7A29681BB10131296005
:10922000013CF7E72A463046FFF7B0FF0128F7D0A8
:1092300070BD0120FCE7012938B50C46154601D860
:10924000002038BDD0F8303401338B42F8D3D0F849
:109250002414012201EBD41100F5047001F0E3FFA6
:109260000028EDD0A400C4F3080405510120E8E76C
:109270002DE9F34107460C460E4601AA2146384621
:10928000FFF784FFB0F100081DDB002221463846BD
:10929000FFF7D1FF0546B0B1621CB8F1000F02D054
:1092A000019B934207D00023921B31463846FFF7BB
:1092B00001FF40B1019E019CB8F1000FDDD12846AD
:1092C00002B0BDE8F0810025F9E7FFFF70B5044664
:1092D0001E46002380F84434C0F8401441600370F7
:1092E0004FF0FF30A060C4F8141284F81032C4F8B4
:1092F00018021546CAB1042A01D9002070BD1A46C9
:10930000194604F5047001F08EFF0028F5D005F130
:109310008055013D00F5DF702D0143191A79002AAF
:10932000EBD0425D5206E8D19E680022314604F53A
:10933000047001F078FF05460028DED01A490522A6
:10934000033010F02EF901460028D6D195F86C3084
:10935000092BD2D12B6D3344C4F824346B6DC4F87F
:109360002834AB6D3344C4F82C34EB6DC4F830347E
:109370002B6EC4F8343495F86D3084F845340125EB
:10938000093305FA03F3C4F83C34013BC4F838341C
:10939000C4F820042A462046FFF73AFE402384F80A
:1093A00044342846AAE700BF00E0010010B5044697
:1093B000D0F83414FFF70AFF94F845340933DBB2D0
:1093C000984010BD10B50446243001F007FF48B1A5
:1093D00004F50D7001F002FF20B12068BDE81040D7
:1093E00001F0ADBC002010BD814230B507D00D4664
:1093F00004460FCD0FC40FCD0FC42B68236030BDC2
:10940000024638B552F8105F04462946806801F0DC
:109410009DF940B1A3783DB943F04003A370A37810
:1094200063F07F03A37038BD22690135AA42F6D0EC
:1094300023F04003F2E7FFFFF8B5077817F0400785
:10944000044602D000263046F8BD4269154B9A42C8
:10945000F8D8FFF7D5FF06460028F3D0A3682569A2
:109460009A795B69023D95401D44A0680379F9B281
:109470008B420DD905222944243001F0D4FE013756
:109480000028DFD04FF4007200210FF07CFAECE7E7
:1094900082794FF400739340626912FA83F3636137
:1094A000D1E700BFFFFD1F0010B5044680680A46E3
:1094B0002430A16901F0B7FE20B1A38803F00F03A7
:1094C00000EB431010BD70B5047805460E4694B904
:1094D000242221460FF057FAAE60F379102B03D007
:1094E000202B06D0204603E0402301202B70A870DB
:1094F00070BD8023F9E70020FAE738B5CB68044651
:109500000D4623B98968BDE83840FFF7DCBF242247
:1095100000210FF038FA102301202370A070AB68EF
:10952000A360EB68236238BD2DE9F04F83780446D1
:10953000D80785B08A4615466AD52378190732D5EB
:10954000E36962699B1A9D4228BF1D4604F110031E
:109550002E464FF000080193002E00F09F802278E5
:109560006769A0685306C7F3080B4FEA572123D554
:10957000026A1144D4F80890BBF1000F4FD1B6F540
:10958000007F4CD3D9F82C20914248D0B6F5806F9B
:109590005ED25246D9F8280001F099FD002837D054
:1095A0004FF400774EE05A06D0D5A3681A89636954
:1095B000C3EB42139BB2C6E790F8058008EA0108A6
:1095C000BBF1000F08D1B8F1000F05D16FB9120639
:1095D0004CBF026A226A2261A268216990795269AD
:1095E0000239814011444144C4E71307216905D57C
:1095F000A278570602D501312161EDE7019A01F009
:1096000040F8002804DBE7D1237813F0D00F45D1D0
:10961000637843F0020363704FF0FF303FE0CBF517
:109620000077B7424FF0000209F1240028BF374607
:1096300001F0F9FD0028EBD000EB0B013A46504653
:109640000FF07DF963693B44BA446361F61B83E71D
:10965000207840064FEA562306D499F80400A0EB80
:109660000800834228BF034691424FEA432707D9A7
:109670005246D9F8280001F000FD0028E2D1C7E7E2
:10968000C8188242F4D209F12400CDE9021301F096
:10969000A5FDDDE902130028EAD1B9E7A81B05B052
:1096A000BDE8F08F2DE9F04F1F4685B081460E468C
:1096B000924601F1FF3801244FF0FF3304F1FF3BE4
:1096C0002546544520DA01220DF10F014846FFF7E7
:1096D0002BFF0128034617D19DF90F100D29F0D05B
:1096E00008F8011F3FB90A290CD1002373552846F9
:1096F00005B0BDE8F08F019038460FF005FF019BE3
:109700000028F2D10134D9E7002B01DB5D46ECE7FC
:109710004FF0FF35EBE7436937B5C3F34315044614
:1097200005B199B901220DF107012046FFF7FCFEB2
:1097300040B2012802D0002003B030BD63691F335E
:10974000A0686361343000EB4510F5E72033F7E79C
:109750002DE9F0410E4601780769044639B34069A6
:10976000B04206D03EB92661A378666123F020039B
:10977000A37001201DE00B0712D5E369B34216D395
:10978000D4F808C0A2789CF806300933DBB2751E05
:10979000520625FA03F50ED5236A1D442561E3E739
:1097A0004D06EDD5A3681B89B6EB431FDCD92761B5
:1097B0000020BDE8F081421E22FA03F39D4200D34F
:1097C00098B90B064CBFDCF82030236A236104F102
:1097D0001008002DC8D042462169A06800F051FF52
:1097E000002805F1FF35F4DCE1E7ED1AEFE7F8B505
:1097F0000F4616460021242204461D460FF0C3F8EA
:10980000B868A68000F1340206F00F0602EB46129B
:109810003B6AA060E360D17A0E073FD401F03701C4
:109820002170D37A13F0180F9DF81830E37008BF39
:1098300041F0080105F0030308BF2170012B27D078
:10984000022B23D053BB6B0528D40123A370A1782E
:109850008F0706D5237813F0110F1FD143F0200393
:10986000237005F008030B43A370C36AA361518BF7
:10987000938A6E0541EA034114D559B9A37863F080
:109880007F03A3706B0411D40120F8BD0323DDE72F
:109890000223DBE700F0D4FF0028EFD10020207086
:1098A000A070F2E72162D369E361EBE7E16920464A
:1098B000FFF74EFF0028F1D0E6E72DE9F7430378E4
:1098C00007460D469146002B3DD10B7813F0D00F83
:1098D00039D04C6914F01F0435D1264600212846A2
:1098E000D5F81480FFF717FF68B303785BB32E2B0E
:1098F0001FD0E52B1DD0C27A12F008011BD16CB12C
:10990000421E0A30CB0143EA510112F8013F53FADB
:1099100081F18242C9B2F5D18E4214D100944B46F6
:10992000C8F34F1229463846FFF761FF03B0BDE880
:10993000F0830024D2E70F2AFBD15A06CED503F0DC
:109940001F04467BCAE70020F0E7FFFF37B5037826
:109950000446002B39D090F90230002B2FDA012178
:10996000FFF7A2FD054630B9637843F00103637049
:10997000002003B030BD0378E52BF5D0237803F049
:109980003703C37223781B0744BFE369C361236AAB
:1099900043831B0C83820E4B1B6863B10DF10302E2
:1099A0000DF1060101A89847BDF804302B836B82A6
:1099B000BDF80630EB82A37803F07F03A370A068A4
:1099C000FFF700FD0028CFD0D3E70120D1E700BF8B
:1099D0004429002010B50446FFF7B8FF0023237088
:1099E000A37010BD70B594B01E460023ADF82C30A6
:1099F0008DF82E300378019205460C4613B10020F5
:109A000014B070BD0B7813F0D00FF8D092F900307D
:109A10002F2B13D1019B93F900202F2A02D1013360
:109A20000193F7E7A1681AB92846FFF74CFDE7E76D
:109A30000BA8FFF748FD0028E1D00BAC01AB03AA4F
:109A40000199284600F0D0FC0028D8D0019B93F95A
:109A500000307BB1002303AA2146284600F09EFB7C
:109A60000028CCD00BA82946FFF7BEFC2846FFF7FC
:109A7000B1FFE2E7334603AA2146284600F08EFBF9
:109A8000BEE719B101F24441FFF7ACBF0846704789
:109A9000F0B50B7813F0D00F89B004460E4602D112
:109AA000002009B0F0BD40F6022300F077FB00284B
:109AB000F6D001251027A57027702046FFF7BCFCC3
:109AC0000028EDD02369236200212046FFF740FEE5
:109AD0002046FFF73BFF0028E2D029462046FFF74B
