:10400000007F0020351D0100DD1B0100311D010076
:10401000311D0100311D0100311D0100311D010064
:10402000000000000000000000000000311D010041
:10403000311D010000000000311D0100311D010093
:104040000000000000000000000000000000000070
:104050000000000000000000000000000000000060
:104060000000000000000000000000000000000050
:104070000000000000000000000000000000000040
:104080000000000000000000000000000000000030
:104090000000000000000000000000000000000020
:1040A0000000000000000000000000000000000010
:1040B0000000000000000000000000000000000000
:1040C00010B5054C237833B9044B13B10448AFF352
:1040D00000800123237010BD780200200000000042
:1040E000B8E7010008B5034B1BB103490348AFF320
:1040F000008008BD000000007C020020B8E701003D
:104100000020704710B500231A4601395C1CDBB251
:104110008B4204DAC35C1A4492B22346F6E7D0B26B
:1041200010BDFFFF10B5074B196800220C4611F9AE
:10413000010B202804D0092802D002B11C6010BD58
:104140000122F3E7C406002010B50446FFF7EAFF9A
:10415000044A136893F90010A14204BF01331360AD
:1041600010BD00BFC406002070B50025ECB2A1420E
:104170000CD90446264614F9010BB8B12C2821D0DD
:104180000A2801D00D28F5D100200FE0013B0138AD
:10419000114642F20146DBB210F9015FECB20D2C80
:1041A00005D92C2D07D100230B70012070BD26FAF4
:1041B00004F4E407F7D48C1AE4B2A342F3D901F86B
:1041C000015BE9E7701C0135D0E7FFFF2DE9F843FB
:1041D000DFF83C900C4F064600254FF0BC0899F8DC
:1041E0000030ECB2A3420CD908FB047431462046DF
:1041F00015F05FF901350028F1D194ED2D0ABDE8E5
:10420000F8839FED020AFAE7B00F002000000000DB
:104210006E0A0020F0B52DED028B87B0FFF782FF0C
:104220008A4A106890F900302D2B14460BD10130CA
:104230001060FFF7EFFFB1EE408AB0EE480A07B01A
:10424000BDEC028BF0BD212B0CD101301060FFF7CB
:10425000E1FFB5EE400AF1EE10FA00F0F3809FEDB9
:104260007C8AEAE7282B09D10130106000F070F950
:104270002920B0EE408AFFF767FFDEE75B2B35D1E0
:104280000130002310601F46844610F9015BE9B23B
:1042900021F02006413E192EDAB217D9303909290A
:1042A00014D95F2D12D00FB1C4F800C006AB1A4468
:1042B000002302F8183C2268104612F9011B79B15C
:1042C0005D294FF00103F7D122600BE00DF8035098
:1042D0000133172B4FF00107D6D120601A46E5E7CE
:1042E00003B120606846FFF771FF86E0782B05D1A7
:1042F0000130584B106093ED008A9EE7D9B2A1F1CE
:104300003005092D01D92E2B07D1694615F064FF20
:10431000009B2360B0EE408A8FE721F020014139F5
:10432000192904D9002B9AD00130106097E7002397
:104330001F46844610F9011BCAB222F02005413DF8
:10434000192DDEB228D9303A092A25D95F2923D080
:104350000FB1C4F800C006AB3344002503F8185C65
:10436000FFF7E0FE236893F90020282A54D1013397
:1043700039492360684615F09CF80646B0B12168BB
:104380002B4601220D4611F9010B002838D1002BD4
:104390003FF465AF256062E70DF803100133172B7A
:1043A0004FF00107C5D120601E46D4E700F0D0F8D9
:1043B0002A4C2C20F0EE408AFFF7C6FE25782670A6
:1043C00000F0C6F82C20B0EE408A2778FFF7BCFE3C
:1043D000267000F0BDF829202678FFF7B5FEF5EE2F
:1043E000408AF1EE10FA04D0002D18BF2F46277036
:1043F00023E7002D18BF2E462670B0EE408A1CE73A
:10440000002AC4D0282802D101320123BAE7292882
:1044100008BF02F1FF32F8E7012E7FF463AF9DF988
:104420000030412B01D10E4B65E7422B01D10D4BE2
:1044300061E7432B01D10C4B5DE7442B7FF452AF76
:104440000A4B58E7B7EE008AF7E600BFC406002023
:1044500000000000C80600206ED90100CC06002034
:10446000B4060020B8060020BC060020C0060020CC
:1044700070B52DED028BFFF7CDFE1F4C1F4DB0EE3A
:10448000408A0126FFF74EFE236893F900202A2A6E
:1044900006D101332360FFF7BDFE28EE008AF1E765
:1044A0002F2A0FD101332360FFF7B4FEB5EE400A87
:1044B000F1EE10FA03D12E709FED118AE2E788EE3B
:1044C000008ADFE7252A11D101332360FFF7A2FE1E
:1044D000B5EE400AF1EE10FAF0EE400AEBD0B0EE85
:1044E000480A14F051F8B0EE408ACBE7B0EE480A23
:1044F000BDEC028B70BD00BFC4060020CC060020BE
:104500000000000010B52DED028BFFF7B1FF0F4C3E
:10451000B0EE408AFFF706FE236893F900202B2AAD
:1045200006D101332360FFF7A3FF38EE008AF1E7DD
:104530002D2A06D101332360FFF79AFF38EE408A17
:10454000E8E7B0EE480ABDEC028B10BDC4060020BF
:1045500010B52DED028BFFF7D5FF334CDFED338A1D
:10456000B0EE408AFFF7DEFD236893F900203E2A73
:104570000FD193F901203D2A3DD102332360FFF78B
:10458000C1FFB4EEC80AF1EE10FA11D9B0EE688A94
:10459000E8E73C2A0FD193F901203D2A35D10233B7
:1045A0002360FFF7AFFFB4EEC80AF1EE10FAEDDBBF
:1045B000B7EE008AD6E73D2A0DD193F901203D2AB6
:1045C0002DD102332360FFF79DFFB4EE480AF1EED0
:1045D00010FAEDD0DAE7212A21D193F901203D2A02
:1045E0001DD102332360FFF78DFFB4EE480AF1EED0
:1045F00010FADDD1CAE701332360FFF783FFB4EE81
:10460000C80AF1EE10FAD3D4C0E701332360FFF7F4
:1046100079FFB4EEC80AF1EE10FAC9DCB6E7B0EEE5
:10462000480ABDEC028B10BDC4060020000000004B
:10463000F8B50F4615461C4614F0A2FF064608B909
:104640000020F8BD384614F058FF321830562228A2
:1046500001D02728F4D1013C2B46E4B212F9011F06
:1046600041B1884206D05E1BF6B2B44202D903F8CB
:10467000011BF3E700221A700120E2E708B50246A9
:10468000104612F9013B3BB1303BDBB2092BF7D8A6
:1046900014F079F880B200E0184608BD2DE9F04F1B
:1046A000F9B081469DF80C62869C879D082E8A464B
:1046B000934609AF14D15A4A0C21384614F08CFEA7
:1046C00000230DF150081BF90320D9B29AB12F2B0A
:1046D00010D02C2A08BF3B2208F803200133F2E750
:1046E000092E01D14F4AE7E74F4A0C21384614F012
:1046F00073FEE5E71946002308F801300CA8EA56D6
:10470000D9B242B11F2B05D02C2A08BF3B22C2547C
:104710000133F4E71946002343549B4694F90010F3
:104720005FFA8BF220AD59B3BBF15F0F27D00422A3
:104730003E49204614F0FDFE30B93E2205F80B201C
:1047400004340BF1010BE9E704223949204614F047
:10475000F0FE08B93C22F1E705223649204614F064
:10476000E8FE20B9262205F80B200534E9E714F904
:10477000012B2C2A08BF7C2205F80B20E1E75A46C2
:104780000023013EAB54092E06D8DFE806F0472E81
:10479000303234363E383A3C274B9DF81002274AD7
:1047A00027499DF930400393002808BF114625484A
:1047B0009DF80832CDF800800CAA002C08BF0246F4
:1047C0008898CDE90415CDE90620CDE901731E4A8C
:1047D00053464FF4807138A814F0FEFD38A94846BE
:1047E0000FF0FFF979B0BDE8F08F184BD5E7184B03
:1047F000D3E7184BD1E7184BCFE7184BCDE7184B51
:10480000CBE7184BC9E7184BC7E79DF81432174A96
:104810001748082114F0E0FD154BBEE7154BBCE727
:10482000A0CE0100ABCE0100B4CE0100BCCE010091
:10483000C1CE0100C6CE010061CE010095CE0100BF
:1048400099CE0100AFE70100D2CE010068CE010091
:104850006CCE01006FCE010073CE010077CE010057
:104860007DCE010088CE010091CE0100CCCE0100AA
:10487000CD06002064CE01002DE9F04FB5B014AE96
:1048800099469DF8043109930D469DF808310A9325
:10489000002182469346304620229DF8FC409DF838
:1048A0000C8114F038F8102200210CA814F033F811
:1048B0001CAF1022002110A814F02DF86022002156
:1048C000384614F028F82023324669492846FFF775
:1048D000AFFE10230CAA67492846FFF7A9FE102354
:1048E00010AA65492846FFF7A3FE18B9634910A826
:1048F00014F0E9FD60233A4661492846FFF798FE27
:104900003B46194613F9012B202AFAD0092AF8D080
:104910001CADA94208D008460B9114F0EEFD0B998E
:10492000421C284613F0DEFF284614F0E6FD002264
:104930002844B84208D010F9013C202B01D0092BA3
:1049400002D100F8012DF4E74E490CA814F0B1FD96
:10495000002878D04C490CA814F0ABFD002874D086
:104960004A490CA814F0A5FD002870D048490CA8AD
:1049700014F09FFD00286CD046490CA814F099FD56
:10498000002850D10027B8F1000F66D1099B002BF9
:1049900065D1062F65D09DF97030782B61D19DF9D6
:1049A0007130002B5DD103223B49304614F0C1FD2C
:1049B000002814BF3B460A233849099310A814F075
:1049C00078FDB0FA80F04009099BB8F1000F4AD198
:1049D0000A9A52B9012202FA07F717F0120F44D1CE
:1049E00017F0640F14BF04241446449F2C4A99F90D
:1049F00000100495B8F1000F08BF17469DF800217C
:104A00004497CDE90202274ACDE90043002918BFA7
:104A10004A46CDE905673E9B59465046FFF73EFEA4
:104A200035B0BDE8F08F20490CA814F042FD40B12C
:104A30001E490CA814F03DFD68B1012CA2D0022C37
:104A400009D101279FE706279DE703279BE7042756
:104A500099E7052797E7022795E70823ACE707239F
:104A6000AAE73B46A8E70024BFE70224BDE700BF52
:104A700034D901003BD9010048D9010095CE01008D
:104A800050D9010077CE010057D901005DD901004E
:104A900064D9010056D901006AD9010099CE0100FC
:104AA00049CC01002CD901005CD9010063D9010077
:104AB00038B500230D460B702B49044614F0F9FC61
:104AC00050B32A49204614F0F4FC00283BD0284972
:104AD000204614F0EEFC002837D02649204614F07A
:104AE000E8FCA0B32449204614F0E3FC88B3234932
:104AF000204614F0DEFC70B32149204614F0D9FCA6
:104B000058B32049204614F0D4FC40B31E49204637
:104B100014F0CFFC08B9092038BD1C49204614F018
:104B2000C8FCF0B103221A49204614F002FD002807
:104B3000F1D1E378303B092BEDD8E01C13F023FED4
:104B400028700720E8E70120E6E70220E4E70320D9
:104B5000E2E70420E0E70520DEE70620DCE70820A6
:104B6000DAE70A20D8E700BF61CE010064CE010079
:104B700068CE01006CCE01006FCE010073CE010043
:104B800077CE01007DCE010088CE010091CE0100DC
:104B90007AD9010010B50C463E2114F07DFC08B90D
:104BA000207010BD002310F9012FD9B23AB13C2A70
:104BB00005D00B2B02D0E2540133F4E71946002351
:104BC0006354EEE709490022C0E900210121417246
:104BD0004FF4285102728272C260027442744182A0
:104BE000027542758275C275704700BF00093D00AD
:104BF00000B50A46D0F880148FB051B10023684642
:104C0000ADF800308DF8023004F005FF0FB05DF80C
:104C100004FBD0F884040028F8D08DF831108DF80A
:104C200032108DF833100B460146684603F01AFD2A
:104C3000ECE700B50A46D0F880148FB079B10023B4
:104C4000ADF800308DF802306846012304F0E3FE31
:104C500010B1684605F0D8FB0FB05DF804FBD0F842
:104C600084040028F8D08DF831108DF832108DF8BA
:104C7000331001230146684603F0F4FC08B9002014
:104C8000EAE7684603F084FD0028F8D0E4E710B4B2
:104C9000846B24B120465DF8044B04F0CDBCC06B9E
:104CA00018B15DF8044B03F01FBA4FF0FF305DF808
:104CB000044B704710B4034600240C70986B18B175
:104CC0005DF8044B05F0A5BCD86B18B15DF8044B3A
:104CD00004F00CB95DF8044B7047FFFF1346074A18
:104CE00010B40C46116821B122465DF8044B05F062
:104CF00025BE08465DF8044B704700BF40290020E0
:104D00002DE9F04FADF53B7D002281460F46564B15
:104D1000564929922AA8CDE938222893FFF7DEFFC9
:104D2000002800F09180052400234FF480723AA9F6
:104D30002AA8013CFFF7ABFF14F0FF04F4D11822BE
:104D4000214608A813F0E7FD00234FF480723AA92A
:104D50002AA8FFF79CFF002873DD0EAC182322461B
:104D600000213AA8FFF700FA06460028ECD094F993
:104D70000030002BE8D008A9204614F09AFB002848
:104D8000E2D01722214608A814F0E5FB10230421E5
:104D900000250DEB03023AA88DF83750FFF7E4F930
:104DA000334904A814F085FB0028CDD00DF170081C
:104DB0003023424601213AA80DF1500AFFF7D4F9F9
:104DC0002023524607213AA8FFF7CEF994F900B004
:104DD000284B214653F8250014F06BFB002837D0F0
:104DE00001350C2DF4D1692F1AD00026702F19D15E
:104DF000BBF1530FA8D0204B204A002E14BF1E46F3
:104E00001646CDE901A8009623461D4A4FF480714D
:104E10007AA814F0E1FA7AA948460EF0E2FE93E788
:104E2000202318E0732F8FD1BBF1530F8CD1134B7C
:104E3000144A002E08BF1A46CDE900282346124A1C
:104E40000CE02AA805F069FD0DF53B7DBDE8F08F6B
:104E5000692FCBD12A23CDE900480C4A4FF4807149
:104E60007AA814F0B9FAD6E7B4CA0100A0D80100B4
:104E70007DCE01001CCE010076D8010049CC010096
:104E8000C8D801008BD8010001D90100B8D80100B1
:104E90000346806B08B104F023BDD86B08B103F062
:104EA0002FBD704708B50830FFF7F2FF08BD034675
:104EB000806B08B104F0BEBED86B08B103F0CEBE63
:104EC000704708B50830FFF7F2FF08BD07B502AB21
:104ED000012203F8011D08301946FFF7E8FF03B06F
:104EE0005DF804FB054B1B78834281BF044B185CC3
:104EF000084100F0010098BF002070470108002021
:104F000002080020094B0A4A18600A4B83ED000A88
:104F100000231360084A1360084A1360084A1360AC
:104F2000084B00221A70FFF713BB00BFC406002015
:104F3000C0060020C8060020BC060020B8060020DD
:104F4000B4060020CC06002038B50B4B0B4A186085
:104F5000002313600A4A0B4C13600B4A13600B4A80
:104F600013600B4A0D46136000232370FFF7F0FA1D
:104F700023782B7038BD00BFC4060020C80600206F
:104F8000C0060020CC060020BC060020B806002089
:104F9000B40600202DE9F041B0B000222A4B2B4985
:104FA0000D920EA8CDE91C220C931F92CDE92E2262
:104FB0001E93FFF793FE0446C8B1254E254FDFF838
:104FC000988000220EA920A805F0F3FC044658B1F1
:104FD0002E9B83B11B7813F0D00F13D0002420A890
:104FE00005F09BFC002CECD00EA805F096FC2046AA
:104FF00030B0BDE8F0812F9B23B193F8313013F02E
:10500000500FEAE73022694620A8FFF753FE6846B2
:1050100014F073FAC5B20B2DE0D907223146684669
:1050200014F087FA0028D9D1281F3946684414F0B3
:1050300040FA05460028D1D127226946064814F0D7
:105040008AFA88F82750CAE7B4CA010051CC010097
:1050500059CC0100C7D00100D90700202DE9F04F3D
:105060000025E3B0704B119501462A4612A8CDE900
:1050700020551093FFF732FE0746002800F0D0803D
:105080006A4B6B4CDFF8CCB125701D709846DFF889
:10509000C89100234FF4807222A912A8FFF7F7FDF0
:1050A000002840F3B68022AEB24696F90030002BBD
:1050B00000F09C80002D00F083805946304614F0AB
:1050C0005FFA002879D18AF80000494622A814F036
:1050D00057FAA0B1574922A814F052FA78B1102318
:1050E00008AA544922A8FFF7A3FA40B1524908A8D8
:1050F00014F0DFF900287DD1012388F800304F49F2
:1051000022A814F03DFA0028C3D023781F2BBED864
:10511000182302AA4A4922A8FFF78AFA0028B6D023
:10512000DFF838912078BC26172202A900FB0690F0
:1051300014F011FA2378434906FB03934FF0000A59
:1051400083F817A020230DEB030222A8FFF770FAC3
:105150004E4694F800C03C4B002855D01F2203EB6C
:105160004C1008A9019314F0F6F92278019B03EB87
:10517000421383F81FA02378BC225A4302F148014E
:10518000002006EB010C164449F8010078224FF488
:105190001061CCF8041086F85020FF2286F8B02069
:1051A0000133002286F85100C6F8B42086F8B80012
:1051B00086F8B9003076237069E7C61C002574E7CD
:1051C0002249304614F0DCF930B9013E16F9013FAE
:1051D00063B10AF8013BF9E7B04204D916F9013B83
:1051E0000AF8013BF8E7061D3D465EE700238AF812
:1051F00000306AE7164908A814F05BF900287FF42C
:105200007EAF88F800007AE74FEA4C1C03F80C00E8
:10521000B1E712A805F081FB2778003718BF0127F6
:10522000384663B0BDE8F08FB4CA0100700A0020B0
:105230006E0A002073CC01007DCC01008CD80100E7
:1052400085CC010034D901009402002065CC010016
:1052500081CC010061CC01006ACC0100B00F0020BC
:1052600030B50025ABB0644B644905952A4606A8C5
:10527000CDE914550493FFF731FD044658B12B4690
:10528000502216A906A8FFF702FDA84205DC06A8D1
:1052900005F043FB00202BB030BD594916A814F08F
:1052A0001AF92AAB1844062200F8505C554916A892
:1052B00014F03FF90028EAD153490DF15E0014F0D3
:1052C000F8F828B19DF95E00A0F131035C425C4121
:1052D0004E4B50221C7016A9002306A8FFF7D7FCDE
:1052E0000028D4DD464916A814F0F5F82AAB184476
:1052F000002300F8503C0422454916A814F019F97F
:1053000004460028C3D10A2217A901A814F023F9E2
:1053100040498DF80E4001A814F0CBF8044620B1A6
:1053200006A805F0FAFA0120B5E70346502216A9AF
:1053300006A8FFF7ACFC0028A9DD314916A814F037
:10534000CAF82AAB1844052200F8504C324916A876
:1053500014F0EFF800289AD130490DF15D0014F0F7
:10536000A8F8044620B106A805F0D7FA022092E773
:105370000346502216A906A8FFF789FC002886DDFF
:105380001F4916A814F0A7F82AAB1844092200F800
:10539000504C234916A814F0CCF800287FF477AFBE
:1053A0000DF1610013F0EFF9002822DD5428A8BFA9
:1053B00054201C4B5022187016A9002306A8FFF792
:1053C00066FC00287FF763AF0D4916A814F083F838
:1053D0002AAB1844002300F8503C134916A814F0D7
:1053E00068F800287FF453AF06A805F096FA03206A
:1053F00051E72020DDE700BFB4CA0100A0D80100BA
:105400006DCD010070CD010077CD01003227002065
:105410007CCD0100F40A002081CD0100D9070020D5
:1054200087CD01000000002091CD010070B500245F
:105430009CB01B4E1B4B1C49347022460CA80B948D
:10544000CDE91A440A93FFF749FC054628B32346E1
:10545000282269460CA8FFF71AFCA0421ADD13495E
:10546000684614F038F81CAB1844062200F8704C5B
:105470000F49684614F05DF860B90E490DF1060059
:1054800014F017F828B19DF90650A5F131035D42DB
:105490005D4135700CA805F040FA1CB070BD00BF2E
:1054A00032270020B4CA0100A0D801006DCD010050
:1054B00070CD010077CD010030B5144B1B78BDB025
:1054C00005460BB300233CAC0393CDE9123340F205
:1054D00009220F4B0F4944F8E83D04A8FFF7FEFBF3
:1054E00090B10EF007FD0C4A00950346A02114A8C8
:1054F00013F072FF14A920460EF073FB04A8FFF707
:10550000C7FC04A805F009FA3DB030BD32270020E1
:10551000B4CA0100F0CD010007CE010030B5164B32
:105520001B78C7B005460C4623B300230393CDE98F
:10553000123340F20922114B1149029304A8FFF7DC
:10554000CDFBB8B10EF0D6FC0E4B0F4A002C08BFB5
:105550001C46C8210346CDE9005414A813F03CFFB3
:1055600014A902A80EF03DFB04A8FFF791FC04A8C3
:1055700005F0D3F947B030BD32270020B4CA01008E
:10558000F0CD010049CC01000FCE010010B5144947
:10559000144892B0FFF72CFBD8B10022124B1049EF
:1055A000019202A8CDE910220093FFF797FB80B18A
:1055B000109B83B1DC6902A805F0AFF9B4F5006F68
:1055C00007D907490748FFF734FB084908480EF098
:1055D00017FB12B010BD119C002CECD02469EAE737
:1055E00042CD0100080B0020B4CA010055CD0100D6
:1055F000C441002070B50F4C0F4E451E15F9011F18
:10560000B1B12288531C9BB2B3F5007F2380B15403
:10561000F4D34FF4007231460848FFF748FCB0F568
:10562000007F1EBF064B01221A7000232380E5E78E
:1056300070BD00BF3429002033270020040A002059
:10564000AC0F002010B5084C22885AB10749084811
:10565000FFF72DFC238898421EBF064B01221A70CB
:105660000023238010BD00BF3429002033270020F1
:10567000040A0020AC0F002008B5FFF7E3FF094B38
:10568000186C48B104F0A0FA0748FFF701FC06487F
:10569000BDE8084005F041B9586C0028F4D003F08B
:1056A00071FAF1E7FC090020040A00201FB50A4B3B
:1056B0001B7804465BB9CDE90133009301231A46F8
:1056C0004FF4FA6106F082FA204604B010BD034997
:1056D00006F008FAF8E700BF040B0020000B0020DA
:1056E000F0B5C5B0002305460C460B93CDE91A333F
:1056F00040F20922254B26490A930CA8FFF7EEFA3F
:10570000002841D008A8FFF7D1FF224A9DF825C004
:105710009DF822009DF820309DF823609DF82470AC
:105720009DF821100091002C18BF2246CDE9037C82
:1057300003F5FA63CDE90552CDE90106164AA02129
:105740001CA813F049FE1CA90AA80EF04AFA0CA8DE
:10575000FFF79EFB0CA805F0E0F8104910480EF08A
:1057600040FA29460E480EF03CFA54B194F9003044
:105770003BB120210A480EF038FA214608480EF0C5
:1057800030FA07480EF036FA45B0F0BDB4CA010051
:1057900042CD010049CC010013CD010038CD0100FC
:1057A000C44100202DE9F04F9A4DADF50F7D4FF02B
:1057B000000A994B1B785FFA8AF6B34240F22081C7
:1057C0000022964B9649259226A8CDE934222493AF
:1057D000FFF784FA8046002800F0178105274EACB9
:1057E00000234FF48072214626A8FFF750FA0028C4
:1057F00040F30881013F17F0FF07F1D1BC27774341
:1058000007EB0509484613F078FE864A7301D11864
:10581000D35602918346019305E0029910A813F034
:1058200048FE002844D000234FF48072214626A869
:10583000FFF72DFA002840F3E0805FFA8BF31A4659
:1058400049462046039313F074FE0028EBD1039BD6
:10585000E3562C2BE7D1302318AA01212046FEF76E
:1058600083FC0C2309AA02212046FEF77DFC0423B9
:1058700006AA03212046FEF777FC10230CAA042178
:105880002046FEF771FC082307AA05212046FEF7F3
:105890006BFC602336AA06212046FEF765FC202318
:1058A00010AA07212046FEF75FFC019B002BB4D114
:1058B00007F118004FF0BC0B0BFB065B2F2218A959
:1058C000284413F048FE00238BF847300DF11701F0
:1058D0000CA88DF817300193FFF7EAF89DF8172010
:1058E0008BF84D008BF84F204F4907A813F0E1FDCE
:1058F00007F15004B0FA80F040092C448BF84E00B8
:105900005F22204636A913F026FE019B8BF8AF30AC
:10591000013C2C2314F901BFBBF1000F04D0BBF1F3
:105920007C0FF7D12370F5E7404909A813F0C1FDBA
:1059300000285AD03E4909A813F0BBFD002854D0D6
:105940001022594609A814F0CBFDBC2404FB0654D0
:10595000A06406A812F017FF84F84C00BC2303FBD8
:105960000653FF2283F8B0200022C3F8B42000229F
:1059700083F8B82083F8B92026A804F0CEFFB8F148
:10598000000F2FD1BC235E4306F148035A1943F898
:1059900005802E444FF410635360782386F850300E
:1059A000FF2386F8B0300023C6F8B43096F91830DB
:1059B00086F8518086F8B88086F8B98043B907F137
:1059C00018002F221B49284413F0C5FD86F8478094
:1059D00044214B46184A36A813F0FEFC36A913485A
:1059E000FFF77EFE0AF1010AE3E6BC2303FB065340
:1059F00000229A6483F84C20B0E74FF00008BBE720
:105A0000012003E026A804F088FF00200DF50F7D9B
:105A1000BDE8F08FB00F00206E0A0020B4CA01006C
:105A2000A0D801009402002099CE0100ABCE010065
:105A3000A0CE01002CD90100C7CD01002DE9F04F07
:105A4000A14BADF53B7D1B780793002303939DF895
:105A50000C30079A9A420BD89B4A04921078002384
:105A600032A9DAB2904240F285815A540133F8E704
:105A7000039BBC256B43954D5A1992F84D20082A7B
:105A800002D0039B0133E1E7503500241D44A046BA
:105A90004FF0180995F90070002F4BD0072C48D80B
:105AA0005B2F04BF013501202B78A3F1410318BF00
:105AB0000020192B39D82A4600237AAE154612F950
:105AC00001CB5FFA8CF121F0200EAEF1410EBEF158
:105AD000190FDFB205D93039092902D9BCF15F0F9E
:105AE00006D106F803C00133172B1546E6D11F4631
:105AF00006F8078038B12B461D4613F9012B12B169
:105B00005D2A1D46F8D14FF0000A5FFA8AF39C42E5
:105B100040F280824AAB09FB0A30314613F0C9FCDF
:105B20000AF1010A0028F0D1B4E70028B2D101350A
:105B3000B0E70027DFF894A1FBB29C42A1D94FF057
:105B400018084AAB08FB073800255F4B1B78EAB200
:105B500093420AD9BC20414600FB02A013F0A9FCE5
:105B600001350028F1D10137E6E71F2B08D9584944
:105B700058480EF036F8414656480EF041F8F2E724
:105B80000022554B5549219222A8CDE9302220937D
:105B9000FFF7A4F804900028E5D005257AAE00238D
:105BA0004FF48072314622A8FFF771F8002803DC19
:105BB00022A804F0B2FED6E7013D15F0FF05EED1B4
:105BC00000234FF48072314622A8FFF760F80028C6
:105BD00040F3CD80404613F090FCC5B22A464146C2
:105BE000304613F0A6FC83460028E9D1735706938C
:105BF0002C2BE5D1344B1D784FF0BC0915FB09F374
:105C000009FB05A9172241460AEB0300059313F08F
:105C1000A2FC302314AA0121304689F817B0FEF700
:105C2000A3FA0C230DAA02213046FEF79DFA0423A5
:105C30000AAA03213046FEF797FA102310AA04217E
:105C40003046FEF791FA08230BAA05213046FEF7ED
:105C50008BFA602332AA06213046FEF785FA059BAF
:105C600003F118002F2214A9504413F074FC0DF115
:105C7000270189F847B010A88DF827B0FEF718FF64
:105C80009DF8273089F84D0089F84F3014490BA84A
:105C900013F00FFC059BB0FA80F0400989F84E0024
:105CA00003F1500000EB0A065F2232A9304613F0E0
:105CB00052FC069B89F8AFB0701E10F9016F8EB1CF
:105CC0007C2EFAD10370F8E76E0A0020B00F002096
:105CD0008BCC0100C4410020B4CA0100A0D801004F
:105CE00099CE0100B7490DA813F0E3FB002836D088
:105CF000B5490DA813F0DDFB88B3314610220DA87D
:105D000014F0EEFBBC2606FB05A6B0640AA812F050
:105D10003AFD86F84C00BC2303FB05A5FF2385F85C
:105D2000B0300023A94AC5F8B430002385F8B83054
:105D3000012385F8B9301378A549A64801331370BB
:105D40000DF04FFF4146A3480DF05AFF22A804F082
:105D5000E4FD049B002B7FF406AF9F4908E7BC23BA
:105D600003FB05A300229A6483F84C20D3E70023A9
:105D70000493EBE7DFF87092002432AE049A671CBC
:105D80001278FBB29A4225D916F803804FF0BC0A6C
:105D900008FB0A90FEF772FC64B2651C834635442A
:105DA0005346002CA5EB060210DB15F801AD059259
:105DB0000AFB03900393FEF761FC5845059A05D949
:105DC000013C85F801A064B2039BEAE706F8028073
:105DD0003C46D3E7814B06931A78002A37D1804B93
:105DE00093F800807F4B05934AAE00241C703470FA
:105DF00025460394049B1A78E3B29A4274D932AAD6
:105E0000BC2112F80390784B01FB093C9CF84D3003
:105E1000083B012B1ED9059B74481B780791002273
:105E2000E3465FFA82FA53451CD950F832100F4608
:105E3000DBF848108F424FEAC20E06D186449EF826
:105E400004109BF84CE0714509D00132E9E74FF0AE
:105E50003008C7E7FF238CF8B0300134CAE78CF86C
:105E6000B0A0FAE72F2B0AD8079A11465E4A01FB29
:105E70000922039992F84CC06144414520DD5A4BF8
:105E80004FF0BC0A0AFB0933FF2283F8B02093F8D5
:105E9000B930002BE1D1304613F02FFB524B544A5E
:105EA00009FB0A330093534BC0F14001002808BF9F
:105EB00013460135504A3044EDB213F08DFACCE769
:105EC0004A48976C40F8337082F8B03000EBC3005A
:105ED000059A80F804C001334FF0000C13708BB2A8
:105EE00080F805C00393B8E75DB16021CDE90056A5
:105EF0004346424A7AA813F06FFA7AA94048FFF75E
:105F0000EFFB069B1B78002B58D1364A3D49107891
:105F10001C460A46E5B2A84202F1080207D912F867
:105F2000085C02F8073C2B44DBB20134F2E7364A46
:105F30001370364A03EB4303802402331470D3708A
:105F40001024A82354701371F0240123947053710A
:105F5000002706251446FBB2834226D20B782A4638
:105F60004FF0000C5FFA8CF602F101089E425FFAD6
:105F700088F813D251F8046C0CEB060E4FEA1E465B
:105F8000A654961CF6B24FEA1E29033204F8089074
:105F9000D2B204F806E00CF1010CE3E703EB430393
:105FA0002B44DDB201370831D5E76E1CF6B231461D
:105FB0001648FEF7A7F8164B60551E700DF53B7D91
:105FC000BDE8F08FABCE0100A0CE01006E0A00202C
:105FD000ACCC0100C4410020C0CC0100700A0020FC
:105FE000000000206D0A0020B00F0020740800207F
:105FF00049CC010089CC0100EBCC0100F0CC0100C0
:1060000007CD0100780800206C0A0020D50600208A
:10601000D8070020012F7FF63DAD04EB44074AABC3
:1060200003EBC707172231463846013413F093FAC1
:10603000E4B287F817802DE508B505460C46FFF752
:106040004FFB134913480DF0CCFD294611480DF0C4
:10605000C8FD94F90030B3B120210E480DF0C5FD04
:1060600021460C480DF0CCFD01210D200DF07EFEE7
:10607000FA200DF0FBFE00210D200DF077FEFA2036
:106080000DF0F4FEF0E703480DF0B4FDECE700BFBF
:1060900071D90100C441002037B5054668460C4659
:1060A000FFF704FB9DF800009DF801309DF80220E9
:1060B00014307F281ED80C2B1CD81F2A1AD842EA6D
:1060C000431343EA40239BB29DF803002B8017281B
:1060D0009DF804209DF805100ED83B2A0CD83B29CA
:1060E0000AD8530143EAC02343EA51039BB22380F9
:1060F00003B030BD0023E7E70023F8E770B5B2B086
:10610000002332AC0993CDE918330E463A4B44F8DC
:10611000A83D014640F201620AA8FEF7DFFD0546F0
:10612000002866D006A8FFF7C1FA344920460DF0D2
:1061300058FD334920460DF054FD324920460DF0FC
:1061400050FD314B31492046002E08BF19460DF055
:1061500048FD2F4920460DF044FD2E4B2E49204688
:10616000002E08BF19460DF03CFD9DF81D3005932B
:106170009DF81C3004939DF81B3003939DF81A3052
:1061800002939DF8193001939DF81830234A03F5C6
:10619000FA6300936021224B1AA813F01DF91AA983
:1061A00020460DF01EFD1F4920460DF01AFD692105
:1061B0002046FEF7A5FD1C4920460DF012FD1B49A7
:1061C00020460DF00EFD70212046FEF799FD18497E
:1061D00020460DF006FD73212046FEF791FD15497E
:1061E00020460DF0FEFC0AA8FEF752FE0AA804F0B5
:1061F00094FB284632B070BDB4CA01005BD30100E5
:1062000088D30100B1D30100FFD10100CED101003C
:10621000FAD30100DBD2010028D201003FD40100F3
:10622000F40A002080D40100C5D701000DD8010078
:1062300038D801005AD801007047FFFF38B508462A
:106240001546084908221C4612F041FB1022064957
:10625000284612F03CFB204604220449BDE83840A1
:1062600012F035BB33DF01003CDF01004DDF0100E0
:10627000054B187838B1054B186820B1044B1868E5
:10628000003018BF01207047640A0020600A002017
:10629000680A0020034B1B680B604FF400731380E7
:1062A000704700BF680A0020012070471A460B4B58
:1062B0001B7810B5029C13B94FF0FF3010BD084B8E
:1062C00018680028F8D0630AF6D004F0A0FE002871
:1062D000F2D024F4FF7020F00100EFE7640A002000
:1062E000600A00201A460B4B1B7810B5029C13B9AC
:1062F0004FF0FF3010BD084B18680028F8D0630A33
:10630000F6D004F0C7FE0028F2D024F4FF7020F08D
:106310000100EFE7640A0020600A00204FF0FF3020
:10632000704770B58CB000248DF80C1004928DF875
:106330000D40059403AB054693E8070009AB83E8DD
:10634000070006AE86E8070005F28C460ECB304605
:1063500004F022FD95F89F34C5F888648BB900934A
:1063600001231A463146284604F054FB38B9009000
:1063700003460122D5F88814284604F04BFB0CB0E4
:1063800070BD2046FBE7FFFF0B4810B50024C0F8A6
:106390008044C0F88444C0F8884400F28C40FEF782
:1063A00011FC064B064A5C60C3E9104405481A60BC
:1063B000FEF708FC10BD00BF080B0020FC09002000
:1063C000B4CA01009C06002038B504460DF092FDC9
:1063D000054608480CF003FE38B90DF08BFD401B54
:1063E000A042F6D34FF0FF3038BD0248BDE8384038
:1063F0000CF056BE2434002038B505460024AC42CB
:1064000004D03220FFF7E0FF0134F8E738BDFFFF8A
:106410002DE9F04F9A499B48ADF5517DFEF7E8FB19
:1064200018B197499748FEF704FC0023964F94490A
:10643000559340F2016256A8649365935497FEF712
:106440004DFC0A9040B991499148FFF749F90A98E3
:106450000DF5517DBDE8F08F8E4B1E78002E40F07B
:10646000A080DFF86CA2B046B1468B4B18F8030051
:1064700090AD4FF4845300EB400B2B805FFA8BFB05
:10648000F023AB700BF10203EB70A823AB80002468
:106490000622511CA042C9B20BD0931CDBB205F8F6
:1064A000029005F801900332EC540134D2B2E4B208
:1064B000EFE70BF1070B5FFA8BFB59462846099271
:1064C000FDF720FE099A2946A8545A4650460CF07A
:1064D0005BFE50460CF047FD5846FFF78DFF4FF42A
:1064E0009670FFF771FF0028C0F24A8304F1060B93
:1064F0005FFA8BFB8DF8E00100235A1CD1B259459D
:106500000B93099280F03783C820FFF75DFF0028C6
:10651000C0F236830B9B78AA1344099A587013462D
:10652000EBE79DF8E131F02B40F02A839DF8E23152
:10653000102B40F02583631C9DF8E321DBB29A42C7
:1065400040F01E839DF8E431E82B40F01983594652
:1065500078A8FDF7D7FD78AB9B441BF8013C83423C
:1065600040F00E831E2008F101080DF07FFCB8F109
:10657000080F26467FF479AF002C7CD0022C84BF14
:10658000023CE4B2302C28BF3024E3B2434A282135
:1065900013702846424A12F01FFF29464148FFF770
:1065A0009FF8414954A80DF01CFB404B404A402144
:1065B00044A812F011FF44A954A80DF012FB3D4B62
:1065C0003D4A402144A812F007FF44A954A80DF009
:1065D00008FB324B394A1B78402144A812F0FCFEDC
:1065E00044A954A80DF0FDFA354954A80DF0F9FA64
:1065F0000025304B334A382136A812F0EDFE2A46EA
:1066000036A968A86795769577956697FEF766FB35
:106610000990002800F0A8821822294612A812F03A
:106620007AF9302229461EA812F075F9602229460F
:1066300078A812F070F9AB462E46A9460127AA4663
:106640002C4600234FF4807290A968A8FEF71FFB28
:10665000002840F38682002C3CD11B4990A812F000
:106660008FFF0028EDD0194990A812F089FF041C73
:1066700018BF0124E5E7202388E70924E1E700BFEC
:10668000A0D80100080B0020B4CA0100CACA01004A
:10669000E7CA0100700A00207ED901000000002036
:1066A000F8CA010009CB010015CB0100F40A002053
:1066B00022CB0100D90700202ACB010033CB0100F7
:1066C00040CB010077CB010082CB01008CCB0100D5
:1066D00024340020A34990A812F052FF80460028DD
:1066E00040F03F82012C40F0F0809F4990A812F0CA
:1066F00047FF002831D19D4990A812F041FF0028A2
:1067000040F098809A4990A812F03AFF002898D05B
:10671000984990A812F034FF002892D018232AAA92
:10672000944990A8FDF784FF00288AD017222AA94F
:1067300012A812F010FF002530231EAA8E498DF8F2
:106740005F5090A88DF878500127FDF771FFAB4698
:106750002E46A946AA46072473E7864990A812F058
:106760000FFF0028C7D0182318AA824990A8FDF768
:106770005FFF00283FF465AF302241462AA812F09F
:10678000CAF830232AAA7C49CDF8448090A8CDE9E4
:106790000F88CDE90C88CDF83880FDF749FF0C2330
:1067A0000FAA764990A8FDF743FF04230CAA744969
:1067B00090A8FDF73DFF734B1B7823B310220021F7
:1067C0000FA813F08DFE9DF9A8106F4A0B900DF1E4
:1067D000A8080CA8002908BF904611F0D4FF6B4A06
:1067E0000B9BCDE905226A4A049200210722CDE9DC
:1067F0000121C0B201220390009218A9424654A878
:10680000FDF74CFF1DE708230DAA624990A8FDF78C
:106810000FFF0028D2D00DA811F0B5FF80460CA8BC
:1068200011F0B1FFC1B25FFA88F0FEF75BFB002800
:10683000C4D106E74F4990A812F0A2FE00283FF409
:1068400061AF18232AAA4B4990A8FDF7F1FE002852
:106850003FF4F7AE4B4B1B78C3B117222AA912A8FD
:1068600012F079FE002530231EAA43498DF85F50AF
:1068700090A88DF878500127FDF7DAFEAB468DF829
:10688000E0512E46A946AA460424DAE608230FAAB8
:10689000404990A8FDF7CCFE0028DED0082318AAB6
:1068A0003D4990A8FDF7C4FE0028D6D00FA811F0EE
:1068B0006AFF044618A811F066FFC1B2E0B2FEF705
:1068C00011FB0028C9D10224BBE6022C07D13349B1
:1068D00090A812F055FE002818BF0124B1E6032C41
:1068E00001D12F49F4E7042C62D12E4990A812F06F
:1068F00047FE28B18DF8E081DDF824B00624A0E63B
:10690000294990A812F03CFE0028E0D0082318AADC
:10691000264990A8FDF78CFE0546F8B118A811F09D
:1069200032FFC7B2082318AA154990A8FDF780FEC8
:106930000646A8B118A811F026FF5FFA80F92AA927
:1069400090A8FEF727F9102200212AA813F0C8FD0D
:10695000002E824618BF0127052472E60127E1E7D1
:106960008146ECE795CB0100A1CB0100AACB010049
:10697000B6CB010085CC0100C1CB0100C7CB010023
:10698000DECB0100700A00202CD9010049CC0100A7
:1069900093CE0100CDCB0100DBCB0100E3CB0100A6
:1069A000F0CB0100FCCB010005CC01000ECC0100B6
:1069B000062C2BD1744990A812F0E2FDF0B11823F7
:1069C0002AAA724990A8FDF733FE00283FF439AE99
:1069D0009DF9E03143B178A812F08FFD6C49C0F108
:1069E0005F0278A812F091FD78A812F086FD2AA91E
:1069F000C0F15F0278A812F088FD22E6654990A8F0
:106A000012F0BEFD002818BF05241AE6052C16D189
:106A1000614990A812F0B4FD00283FF458AF78AB5C
:106A2000CDE905B3CDE90365CDE90179CDF800A045
:106A30001EAB12AA90A954A8FDF71EFF01E6072C71
:106A400045D1564990A812F09BFD30B9544990A801
:106A500012F096FD00283FF444AF524990A812F07E
:106A60008FFD00283FF409AE90F90320222A02D0BE
:106A7000272A7FF402AE043040F2214E90F9003014
:106A8000002B3FF4FAAD9A423FF4F7AD0023C45611
:106A900024B1454913F901C0A4450AD0034618465C
:106AA00013F9014B002CE9D02C2C6BD0A242F6D16B
:106AB000E4E701330A2BEAD1837A223BDBB20A2BCB
:106AC000ECD82EFA03F3DB07E8D50824B9E5082C47
:106AD0002ED1364990A812F053FD58B3234618AA78
:106AE000334990A8FDF7A4FD0546E8B118A811F0B8
:106AF0004AFEC7B2082318AA2E4990A8FDF798FDB0
:106B0000064698B118A811F03EFE01275FFA80F9F9
:106B10002AA990A8FEF73EF8102200212AA813F017
:106B2000DFFC0A2482468CE50127E3E78146EFE794
:106B3000092C07D1204990A812F022FD002818BF87
:106B400007247EE50A2C7FF47CAD134990A812F04F
:106B500017FD00283FF4C5AE184B0693002305939C
:106B600060E768A803F0D9FE56A8FEF791F956A889
:106B700003F0D3FE6BE49DF8E031802B3FF4D1AC01
:106B80003446F9E4184679E716CC01001CCC010024
:106B9000C5DC010027CC010032CC01003ECC010055
:106BA00044CC010085CC0100F40A002005CC010092
:106BB0000ECC0100DECB01004ACC010049CC010023
:106BC0002DE9F04FFFB0834B834A302110A812F01B
:106BD00003FC10A98148FEF783FD814981480DF02F
:106BE00000F87C497F480DF00BF87A497E48FEF7A3
:106BF00095FCFEF735FB032819D0A0B1012814D16C
:106C00004021744B794A3EA812F0E6FB3EA9784831
:106C1000FEF766FD774B00221A70FFF7F9FB50B9BB
:106C200075497648D3E07649F1E77649EFE776494A
:106C30007648FEF755FD0022754D76492D922EA817
:106C4000CDE93C222C95FEF749F8044668B10526AB
:106C500000234FF480723EA92EA8FEF718F80028F2
:106C600059DC2EA803F059FE0024624A84F0010387
:106C70001370002C40F09380564B674A40211CA8AB
:106C800012F0AAFB1CA96548FEF72AFD6449554885
:106C90000CF0B6FF63496448FDF7AAFF002873D0E3
:106CA000224660492D942EA8CDE93C442C95FEF750
:106CB00015F8002868D05D4F2926013E16F0FF0622
:106CC00049D000234FF480723EA92EA8FDF7DFFFC4
:106CD000002840DD39463EA812F052FC0028ECD0D6
:106CE0003A2112F0D9FBB0B301300146013091F9DD
:106CF0000030202BF9D000230AA8CA5632F0200613
:106D0000DCB220D00D2A1ED00A2A1CD00F2B19D09D
:106D1000C2540133F1E7013E16F0FF0698D100237B
:106D20004FF480723EA92EA8FDF7B1FF002807DDC1
:106D30009DF9F830452BF2D12EA803F0EEFD94E733
:106D40000024F9E71C4600232249035512F0B1FB49
:106D5000B0FA80F464092EA803F0DFFDA4B1344931
:106D60003448FEF7BDFC2F48FEF778F9FEF71AFD10
:106D700000287BD130491E48FEF7B2FCFFF748FBE4
:106D8000002871D12D494CE701212648FFF7B6F9BB
:106D90002B492C4B002818BF19462B48E1E72B4CF8
:106DA000217871B92A48FFF7A9F92A4B2A49002806
:106DB00018BF19462448FEF793FC0123237024488A
:106DC000D2E7264B1B78002BD0D125492548FFF769
:106DD00033F900BFF40A00206FCF010079CF010022
:106DE00083CF0100C44100208ACF01009DCF010064
:106DF000B9CF010094060020CACA0100E7CA010009
:106E0000EECE010002CF0100C5CF0100DBCF0100B3
:106E1000B4CA0100A0D80100E5CF010014D00100E0
:106E200025D001005ED00100080B002075D00100C4
:106E30007CD00100A0D00100FCD0010049CC0100B1
:106E40002CCF010015CF0100ADD00100F5090020C5
:106E5000B9D0010042CF01005DCF01006E0A0020D1
:106E6000CCD00100F2D00100FEF79CFC00242246A9
:106E700091492D942EA8CDE93C442C95FDF72EFF89
:106E8000002800F0BD80214618221CA811F043FD07
:106E9000052400234FF480723EA92EA8013CFDF783
:106EA000F6FE14F0FF04F4D1844F264600234FF47D
:106EB00080723EA92EA8FDF7EAFE002827DD1823E0
:106EC0000AAA00213EA8FDF74FF90028EED09DF94F
:106ED0002830502BEAD11CA90AA812F0EAFA00289F
:106EE000E4D017220AA91CA812F035FB04211023B4
:106EF00006AA3EA88DF88760FDF736F9394606A840
:106F000012F0D7FA0028D1D00134A4B2CEE72EA8CF
:106F100003F003FD23466A4A6A4C6B4E18213EA8D3
:106F200012F05AFA3EA96948FEF7DAFB3EA8FEF7CE
:106F3000BDFB9DF8FD20238805929DF8FC2004925E
:106F40009DF8FB2003929DF8FA2002929DF8F9200B
:106F500001929DF8F8205E4802F5FA6200921C2129
:106F60005C4A12F039FA5C4A594B28213EA812F0CB
:106F700033FA40F201623EA906F10800FDF7AEFEC9
:106F8000002800F08F80306C00283BD04FF0487113
:106F900002F0F9FD18B951495148FEF7A1FB514BD8
:106FA000DFF888A1DFF88881DFF888B100261E802D
:106FB0004D4B1E700CF09EFF4C4B18604C48FEF77A
:106FC00019FB9AF80030F0B2834224D9BC2747431A
:106FD00008EB070999F8B93083B95846FEF70AFB60
:106FE00007F118004044FEF705FB4248FEF702FB9C
:106FF0004846FEF7FFFA4048FEF7FCFA0136E0E7A4
:10700000044687E7706C0028C5D04FF04872002313
:1070100001F074FDBEE73948FEF7ECFA238801332E
:107020009BB242F20F72934243D8238040F2016236
:10703000002333493F9340A84E934F933E95FDF76D
:107040004DFE78B123882F4A08212CA812F0C4F9EC
:107050002CA93EA80CF0C5FD40A8FDF719FF40A8DB
:1070600003F05BFC284929480CF0BBFD1849274870
:107070000CF0C6FDFEF7E2FC254B1B785BB9254CF6
:107080002549227825480CF07FF824480BF06BFF47
:107090002078FFF7B1F9224B01221A70214B02220E
:1070A0001A7003E00A492048FEF71AFB7FB0BDE8DA
:1070B000F08F0123B9E700BFA0D801007DCE010009
:1070C00014D1010030270020FC09002020D101004C
:1070D000440A00202ED1010077CB010051D10100DC
:1070E00086D1010034290020AC0F0020F8090020CF
:1070F00094D101009BD101009ED0010059D3010021
:10710000ADD10100C1D10100C7D10100C4410020AF
:10711000700A0020D8070020D50600202434002063
:10712000F40900206F0A00209ED101006E0A0020A1
:10713000B00F002089CC0100F0B5384B1B78012B33
:10714000A1B017D0364B04AE186804909B88354820
:10715000B380062231460CF01FFD32480BF003FFCE
:107160000620FFF749F900244FF49670FFF72CF939
:10717000002801DA00204FE030550134042CF3D10F
:107180009DF81030802BF5D19DF81130F02BF1D106
:107190009DF81230102BEDD19DF81340082CE9D941
:1071A000671C6C2FE6D800256420FFF70DF9002836
:1071B000E0DB731901351871ABB29F42F4D8651D3D
:1071C000EDB229463046FCF79DFF20AB1D4415F873
:1071D000713C8342CED19DF81C2003929DF81B2068
:1071E00002929DF81A200192013C9DF819209DF809
:1071F00018300092E4B20C4A0C480B2112F0ECF863
:10720000702C28BF702422460DF11501084811F09A
:107210005EFB084B01201C7021B0F0BD700A0020FD
:10722000C4CA0100243400204CCE0100F40A00201E
:10723000020800200108002010B5054C04480BF09E
:10724000CEFE18B120460BF02BFFF7E710BD00BFB4
:10725000243400202DE9F04FB74B2DED028B1C7824
:10726000ADF50B7D44B132200CF000FE0DF50B7D29
:10727000BDEC028BBDE8F08FB04D2B782F46EBB9FB
:10728000AF4C236813B90CF035FE2060FFF754FFB4
:10729000054620B100232360FFF792FCE6E70CF0DF
:1072A00029FE2368C01AA74B9842DFD90123A649BB
:1072B000A64825603B700CF0A3FCD7E7012B42D118
:1072C000A349A44E0A68A44822F004020A6001F50A
:1072D000CC21EC31A14A0C704FF4F04704701470CB
:1072E00034707470B470B47126F8097C402606704E
:1072F000072010709A4A0B70D2F8A031994843F0D9
:107300008073C2F8A031984B4AF20352A3F8FE23CF
:107310009A8942F400429A81027B64F3000202736C
:1073200093F8402064F3C71283F8402030BF4FF435
:107330002542A3F8FE2310230B70FFF7FDFE002863
:1073400094D02C70A8E7022B90D18022214608A867
:1073500011F0E1FA854B04931A78012A00F040817C
:10736000834D41F288302C78FFF72EF80028A8468C
:10737000C0F236818AAE063406F8C80DE4B20125A3
:10738000EBB29C4208D9C820FFF71EF80028C0F2D3
:107390002781A8550135F3E79DF86031802B40F037
:1073A0001F819DF86131F02B40F01A819DF8623108
:1073B000102B40F0158198F800509DF863216B1C4C
:1073C000DBB29A4240F00C819DF86431E82B40F02A
:1073D0000781214658A8FCF795FE8AAB1C4414F897
:1073E000C93C834240F0FC802A460DF2651128A872
:1073F00011F06DFADFF87C81DFF8809100265D4B9B
:107400001B78F5B2AB4240F2BD80BC246C4309EB63
:10741000040292F84D30092B08D108AB03EB850527
:1074200000232B60C2F8B4300136E8E7082B03D004
:1074300092F8B010FF2905D108AB03EB85050023B6
:107440002B60F1E7DFF838A192F84EC0CDF814A018
:107450004FEAC10B0AEB0B01503491F805E092F8AA
:107460004C10029192F84F200392029A06A9002034
:10747000042A4C44086028BF0422BCF1000F0FD13D
:107480000DF1A00A6046D6448C465FFA80FA924518
:1074900080F0E8811EF800A000F80CA00130F4E7AD
:1074A0000DF1A00CE6445FFA80FC944580F0288240
:1074B000A2EB000C0DF1180AD4441EF800A00CF841
:1074C00001AC0130EFE7029810B99FED2B0ADFE124
:1074D0000968C2F1040209BAD200072B21FA02F2AC
:1074E0000AD1039B1F2BF0D8DA4002F0010207EE0D
:1074F000902AB8EEE70ACBE1042B09D0052BF6D091
:10750000032B07D153B200EE103AB8EEC00ABFE128
:1075100013B2F8E707EE902AB8EE670AB8E10A4618
:1075200028A91C440844815C04F8011D0132D1B231
:107530008B42F8D8D9E100BF640A00206F0A00200E
:1075400098060020BFD4010086D90100C441002064
:107550001CE0014009410840184108401941084019
:10756000006000400054004000E00140700A00202C
:107570006C0A00206E0A002000000000B00F0020FE
:10758000740800209B4B1A78002A69D000240DF162
:10759000A0091822214648461C7011F0BCF9DFF8FA
:1075A00070A2254626464FF0BC0B98F80000E1B2C9
:1075B00088422BD90BFB01A191F8B93073B991F82E
:1075C0004D300135092BEDB208D199F90030013663
:1075D000F6B21BB91722484611F0BDFF0134E4E7AB
:1075E00085498648FEF77CF8854986480CF008FBFB
:1075F000FEF728F8FEF740F8049B1B780BB9FFF75D
:107600001BFE814A00233B7013602FE67F4B1B78E3
:10761000002B64D000237E4D1C461946BC26DAB2EE
:10762000824211D206FB03F202EB050C9CF8B9C0B2
:10763000BCF1000F06D15257502A0BBF0131621C1A
:10764000C9B2D4B20133EAE7CDE90014714B724AF2
:10765000482158A811F0C0FE704858A9FEF740F81C
:107660006B4EDFF8F891002598F80030ECB2A34299
:107670004BD9BC20604306EB000A9AF84D30082B2A
:107680002BD15030002328A930448DF8A030FDF7CD
:107690005BFC8AAB03EB8403A3F5027383ED000A62
:1076A0009DF8A030B0EE408A93B19AF8B8307BB91B
:1076B00001238AF8B8300CF01DFC5021009053468D
:1076C0004A4658A811F088FE58A95548FEF708F810
:1076D000BC2303FB046484ED2D8A0135C4E756B155
:1076E0004821CDF800904B4B4E4A58A811F074FE3B
:1076F00058A94D48B2E748210095464B4B4A58A837
:1077000011F06AFE58A94A48A8E70CF0F3FB494A71
:107710003F4D494EDFF848910346142158A811F017
:107720005BFE58A8FDF766FF002498F800305FFA6A
:1077300084FB5B452ED94FF0BC0A0AFB0B5A9AF822
:10774000B930ABB93046FDF755FF9AF84D300A2BEA
:1077500010D13A4A9AF84C3052F82B2000925B0034
:10776000374A142158A811F037FE58A8FDF742FFF8
:107770000134DAE78AAB03EB8B03A3F502731868D5
:1077800010F052F94A46CDE90001142158A811F031
:1077900023FEEAE72B482C4CFDF72CFF0CF0AAFB4C
:1077A0002368C01AB0F57A7F07D3FDF74BFF27484F
:1077B000FDF76EFB0CF09EFB2060254B1A78002A2B
:1077C0003FF454AD1349234800241C70FDF788FF93
:1077D00021490C480CF014FAFDF734FFFDF74CFF7B
:1077E000049B1B780BB9FFF727FD074B3C701C600F
:1077F0003CE500BFF4090020B4D90100D4D9010050
:10780000E4D90100C441002098060020940600201D
:10781000B00F0020440A00200BDA010033DA010027
:10782000C9DA01004ADA01005FDA01007EDA0100FC
:1078300090DA0100D2DA010089CC0100740A00203C
:10784000D6DA010059D30100F8090020040A00200B
:10785000AC0F0020E3DA0100F1DA0100A0DA010048
:10786000DEDA0100062B7FF42EAECB788DF8603186
:107870008B788DF861314B788DF862310B788DF80B
:107880006331042258A907A811F021F89DED070AD9
:107890002046FDF737FBBC2202FB059208AB03EB49
:1078A000850383ED000A92F84D3082ED2D0A0A2BF4
:1078B0007FF4BAAD92F84C30F3B1059992F84E20AE
:1078C00059448AAC4879042B4FF0000128BF0423A7
:1078D00044F8C81D002A7FF422AE28A90844815C20
:1078E000A1540132D1B29942F9D3589AC3F1040399
:1078F00012BADB0022FA03F3044A42F8253093E57A
:10790000062B7FF4E0AD042206A9BCE7740A002030
:107910002DE9F0410121C8B00D200CF00FFA002133
:107920000D200CF023FA4FF4E131B4480FF007FBBF
:1079300040F213424FF49651B1480BF0B1FC0121D3
:1079400002200CF0FBF9012102200CF00FFA0CF0E0
:10795000D1FA40F2DB5504460DF0AAFE40B90CF016
:10796000C9FA001BA84203D80A200CF07FFAF3E7FB
:107970000DF09EFE054628B34FF48573A14AADF87D
:10798000D8300023CDE937239F4C36AB0ECB2046B1
:1079900003F002FA9D4B20461C6003F0D2FA9C4B88
:1079A000186050B99B4995480CF02AF901210D2027
:1079B0000CF0DCF948B0BDE8F081974B9749012203
:1079C0001A70F0E7964C8F4A0A212046FEF7A9FC70
:1079D00090B9944989480CF013F901210D200CF05D
:1079E000C5F9C8200CF042FA00210D200CF0BEF9B8
:1079F000C8200CF03BFAF0E7D4F88014002900F01E
:107A0000BF800123884AADF8D85001F2444136A81E
:107A10008DF8DA5002F065F884497848844E0CF00D
:107A2000EFF8FDF703FD8348FDF746FDFDF7AEFDDA
:107A3000002340F209228049379338A846934793A0
:107A40003696FDF74BF948B17C4936A80CF0C9F8D9
:107A500038A8FDF71DFA38A802F05FFF00273A4664
:107A60007749139714A8CDE922771296FDF736F9D6
:107A70000446002800F097803B46082236A914A847
:107A8000CDE93677FDF703F914A802F046FF36A8D2
:107A900010F079FE42F20E72431E934288BF01201D
:107AA000684B188068496948694C03F0B3FF694B1B
:107AB000694A2070002814BF10461846FDF7FCFCE8
:107AC0002378002B50D000273A466449379738A8CE
:107AD000469747973696FDF701F98046002800F053
:107AE000E5801822394624A810F015FF4698002892
:107AF00000F0D280172224A901F0E0FC064638A845
:107B000002F00BFF002E24DD0AAB039308AE09AB95
:107B100007AF02930196009706AB05AA504924A827
:107B200011F08EFC062814D19DF828003B780290B5
:107B30009DF82400019030789DF81820BDF81410AD
:107B4000009012A804F042F812A9404803F082FF06
:107B5000454642493248FDF76CF8002D00F0A680FA
:107B600040494148FDF7BCFD404803F053FBFDF799
:107B700011FA002840F0AB803D493E48FEF75CFA20
:107B8000D4F8841400293FF447AF0123264A8DF826
:107B9000095101F5896136A88DF80A518DF80B510C
:107BA00000F04BFF38E72590CDE934003790469040
:107BB000479002461C49249626A83696FDF78EF873
:107BC000002865D0002226A938A802F0F2FE00287D
:107BD00052D020220AA938A8FDF76CF838A802F084
:107BE0009CFE9DF82830303B092BEBD80AA810F0FA
:107BF000CAFD80B2844238BF0446E3E7C441002096
:107C00002434002040787D019C060020600A00207A
:107C1000680A002059DB0100640A00208BDB0100A8
:107C2000080B0020CBDB010051CC0100E0DB0100A0
:107C3000B4CA0100EDDB010042CD010059D30100BF
:107C4000ADD1010030270020182A0020000B0020B1
:107C5000040B00202CDB01001EDB010016DC010000
:107C60002ADC01003CDC01004DDC010099600000D1
:107C700087DC0100A8DC010026A802F04EFE42F2DB
:107C80000E739C4206D80134A4B2524B1C8009E703
:107C90000446F8E70124F8E7479820B1172224A901
:107CA00000F064F92AE74FF0FF3628E74A4803F06E
:107CB000C8FE00287FF458AF484A494924A803F079
:107CC00099FF24A9444803F0C5FE464949E74649BF
:107CD0004648474E474DFDF721FC47494748FCF7CA
:107CE00087FF474B187090B14348FDF7B7F918B9B3
:107CF00044494548FDF7F4FC3378012B65D14349ED
:107D0000434805F021F838B94249434836E7307016
:107D1000287042494248EDE742494348FDF7E0FCFC
:107D2000424943480BF06CFF2B78424A302124A88B
:107D300011F052FB24A94048FDF7D2FC2A493F48E4
:107D4000FDF7CEFC23781BB93D493E48FDF7C8FC42
:107D50003D4937480BF045FF0A22297834480BF09B
:107D600084FF3A4932480BF04BFF394930480BF059
:107D700038FF1D492E480BF043FF3078354B364A0B
:107D80002178002818BF1A462B78CDE90023334A02
:107D9000334B36A8002908BF1346324A402111F060
:107DA0001BFB36A93048FDF79BFC304920480BF0FF
:107DB00018FF36A91E480BF023FF01210D200BF000
:107DC000D5FF2B4B00221A70F4E5002BACD02949CB
:107DD0002948D3E630270020000B002055DC0100A5
:107DE0005EDC01006ADC0100D9070020B5DC01007F
:107DF000700A00206E0A0020B9D00100080B002094
:107E0000F5090020C7DC0100EDDC010020A107001E
:107E1000942E002041DD01007BDD0100FBDC010030
:107E200031DD010089DD0100C5DD0100CEDD01008D
:107E3000C441002042DE010055DE010060DE010089
:107E400068DE010099DE0100A2DE0100B6DE01005D
:107E5000BEDE010050DB010046DB01009DDE0100BB
:107E600029DB0100CCDE0100E9DE0100F7DE0100C4
:107E70006F0A00200DDE01002EDE0100F0B500F1DA
:107E8000240305460F46164693E8070085B001AC6B
:107E900084E807007A012146286A01F076F9012872
:107EA00006D132462146286A01F020F905B0F0BD1E
:107EB0000020FBE710B5044600F022FD002384F803
:107EC000313084F8333010BD38B50D4690F831109C
:107ED000044651B9382210F01EFD4023012084F8D9
:107EE0003130256284F8330038BD0020FCE7FFFF05
:107EF000F0B491F90040202C01F1010522D01A4F75
:107F0000116091600D460E4615F9014B1CB32F2CE4
:107F10001AD01F2C24DDE6B2A6F12201C9B21D2918
:107F200003D827FA01F1C9071AD424F040013C29EB
:107F300016D05C2C14D02E2E02D0202E00D09560AE
:107F40002946DFE72946D4E70E4611F9014B202CDC
:107F5000FAD02F2CF8D01E601146F0BC00F0F8BF0C
:107F60000020F0BC704700BF010100312DE9F74F40
:107F700090F83330DF0704460E46154664D55806A0
:107F800003D494F8313019070CD5D4E90023D4E98F
:107F9000040112EB050843F10009494508BF4045BB
:107FA00038BF851A04F11803A8460093B8F1000FF2
:107FB00000F09580206AD4E90023D0F83874174087
:107FC000C7F3080B4FB913432BD194F831305A063D
:107FD0004CBFD0F83434E369A361D4F820A0780A08
:107FE000A7699AF845C4DAF82C14023F07FA0CF78F
:107FF00007440F44BBF1000F2FD1B8F5007F2CD3FD
:10800000DAF818128F4228D0B8F5806F45D2324680
:108010003946DAF8140203F024F8A8B14FF40079D5
:108020002FE094F83330A1695B0602D50131A161DC
:10803000D3E7009A01F074F8002805DBCDD194F85D
:10804000313013F0500F4AD194F8323043F002032C
:1080500084F832304FF0FF3043E0CBF50079C14572
:108060004FF0000239460AF5047028BFC14603F0FC
:10807000A4F80028E8D000EB0B014A46304610F087
:1080800026FCD4E9002312EB090043F100014E4421
:10809000C4E90001A8EB090888E7012202FA0CF202
:1080A000131A4FEA582E734528BF73468F424FEA82
:1080B000432908D932463946DAF8140202F0A7FFFC
:1080C0000028DED1C0E7FA189142F3D20AF5047015
:1080D000019303F04DF8019B0028EBD1B4E7A5EB29
:1080E000080003B0BDE8F08F2DE9F04F1F4685B0C2
:1080F00081460E46924601F1FF3801244FF0FF33CE
:1081000004F1FF3B2546544520DA01220DF10F0111
:108110004846FFF72BFF0128034617D19DF90F10A2
:108120000D29F0D008F8011F3FB90A290CD100230E
:108130007355284605B0BDE8F08F0190384611F020
:10814000ABF9019B0028F2D10134D9E7002B01DB08
:108150005D46ECE74FF0FF35EBE72DE9F74F90F880
:1081600031C08569044616461F46BCF1000F69D030
:10817000D0E90001994208BF904206D056EA0703B1
:1081800005D10023A361C4E9006701205CE01CF075
:10819000080F05D0D4E90423BB4208BFB24251D333
:1081A000D4F8209016F1FF3247F1FF3399F845E4F7
:1081B000CDE90023009B0EF1090E5FFA8EFE23FA33
:1081C0000EF2019BCEF1200AAEF1200803FA0AFA62
:1081D00023FA08F894F8333042EA0A0213F0400F09
:1081E00042EA0808CEF1200BAEF1200A02D0E36982
:1081F0004344C7E710F1FF3241F1FF3322FA0EFE8C
:1082000003FA0BFB4EEA0B0E23FA0AFA4EEA0A0EA9
:10821000F04502D350EA010319D11CF0400F14BFFE
:10822000D9F83434E369A36104F11809B8F1000FF7
:10823000A9D04A46A169206A00F072FF002808F11F
:10824000FF38F3DCA561002003B0BDE8F08FA8EB98
:108250000E08E9E72DE9F04F994690F831308DB0DE
:1082600004460E461546002B45D191F8313013F0E7
:10827000500F40D009F00303012B05D0022B41D051
:10828000002B38D1012300E0022309F0080A4AEA52
:10829000030A002D38D0EF680F230E370022B7FBFA
:1082A000F3F7304602370023FFB2FFF756FF4FF0D7
:1082B0000008C346202204A93046FFF757FE0028D5
:1082C00000F0C580202816D19DF81020100620D47B
:1082D000BBF1000F05D13168A1F120030193B3690F
:1082E0000093BB453CBF0BF101035FFA83FB6AB906
:1082F000002D40F0AC804FF0000884F8318084F805
:1083000033806EE00323C0E70327D0E700208046D8
:10831000D0E7B8F1000F27D1BB4538BF4FF0000BB5
:10832000852AF3D138224146204610F0F4FA9DF810
:1083300014109DF8112084F8302001F03702C9068E
:1083400058BF42F0080284F83120326A2262B269D2
:1083500062623268203AA26296F83320C2F3801239
:1083600084F82C200120D2E7C02A4FD1DDE9060194
:108370009DF8112084F833A09307C4E90401DDE9D6
:108380000A0144BF4AF0400284F83320099AE261AE
:10839000C4E902014DBB19F4006FACD119F4884F48
:1083A00003D194F83330990704D594F8313013F0A1
:1083B000110FA0D119F4806F39D094F833309A0797
:1083C00099D5002200232046FFF7C7FE002892D04F
:1083D000204600F0D7FB00288DD094F833309B075F
:1083E0002ED440460DB0BDE8F08F2A686A60E96877
:1083F0009DF81320914289D1288ABDF81420A0EB62
:10840000020CDCF1000040EB0C0080E7C12A7FF495
:108410007DAF2A4604A9204600F03EFD00283FF427
:1084200076AFD5E9012191427FF471AFB3E719F43A
:10843000804FD2D0D4E904232046FFF78EFECAE74E
:1084400094F8313043F0200384F83130C9E719F44F
:10845000007F3FF450AF1AF0020F3FF44CAF002DF5
:108460003FF449AFBB4521D2202204A93046FFF793
:108470007DFD50B93046D6F8188000F060FA00282B
:108480003FF439AFC6F81880ECE720287FF433AF0B
:10849000BBF1000F05D13268A2F120030193B3694B
:1084A00000930BF101035FFA83FBDBE73822002125
:1084B000204696F8338010F02EFA336A2362282380
:1084C00084F83130009B6362C8F38018019BA3627B
:1084D00084F82C802B686B6007F1FF384FF000099F
:1084E0005FFA88F85FFA89FBBB4556D201225946EC
:1084F0002046FFF7C3FC064600283FF4FCAE90F987
:108500000020002AFFF6F7AE2022002110F003FA27
:10851000BBF1000F20D185233370224B84F83080CB
:1085200086F801801B688BB10DF10B020DF10E0175
:1085300003A89847BDF80C307381BDF80E30338125
:108540009DF80B30337509F10109CBE745F621435E
:108550007381F3817382F6E7BBF1010F0CD16AF0EE
:108560007F03C022327086F801B084F83330EB68A4
:10857000F3702B8AB380E6E7C1233370A86806F155
:108580001E026B688342DED0591C696093F900308B
:1085900026F8023FB242F4D1D5E7204600F0B0F908
:1085A00080461EE744290020F0B597B01F460023FF
:1085B0008DF851308DF852308DF8533090F83130BD
:1085C000019205460C4613B1002017B0F0BD91F89A
:1085D000313013F0500FF7D092F900302F2B13D118
:1085E000019B93F900202F2A02D101330193F7E771
:1085F000216A1AB92846FFF767FCE6E708A8FFF7E3
:1086000063FC0028E0D008AC01AB03AA019928461E
:10861000FFF76EFC0028D7D0019B93F90030D3B14F
:10862000002303AA21462846FFF714FE0028CBD0DA
:1086300008AA2B4605F1300C1446186859681646EE
:1086400003C6083363453246F7D1186830602846C0
:10865000FFF730FCD8E73B4603AA21462846FFF740
:10866000F9FDB2E719B101F58961FFF79DBF084631
:1086700070472DE93008134690F831208AB991F8F7
:10868000315015F0500F0CD0D1E900454FF0000CDF
:1086900004F01F0B5BEA0C0403D1BDE83008FFF7C0
:1086A000D9BD0020BDE83008704710B5047800231C
:1086B000CA0342EA5101C25C012B12FA81F189B26C
:1086C00008D1852C14BF0122032213441F2BEFD99C
:1086D000084610BD0122F8E710B5044602F048FD37
:1086E00050B104F5047002F043FD28B1D4F8400401
:1086F000BDE8104002F0EDBA002010BDF8B5044608
:10870000006AA16901B10131012200F04BFC01288E
:10871000054602D800263046F8BD012301461A4618
:10872000206A00F091FC06460028F3D0A26994F874
:1087300033302AB943F0400384F83330A561EAE7C7
:10874000590613D50132AA42F8D023F04003E1695B
:1087500084F83330A369206A8B4207D94F1C3A460C
:1087600000F033FD39460028F4D1D3E74FF0FF3253
:108770002946206A00F029FD0028CBD0A1690029F4
:10878000DCD02A46206A00F020FD0028D6D1C1E7BF
:108790002DE9F04890F833309A07044602D40020BF
:1087A000BDE8F088C16989B9002594F83030E9B294
:1087B0008B422ED301222046FFF760FB01350028B3
:1087C000EDD0037803F07F030370EEE75B06006AE9
:1087D0001CD5D4E9026790F845240932D2B216F1CB
:1087E000FF3B47F1FF3CC2F12005A2F120030CFA48
:1087F00005F52BFA02F22CFA03F32A431A4301324D
:10880000002300F021FC0028CED1C8E700F0FAFCDC
:10881000F9E7002384F8313084F83330206AFFF719
:108820005BFFBDE72DE9F3410026DFF8D080054668
:10883000374695F83030F1B28B4249D300222846B2
:10884000FFF71CFB044600284ED00378C02B2AD02B
:10885000C12B21D0852B47D195F8313003F0370358
:108860008380D8F8003083B10DF103020DF10601C9
:1088700001A898479DF80330BDF806206375BDF840
:108880000430A281E381228263822A6A92F8103244
:1088900043F0010382F8103239462046FFF705FF06
:1088A00001360746C5E795F83320437852064CBF9A
:1088B00043F0020323F002034370D5E90423C0E927
:1088C0000223EB694361D5E90223C0E90623DCE713
:1088D000012205F12401286A00F008FC20B147803C
:1088E000286AFFF7F9FE30B995F8323043F00103FA
:1088F00085F83230002002B0BDE8F0814429002024
:1089000010B590F8313004460BB9012010BD90F835
:1089100033301A0607D503F07F0380F83330BDE803
:108920001040FFF77FBF006AFFF7D6FE0028ECD1AA
:1089300094F8323043F0010384F83230E6E7F8B5BA
:1089400090F831305A0604462ED5006A00F0F8FC43
:10895000236AD3F83C341844B0F1806F47D22046E4
:10896000FFF7CCFE002842D0236AA56993F845247E
:10897000D3F82C34023D95401D4400260127206A7F
:1089800090F8453407FA03F3B3420FD90522A91929
:1089900000F5047002F011FC48B34FF4007200219E
:1089A0000FF0B9FF0136EAE78068D1E794F831307B
:1089B0005B0617D494F8333063F07F0384F83330C8
:1089C000D4E90223D0F83C14551843F10006C4E959
:1089D0000256D4E90423D0F83C14551843F100069C
:1089E000C4E904562046BDE8F840FFF789BF0020DF
:1089F000F8BD10B591F8313013F0500F04461AD07D
:108A000040F60223FFF726FCA8B1302384F831306A
:108A10002046FFF794FF70B1A369E361204600236D
:108A20000022FFF79AFBC12384F833302046BDE8CB
:108A30001040FFF765BF002010BDF0B597B01F468E
:108A400000238DF851308DF852308DF8533090F866
:108A50003130019205460C4613B1002017B0F0BD2D
:108A600091F8313013F0500FF7D092F900302F2BDE
:108A70000ED1019B93F900202F2A02D101330193DB
:108A8000F7E7216A08A8FFF71FFA0028E5D008AC2D
:108A900001AB03AA01992846FFF72AFA0028DCD087
:108AA000019B93F900301BB3002303AA21462846FB
:108AB000FFF7D0FB90B108AA2B4605F1300C144605
:108AC00018685968164603C6083363453246F7D11D
:108AD000186830602846FFF7EDF9D9E7002FBCD0C1
:108AE00003AA21462846FFF784FF0028E3D1B4E714
:108AF00003AA21462846FFF77CFFAFE72DE9F8439C
:108B000016461F4656EA0703054638D090F833301C
:108B10009B0734D5C16991BB006A12F1FF3890F808
:108B2000452402F10902D2B247F1FF39C2F1200413
:108B3000A2F1200309FA04F428FA02F2224329FAE6
:108B400003F31A43541C224600F02CFA01288046F5
:108B500015D9014601232246286A00F075FA70B142
:108B600095F83330C5F81C8063F03F03C5E9026710
:108B700085F833302846BDE8F843FFF7C1BE002032
:108B8000BDE8F8832DE9F34890F8332093070446B5
:108B900003D4002002B0BDE8F088C369002B5AD08E
:108BA00012F04001856939D0226AD0E9020192F8B9
:108BB00045240932D2B210F1FF3B41F1FF3CC2F132
:108BC0002007A2F120060CFA07F72BFA02F23A432B
:108BD0002CFA06F632430132ADB1013B691C5D1B34
:108BE00001912A4492B9D4E90023C4E90223C4E9DB
:108BF000042394F8333063F07F0384F83330204645
:108C0000FFF77EFEC6E70193E561EBE700230199DC
:108C1000206A00F019FA0028E5D1BAE7C5B102AA26
:108C2000006A42F8041D294600F07AFA0028B0DBF9
:108C300007D04FF0FF32A169206A00F0C6FA002881
:108C4000A7D001990029CED0206A00F0DBFAE2E734
:108C50000193C561F5E701209CE7FFFF2DE9F04F87
:108C600090F833308A46990785B00446934668D514
:108C70001A0760D404F11803D9460393D4E90067B6
:108C8000B9F1000F00F0DC80206AD0F8385435408C
:108C9000C5F3080845BBA169002965D094F83330B5
:108CA0005B065AD5D4E9026716F1FF3247F1FF336C
:108CB000CDE9002390F84534009E0933DBB2A3F1DF
:108CC0002002C3F1200026FA03F3019E06FA00F009
:108CD00003433046D040E269034313448B4239D802
:108CE0002046FFF70BFD60B3206AA16990F8452488
:108CF000023991406B0ACD18D0F82C142944B8F1F0
:108D0000000F3DD1B9F5007F3AD3B9F5806FD0F8A7
:108D1000186279D2B14202BF4FF0FF3380F810825F
:108D2000C0F818325246D0F8140202F0DEF940B111
:108D30004FF400754CE0D0E90423FFF70EFA002849
:108D400098D194F8323043F0010384F832304FF078
:108D5000000B88E00131A161C6E7039A00F0E0F959
:108D60000028EEDBBCD0BFE7E3693BB92046FFF744
:108D7000C5FC0028E5D0A369E361B5E7A361B3E7CB
:108D8000C8F500754D4528BF4D46B8F1000F39D1E3
:108D9000D4E90423D4E900679F4208BF964234BF58
:108DA0000122052200F5047002F007FA0028C8D05D
:108DB00040442A465146A8440FF089FDB8F5007F8B
:108DC00006D1206A00F5047002F0D2F90028B8D06C
:108DD000D4E90001D4E90423461941F10007BB425C
:108DE00008BFB242C4E90067AA44A9EB0509BFF471
:108DF00045AF94F8333063F07F0384F83330C4E92F
:108E000004673BE70122CDE7012505FA02F2D31AF8
:108E10004FEA5927BB4228BF3B46B1424FEA4325A0
:108E200008D8CA18B24282BF4FF0FF3280F81082D1
:108E3000C0F818225246D0F8140202F02BF9C5E708
:108E4000D4E90223BB4208BFB24208D2C4E9026798
:108E500094F8333063F07F0384F8333003E0044B3D
:108E60001B68002BF4D1584605B0BDE8F08F00BF59
:108E70004429002070B505460C4659B103680846E0
:108E80005E6810F03AFB2146024633462846BDE8AC
:108E900070401847084670BDF0B5966801F11E0590
:108EA000536831F8020F9E4203D1B0FA80F04009B6
:108EB000F0BD5C1C54607E2893F9004014D8E3B2E6
:108EC000A3F16107192F9CBF203B5CB2C3B2A3F191
:108ED0006107192F98BFA3F1200040B2A04203D12F
:108EE000A942DDD10120E3E70020E1E72DE9F041CF
:108EF00090F8313006460F46904633B302250024E1
:108F000096F83030AB421BD3002229463046FEF79C
:108F1000B5FFD0B10378C12B17D13A1900F11E016A
:108F200030F8023F63B1013444450ED27F2B28BF95
:108F30003F23884202F8013BF2D10135EDB2DFE771
:108F400000233B552046BDE8F08100243C70F9E742
:108F500070B588680D684D6000234A68824218D059
:108F6000541C4C6092F90020D4B2A4F16106192E71
:108F700098BFA4F120024FEAC33444EA530398BFD8
:108F800052B253FA82F2C2F34E0343EAC2339BB2A7
:108F9000E3E7401BC8600138FE280B828CBF00202D
:108FA000012070BD2DE9F84F804693468A4659B39B
:108FB0008D1ED8F83034AB4298BF002505F007036A
:108FC00001249C40C5F3C809E4B22F462E46D8F8C8
:108FD0002C14002201EB1631404602F0EEF888B165
:108FE00010F80930234206F1010610D1F21B5A4550
:108FF0000ED1BAF1000F04D1BBF1010F08BFC8F8C0
:109000002074B81CBDE8F88FD0F82054D1E737465B
:10901000B54217D0D8F83024B2420ED9640014F00B
:10902000FF04DFD109F10103B3F5007F4FF0000920
:109030004FF00104CBD29946D2E700274FF40079D4
:109040003E46EFE70120DDE72DE9F84306468C1E9A
:10905000D0F83004A11881421746984641D8D6F876
:109060002034B8F1000F37D0A34206D3994204D977
:10907000814228BF0021C6F8201404F0070301250F
:10908000D6F82C149D4001EB1431EDB2C4F3C804A2
:109090000122304601F1010902F08FF808B30319EB
:1090A0002A461978114214BF01240024444518D0DF
:1090B0005140013F197017D0520012F0FF02F0D159
:1090C0000133A3EB000C1446BCF5007F4FF0010206
:1090D00049461546E5D1DBE7A34288BFC6F82044E0
:1090E000CBE70020BDE8F8830120FBE738B50C464C
:1090F000D0F83834496890F8455419402368023B49
:10910000AB4003EB5123D0F82C1400F50470194444
:1091100002F053F818B16368C3F30803184438BD6C
:1091200038B5D0F8303401338B420C46154602D2A4
:109130004FF0FF3038BDD0F82414002201EBD411D9
:1091400000F5047002F039F80028F1D0A400C4F34F
:10915000080403595A1C1ABF2B6001200020E9E7BC
:1091600073B502AD064645F8041D00242A46019950
:109170003046FFF7D5FF002805DB04F10104F5D1E7
:10918000204602B070BD0024FAE770B54B68D0F8F5
:1091900038441C4013444B6090F845340933144460
:1091A000DBB206460D46DC406CB12B7A29681BB158
:1091B00001312960013CF7E72A463046FFF7B0FF4E
:1091C0000128F7D070BD0120FCE7012938B50C4615
:1091D000154601D8002038BDD0F8303401338B4219
:1091E000F8D3D0F82414012201EBD41100F5047057
:1091F00001F0E3FF0028EDD0A400C4F308040551FA
:109200000120E8E72DE9F34107460C460E4601AA86
:1092100021463846FFF784FFB0F100081DDB00222D
:1092200021463846FFF7D1FF0546B0B1621CB8F1C0
:10923000000F02D0019B934207D00023921B3146BE
:109240003846FFF701FF40B1019E019CB8F1000FC5
:10925000DDD1284602B0BDE8F0810025F9E7FFFF27
:1092600070B504461E46002380F84434C0F840140C
:10927000416003704FF0FF30A060C4F8141284F80E
:109280001032C4F818021546CAB1042A01D90020C8
:1092900070BD1A46194604F5047001F08EFF0028CF
:1092A000F5D005F18055013D00F5DF702D01431922
:1092B0001A79002AEBD0425D5206E8D19E6800225E
:1092C000314604F5047001F078FF05460028DED031
:1092D0001A490522033010F02CF901460028D6D196
:1092E00095F86C30092BD2D12B6D3344C4F824345B
:1092F0006B6DC4F82834AB6D3344C4F82C34EB6D7B
:10930000C4F830342B6EC4F8343495F86D3084F8DA
:1093100045340125093305FA03F3C4F83C34013B15
:10932000C4F83834C4F820042A462046FFF73AFE31
:10933000402384F844342846AAE700BF52DF0100E6
:1093400010B50446D0F83414FFF70AFF94F84534FA
:109350000933DBB2984010BD10B50446243001F04B
:1093600007FF48B104F50D7001F002FF20B120683D
:10937000BDE8104001F0ADBC002010BD814230B509
:1093800007D00D4604460FCD0FC40FCD0FC42B6878
:10939000236030BD024638B552F8105F04462946B6
:1093A000806801F09DF940B1A3783DB943F04003D6
:1093B000A370A37863F07F03A37038BD22690135E1
:1093C000AA42F6D023F04003F2E7FFFFF8B5077892
:1093D00017F04007044602D000263046F8BD426927
:1093E000154B9A42F8D8FFF7D5FF06460028F3D070
:1093F000A36825699A795B69023D95401D44A06880
:109400000379F9B28B420DD905222944243001F0A9
:10941000D4FE01370028DFD04FF4007200210FF096
:109420007AFAECE782794FF400739340626912FA9A
:1094300083F36361D1E700BFFFFD1F0010B5044651
:1094400080680A462430A16901F0B7FE20B1A388E4
:1094500003F00F0300EB431010BD70B50478054610
:109460000E4694B9242221460FF055FAAE60F379E6
:10947000102B03D0202B06D0204603E040230120F0
:109480002B70A87070BD8023F9E70020FAE738B58B
:10949000CB6804460D4623B98968BDE83840FFF71C
:1094A000DCBF242200210FF036FA102301202370A4
:1094B000A070AB68A360EB68236238BD2DE9F04F64
:1094C00083780446D80785B08A4615466AD523783E
:1094D000190732D5E36962699B1A9D4228BF1D4670
:1094E00004F110032E464FF000080193002E00F007
:1094F0009F8022786769A0685306C7F3080B4FEA7C
:10950000572123D5026A1144D4F80890BBF1000F0B
:109510004FD1B6F5007F4CD3D9F82C20914248D0DA
:10952000B6F5806F5ED25246D9F8280001F099FD59
:10953000002837D04FF400774EE05A06D0D5A36804
:109540001A896369C3EB42139BB2C6E790F80580A2
:1095500008EA0108BBF1000F08D1B8F1000F05D1EE
:109560006FB912064CBF026A226A2261A2682169A1
:10957000907952690239814011444144C4E713078C
:10958000216905D5A278570602D501312161EDE7A1
:10959000019A01F040F8002804DBE7D1237813F0AA
:1095A000D00F45D1637843F0020363704FF0FF3072
:1095B0003FE0CBF50077B7424FF0000209F12400FD
:1095C00028BF374601F0F9FD0028EBD000EB0B0176
:1095D0003A4650460FF07BF963693B44BA446361F5
:1095E000F61B83E7207840064FEA562306D499F805
:1095F0000400A0EB0800834228BF034691424FEAD3
:10960000432707D95246D9F8280001F000FD002869
:10961000E2D1C7E7C8188242F4D209F12400CDE9AB
:10962000021301F0A5FDDDE902130028EAD1B9E734
:10963000A81B05B0BDE8F08F2DE9F04F1F4685B09F
:1096400081460E46924601F1FF3801244FF0FF3368
:1096500004F1FF3B2546544520DA01220DF10F01AC
:109660004846FFF72BFF0128034617D19DF90F103D
:109670000D29F0D008F8011F3FB90A290CD10023A9
:109680007355284605B0BDE8F08F019038460FF0BD
:1096900003FF019B0028F2D10134D9E7002B01DB45
:1096A0005D46ECE74FF0FF35EBE7436937B5C3F3B1
:1096B0004315044605B199B901220DF10701204671
:1096C000FFF7FCFE40B2012802D0002003B030BDFD
:1096D00063691F33A0686361343000EB4510F5E720
:1096E0002033F7E72DE9F0410E460178076904467B
:1096F00039B34069B04206D03EB92661A3786661AD
:1097000023F02003A37001201DE00B0712D5E369AD
:10971000B34216D3D4F808C0A2789CF806300933B7
:10972000DBB2751E520625FA03F50ED5236A1D44D9
:109730002561E3E74D06EDD5A3681B89B6EB431F12
:10974000DCD927610020BDE8F081421E22FA03F334
:109750009D4200D398B90B064CBFDCF82030236A39
:10976000236104F11008002DC8D042462169A06889
:1097700000F051FF002805F1FF35F4DCE1E7ED1AB8
:10978000EFE7F8B50F4616460021242204461D4691
:109790000FF0C1F8B868A68000F1340206F00F0699
:1097A00002EB46123B6AA060E360D17A0E073FD419
:1097B00001F037012170D37A13F0180F9DF818309B
:1097C000E37008BF41F0080105F0030308BF2170F2
:1097D000012B27D0022B23D053BB6B0528D40123A8
:1097E000A370A1788F0706D5237813F0110F1FD12E
:1097F00043F02003237005F008030B43A370C36AF2
:10980000A361518B938A6E0541EA034114D559B97E
:10981000A37863F07F03A3706B0411D40120F8BD1B
:109820000323DDE70223DBE700F0D4FF0028EFD1BC
:1098300000202070A070F2E72162D369E361EBE7BA
:10984000E1692046FFF74EFF0028F1D0E6E72DE959
:10985000F743037807460D469146002B3DD10B7820
:1098600013F0D00F39D04C6914F01F0435D12646BF
:1098700000212846D5F81480FFF717FF68B3037856
:109880005BB32E2B1FD0E52B1DD0C27A12F008013E
:109890001BD16CB1421E0A30CB0143EA510112F8D0
:1098A000013F53FA81F18242C9B2F5D18E4214D1FF
:1098B00000944B46C8F34F1229463846FFF761FF24
:1098C00003B0BDE8F0830024D2E70F2AFBD15A068B
:1098D000CED503F01F04467BCAE70020F0E7FFFF68
:1098E00037B503780446002B39D090F90230002BAD
:1098F0002FDA0121FFF7A2FD054630B9637843F066
:1099000001036370002003B030BD0378E52BF5D070
:10991000237803F03703C37223781B0744BFE3693E
:10992000C361236A43831B0C83820E4B1B6863B1A4
:109930000DF103020DF1060101A89847BDF80430AE
:109940002B836B82BDF80630EB82A37803F07F0394
:10995000A370A068FFF700FD0028CFD0D3E7012057
:10996000D1E700BF4429002010B50446FFF7B8FF37
:1099700000232370A37010BD70B594B01E46002361
:10998000ADF82C308DF82E300378019205460C4648
:1099900013B1002014B070BD0B7813F0D00FF8D0C5
:1099A00092F900302F2B13D1019B93F900202F2A1D
:1099B00002D101330193F7E7A1681AB92846FFF7EE
:1099C0004CFDE7E70BA8FFF748FD0028E1D00BAC02
:1099D00001AB03AA0199284600F0D0FC0028D8D09A
:1099E000019B93F900307BB1002303AA214628464E
:1099F00000F09EFB0028CCD00BA82946FFF7BEFC48
:109A00002846FFF7B1FFE2E7334603AA214628467E
:109A100000F08EFBBEE719B101F24441FFF7ACBF85
:109A200008467047F0B50B7813F0D00F89B00446A4
:109A30000E4602D1002009B0F0BD40F6022300F02E
:109A400077FB0028F6D001251027A5702770204647
:109A5000FFF7BCFC0028EDD02369236200212046DB
:109A6000FFF740FE2046FFF73BFF0028E2D02946E3
:109A70002046FFF7E3FC01460028DBD0C772202216
:109A800068460EF024FF2E238DF80030294620234F
:109A90000DF8013001310B29FAD1A068216A8379D0
:109AA00002399940436901221944243001F085FBB1
:109AB00005460028BED0694620220EF008FF2E235E
:109AC0008DF80130336AADF81A3020221B0C69463C
:109AD000A818ADF814300EF0FAFEA068FFF73CFCB1
